{
  "contractName": "Catanstitution",
  "abi": [
    {
      "anonymous": false,
      "inputs": [
        {
          "indexed": true,
          "internalType": "address",
          "name": "account",
          "type": "address"
        },
        {
          "indexed": true,
          "internalType": "address",
          "name": "operator",
          "type": "address"
        },
        {
          "indexed": false,
          "internalType": "bool",
          "name": "approved",
          "type": "bool"
        }
      ],
      "name": "ApprovalForAll",
      "type": "event"
    },
    {
      "anonymous": false,
      "inputs": [
        {
          "indexed": true,
          "internalType": "bytes32",
          "name": "role",
          "type": "bytes32"
        },
        {
          "indexed": true,
          "internalType": "bytes32",
          "name": "previousAdminRole",
          "type": "bytes32"
        },
        {
          "indexed": true,
          "internalType": "bytes32",
          "name": "newAdminRole",
          "type": "bytes32"
        }
      ],
      "name": "RoleAdminChanged",
      "type": "event"
    },
    {
      "anonymous": false,
      "inputs": [
        {
          "indexed": true,
          "internalType": "bytes32",
          "name": "role",
          "type": "bytes32"
        },
        {
          "indexed": true,
          "internalType": "address",
          "name": "account",
          "type": "address"
        },
        {
          "indexed": true,
          "internalType": "address",
          "name": "sender",
          "type": "address"
        }
      ],
      "name": "RoleGranted",
      "type": "event"
    },
    {
      "anonymous": false,
      "inputs": [
        {
          "indexed": true,
          "internalType": "bytes32",
          "name": "role",
          "type": "bytes32"
        },
        {
          "indexed": true,
          "internalType": "address",
          "name": "account",
          "type": "address"
        },
        {
          "indexed": true,
          "internalType": "address",
          "name": "sender",
          "type": "address"
        }
      ],
      "name": "RoleRevoked",
      "type": "event"
    },
    {
      "anonymous": false,
      "inputs": [
        {
          "indexed": true,
          "internalType": "address",
          "name": "operator",
          "type": "address"
        },
        {
          "indexed": true,
          "internalType": "address",
          "name": "from",
          "type": "address"
        },
        {
          "indexed": true,
          "internalType": "address",
          "name": "to",
          "type": "address"
        },
        {
          "indexed": false,
          "internalType": "uint256[]",
          "name": "ids",
          "type": "uint256[]"
        },
        {
          "indexed": false,
          "internalType": "uint256[]",
          "name": "values",
          "type": "uint256[]"
        }
      ],
      "name": "TransferBatch",
      "type": "event"
    },
    {
      "anonymous": false,
      "inputs": [
        {
          "indexed": true,
          "internalType": "address",
          "name": "operator",
          "type": "address"
        },
        {
          "indexed": true,
          "internalType": "address",
          "name": "from",
          "type": "address"
        },
        {
          "indexed": true,
          "internalType": "address",
          "name": "to",
          "type": "address"
        },
        {
          "indexed": false,
          "internalType": "uint256",
          "name": "id",
          "type": "uint256"
        },
        {
          "indexed": false,
          "internalType": "uint256",
          "name": "value",
          "type": "uint256"
        }
      ],
      "name": "TransferSingle",
      "type": "event"
    },
    {
      "anonymous": false,
      "inputs": [
        {
          "indexed": false,
          "internalType": "string",
          "name": "value",
          "type": "string"
        },
        {
          "indexed": true,
          "internalType": "uint256",
          "name": "id",
          "type": "uint256"
        }
      ],
      "name": "URI",
      "type": "event"
    },
    {
      "inputs": [],
      "name": "CKG",
      "outputs": [
        {
          "internalType": "uint256",
          "name": "",
          "type": "uint256"
        }
      ],
      "stateMutability": "view",
      "type": "function",
      "constant": true
    },
    {
      "inputs": [],
      "name": "CKG_MINTER_ROLE",
      "outputs": [
        {
          "internalType": "bytes32",
          "name": "",
          "type": "bytes32"
        }
      ],
      "stateMutability": "view",
      "type": "function",
      "constant": true
    },
    {
      "inputs": [],
      "name": "CVR",
      "outputs": [
        {
          "internalType": "uint256",
          "name": "",
          "type": "uint256"
        }
      ],
      "stateMutability": "view",
      "type": "function",
      "constant": true
    },
    {
      "inputs": [],
      "name": "DEFAULT_ADMIN_ROLE",
      "outputs": [
        {
          "internalType": "bytes32",
          "name": "",
          "type": "bytes32"
        }
      ],
      "stateMutability": "view",
      "type": "function",
      "constant": true
    },
    {
      "inputs": [
        {
          "internalType": "address",
          "name": "account",
          "type": "address"
        },
        {
          "internalType": "uint256",
          "name": "id",
          "type": "uint256"
        }
      ],
      "name": "balanceOf",
      "outputs": [
        {
          "internalType": "uint256",
          "name": "",
          "type": "uint256"
        }
      ],
      "stateMutability": "view",
      "type": "function",
      "constant": true
    },
    {
      "inputs": [
        {
          "internalType": "address[]",
          "name": "accounts",
          "type": "address[]"
        },
        {
          "internalType": "uint256[]",
          "name": "ids",
          "type": "uint256[]"
        }
      ],
      "name": "balanceOfBatch",
      "outputs": [
        {
          "internalType": "uint256[]",
          "name": "",
          "type": "uint256[]"
        }
      ],
      "stateMutability": "view",
      "type": "function",
      "constant": true
    },
    {
      "inputs": [
        {
          "internalType": "address",
          "name": "account",
          "type": "address"
        },
        {
          "internalType": "uint256",
          "name": "id",
          "type": "uint256"
        },
        {
          "internalType": "uint256",
          "name": "value",
          "type": "uint256"
        }
      ],
      "name": "burn",
      "outputs": [],
      "stateMutability": "nonpayable",
      "type": "function"
    },
    {
      "inputs": [
        {
          "internalType": "address",
          "name": "account",
          "type": "address"
        },
        {
          "internalType": "uint256[]",
          "name": "ids",
          "type": "uint256[]"
        },
        {
          "internalType": "uint256[]",
          "name": "values",
          "type": "uint256[]"
        }
      ],
      "name": "burnBatch",
      "outputs": [],
      "stateMutability": "nonpayable",
      "type": "function"
    },
    {
      "inputs": [],
      "name": "catanKeeper",
      "outputs": [
        {
          "internalType": "contract CatanKeeper",
          "name": "",
          "type": "address"
        }
      ],
      "stateMutability": "view",
      "type": "function",
      "constant": true
    },
    {
      "inputs": [],
      "name": "constitution",
      "outputs": [
        {
          "internalType": "contract Constitution",
          "name": "",
          "type": "address"
        }
      ],
      "stateMutability": "view",
      "type": "function",
      "constant": true
    },
    {
      "inputs": [],
      "name": "cvrHolders",
      "outputs": [
        {
          "internalType": "contract VoterPool",
          "name": "",
          "type": "address"
        }
      ],
      "stateMutability": "view",
      "type": "function",
      "constant": true
    },
    {
      "inputs": [
        {
          "internalType": "bytes32",
          "name": "role",
          "type": "bytes32"
        }
      ],
      "name": "getRoleAdmin",
      "outputs": [
        {
          "internalType": "bytes32",
          "name": "",
          "type": "bytes32"
        }
      ],
      "stateMutability": "view",
      "type": "function",
      "constant": true
    },
    {
      "inputs": [
        {
          "internalType": "bytes32",
          "name": "role",
          "type": "bytes32"
        },
        {
          "internalType": "address",
          "name": "account",
          "type": "address"
        }
      ],
      "name": "grantRole",
      "outputs": [],
      "stateMutability": "nonpayable",
      "type": "function"
    },
    {
      "inputs": [
        {
          "internalType": "bytes32",
          "name": "role",
          "type": "bytes32"
        },
        {
          "internalType": "address",
          "name": "account",
          "type": "address"
        }
      ],
      "name": "hasRole",
      "outputs": [
        {
          "internalType": "bool",
          "name": "",
          "type": "bool"
        }
      ],
      "stateMutability": "view",
      "type": "function",
      "constant": true
    },
    {
      "inputs": [
        {
          "internalType": "address",
          "name": "account",
          "type": "address"
        },
        {
          "internalType": "address",
          "name": "operator",
          "type": "address"
        }
      ],
      "name": "isApprovedForAll",
      "outputs": [
        {
          "internalType": "bool",
          "name": "",
          "type": "bool"
        }
      ],
      "stateMutability": "view",
      "type": "function",
      "constant": true
    },
    {
      "inputs": [],
      "name": "keeperOfTheCatanstitution",
      "outputs": [
        {
          "internalType": "contract FluidVoteTitle",
          "name": "",
          "type": "address"
        }
      ],
      "stateMutability": "view",
      "type": "function",
      "constant": true
    },
    {
      "inputs": [
        {
          "internalType": "bytes32",
          "name": "role",
          "type": "bytes32"
        },
        {
          "internalType": "address",
          "name": "account",
          "type": "address"
        }
      ],
      "name": "renounceRole",
      "outputs": [],
      "stateMutability": "nonpayable",
      "type": "function"
    },
    {
      "inputs": [
        {
          "internalType": "bytes32",
          "name": "role",
          "type": "bytes32"
        },
        {
          "internalType": "address",
          "name": "account",
          "type": "address"
        }
      ],
      "name": "revokeRole",
      "outputs": [],
      "stateMutability": "nonpayable",
      "type": "function"
    },
    {
      "inputs": [],
      "name": "rulerOfCatan",
      "outputs": [
        {
          "internalType": "contract FluidVoteTitle",
          "name": "",
          "type": "address"
        }
      ],
      "stateMutability": "view",
      "type": "function",
      "constant": true
    },
    {
      "inputs": [
        {
          "internalType": "address",
          "name": "from",
          "type": "address"
        },
        {
          "internalType": "address",
          "name": "to",
          "type": "address"
        },
        {
          "internalType": "uint256[]",
          "name": "ids",
          "type": "uint256[]"
        },
        {
          "internalType": "uint256[]",
          "name": "amounts",
          "type": "uint256[]"
        },
        {
          "internalType": "bytes",
          "name": "data",
          "type": "bytes"
        }
      ],
      "name": "safeBatchTransferFrom",
      "outputs": [],
      "stateMutability": "nonpayable",
      "type": "function"
    },
    {
      "inputs": [
        {
          "internalType": "address",
          "name": "from",
          "type": "address"
        },
        {
          "internalType": "address",
          "name": "to",
          "type": "address"
        },
        {
          "internalType": "uint256",
          "name": "id",
          "type": "uint256"
        },
        {
          "internalType": "uint256",
          "name": "amount",
          "type": "uint256"
        },
        {
          "internalType": "bytes",
          "name": "data",
          "type": "bytes"
        }
      ],
      "name": "safeTransferFrom",
      "outputs": [],
      "stateMutability": "nonpayable",
      "type": "function"
    },
    {
      "inputs": [
        {
          "internalType": "address",
          "name": "operator",
          "type": "address"
        },
        {
          "internalType": "bool",
          "name": "approved",
          "type": "bool"
        }
      ],
      "name": "setApprovalForAll",
      "outputs": [],
      "stateMutability": "nonpayable",
      "type": "function"
    },
    {
      "inputs": [
        {
          "internalType": "uint256",
          "name": "",
          "type": "uint256"
        }
      ],
      "name": "uri",
      "outputs": [
        {
          "internalType": "string",
          "name": "",
          "type": "string"
        }
      ],
      "stateMutability": "view",
      "type": "function",
      "constant": true
    },
    {
      "inputs": [
        {
          "internalType": "contract VoterPool",
          "name": "_cvrHolders",
          "type": "address"
        },
        {
          "internalType": "contract Constitution",
          "name": "_catanstitution",
          "type": "address"
        },
        {
          "internalType": "contract CatanKeeper",
          "name": "_catanKeeper",
          "type": "address"
        },
        {
          "internalType": "contract FluidVoteTitle",
          "name": "_rulerOfCatan",
          "type": "address"
        },
        {
          "internalType": "contract FluidVoteTitle",
          "name": "_keeperOfTheCatanstitution",
          "type": "address"
        }
      ],
      "name": "initialize",
      "outputs": [],
      "stateMutability": "nonpayable",
      "type": "function"
    },
    {
      "inputs": [
        {
          "internalType": "address",
          "name": "account",
          "type": "address"
        },
        {
          "internalType": "uint256",
          "name": "id",
          "type": "uint256"
        },
        {
          "internalType": "uint256",
          "name": "amount",
          "type": "uint256"
        }
      ],
      "name": "mint",
      "outputs": [],
      "stateMutability": "nonpayable",
      "type": "function"
    },
    {
      "inputs": [
        {
          "internalType": "bytes4",
          "name": "interfaceId",
          "type": "bytes4"
        }
      ],
      "name": "supportsInterface",
      "outputs": [
        {
          "internalType": "bool",
          "name": "",
          "type": "bool"
        }
      ],
      "stateMutability": "view",
      "type": "function",
      "constant": true
    }
  ],
  "bytecode": "0x608060405234801561001057600080fd5b506126f2806100206000396000f3fe608060405234801561001057600080fd5b506004361061013d5760003560e01c8062fdd58e1461014257806301ffc9a7146101685780630e89341c1461018b5780631459457a146101ab578063156e29f6146101c05780632124f453146101d3578063248a9ca3146101f357806324f3b616146102065780632eb2c2d6146102195780632f2ff15d1461022c57806336568abe1461023f5780634e1273f4146102525780634e2ca934146102725780636b20c4541461028557806391d1485414610298578063a217fddf146102ab578063a22cb465146102b3578063aa89f57c146102c6578063aeb5e8cc146102ce578063b7160dee146102ab578063c96b9e29146102e1578063d547741f146102f4578063e985e9c514610307578063f242432a14610343578063f275655d14610356578063f5298aca1461036b575b600080fd5b610155610150366004611dab565b61037e565b6040519081526020015b60405180910390f35b61017b610176366004611f1c565b610417565b604051901515815260200161015f565b61019e610199366004611ede565b610428565b60405161015f9190612195565b6101be6101b9366004611f56565b6104bc565b005b6101be6101ce366004611dd7565b610734565b60fb546101e6906001600160a01b031681565b60405161015f919061209d565b610155610201366004611ede565b61082c565b60ff546101e6906001600160a01b031681565b6101be610227366004611bee565b610841565b6101be61023a366004611ef7565b610a94565b6101be61024d366004611ef7565b610ab1565b610265610260366004611e0c565b610b2f565b60405161015f9190612154565b60fd546101e6906001600160a01b031681565b6101be610293366004611d03565b610c58565b61017b6102a6366004611ef7565b610c9b565b610155600081565b6101be6102c1366004611d78565b610cc6565b610155600181565b60fc546101e6906001600160a01b031681565b60fe546101e6906001600160a01b031681565b6101be610302366004611ef7565b610d9d565b61017b610315366004611bb5565b6001600160a01b03918216600090815260666020908152604080832093909416825291909152205460ff1690565b6101be610351366004611c9b565b610dba565b61015560008051602061267283398151915281565b6101be610379366004611dd7565b610f1a565b60006001600160a01b0383166103ef5760405162461bcd60e51b815260206004820152602b60248201527f455243313135353a2062616c616e636520717565727920666f7220746865207a60448201526a65726f206164647265737360a81b60648201526084015b60405180910390fd5b5060009081526065602090815260408083206001600160a01b03949094168352929052205490565b600061042282610f5d565b92915050565b6060606780546104379061249d565b80601f01602080910402602001604051908101604052809291908181526020018280546104639061249d565b80156104b05780601f10610485576101008083540402835291602001916104b0565b820191906000526020600020905b81548152906001019060200180831161049357829003601f168201915b50505050509050919050565b600054610100900460ff16806104d5575060005460ff16155b6104f15760405162461bcd60e51b81526004016103e6906122c2565b600054610100900460ff16158015610513576000805461ffff19166101011790555b6105346040518060600160405280602b8152602001612692602b9139610f82565b61053f600033611007565b61057f33600060066040518060400160405280601a815260200179436174616e737469747574696f6e566f74696e6752696768747360301b815250611011565b60fb80546001600160a01b0319166001600160a01b0388169081179091556040516338db6dd360e01b81526338db6dd3906105be90339060040161209d565b600060405180830381600087803b1580156105d857600080fd5b505af11580156105ec573d6000803e3d6000fd5b505060fc80546001600160a01b03199081166001600160a01b0388811691821790935560fd8054831688851617905560fe8054909216928a1692831790915560405163272a1d9360e11b8152919350634e543b26925061064e9160040161209d565b600060405180830381600087803b15801561066857600080fd5b505af115801561067c573d6000803e3d6000fd5b505060ff80546001600160a01b0319166001600160a01b03881690811790915560405163a2b1834b60e01b81523060048201526001602482015290925063a2b1834b9150604401600060405180830381600087803b1580156106dd57600080fd5b505af11580156106f1573d6000803e3d6000fd5b505060ff5461071a925060008051602061267283398151915291506001600160a01b0316611007565b801561072c576000805461ff00191690555b505050505050565b600182148015610757575061075760008051602061267283398151915233610c9b565b80610803575081158015610803575060fd60009054906101000a90046001600160a01b03166001600160a01b031663e534155d6040518163ffffffff1660e01b8152600401602060405180830381600087803b1580156107b657600080fd5b505af11580156107ca573d6000803e3d6000fd5b505050506040513d601f19601f820116820180604052508101906107ee9190611b98565b6001600160a01b0316336001600160a01b0316145b61080c57600080fd5b61082783838360405180602001604052806000815250611011565b505050565b600090815260c9602052604090206001015490565b81518351146108625760405162461bcd60e51b81526004016103e69061239d565b6001600160a01b0384166108885760405162461bcd60e51b81526004016103e69061227d565b6001600160a01b0385163314806108a457506108a48533610315565b61090b5760405162461bcd60e51b815260206004820152603260248201527f455243313135353a207472616e736665722063616c6c6572206973206e6f74206044820152711bdddb995c881b9bdc88185c1c1c9bdd995960721b60648201526084016103e6565b3360005b8451811015610a4057600085828151811061092c5761092c612535565b60200260200101519050600085838151811061094a5761094a612535565b60209081029190910181015160008481526065835260408082206001600160a01b038e16835290935291909120549091508181101561099b5760405162461bcd60e51b81526004016103e690612353565b6109a5828261243f565b6065600085815260200190815260200160002060008c6001600160a01b03166001600160a01b0316815260200190815260200160002081905550816065600085815260200190815260200160002060008b6001600160a01b03166001600160a01b031681526020019081526020016000206000828254610a259190612408565b9250508190555050505080610a3990612504565b905061090f565b50846001600160a01b0316866001600160a01b0316826001600160a01b03166000805160206126328339815191528787604051610a7e929190612167565b60405180910390a461072c818787878787611102565b610a9d8261082c565b610aa7813361126d565b61082783836112d1565b6001600160a01b0381163314610b215760405162461bcd60e51b815260206004820152602f60248201527f416363657373436f6e74726f6c3a2063616e206f6e6c792072656e6f756e636560448201526e103937b632b9903337b91039b2b63360891b60648201526084016103e6565b610b2b8282611357565b5050565b60608151835114610b945760405162461bcd60e51b815260206004820152602960248201527f455243313135353a206163636f756e747320616e6420696473206c656e677468604482015268040dad2e6dac2e8c6d60bb1b60648201526084016103e6565b600083516001600160401b03811115610baf57610baf61254b565b604051908082528060200260200182016040528015610bd8578160200160208202803683370190505b50905060005b8451811015610c5057610c23858281518110610bfc57610bfc612535565b6020026020010151858381518110610c1657610c16612535565b602002602001015161037e565b828281518110610c3557610c35612535565b6020908102919091010152610c4981612504565b9050610bde565b509392505050565b6001600160a01b038316331480610c745750610c748333610315565b610c905760405162461bcd60e51b81526004016103e690612234565b6108278383836113be565b600091825260c9602090815260408084206001600160a01b0393909316845291905290205460ff1690565b336001600160a01b0383161415610d315760405162461bcd60e51b815260206004820152602960248201527f455243313135353a2073657474696e6720617070726f76616c20737461747573604482015268103337b91039b2b63360b91b60648201526084016103e6565b3360008181526066602090815260408083206001600160a01b03871680855290835292819020805460ff191686151590811790915590519081529192917f17307eab39ab6107e8899845ad3d59bd9653f200f220920489ca2b5937696c31910160405180910390a35050565b610da68261082c565b610db0813361126d565b6108278383611357565b6001600160a01b038416610de05760405162461bcd60e51b81526004016103e69061227d565b6001600160a01b038516331480610dfc5750610dfc8533610315565b610e185760405162461bcd60e51b81526004016103e690612234565b33610e38818787610e2888611538565b610e3188611538565b5050505050565b60008481526065602090815260408083206001600160a01b038a16845290915290205483811015610e7b5760405162461bcd60e51b81526004016103e690612353565b610e85848261243f565b60008681526065602090815260408083206001600160a01b038c81168552925280832093909355881681529081208054869290610ec3908490612408565b909155505060408051868152602081018690526001600160a01b03808916928a82169291861691600080516020612652833981519152910160405180910390a4610f11828888888888611583565b50505050505050565b6001600160a01b038316331480610f365750610f368333610315565b610f525760405162461bcd60e51b81526004016103e690612234565b61082783838361164d565b60006001600160e01b03198216637965db0b60e01b1480610422575061042282611749565b600054610100900460ff1680610f9b575060005460ff16155b610fb75760405162461bcd60e51b81526004016103e6906122c2565b600054610100900460ff16158015610fd9576000805461ffff19166101011790555b610fe1611799565b610fe9611799565b610ff282611805565b8015610b2b576000805461ff00191690555050565b610b2b82826112d1565b6001600160a01b0384166110715760405162461bcd60e51b815260206004820152602160248201527f455243313135353a206d696e7420746f20746865207a65726f206164647265736044820152607360f81b60648201526084016103e6565b3361108281600087610e2888611538565b60008481526065602090815260408083206001600160a01b0389168452909152812080548592906110b4908490612408565b909155505060408051858152602081018590526001600160a01b038088169260009291851691600080516020612652833981519152910160405180910390a4610e3181600087878787611583565b6001600160a01b0384163b1561072c5760405163bc197c8160e01b81526001600160a01b0385169063bc197c819061114690899089908890889088906004016120b1565b602060405180830381600087803b15801561116057600080fd5b505af1925050508015611190575060408051601f3d908101601f1916820190925261118d91810190611f39565b60015b61123d5761119c612561565b806308c379a014156111d657506111b161257d565b806111bc57506111d8565b8060405162461bcd60e51b81526004016103e69190612195565b505b60405162461bcd60e51b815260206004820152603460248201527f455243313135353a207472616e7366657220746f206e6f6e20455243313135356044820152732932b1b2b4bb32b91034b6b83632b6b2b73a32b960611b60648201526084016103e6565b6001600160e01b0319811663bc197c8160e01b14610f115760405162461bcd60e51b81526004016103e6906121a8565b6112778282610c9b565b610b2b5761128f816001600160a01b03166014611865565b61129a836020611865565b6040516020016112ab92919061202e565b60408051601f198184030181529082905262461bcd60e51b82526103e691600401612195565b6112db8282610c9b565b610b2b57600082815260c9602090815260408083206001600160a01b03851684529091529020805460ff191660011790556113133390565b6001600160a01b0316816001600160a01b0316837f2f8788117e7eff1d82e926ec794901d17c78024a50270940304540a733656f0d60405160405180910390a45050565b6113618282610c9b565b15610b2b57600082815260c9602090815260408083206001600160a01b0385168085529252808320805460ff1916905551339285917ff6391f5c32d9c69d2a47ea670b442974b53935d1edc7fd64eb21e047a839171b9190a45050565b6001600160a01b0383166113e45760405162461bcd60e51b81526004016103e690612310565b80518251146114055760405162461bcd60e51b81526004016103e69061239d565b604080516020810190915260009081905233905b83518110156114eb57600084828151811061143657611436612535565b60200260200101519050600084838151811061145457611454612535565b60209081029190910181015160008481526065835260408082206001600160a01b038c1683529093529190912054909150818110156114a55760405162461bcd60e51b81526004016103e6906121f0565b6114af828261243f565b60009384526065602090815260408086206001600160a01b038c16875290915290932092909255508190506114e381612504565b915050611419565b5060006001600160a01b0316846001600160a01b0316826001600160a01b0316600080516020612632833981519152868660405161152a929190612167565b60405180910390a450505050565b6040805160018082528183019092526060916000919060208083019080368337019050509050828160008151811061157257611572612535565b602090810291909101015292915050565b6001600160a01b0384163b1561072c5760405163f23a6e6160e01b81526001600160a01b0385169063f23a6e61906115c7908990899088908890889060040161210f565b602060405180830381600087803b1580156115e157600080fd5b505af1925050508015611611575060408051601f3d908101601f1916820190925261160e91810190611f39565b60015b61161d5761119c612561565b6001600160e01b0319811663f23a6e6160e01b14610f115760405162461bcd60e51b81526004016103e6906121a8565b6001600160a01b0383166116735760405162461bcd60e51b81526004016103e690612310565b336116a38185600061168487611538565b61168d87611538565b5050604080516020810190915260009052505050565b60008381526065602090815260408083206001600160a01b0388168452909152902054828110156116e65760405162461bcd60e51b81526004016103e6906121f0565b6116f0838261243f565b60008581526065602090815260408083206001600160a01b038a81168086529184528285209590955581518981529283018890529293861691600080516020612652833981519152910160405180910390a45050505050565b60006001600160e01b03198216636cdb3d1360e11b148061177a57506001600160e01b031982166303a24d0760e21b145b8061042257506301ffc9a760e01b6001600160e01b0319831614610422565b600054610100900460ff16806117b2575060005460ff16155b6117ce5760405162461bcd60e51b81526004016103e6906122c2565b600054610100900460ff161580156117f0576000805461ffff19166101011790555b8015611802576000805461ff00191690555b50565b600054610100900460ff168061181e575060005460ff16155b61183a5760405162461bcd60e51b81526004016103e6906122c2565b600054610100900460ff1615801561185c576000805461ffff19166101011790555b610ff282611a07565b60606000611874836002612420565b61187f906002612408565b6001600160401b038111156118965761189661254b565b6040519080825280601f01601f1916602001820160405280156118c0576020820181803683370190505b509050600360fc1b816000815181106118db576118db612535565b60200101906001600160f81b031916908160001a905350600f60fb1b8160018151811061190a5761190a612535565b60200101906001600160f81b031916908160001a905350600061192e846002612420565b611939906001612408565b90505b60018111156119b1576f181899199a1a9b1b9c1cb0b131b232b360811b85600f166010811061196d5761196d612535565b1a60f81b82828151811061198357611983612535565b60200101906001600160f81b031916908160001a90535060049490941c936119aa81612486565b905061193c565b508315611a005760405162461bcd60e51b815260206004820181905260248201527f537472696e67733a20686578206c656e67746820696e73756666696369656e7460448201526064016103e6565b9392505050565b8051610b2b906067906020840190828054611a219061249d565b90600052602060002090601f016020900481019282611a435760008555611a89565b82601f10611a5c57805160ff1916838001178555611a89565b82800160010185558215611a89579182015b82811115611a89578251825591602001919060010190611a6e565b50611a95929150611a99565b5090565b5b80821115611a955760008155600101611a9a565b600082601f830112611abf57600080fd5b81356020611acc826123e5565b604051611ad982826124d8565b8381528281019150858301600585901b87018401881015611af957600080fd5b60005b85811015611b1857813584529284019290840190600101611afc565b5090979650505050505050565b600082601f830112611b3657600080fd5b81356001600160401b03811115611b4f57611b4f61254b565b604051611b66601f8301601f1916602001826124d8565b818152846020838601011115611b7b57600080fd5b816020850160208301376000918101602001919091529392505050565b600060208284031215611baa57600080fd5b8151611a0081612606565b60008060408385031215611bc857600080fd5b8235611bd381612606565b91506020830135611be381612606565b809150509250929050565b600080600080600060a08688031215611c0657600080fd5b8535611c1181612606565b94506020860135611c2181612606565b935060408601356001600160401b0380821115611c3d57600080fd5b611c4989838a01611aae565b94506060880135915080821115611c5f57600080fd5b611c6b89838a01611aae565b93506080880135915080821115611c8157600080fd5b50611c8e88828901611b25565b9150509295509295909350565b600080600080600060a08688031215611cb357600080fd5b8535611cbe81612606565b94506020860135611cce81612606565b9350604086013592506060860135915060808601356001600160401b03811115611cf757600080fd5b611c8e88828901611b25565b600080600060608486031215611d1857600080fd5b8335611d2381612606565b925060208401356001600160401b0380821115611d3f57600080fd5b611d4b87838801611aae565b93506040860135915080821115611d6157600080fd5b50611d6e86828701611aae565b9150509250925092565b60008060408385031215611d8b57600080fd5b8235611d9681612606565b915060208301358015158114611be357600080fd5b60008060408385031215611dbe57600080fd5b8235611dc981612606565b946020939093013593505050565b600080600060608486031215611dec57600080fd5b8335611df781612606565b95602085013595506040909401359392505050565b60008060408385031215611e1f57600080fd5b82356001600160401b0380821115611e3657600080fd5b818501915085601f830112611e4a57600080fd5b81356020611e57826123e5565b604051611e6482826124d8565b8381528281019150858301600585901b870184018b1015611e8457600080fd5b600096505b84871015611eb0578035611e9c81612606565b835260019690960195918301918301611e89565b5096505086013592505080821115611ec757600080fd5b50611ed485828601611aae565b9150509250929050565b600060208284031215611ef057600080fd5b5035919050565b60008060408385031215611f0a57600080fd5b823591506020830135611be381612606565b600060208284031215611f2e57600080fd5b8135611a008161261b565b600060208284031215611f4b57600080fd5b8151611a008161261b565b600080600080600060a08688031215611f6e57600080fd5b8535611f7981612606565b94506020860135611f8981612606565b93506040860135611f9981612606565b92506060860135611fa981612606565b91506080860135611fb981612606565b809150509295509295909350565b600081518084526020808501945080840160005b83811015611ff757815187529582019590820190600101611fdb565b509495945050505050565b6000815180845261201a816020860160208601612456565b601f01601f19169290920160200192915050565b76020b1b1b2b9b9a1b7b73a3937b61d1030b1b1b7bab73a1604d1b815260008351612060816017850160208801612456565b7001034b99036b4b9b9b4b733903937b6329607d1b6017918401918201528351612091816028840160208801612456565b01602801949350505050565b6001600160a01b0391909116815260200190565b6001600160a01b0386811682528516602082015260a0604082018190526000906120dd90830186611fc7565b82810360608401526120ef8186611fc7565b905082810360808401526121038185612002565b98975050505050505050565b6001600160a01b03868116825285166020820152604081018490526060810183905260a06080820181905260009061214990830184612002565b979650505050505050565b602081526000611a006020830184611fc7565b60408152600061217a6040830185611fc7565b828103602084015261218c8185611fc7565b95945050505050565b602081526000611a006020830184612002565b60208082526028908201527f455243313135353a204552433131353552656365697665722072656a656374656040820152676420746f6b656e7360c01b606082015260800190565b60208082526024908201527f455243313135353a206275726e20616d6f756e7420657863656564732062616c604082015263616e636560e01b606082015260800190565b60208082526029908201527f455243313135353a2063616c6c6572206973206e6f74206f776e6572206e6f7260408201526808185c1c1c9bdd995960ba1b606082015260800190565b60208082526025908201527f455243313135353a207472616e7366657220746f20746865207a65726f206164604082015264647265737360d81b606082015260800190565b6020808252602e908201527f496e697469616c697a61626c653a20636f6e747261637420697320616c72656160408201526d191e481a5b9a5d1a585b1a5e995960921b606082015260800190565b60208082526023908201527f455243313135353a206275726e2066726f6d20746865207a65726f206164647260408201526265737360e81b606082015260800190565b6020808252602a908201527f455243313135353a20696e73756666696369656e742062616c616e636520666f60408201526939103a3930b739b332b960b11b606082015260800190565b60208082526028908201527f455243313135353a2069647320616e6420616d6f756e7473206c656e677468206040820152670dad2e6dac2e8c6d60c31b606082015260800190565b60006001600160401b038211156123fe576123fe61254b565b5060051b60200190565b6000821982111561241b5761241b61251f565b500190565b600081600019048311821515161561243a5761243a61251f565b500290565b6000828210156124515761245161251f565b500390565b60005b83811015612471578181015183820152602001612459565b83811115612480576000848401525b50505050565b6000816124955761249561251f565b506000190190565b600181811c908216806124b157607f821691505b602082108114156124d257634e487b7160e01b600052602260045260246000fd5b50919050565b601f8201601f191681016001600160401b03811182821017156124fd576124fd61254b565b6040525050565b60006000198214156125185761251861251f565b5060010190565b634e487b7160e01b600052601160045260246000fd5b634e487b7160e01b600052603260045260246000fd5b634e487b7160e01b600052604160045260246000fd5b600060033d111561257a5760046000803e5060005160e01c5b90565b600060443d101561258b5790565b6040516003193d81016004833e81513d6001600160401b0380831160248401831017156125ba57505050505090565b82850191508151818111156125d25750505050505090565b843d87010160208285010111156125ec5750505050505090565b6125fb602082860101876124d8565b509095945050505050565b6001600160a01b038116811461180257600080fd5b6001600160e01b03198116811461180257600080fdfe4a39dc06d4c0dbc64b70af90fd698a233a518aa5d07e595d983b8c0526c8f7fbc3d58168c5ae7397731d063d5bbf3d657854427343f4c083240f7aacaa2d0f62a94a525e1683ccdc3805736a996735f8f99262ae1f5c5eed7350aafd4e9e517068747470733a2f2f6170692e636174616e737469747574696f6e2e6f6e6c696e652f7b69647d2e6a736f6ea2646970667358221220a1a9cd013b3ab289b28fcca24559d0d186c205eaa27e1c4f8104574b82f332b264736f6c63430008060033",
  "immutableReferences": {},
  "source": "//SPDX-License-Identifier: MIT\npragma solidity ^0.8.0;\n\nimport \"@openzeppelin/contracts-upgradeable/token/ERC1155/ERC1155Upgradeable.sol\";\nimport \"@openzeppelin/contracts-upgradeable/token/ERC1155/extensions/ERC1155BurnableUpgradeable.sol\";\nimport \"@openzeppelin/contracts-upgradeable/access/AccessControlUpgradeable.sol\";\nimport \"./open-orgs/TitleAccess.sol\";\nimport \"./open-orgs/VoterAccess.sol\";\nimport \"./open-orgs/VoterPool.sol\";\nimport \"./open-orgs/FluidVoteTitle.sol\";\nimport \"./open-orgs/Constitution.sol\";\nimport \"./CatanKeeper.sol\";\n\ncontract Catanstitution is ERC1155Upgradeable, ERC1155BurnableUpgradeable, TitleAccess, VoterAccess, AccessControlUpgradeable {\n\n    bytes32 public constant CKG_MINTER_ROLE = keccak256(\"CKG_MINTER_ROLE\");\n\n    //Token IDs\n    uint256 public constant CVR = 0;\n    uint256 public constant CKG = 1;\n\n    //Titles and Votes\n    VoterPool public cvrHolders;\n    FluidVoteTitle public rulerOfCatan;\n    FluidVoteTitle public keeperOfTheCatanstitution;\n    Constitution public constitution;\n    CatanKeeper public catanKeeper;\n\n    function initialize(VoterPool _cvrHolders, Constitution _catanstitution, CatanKeeper _catanKeeper, FluidVoteTitle _rulerOfCatan, FluidVoteTitle _keeperOfTheCatanstitution) public initializer {\n        ERC1155Upgradeable.__ERC1155_init(\"https://api.catanstitution.online/{id}.json\");\n        _setupRole(DEFAULT_ADMIN_ROLE, msg.sender);\n\n        _mint(msg.sender, CVR, 6, \"CatanstitutionVotingRights\");\n        cvrHolders = _cvrHolders;\n        cvrHolders.registerVoter(msg.sender);\n\n        rulerOfCatan = _rulerOfCatan;\n        keeperOfTheCatanstitution = _keeperOfTheCatanstitution;\n\n        constitution = _catanstitution;\n        constitution.setResolver(rulerOfCatan);\n\n        catanKeeper = _catanKeeper;\n        catanKeeper.setGovernanceToken(this, CKG);\n        _setupRole(CKG_MINTER_ROLE, address(catanKeeper));\n    }\n\n    function mint(address account, uint256 id, uint256 amount) public {\n        require(\n            (id == CKG && hasRole(CKG_MINTER_ROLE, msg.sender)) ||\n            (id == CVR && msg.sender == keeperOfTheCatanstitution.holder())\n        );\n        _mint(account, id, amount, \"\"); //TODO: determine data based off token id\n    }\n\n    function supportsInterface(bytes4 interfaceId) public view override(ERC1155Upgradeable, AccessControlUpgradeable) returns (bool) {\n        return super.supportsInterface(interfaceId);\n    }\n}\n",
  "sourcePath": "/Users/tjharrison/he/catanstitution/contracts/Catanstitution.sol",
  "compiler": {
    "name": "solc",
    "version": "0.8.6+commit.11564f7e.Emscripten.clang"
  },
  "schemaVersion": "3.4.1",
  "updatedAt": "2021-07-11T18:05:51.597Z",
  "networkType": "ethereum",
  "devdoc": {
    "kind": "dev",
    "methods": {
      "balanceOf(address,uint256)": {
        "details": "See {IERC1155-balanceOf}. Requirements: - `account` cannot be the zero address."
      },
      "balanceOfBatch(address[],uint256[])": {
        "details": "See {IERC1155-balanceOfBatch}. Requirements: - `accounts` and `ids` must have the same length."
      },
      "getRoleAdmin(bytes32)": {
        "details": "Returns the admin role that controls `role`. See {grantRole} and {revokeRole}. To change a role's admin, use {_setRoleAdmin}."
      },
      "grantRole(bytes32,address)": {
        "details": "Grants `role` to `account`. If `account` had not been already granted `role`, emits a {RoleGranted} event. Requirements: - the caller must have ``role``'s admin role."
      },
      "hasRole(bytes32,address)": {
        "details": "Returns `true` if `account` has been granted `role`."
      },
      "isApprovedForAll(address,address)": {
        "details": "See {IERC1155-isApprovedForAll}."
      },
      "renounceRole(bytes32,address)": {
        "details": "Revokes `role` from the calling account. Roles are often managed via {grantRole} and {revokeRole}: this function's purpose is to provide a mechanism for accounts to lose their privileges if they are compromised (such as when a trusted device is misplaced). If the calling account had been granted `role`, emits a {RoleRevoked} event. Requirements: - the caller must be `account`."
      },
      "revokeRole(bytes32,address)": {
        "details": "Revokes `role` from `account`. If `account` had been granted `role`, emits a {RoleRevoked} event. Requirements: - the caller must have ``role``'s admin role."
      },
      "safeBatchTransferFrom(address,address,uint256[],uint256[],bytes)": {
        "details": "See {IERC1155-safeBatchTransferFrom}."
      },
      "safeTransferFrom(address,address,uint256,uint256,bytes)": {
        "details": "See {IERC1155-safeTransferFrom}."
      },
      "setApprovalForAll(address,bool)": {
        "details": "See {IERC1155-setApprovalForAll}."
      },
      "uri(uint256)": {
        "details": "See {IERC1155MetadataURI-uri}. This implementation returns the same URI for *all* token types. It relies on the token type ID substitution mechanism https://eips.ethereum.org/EIPS/eip-1155#metadata[defined in the EIP]. Clients calling this function must replace the `\\{id\\}` substring with the actual token type ID."
      }
    },
    "version": 1
  },
  "userdoc": {
    "kind": "user",
    "methods": {},
    "version": 1
  }
}