{
  "contractName": "Catanstitution",
  "abi": [
    {
      "anonymous": false,
      "inputs": [
        {
          "indexed": true,
          "internalType": "address",
          "name": "account",
          "type": "address"
        },
        {
          "indexed": true,
          "internalType": "address",
          "name": "operator",
          "type": "address"
        },
        {
          "indexed": false,
          "internalType": "bool",
          "name": "approved",
          "type": "bool"
        }
      ],
      "name": "ApprovalForAll",
      "type": "event"
    },
    {
      "anonymous": false,
      "inputs": [
        {
          "indexed": true,
          "internalType": "bytes32",
          "name": "role",
          "type": "bytes32"
        },
        {
          "indexed": true,
          "internalType": "bytes32",
          "name": "previousAdminRole",
          "type": "bytes32"
        },
        {
          "indexed": true,
          "internalType": "bytes32",
          "name": "newAdminRole",
          "type": "bytes32"
        }
      ],
      "name": "RoleAdminChanged",
      "type": "event"
    },
    {
      "anonymous": false,
      "inputs": [
        {
          "indexed": true,
          "internalType": "bytes32",
          "name": "role",
          "type": "bytes32"
        },
        {
          "indexed": true,
          "internalType": "address",
          "name": "account",
          "type": "address"
        },
        {
          "indexed": true,
          "internalType": "address",
          "name": "sender",
          "type": "address"
        }
      ],
      "name": "RoleGranted",
      "type": "event"
    },
    {
      "anonymous": false,
      "inputs": [
        {
          "indexed": true,
          "internalType": "bytes32",
          "name": "role",
          "type": "bytes32"
        },
        {
          "indexed": true,
          "internalType": "address",
          "name": "account",
          "type": "address"
        },
        {
          "indexed": true,
          "internalType": "address",
          "name": "sender",
          "type": "address"
        }
      ],
      "name": "RoleRevoked",
      "type": "event"
    },
    {
      "anonymous": false,
      "inputs": [
        {
          "indexed": true,
          "internalType": "address",
          "name": "operator",
          "type": "address"
        },
        {
          "indexed": true,
          "internalType": "address",
          "name": "from",
          "type": "address"
        },
        {
          "indexed": true,
          "internalType": "address",
          "name": "to",
          "type": "address"
        },
        {
          "indexed": false,
          "internalType": "uint256[]",
          "name": "ids",
          "type": "uint256[]"
        },
        {
          "indexed": false,
          "internalType": "uint256[]",
          "name": "values",
          "type": "uint256[]"
        }
      ],
      "name": "TransferBatch",
      "type": "event"
    },
    {
      "anonymous": false,
      "inputs": [
        {
          "indexed": true,
          "internalType": "address",
          "name": "operator",
          "type": "address"
        },
        {
          "indexed": true,
          "internalType": "address",
          "name": "from",
          "type": "address"
        },
        {
          "indexed": true,
          "internalType": "address",
          "name": "to",
          "type": "address"
        },
        {
          "indexed": false,
          "internalType": "uint256",
          "name": "id",
          "type": "uint256"
        },
        {
          "indexed": false,
          "internalType": "uint256",
          "name": "value",
          "type": "uint256"
        }
      ],
      "name": "TransferSingle",
      "type": "event"
    },
    {
      "anonymous": false,
      "inputs": [
        {
          "indexed": false,
          "internalType": "string",
          "name": "value",
          "type": "string"
        },
        {
          "indexed": true,
          "internalType": "uint256",
          "name": "id",
          "type": "uint256"
        }
      ],
      "name": "URI",
      "type": "event"
    },
    {
      "inputs": [],
      "name": "CKG",
      "outputs": [
        {
          "internalType": "uint256",
          "name": "",
          "type": "uint256"
        }
      ],
      "stateMutability": "view",
      "type": "function",
      "constant": true
    },
    {
      "inputs": [],
      "name": "CVR",
      "outputs": [
        {
          "internalType": "uint256",
          "name": "",
          "type": "uint256"
        }
      ],
      "stateMutability": "view",
      "type": "function",
      "constant": true
    },
    {
      "inputs": [],
      "name": "DEFAULT_ADMIN_ROLE",
      "outputs": [
        {
          "internalType": "bytes32",
          "name": "",
          "type": "bytes32"
        }
      ],
      "stateMutability": "view",
      "type": "function",
      "constant": true
    },
    {
      "inputs": [],
      "name": "GAME_RECORDER",
      "outputs": [
        {
          "internalType": "bytes32",
          "name": "",
          "type": "bytes32"
        }
      ],
      "stateMutability": "view",
      "type": "function",
      "constant": true
    },
    {
      "inputs": [],
      "name": "JaS",
      "outputs": [
        {
          "internalType": "uint256",
          "name": "",
          "type": "uint256"
        }
      ],
      "stateMutability": "view",
      "type": "function",
      "constant": true
    },
    {
      "inputs": [],
      "name": "PH",
      "outputs": [
        {
          "internalType": "uint256",
          "name": "",
          "type": "uint256"
        }
      ],
      "stateMutability": "view",
      "type": "function",
      "constant": true
    },
    {
      "inputs": [],
      "name": "RRoC",
      "outputs": [
        {
          "internalType": "uint256",
          "name": "",
          "type": "uint256"
        }
      ],
      "stateMutability": "view",
      "type": "function",
      "constant": true
    },
    {
      "inputs": [
        {
          "internalType": "address",
          "name": "account",
          "type": "address"
        },
        {
          "internalType": "uint256",
          "name": "id",
          "type": "uint256"
        }
      ],
      "name": "balanceOf",
      "outputs": [
        {
          "internalType": "uint256",
          "name": "",
          "type": "uint256"
        }
      ],
      "stateMutability": "view",
      "type": "function",
      "constant": true
    },
    {
      "inputs": [
        {
          "internalType": "address[]",
          "name": "accounts",
          "type": "address[]"
        },
        {
          "internalType": "uint256[]",
          "name": "ids",
          "type": "uint256[]"
        }
      ],
      "name": "balanceOfBatch",
      "outputs": [
        {
          "internalType": "uint256[]",
          "name": "",
          "type": "uint256[]"
        }
      ],
      "stateMutability": "view",
      "type": "function",
      "constant": true
    },
    {
      "inputs": [
        {
          "internalType": "address",
          "name": "account",
          "type": "address"
        },
        {
          "internalType": "uint256[]",
          "name": "ids",
          "type": "uint256[]"
        },
        {
          "internalType": "uint256[]",
          "name": "values",
          "type": "uint256[]"
        }
      ],
      "name": "burnBatch",
      "outputs": [],
      "stateMutability": "nonpayable",
      "type": "function"
    },
    {
      "inputs": [],
      "name": "catanKeeper",
      "outputs": [
        {
          "internalType": "contract CatanKeeper",
          "name": "",
          "type": "address"
        }
      ],
      "stateMutability": "view",
      "type": "function",
      "constant": true
    },
    {
      "inputs": [],
      "name": "constitution",
      "outputs": [
        {
          "internalType": "contract Constitution",
          "name": "",
          "type": "address"
        }
      ],
      "stateMutability": "view",
      "type": "function",
      "constant": true
    },
    {
      "inputs": [],
      "name": "cvrHolders",
      "outputs": [
        {
          "internalType": "contract VoterPool",
          "name": "",
          "type": "address"
        }
      ],
      "stateMutability": "view",
      "type": "function",
      "constant": true
    },
    {
      "inputs": [],
      "name": "deFactoJaS",
      "outputs": [
        {
          "internalType": "address",
          "name": "",
          "type": "address"
        }
      ],
      "stateMutability": "view",
      "type": "function",
      "constant": true
    },
    {
      "inputs": [],
      "name": "deFactoPH",
      "outputs": [
        {
          "internalType": "address",
          "name": "",
          "type": "address"
        }
      ],
      "stateMutability": "view",
      "type": "function",
      "constant": true
    },
    {
      "inputs": [],
      "name": "deFactoRRoC",
      "outputs": [
        {
          "internalType": "address",
          "name": "",
          "type": "address"
        }
      ],
      "stateMutability": "view",
      "type": "function",
      "constant": true
    },
    {
      "inputs": [
        {
          "internalType": "bytes32",
          "name": "role",
          "type": "bytes32"
        }
      ],
      "name": "getRoleAdmin",
      "outputs": [
        {
          "internalType": "bytes32",
          "name": "",
          "type": "bytes32"
        }
      ],
      "stateMutability": "view",
      "type": "function",
      "constant": true
    },
    {
      "inputs": [
        {
          "internalType": "bytes32",
          "name": "role",
          "type": "bytes32"
        },
        {
          "internalType": "address",
          "name": "account",
          "type": "address"
        }
      ],
      "name": "grantRole",
      "outputs": [],
      "stateMutability": "nonpayable",
      "type": "function"
    },
    {
      "inputs": [
        {
          "internalType": "bytes32",
          "name": "role",
          "type": "bytes32"
        },
        {
          "internalType": "address",
          "name": "account",
          "type": "address"
        }
      ],
      "name": "hasRole",
      "outputs": [
        {
          "internalType": "bool",
          "name": "",
          "type": "bool"
        }
      ],
      "stateMutability": "view",
      "type": "function",
      "constant": true
    },
    {
      "inputs": [
        {
          "internalType": "address",
          "name": "account",
          "type": "address"
        },
        {
          "internalType": "address",
          "name": "operator",
          "type": "address"
        }
      ],
      "name": "isApprovedForAll",
      "outputs": [
        {
          "internalType": "bool",
          "name": "",
          "type": "bool"
        }
      ],
      "stateMutability": "view",
      "type": "function",
      "constant": true
    },
    {
      "inputs": [],
      "name": "keeperOfTheCatanstitution",
      "outputs": [
        {
          "internalType": "contract FluidVoteTitle",
          "name": "",
          "type": "address"
        }
      ],
      "stateMutability": "view",
      "type": "function",
      "constant": true
    },
    {
      "inputs": [
        {
          "internalType": "bytes32",
          "name": "role",
          "type": "bytes32"
        },
        {
          "internalType": "address",
          "name": "account",
          "type": "address"
        }
      ],
      "name": "renounceRole",
      "outputs": [],
      "stateMutability": "nonpayable",
      "type": "function"
    },
    {
      "inputs": [
        {
          "internalType": "bytes32",
          "name": "role",
          "type": "bytes32"
        },
        {
          "internalType": "address",
          "name": "account",
          "type": "address"
        }
      ],
      "name": "revokeRole",
      "outputs": [],
      "stateMutability": "nonpayable",
      "type": "function"
    },
    {
      "inputs": [],
      "name": "rulerOfCatan",
      "outputs": [
        {
          "internalType": "contract FluidVoteTitle",
          "name": "",
          "type": "address"
        }
      ],
      "stateMutability": "view",
      "type": "function",
      "constant": true
    },
    {
      "inputs": [
        {
          "internalType": "address",
          "name": "from",
          "type": "address"
        },
        {
          "internalType": "address",
          "name": "to",
          "type": "address"
        },
        {
          "internalType": "uint256[]",
          "name": "ids",
          "type": "uint256[]"
        },
        {
          "internalType": "uint256[]",
          "name": "amounts",
          "type": "uint256[]"
        },
        {
          "internalType": "bytes",
          "name": "data",
          "type": "bytes"
        }
      ],
      "name": "safeBatchTransferFrom",
      "outputs": [],
      "stateMutability": "nonpayable",
      "type": "function"
    },
    {
      "inputs": [
        {
          "internalType": "address",
          "name": "from",
          "type": "address"
        },
        {
          "internalType": "address",
          "name": "to",
          "type": "address"
        },
        {
          "internalType": "uint256",
          "name": "id",
          "type": "uint256"
        },
        {
          "internalType": "uint256",
          "name": "amount",
          "type": "uint256"
        },
        {
          "internalType": "bytes",
          "name": "data",
          "type": "bytes"
        }
      ],
      "name": "safeTransferFrom",
      "outputs": [],
      "stateMutability": "nonpayable",
      "type": "function"
    },
    {
      "inputs": [
        {
          "internalType": "address",
          "name": "operator",
          "type": "address"
        },
        {
          "internalType": "bool",
          "name": "approved",
          "type": "bool"
        }
      ],
      "name": "setApprovalForAll",
      "outputs": [],
      "stateMutability": "nonpayable",
      "type": "function"
    },
    {
      "inputs": [
        {
          "internalType": "uint256",
          "name": "",
          "type": "uint256"
        }
      ],
      "name": "uri",
      "outputs": [
        {
          "internalType": "string",
          "name": "",
          "type": "string"
        }
      ],
      "stateMutability": "view",
      "type": "function",
      "constant": true
    },
    {
      "inputs": [],
      "name": "userNames",
      "outputs": [
        {
          "internalType": "contract UserNameRegistry",
          "name": "",
          "type": "address"
        }
      ],
      "stateMutability": "view",
      "type": "function",
      "constant": true
    },
    {
      "inputs": [
        {
          "internalType": "contract VoterPool",
          "name": "_cvrHolders",
          "type": "address"
        },
        {
          "internalType": "contract Constitution",
          "name": "_catanstitution",
          "type": "address"
        },
        {
          "internalType": "contract CatanKeeper",
          "name": "_catanKeeper",
          "type": "address"
        },
        {
          "internalType": "contract FluidVoteTitle",
          "name": "_rulerOfCatan",
          "type": "address"
        },
        {
          "internalType": "contract FluidVoteTitle",
          "name": "_keeperOfTheCatanstitution",
          "type": "address"
        },
        {
          "internalType": "contract UserNameRegistry",
          "name": "_userNames",
          "type": "address"
        }
      ],
      "name": "initialize",
      "outputs": [],
      "stateMutability": "nonpayable",
      "type": "function"
    },
    {
      "inputs": [
        {
          "internalType": "address",
          "name": "voter",
          "type": "address"
        },
        {
          "internalType": "uint256",
          "name": "amount",
          "type": "uint256"
        }
      ],
      "name": "mintVoterToken",
      "outputs": [],
      "stateMutability": "nonpayable",
      "type": "function"
    },
    {
      "inputs": [
        {
          "internalType": "address",
          "name": "account",
          "type": "address"
        }
      ],
      "name": "mintGameToken",
      "outputs": [],
      "stateMutability": "nonpayable",
      "type": "function"
    },
    {
      "inputs": [
        {
          "internalType": "address",
          "name": "account",
          "type": "address"
        },
        {
          "internalType": "uint256",
          "name": "id",
          "type": "uint256"
        },
        {
          "internalType": "uint256",
          "name": "value",
          "type": "uint256"
        }
      ],
      "name": "burn",
      "outputs": [],
      "stateMutability": "nonpayable",
      "type": "function"
    },
    {
      "inputs": [],
      "name": "registerForTrophies",
      "outputs": [],
      "stateMutability": "nonpayable",
      "type": "function"
    },
    {
      "inputs": [],
      "name": "transferClaimableTrophies",
      "outputs": [],
      "stateMutability": "nonpayable",
      "type": "function"
    },
    {
      "inputs": [
        {
          "internalType": "bytes4",
          "name": "interfaceId",
          "type": "bytes4"
        }
      ],
      "name": "supportsInterface",
      "outputs": [
        {
          "internalType": "bool",
          "name": "",
          "type": "bool"
        }
      ],
      "stateMutability": "view",
      "type": "function",
      "constant": true
    }
  ],
  "bytecode": "0x608060405234801561001057600080fd5b5061316d806100206000396000f3fe608060405234801561001057600080fd5b50600436106101ab5760003560e01c8062fdd58e146101b057806301ffc9a7146101d65780630e89341c146101f95780632124f45314610219578063248a9ca31461023957806324f3b6161461024c5780632ca9848e1461025f5780632eb2c2d6146102725780632f2ff15d1461028757806336568abe1461029a5780634e1273f4146102ad5780634e2ca934146102cd57806351a27774146102e1578063600fe508146102f4578063646084fc146103085780636b20c45414610310578063807237421461032357806391d14854146103365780639b6a6f4c14610349578063a217fddf1461035c578063a22cb46514610364578063a969648f14610377578063aa89f57c1461037f578063aeb5e8cc14610387578063b0db1f6d1461039b578063b4d59515146103a3578063b7160dee1461035c578063c96b9e29146103ab578063cb05c13b146103bf578063cc2a9a5b146103d4578063d547741f146103e7578063db770810146103fa578063e985e9c51461040d578063f242432a14610449578063f5298aca1461045c578063ff016a841461046f575b600080fd5b6101c36101be3660046124ad565b610477565b6040519081526020015b60405180910390f35b6101e96101e43660046124ef565b610510565b60405190151581526020016101cd565b61020c61020736600461250c565b610521565b6040516101cd9190612581565b60ff5461022c906001600160a01b031681565b6040516101cd9190612594565b6101c361024736600461250c565b6105b5565b60fb5461022c906001600160a01b031681565b60fd5461022c906001600160a01b031681565b6102856102803660046126f1565b6105ca565b005b61028561029536600461279e565b610825565b6102856102a836600461279e565b610847565b6102c06102bb3660046127ce565b6108c5565b6040516101cd91906128d5565b6101015461022c906001600160a01b031681565b60fc5461022c906001600160a01b031681565b6101035461022c906001600160a01b031681565b6101c3600481565b61028561031e3660046128e8565b6109ee565b60fe5461022c906001600160a01b031681565b6101e961034436600461279e565b610a31565b61028561035736600461295d565b610a5c565b6101c3600081565b610285610372366004612988565b610a9d565b610285610b74565b6101c3600181565b6101005461022c906001600160a01b031681565b6101c3600281565b6101c3600381565b6101025461022c906001600160a01b031681565b6101c36000805160206130ed83398151915281565b6102856103e23660046129b6565b61115e565b6102856103f536600461279e565b611362565b6102856104083660046124ad565b61137f565b6101e961041b366004612a38565b6001600160a01b03918216600090815260666020908152604080832093909416825291909152205460ff1690565b610285610457366004612a66565b61151a565b61028561046a366004612ace565b61166a565b610285611724565b60006001600160a01b0383166104e85760405162461bcd60e51b815260206004820152602b60248201527f455243313135353a2062616c616e636520717565727920666f7220746865207a60448201526a65726f206164647265737360a81b60648201526084015b60405180910390fd5b5060009081526065602090815260408083206001600160a01b03949094168352929052205490565b600061051b826118d8565b92915050565b60606067805461053090612b03565b80601f016020809104026020016040519081016040528092919081815260200182805461055c90612b03565b80156105a95780601f1061057e576101008083540402835291602001916105a9565b820191906000526020600020905b81548152906001019060200180831161058c57829003601f168201915b50505050509050919050565b600090815260c9602052604090206001015490565b81518351146105eb5760405162461bcd60e51b81526004016104df90612b3e565b6001600160a01b0384166106115760405162461bcd60e51b81526004016104df90612b86565b6001600160a01b03851633148061062d575061062d853361041b565b6106945760405162461bcd60e51b815260206004820152603260248201527f455243313135353a207472616e736665722063616c6c6572206973206e6f74206044820152711bdddb995c881b9bdc88185c1c1c9bdd995960721b60648201526084016104df565b3360005b84518110156107c95760008582815181106106b5576106b5612bcb565b6020026020010151905060008583815181106106d3576106d3612bcb565b60209081029190910181015160008481526065835260408082206001600160a01b038e1683529093529190912054909150818110156107245760405162461bcd60e51b81526004016104df90612be1565b61072e8282612c41565b6065600085815260200190815260200160002060008c6001600160a01b03166001600160a01b0316815260200190815260200160002081905550816065600085815260200190815260200160002060008b6001600160a01b03166001600160a01b0316815260200190815260200160002060008282546107ae9190612c58565b92505081905550505050806107c290612c70565b9050610698565b50846001600160a01b0316866001600160a01b0316826001600160a01b03166000805160206130ad8339815191528787604051610807929190612c8b565b60405180910390a461081d8187878787876118fd565b505050505050565b61082e826105b5565b6108388133611a59565b6108428383611abd565b505050565b6001600160a01b03811633146108b75760405162461bcd60e51b815260206004820152602f60248201527f416363657373436f6e74726f6c3a2063616e206f6e6c792072656e6f756e636560448201526e103937b632b9903337b91039b2b63360891b60648201526084016104df565b6108c18282611b43565b5050565b6060815183511461092a5760405162461bcd60e51b815260206004820152602960248201527f455243313135353a206163636f756e747320616e6420696473206c656e677468604482015268040dad2e6dac2e8c6d60bb1b60648201526084016104df565b600083516001600160401b03811115610945576109456125a8565b60405190808252806020026020018201604052801561096e578160200160208202803683370190505b50905060005b84518110156109e6576109b985828151811061099257610992612bcb565b60200260200101518583815181106109ac576109ac612bcb565b6020026020010151610477565b8282815181106109cb576109cb612bcb565b60209081029190910101526109df81612c70565b9050610974565b509392505050565b6001600160a01b038316331480610a0a5750610a0a833361041b565b610a265760405162461bcd60e51b81526004016104df90612cb9565b610842838383611baa565b600091825260c9602090815260408084206001600160a01b0393909316845291905290205460ff1690565b6000805160206130ed833981519152610a758133611a59565b6108c18260018060405180604001604052806003815260200162434b4760e81b815250611d24565b336001600160a01b0383161415610b085760405162461bcd60e51b815260206004820152602960248201527f455243313135353a2073657474696e6720617070726f76616c20737461747573604482015268103337b91039b2b63360b91b60648201526084016104df565b3360008181526066602090815260408083206001600160a01b03871680855290835292819020805460ff191686151590811790915590519081529192917f17307eab39ab6107e8899845ad3d59bd9653f200f220920489ca2b5937696c31910160405180910390a35050565b60ff5460405163a7771ee360e01b81526001600160a01b0390911690819063a7771ee390610ba6903390600401612594565b6020604051808303816000875af1158015610bc5573d6000803e3d6000fd5b505050506040513d601f19601f82011682018060405250810190610be99190612d02565b610c055760405162461bcd60e51b81526004016104df90612d1f565b60fb5460fc54604051634023d4bd60e11b81526000926001600160a01b0390811692638047a97a92610c3d9290911690600401612594565b602060405180830381865afa158015610c5a573d6000803e3d6000fd5b505050506040513d601f19601f82011682018060405250810190610c7e9190612d4f565b60fb5460fd54604051635c4fd87b60e11b81529293506000926001600160a01b039283169263b89fb0f692610cb892911690600401612594565b602060405180830381865afa158015610cd5573d6000803e3d6000fd5b505050506040513d601f19601f82011682018060405250810190610cf99190612d4f565b60fb5460fe5460405163c903c23360e01b81529293506000926001600160a01b039283169263c903c23392610d3392911690600401612594565b602060405180830381865afa158015610d50573d6000803e3d6000fd5b505050506040513d601f19601f82011682018060405250810190610d749190612d4f565b905060005b60ff60009054906101000a90046001600160a01b03166001600160a01b0316634cbe32b86040518163ffffffff1660e01b81526004016020604051808303816000875af1158015610dce573d6000803e3d6000fd5b505050506040513d601f19601f82011682018060405250810190610df29190612d4f565b8110156111575760ff5460405163341effc360e21b8152600481018390526000916001600160a01b03169063d07bff0c906024016020604051808303816000875af1158015610e45573d6000803e3d6000fd5b505050506040513d601f19601f82011682018060405250810190610e699190612d68565b60fb54604051634023d4bd60e11b815291925086916001600160a01b0390911690638047a97a90610e9e908590600401612594565b602060405180830381865afa158015610ebb573d6000803e3d6000fd5b505050506040513d601f19601f82011682018060405250810190610edf9190612d4f565b118015610efa575060fc546001600160a01b03828116911614155b15610f675760fc546040805180820190915260178152762934b3b43a333ab610293ab632b91037b31021b0ba30b760491b6020820152610f4b916001600160a01b031690839060029060019061151a565b60fc80546001600160a01b0319166001600160a01b0383161790555b60fb54604051635c4fd87b60e11b815285916001600160a01b03169063b89fb0f690610f97908590600401612594565b602060405180830381865afa158015610fb4573d6000803e3d6000fd5b505050506040513d601f19601f82011682018060405250810190610fd89190612d4f565b118015610ff3575060fd546001600160a01b03828116911614155b156110545760fd5460408051808201909152600b81526a506f77657220486f75736560a81b6020820152611038916001600160a01b031690839060039060019061151a565b60fd80546001600160a01b0319166001600160a01b0383161790555b60fb5460405163c903c23360e01b815284916001600160a01b03169063c903c23390611084908590600401612594565b602060405180830381865afa1580156110a1573d6000803e3d6000fd5b505050506040513d601f19601f820116820180604052508101906110c59190612d4f565b1180156110e0575060fe546001600160a01b03828116911614155b156111445760fe5460408051808201909152600e81526d253ab9ba10309029b2ba3a3632b960911b6020820152611128916001600160a01b031690839060049060019061151a565b60fe80546001600160a01b0319166001600160a01b0383161790555b508061114f81612c70565b915050610d79565b5050505050565b600054610100900460ff1680611177575060005460ff16155b6111935760405162461bcd60e51b81526004016104df90612d85565b600054610100900460ff161580156111b5576000805461ffff19166101011790555b6111d66040518060600160405280602b815260200161310d602b9139611e15565b60ff80546001600160a01b03199081166001600160a01b038a81169190911790925561010080548216878416179055610101805482168684161790556101028054821689841617905560fb8054821688841617905561010380549091169184169190911790556112546000805160206130ed83398151915280611e9a565b60fb54611279906000805160206130ed833981519152906001600160a01b0316611ee4565b6112b63360026001604051806040016040528060178152602001762934b3b43a333ab610293ab632b91037b31021b0ba30b760491b815250611d24565b6112e733600360016040518060400160405280600b81526020016a506f77657220486f75736560a81b815250611d24565b61131b33600460016040518060400160405280600e81526020016d253ab9ba10309029b2ba3a3632b960911b815250611d24565b60fc8054336001600160a01b0319918216811790925560fd805482168317905560fe805490911690911790558015611359576000805461ff00191690555b50505050505050565b61136b826105b5565b6113758133611a59565b6108428383611b43565b61010160009054906101000a90046001600160a01b0316806001600160a01b031663e534155d6040518163ffffffff1660e01b81526004016020604051808303816000875af11580156113d6573d6000803e3d6000fd5b505050506040513d601f19601f820116820180604052508101906113fa9190612d68565b6001600160a01b0316336001600160a01b03161461144d5760405162461bcd60e51b815260206004820152601060248201526f2737ba103a34ba3632903437b63232b960811b60448201526064016104df565b600082116114945760405162461bcd60e51b815260206004820152601460248201527343616e206e6f74206d696e74206e6f7468696e6760601b60448201526064016104df565b6114bc836000846040518060400160405280600381526020016221ab2960e91b815250611d24565b60ff546040516338db6dd360e01b81526001600160a01b03909116906338db6dd3906114ec908690600401612594565b600060405180830381600087803b15801561150657600080fd5b505af1158015611359573d6000803e3d6000fd5b6001600160a01b0384166115405760405162461bcd60e51b81526004016104df90612b86565b6001600160a01b03851633148061155c575061155c853361041b565b6115785760405162461bcd60e51b81526004016104df90612cb9565b3361159181878761158888611eee565b61115788611eee565b60008481526065602090815260408083206001600160a01b038a168452909152902054838110156115d45760405162461bcd60e51b81526004016104df90612be1565b6115de8482612c41565b60008681526065602090815260408083206001600160a01b038c8116855292528083209390935588168152908120805486929061161c908490612c58565b909155505060408051868152602081018690526001600160a01b03808916928a821692918616916000805160206130cd833981519152910160405180910390a4611359828888888888611f39565b8115806116775750600182145b6116ce5760405162461bcd60e51b815260206004820152602260248201527f43616e206e6f742064657374726f7920636c61696d61626c652074726f706869604482015261657360f01b60648201526084016104df565b6116d9838383611ff4565b811580156116ef57506116ec8383610477565b81145b156108425760ff54604051637ed1775160e01b81526001600160a01b0390911690637ed17751906114ec908690600401612594565b60ff5460405163a7771ee360e01b81526001600160a01b0390911690819063a7771ee390611756903390600401612594565b6020604051808303816000875af1158015611775573d6000803e3d6000fd5b505050506040513d601f19601f820116820180604052508101906117999190612d02565b6117b55760405162461bcd60e51b81526004016104df90612d1f565b60005b60ff60009054906101000a90046001600160a01b03166001600160a01b0316634cbe32b86040518163ffffffff1660e01b81526004016020604051808303816000875af115801561180d573d6000803e3d6000fd5b505050506040513d601f19601f820116820180604052508101906118319190612d4f565b8110156108c15760ff5460405163341effc360e21b8152600481018390526000916001600160a01b03169063d07bff0c906024016020604051808303816000875af1158015611884573d6000803e3d6000fd5b505050506040513d601f19601f820116820180604052508101906118a89190612d68565b9050336001600160a01b038216146118c5576118c5816001610a9d565b50806118d081612c70565b9150506117b8565b60006001600160e01b03198216637965db0b60e01b148061051b575061051b82612037565b6001600160a01b0384163b1561081d5760405163bc197c8160e01b81526001600160a01b0385169063bc197c81906119419089908990889088908890600401612dd3565b6020604051808303816000875af192505050801561197c575060408051601f3d908101601f1916820190925261197991810190612e31565b60015b611a2957611988612e4e565b806308c379a014156119c2575061199d612e6a565b806119a857506119c4565b8060405162461bcd60e51b81526004016104df9190612581565b505b60405162461bcd60e51b815260206004820152603460248201527f455243313135353a207472616e7366657220746f206e6f6e20455243313135356044820152732932b1b2b4bb32b91034b6b83632b6b2b73a32b960611b60648201526084016104df565b6001600160e01b0319811663bc197c8160e01b146113595760405162461bcd60e51b81526004016104df90612ef3565b611a638282610a31565b6108c157611a7b816001600160a01b03166014612087565b611a86836020612087565b604051602001611a97929190612f3b565b60408051601f198184030181529082905262461bcd60e51b82526104df91600401612581565b611ac78282610a31565b6108c157600082815260c9602090815260408083206001600160a01b03851684529091529020805460ff19166001179055611aff3390565b6001600160a01b0316816001600160a01b0316837f2f8788117e7eff1d82e926ec794901d17c78024a50270940304540a733656f0d60405160405180910390a45050565b611b4d8282610a31565b156108c157600082815260c9602090815260408083206001600160a01b0385168085529252808320805460ff1916905551339285917ff6391f5c32d9c69d2a47ea670b442974b53935d1edc7fd64eb21e047a839171b9190a45050565b6001600160a01b038316611bd05760405162461bcd60e51b81526004016104df90612faa565b8051825114611bf15760405162461bcd60e51b81526004016104df90612b3e565b604080516020810190915260009081905233905b8351811015611cd7576000848281518110611c2257611c22612bcb565b602002602001015190506000848381518110611c4057611c40612bcb565b60209081029190910181015160008481526065835260408082206001600160a01b038c168352909352919091205490915081811015611c915760405162461bcd60e51b81526004016104df90612fed565b611c9b8282612c41565b60009384526065602090815260408086206001600160a01b038c1687529091529093209290925550819050611ccf81612c70565b915050611c05565b5060006001600160a01b0316846001600160a01b0316826001600160a01b03166000805160206130ad8339815191528686604051611d16929190612c8b565b60405180910390a450505050565b6001600160a01b038416611d845760405162461bcd60e51b815260206004820152602160248201527f455243313135353a206d696e7420746f20746865207a65726f206164647265736044820152607360f81b60648201526084016104df565b33611d958160008761158888611eee565b60008481526065602090815260408083206001600160a01b038916845290915281208054859290611dc7908490612c58565b909155505060408051858152602081018590526001600160a01b0380881692600092918516916000805160206130cd833981519152910160405180910390a461115781600087878787611f39565b600054610100900460ff1680611e2e575060005460ff16155b611e4a5760405162461bcd60e51b81526004016104df90612d85565b600054610100900460ff16158015611e6c576000805461ffff19166101011790555b611e74612229565b611e7c612229565b611e8582612295565b80156108c1576000805461ff00191690555050565b80611ea4836105b5565b60405184907fbd79b86ffe0ab8e8776151514217cd7cacd52c909f66475c3af44e129f0b00ff90600090a4600091825260c9602052604090912060010155565b6108c18282611abd565b60408051600180825281830190925260609160009190602080830190803683370190505090508281600081518110611f2857611f28612bcb565b602090810291909101015292915050565b6001600160a01b0384163b1561081d5760405163f23a6e6160e01b81526001600160a01b0385169063f23a6e6190611f7d9089908990889088908890600401613031565b6020604051808303816000875af1925050508015611fb8575060408051601f3d908101601f19168201909252611fb591810190612e31565b60015b611fc457611988612e4e565b6001600160e01b0319811663f23a6e6160e01b146113595760405162461bcd60e51b81526004016104df90612ef3565b6001600160a01b0383163314806120105750612010833361041b565b61202c5760405162461bcd60e51b81526004016104df90612cb9565b6108428383836122f5565b60006001600160e01b03198216636cdb3d1360e11b148061206857506001600160e01b031982166303a24d0760e21b145b8061051b57506301ffc9a760e01b6001600160e01b031983161461051b565b60606000612096836002613076565b6120a1906002612c58565b6001600160401b038111156120b8576120b86125a8565b6040519080825280601f01601f1916602001820160405280156120e2576020820181803683370190505b509050600360fc1b816000815181106120fd576120fd612bcb565b60200101906001600160f81b031916908160001a905350600f60fb1b8160018151811061212c5761212c612bcb565b60200101906001600160f81b031916908160001a9053506000612150846002613076565b61215b906001612c58565b90505b60018111156121d3576f181899199a1a9b1b9c1cb0b131b232b360811b85600f166010811061218f5761218f612bcb565b1a60f81b8282815181106121a5576121a5612bcb565b60200101906001600160f81b031916908160001a90535060049490941c936121cc81613095565b905061215e565b5083156122225760405162461bcd60e51b815260206004820181905260248201527f537472696e67733a20686578206c656e67746820696e73756666696369656e7460448201526064016104df565b9392505050565b600054610100900460ff1680612242575060005460ff16155b61225e5760405162461bcd60e51b81526004016104df90612d85565b600054610100900460ff16158015612280576000805461ffff19166101011790555b8015612292576000805461ff00191690555b50565b600054610100900460ff16806122ae575060005460ff16155b6122ca5760405162461bcd60e51b81526004016104df90612d85565b600054610100900460ff161580156122ec576000805461ffff19166101011790555b611e85826123f1565b6001600160a01b03831661231b5760405162461bcd60e51b81526004016104df90612faa565b3361234b8185600061232c87611eee565b61233587611eee565b5050604080516020810190915260009052505050565b60008381526065602090815260408083206001600160a01b03881684529091529020548281101561238e5760405162461bcd60e51b81526004016104df90612fed565b6123988382612c41565b60008581526065602090815260408083206001600160a01b038a811680865291845282852095909555815189815292830188905292938616916000805160206130cd833981519152910160405180910390a45050505050565b80516108c190606790602084019082805461240b90612b03565b90600052602060002090601f01602090048101928261242d5760008555612473565b82601f1061244657805160ff1916838001178555612473565b82800160010185558215612473579182015b82811115612473578251825591602001919060010190612458565b5061247f929150612483565b5090565b5b8082111561247f5760008155600101612484565b6001600160a01b038116811461229257600080fd5b600080604083850312156124c057600080fd5b82356124cb81612498565b946020939093013593505050565b6001600160e01b03198116811461229257600080fd5b60006020828403121561250157600080fd5b8135612222816124d9565b60006020828403121561251e57600080fd5b5035919050565b60005b83811015612540578181015183820152602001612528565b8381111561254f576000848401525b50505050565b6000815180845261256d816020860160208601612525565b601f01601f19169290920160200192915050565b6020815260006122226020830184612555565b6001600160a01b0391909116815260200190565b634e487b7160e01b600052604160045260246000fd5b601f8201601f191681016001600160401b03811182821017156125e3576125e36125a8565b6040525050565b60006001600160401b03821115612603576126036125a8565b5060051b60200190565b600082601f83011261261e57600080fd5b8135602061262b826125ea565b60405161263882826125be565b83815260059390931b850182019282810191508684111561265857600080fd5b8286015b84811015612673578035835291830191830161265c565b509695505050505050565b600082601f83011261268f57600080fd5b81356001600160401b038111156126a8576126a86125a8565b6040516126bf601f8301601f1916602001826125be565b8181528460208386010111156126d457600080fd5b816020850160208301376000918101602001919091529392505050565b600080600080600060a0868803121561270957600080fd5b853561271481612498565b9450602086013561272481612498565b935060408601356001600160401b038082111561274057600080fd5b61274c89838a0161260d565b9450606088013591508082111561276257600080fd5b61276e89838a0161260d565b9350608088013591508082111561278457600080fd5b506127918882890161267e565b9150509295509295909350565b600080604083850312156127b157600080fd5b8235915060208301356127c381612498565b809150509250929050565b600080604083850312156127e157600080fd5b82356001600160401b03808211156127f857600080fd5b818501915085601f83011261280c57600080fd5b81356020612819826125ea565b60405161282682826125be565b83815260059390931b850182019282810191508984111561284657600080fd5b948201945b8386101561286d57853561285e81612498565b8252948201949082019061284b565b9650508601359250508082111561288357600080fd5b506128908582860161260d565b9150509250929050565b600081518084526020808501945080840160005b838110156128ca578151875295820195908201906001016128ae565b509495945050505050565b602081526000612222602083018461289a565b6000806000606084860312156128fd57600080fd5b833561290881612498565b925060208401356001600160401b038082111561292457600080fd5b6129308783880161260d565b9350604086013591508082111561294657600080fd5b506129538682870161260d565b9150509250925092565b60006020828403121561296f57600080fd5b813561222281612498565b801515811461229257600080fd5b6000806040838503121561299b57600080fd5b82356129a681612498565b915060208301356127c38161297a565b60008060008060008060c087890312156129cf57600080fd5b86356129da81612498565b955060208701356129ea81612498565b945060408701356129fa81612498565b93506060870135612a0a81612498565b92506080870135612a1a81612498565b915060a0870135612a2a81612498565b809150509295509295509295565b60008060408385031215612a4b57600080fd5b8235612a5681612498565b915060208301356127c381612498565b600080600080600060a08688031215612a7e57600080fd5b8535612a8981612498565b94506020860135612a9981612498565b9350604086013592506060860135915060808601356001600160401b03811115612ac257600080fd5b6127918882890161267e565b600080600060608486031215612ae357600080fd5b8335612aee81612498565b95602085013595506040909401359392505050565b600181811c90821680612b1757607f821691505b60208210811415612b3857634e487b7160e01b600052602260045260246000fd5b50919050565b60208082526028908201527f455243313135353a2069647320616e6420616d6f756e7473206c656e677468206040820152670dad2e6dac2e8c6d60c31b606082015260800190565b60208082526025908201527f455243313135353a207472616e7366657220746f20746865207a65726f206164604082015264647265737360d81b606082015260800190565b634e487b7160e01b600052603260045260246000fd5b6020808252602a908201527f455243313135353a20696e73756666696369656e742062616c616e636520666f60408201526939103a3930b739b332b960b11b606082015260800190565b634e487b7160e01b600052601160045260246000fd5b600082821015612c5357612c53612c2b565b500390565b60008219821115612c6b57612c6b612c2b565b500190565b6000600019821415612c8457612c84612c2b565b5060010190565b604081526000612c9e604083018561289a565b8281036020840152612cb0818561289a565b95945050505050565b60208082526029908201527f455243313135353a2063616c6c6572206973206e6f74206f776e6572206e6f7260408201526808185c1c1c9bdd995960ba1b606082015260800190565b600060208284031215612d1457600080fd5b81516122228161297a565b6020808252601690820152752737ba1030903932b3b4b9ba32b932b2103b37ba32b960511b604082015260600190565b600060208284031215612d6157600080fd5b5051919050565b600060208284031215612d7a57600080fd5b815161222281612498565b6020808252602e908201527f496e697469616c697a61626c653a20636f6e747261637420697320616c72656160408201526d191e481a5b9a5d1a585b1a5e995960921b606082015260800190565b6001600160a01b0386811682528516602082015260a060408201819052600090612dff9083018661289a565b8281036060840152612e11818661289a565b90508281036080840152612e258185612555565b98975050505050505050565b600060208284031215612e4357600080fd5b8151612222816124d9565b600060033d1115612e675760046000803e5060005160e01c5b90565b600060443d1015612e785790565b6040516003193d81016004833e81513d6001600160401b038083116024840183101715612ea757505050505090565b8285019150815181811115612ebf5750505050505090565b843d8701016020828501011115612ed95750505050505090565b612ee8602082860101876125be565b509095945050505050565b60208082526028908201527f455243313135353a204552433131353552656365697665722072656a656374656040820152676420746f6b656e7360c01b606082015260800190565b76020b1b1b2b9b9a1b7b73a3937b61d1030b1b1b7bab73a1604d1b815260008351612f6d816017850160208801612525565b7001034b99036b4b9b9b4b733903937b6329607d1b6017918401918201528351612f9e816028840160208801612525565b01602801949350505050565b60208082526023908201527f455243313135353a206275726e2066726f6d20746865207a65726f206164647260408201526265737360e81b606082015260800190565b60208082526024908201527f455243313135353a206275726e20616d6f756e7420657863656564732062616c604082015263616e636560e01b606082015260800190565b6001600160a01b03868116825285166020820152604081018490526060810183905260a06080820181905260009061306b90830184612555565b979650505050505050565b600081600019048311821515161561309057613090612c2b565b500290565b6000816130a4576130a4612c2b565b50600019019056fe4a39dc06d4c0dbc64b70af90fd698a233a518aa5d07e595d983b8c0526c8f7fbc3d58168c5ae7397731d063d5bbf3d657854427343f4c083240f7aacaa2d0f62b053b718ee14edbeb21e4f65bd911d476cfcb2e97136bcbfa50fcad7154f669268747470733a2f2f6170692e636174616e737469747574696f6e2e6f6e6c696e652f7b69647d2e6a736f6ea2646970667358221220036af2dd4a74e6df782bdbd3d3543199a65f9fe980fdbe0d0de004de1f25dd7464736f6c634300080a0033",
  "immutableReferences": {},
  "source": "//SPDX-License-Identifier: MIT\npragma solidity ^0.8.0;\n\nimport \"@openzeppelin/contracts-upgradeable/token/ERC1155/ERC1155Upgradeable.sol\";\nimport \"@openzeppelin/contracts-upgradeable/token/ERC1155/extensions/ERC1155BurnableUpgradeable.sol\";\nimport \"@openzeppelin/contracts-upgradeable/access/AccessControlUpgradeable.sol\";\nimport \"./open-orgs/TitleAccess.sol\";\nimport \"./open-orgs/VoterAccess.sol\";\nimport \"./open-orgs/VoterPool.sol\";\nimport \"./open-orgs/FluidVoteTitle.sol\";\nimport \"./open-orgs/Constitution.sol\";\nimport \"./CatanKeeper.sol\";\nimport \"./UserNameRegistry.sol\";\n\ncontract Catanstitution is ERC1155Upgradeable, ERC1155BurnableUpgradeable, TitleAccess, VoterAccess, AccessControlUpgradeable {\n\n    bytes32 public constant GAME_RECORDER = keccak256(\"GAME_RECORDER\");\n\n    //Tokens\n    uint256 public constant CVR = 0;\n    uint256 public constant CKG = 1;\n\n    //Games and Trophies\n    CatanKeeper public catanKeeper;\n    uint256 public constant RRoC = 2; // Rightful Ruler of Catan - most overall victories\n    uint256 public constant PH = 3; // Power House - largest margin of victory\n    uint256 public constant JaS = 4; // Just a Settler - most overall last places\n\n    address public deFactoRRoC;\n    address public deFactoPH;\n    address public deFactoJaS;\n\n    //Titles and Votes\n    VoterPool public cvrHolders;\n    FluidVoteTitle public rulerOfCatan;\n    FluidVoteTitle public keeperOfTheCatanstitution;\n    Constitution public constitution;\n\n    //Users\n    UserNameRegistry public userNames;\n\n    function initialize(\n        VoterPool _cvrHolders,\n        Constitution _catanstitution,\n        CatanKeeper _catanKeeper,\n        FluidVoteTitle _rulerOfCatan,\n        FluidVoteTitle _keeperOfTheCatanstitution,\n        UserNameRegistry _userNames\n    ) public initializer {\n        ERC1155Upgradeable.__ERC1155_init(\"https://api.catanstitution.online/{id}.json\");\n\n        cvrHolders = _cvrHolders;\n        rulerOfCatan = _rulerOfCatan;\n        keeperOfTheCatanstitution = _keeperOfTheCatanstitution;\n        constitution = _catanstitution;\n        catanKeeper = _catanKeeper;\n        userNames = _userNames;\n\n        _setRoleAdmin(GAME_RECORDER, GAME_RECORDER);\n        _setupRole(GAME_RECORDER, address(catanKeeper));\n\n        //Mint claimable trophy NFTs during contract creation\n        _mint(msg.sender, RRoC, 1, \"Rightful Ruler of Catan\");\n        _mint(msg.sender, PH, 1, \"Power House\");\n        _mint(msg.sender, JaS, 1, \"Just a Settler\");\n        deFactoRRoC = msg.sender;\n        deFactoPH = msg.sender;\n        deFactoJaS = msg.sender;\n    }\n\n    //Keeper must mint voter tokens to themselves and distribute for better transparency\n    function mintVoterToken(address voter, uint256 amount) public onlyTitleHolder(keeperOfTheCatanstitution) {\n        require(amount > 0, \"Can not mint nothing\");\n\n        _mint(voter, CVR, amount, \"CVR\");\n        cvrHolders.registerVoter(voter);\n    }\n\n    function mintGameToken(address account) public onlyRole(GAME_RECORDER) {\n        _mint(account, CKG, 1, \"CKG\");\n    }\n\n    function burn(address account, uint256 id, uint256 value) public virtual override {\n        require(id == CVR || id == CKG, \"Can not destroy claimable trophies\");\n        super.burn(account, id, value);\n\n        //if burning the last of someones CVR, unregister them\n        if(id == CVR && value == balanceOf(account, id)){\n            cvrHolders.unregisterVoter(account);\n        }\n    }\n\n    //Must be called by each voter after all CVR is distributed, new CVR requires re-calling by all voters\n    function registerForTrophies() public onlyVoters(cvrHolders) {\n        for(uint256 i = 0; i < cvrHolders.numVoters(); i++){\n            address voter = cvrHolders.getVoter(i);\n            if(msg.sender != voter){\n                setApprovalForAll(voter, true);\n            }\n        }\n    }\n\n    // NFTs that can change hands based off game stats\n    function transferClaimableTrophies() public onlyVoters(cvrHolders) {\n        uint256 deJureRRoCWins = catanKeeper.wins(deFactoRRoC);\n        uint256 deJurePHWinMargin = catanKeeper.highestWinMargin(deFactoPH);\n        uint256 deJureJaSLosses = catanKeeper.losses(deFactoJaS);\n\n        for(uint256 i = 0; i < cvrHolders.numVoters(); i++){\n            address voter = cvrHolders.getVoter(i);\n\n            if(catanKeeper.wins(voter) > deJureRRoCWins && voter != deFactoRRoC){\n                safeTransferFrom(deFactoRRoC, voter, RRoC, 1, \"Rightful Ruler of Catan\");\n                deFactoRRoC = voter;\n            }\n\n            if(catanKeeper.highestWinMargin(voter) > deJurePHWinMargin && voter != deFactoPH){\n                safeTransferFrom(deFactoPH, voter, PH, 1, \"Power House\");\n                deFactoPH = voter;\n            }\n\n            if(catanKeeper.losses(voter) > deJureJaSLosses && voter != deFactoJaS){\n                safeTransferFrom(deFactoJaS, voter, JaS, 1, \"Just a Settler\");\n                deFactoJaS = voter;\n            }\n        }\n    }\n\n    function supportsInterface(bytes4 interfaceId) public view override(ERC1155Upgradeable, AccessControlUpgradeable) returns (bool) {\n        return super.supportsInterface(interfaceId);\n    }\n}\n",
  "sourcePath": "/Users/tjharrison/he/catanstitution/contracts/Catanstitution.sol",
  "compiler": {
    "name": "solc",
    "version": "0.8.10+commit.fc410830.Emscripten.clang"
  },
  "schemaVersion": "3.4.3",
  "updatedAt": "2021-11-28T17:53:27.974Z",
  "networkType": "ethereum",
  "devdoc": {
    "kind": "dev",
    "methods": {
      "balanceOf(address,uint256)": {
        "details": "See {IERC1155-balanceOf}. Requirements: - `account` cannot be the zero address."
      },
      "balanceOfBatch(address[],uint256[])": {
        "details": "See {IERC1155-balanceOfBatch}. Requirements: - `accounts` and `ids` must have the same length."
      },
      "getRoleAdmin(bytes32)": {
        "details": "Returns the admin role that controls `role`. See {grantRole} and {revokeRole}. To change a role's admin, use {_setRoleAdmin}."
      },
      "grantRole(bytes32,address)": {
        "details": "Grants `role` to `account`. If `account` had not been already granted `role`, emits a {RoleGranted} event. Requirements: - the caller must have ``role``'s admin role."
      },
      "hasRole(bytes32,address)": {
        "details": "Returns `true` if `account` has been granted `role`."
      },
      "isApprovedForAll(address,address)": {
        "details": "See {IERC1155-isApprovedForAll}."
      },
      "renounceRole(bytes32,address)": {
        "details": "Revokes `role` from the calling account. Roles are often managed via {grantRole} and {revokeRole}: this function's purpose is to provide a mechanism for accounts to lose their privileges if they are compromised (such as when a trusted device is misplaced). If the calling account had been granted `role`, emits a {RoleRevoked} event. Requirements: - the caller must be `account`."
      },
      "revokeRole(bytes32,address)": {
        "details": "Revokes `role` from `account`. If `account` had been granted `role`, emits a {RoleRevoked} event. Requirements: - the caller must have ``role``'s admin role."
      },
      "safeBatchTransferFrom(address,address,uint256[],uint256[],bytes)": {
        "details": "See {IERC1155-safeBatchTransferFrom}."
      },
      "safeTransferFrom(address,address,uint256,uint256,bytes)": {
        "details": "See {IERC1155-safeTransferFrom}."
      },
      "setApprovalForAll(address,bool)": {
        "details": "See {IERC1155-setApprovalForAll}."
      },
      "uri(uint256)": {
        "details": "See {IERC1155MetadataURI-uri}. This implementation returns the same URI for *all* token types. It relies on the token type ID substitution mechanism https://eips.ethereum.org/EIPS/eip-1155#metadata[defined in the EIP]. Clients calling this function must replace the `\\{id\\}` substring with the actual token type ID."
      }
    },
    "version": 1
  },
  "userdoc": {
    "kind": "user",
    "methods": {},
    "version": 1
  }
}