{
  "contractName": "Catanstitution",
  "abi": [
    {
      "anonymous": false,
      "inputs": [
        {
          "indexed": true,
          "internalType": "address",
          "name": "account",
          "type": "address"
        },
        {
          "indexed": true,
          "internalType": "address",
          "name": "operator",
          "type": "address"
        },
        {
          "indexed": false,
          "internalType": "bool",
          "name": "approved",
          "type": "bool"
        }
      ],
      "name": "ApprovalForAll",
      "type": "event"
    },
    {
      "anonymous": false,
      "inputs": [
        {
          "indexed": true,
          "internalType": "address",
          "name": "operator",
          "type": "address"
        },
        {
          "indexed": true,
          "internalType": "address",
          "name": "from",
          "type": "address"
        },
        {
          "indexed": true,
          "internalType": "address",
          "name": "to",
          "type": "address"
        },
        {
          "indexed": false,
          "internalType": "uint256[]",
          "name": "ids",
          "type": "uint256[]"
        },
        {
          "indexed": false,
          "internalType": "uint256[]",
          "name": "values",
          "type": "uint256[]"
        }
      ],
      "name": "TransferBatch",
      "type": "event"
    },
    {
      "anonymous": false,
      "inputs": [
        {
          "indexed": true,
          "internalType": "address",
          "name": "operator",
          "type": "address"
        },
        {
          "indexed": true,
          "internalType": "address",
          "name": "from",
          "type": "address"
        },
        {
          "indexed": true,
          "internalType": "address",
          "name": "to",
          "type": "address"
        },
        {
          "indexed": false,
          "internalType": "uint256",
          "name": "id",
          "type": "uint256"
        },
        {
          "indexed": false,
          "internalType": "uint256",
          "name": "value",
          "type": "uint256"
        }
      ],
      "name": "TransferSingle",
      "type": "event"
    },
    {
      "anonymous": false,
      "inputs": [
        {
          "indexed": false,
          "internalType": "string",
          "name": "value",
          "type": "string"
        },
        {
          "indexed": true,
          "internalType": "uint256",
          "name": "id",
          "type": "uint256"
        }
      ],
      "name": "URI",
      "type": "event"
    },
    {
      "inputs": [],
      "name": "CKG",
      "outputs": [
        {
          "internalType": "uint256",
          "name": "",
          "type": "uint256"
        }
      ],
      "stateMutability": "view",
      "type": "function"
    },
    {
      "inputs": [],
      "name": "CVR",
      "outputs": [
        {
          "internalType": "uint256",
          "name": "",
          "type": "uint256"
        }
      ],
      "stateMutability": "view",
      "type": "function"
    },
    {
      "inputs": [
        {
          "internalType": "address",
          "name": "account",
          "type": "address"
        },
        {
          "internalType": "uint256",
          "name": "id",
          "type": "uint256"
        }
      ],
      "name": "balanceOf",
      "outputs": [
        {
          "internalType": "uint256",
          "name": "",
          "type": "uint256"
        }
      ],
      "stateMutability": "view",
      "type": "function"
    },
    {
      "inputs": [
        {
          "internalType": "address[]",
          "name": "accounts",
          "type": "address[]"
        },
        {
          "internalType": "uint256[]",
          "name": "ids",
          "type": "uint256[]"
        }
      ],
      "name": "balanceOfBatch",
      "outputs": [
        {
          "internalType": "uint256[]",
          "name": "",
          "type": "uint256[]"
        }
      ],
      "stateMutability": "view",
      "type": "function"
    },
    {
      "inputs": [
        {
          "internalType": "uint256",
          "name": "",
          "type": "uint256"
        }
      ],
      "name": "catanstitution",
      "outputs": [
        {
          "internalType": "uint256",
          "name": "amendmentNum",
          "type": "uint256"
        },
        {
          "internalType": "string",
          "name": "text",
          "type": "string"
        },
        {
          "internalType": "address",
          "name": "author",
          "type": "address"
        },
        {
          "internalType": "enum Catanstitution.AmendmentStatus",
          "name": "status",
          "type": "uint8"
        },
        {
          "internalType": "uint256",
          "name": "numVotes",
          "type": "uint256"
        }
      ],
      "stateMutability": "view",
      "type": "function"
    },
    {
      "inputs": [],
      "name": "cvrHolders",
      "outputs": [
        {
          "internalType": "contract VoterPool",
          "name": "",
          "type": "address"
        }
      ],
      "stateMutability": "view",
      "type": "function"
    },
    {
      "inputs": [],
      "name": "fivePlayerGameId",
      "outputs": [
        {
          "internalType": "uint256",
          "name": "",
          "type": "uint256"
        }
      ],
      "stateMutability": "view",
      "type": "function"
    },
    {
      "inputs": [],
      "name": "fourPlayerGameId",
      "outputs": [
        {
          "internalType": "uint256",
          "name": "",
          "type": "uint256"
        }
      ],
      "stateMutability": "view",
      "type": "function"
    },
    {
      "inputs": [
        {
          "internalType": "address",
          "name": "account",
          "type": "address"
        },
        {
          "internalType": "address",
          "name": "operator",
          "type": "address"
        }
      ],
      "name": "isApprovedForAll",
      "outputs": [
        {
          "internalType": "bool",
          "name": "",
          "type": "bool"
        }
      ],
      "stateMutability": "view",
      "type": "function"
    },
    {
      "inputs": [],
      "name": "keeperOfTheCatanstitution",
      "outputs": [
        {
          "internalType": "contract FluidVoteTitle",
          "name": "",
          "type": "address"
        }
      ],
      "stateMutability": "view",
      "type": "function"
    },
    {
      "inputs": [],
      "name": "numAcceptedAmendments",
      "outputs": [
        {
          "internalType": "uint256",
          "name": "",
          "type": "uint256"
        }
      ],
      "stateMutability": "view",
      "type": "function"
    },
    {
      "inputs": [],
      "name": "numProposedAmendments",
      "outputs": [
        {
          "internalType": "uint256",
          "name": "",
          "type": "uint256"
        }
      ],
      "stateMutability": "view",
      "type": "function"
    },
    {
      "inputs": [
        {
          "internalType": "address",
          "name": "",
          "type": "address"
        },
        {
          "internalType": "uint256",
          "name": "",
          "type": "uint256"
        }
      ],
      "name": "proposalVotes",
      "outputs": [
        {
          "internalType": "enum Catanstitution.VoteStatus",
          "name": "",
          "type": "uint8"
        }
      ],
      "stateMutability": "view",
      "type": "function"
    },
    {
      "inputs": [
        {
          "internalType": "address",
          "name": "",
          "type": "address"
        }
      ],
      "name": "proposals",
      "outputs": [
        {
          "internalType": "uint256",
          "name": "amendmentNum",
          "type": "uint256"
        },
        {
          "internalType": "string",
          "name": "text",
          "type": "string"
        },
        {
          "internalType": "address",
          "name": "author",
          "type": "address"
        },
        {
          "internalType": "enum Catanstitution.AmendmentStatus",
          "name": "status",
          "type": "uint8"
        },
        {
          "internalType": "uint256",
          "name": "numVotes",
          "type": "uint256"
        }
      ],
      "stateMutability": "view",
      "type": "function"
    },
    {
      "inputs": [
        {
          "internalType": "uint256",
          "name": "",
          "type": "uint256"
        }
      ],
      "name": "recordedFivePlayerGames",
      "outputs": [
        {
          "internalType": "address",
          "name": "player_1",
          "type": "address"
        },
        {
          "internalType": "address",
          "name": "player_2",
          "type": "address"
        },
        {
          "internalType": "address",
          "name": "player_3",
          "type": "address"
        },
        {
          "internalType": "address",
          "name": "player_4",
          "type": "address"
        },
        {
          "internalType": "address",
          "name": "player_5",
          "type": "address"
        },
        {
          "internalType": "uint8",
          "name": "player_1_vp",
          "type": "uint8"
        },
        {
          "internalType": "uint8",
          "name": "player_2_vp",
          "type": "uint8"
        },
        {
          "internalType": "uint8",
          "name": "player_3_vp",
          "type": "uint8"
        },
        {
          "internalType": "uint8",
          "name": "player_4_vp",
          "type": "uint8"
        },
        {
          "internalType": "uint8",
          "name": "player_5_vp",
          "type": "uint8"
        },
        {
          "internalType": "string",
          "name": "variation",
          "type": "string"
        }
      ],
      "stateMutability": "view",
      "type": "function"
    },
    {
      "inputs": [
        {
          "internalType": "uint256",
          "name": "",
          "type": "uint256"
        }
      ],
      "name": "recordedFourPlayerGames",
      "outputs": [
        {
          "internalType": "address",
          "name": "player_1",
          "type": "address"
        },
        {
          "internalType": "address",
          "name": "player_2",
          "type": "address"
        },
        {
          "internalType": "address",
          "name": "player_3",
          "type": "address"
        },
        {
          "internalType": "address",
          "name": "player_4",
          "type": "address"
        },
        {
          "internalType": "uint8",
          "name": "player_1_vp",
          "type": "uint8"
        },
        {
          "internalType": "uint8",
          "name": "player_2_vp",
          "type": "uint8"
        },
        {
          "internalType": "uint8",
          "name": "player_3_vp",
          "type": "uint8"
        },
        {
          "internalType": "uint8",
          "name": "player_4_vp",
          "type": "uint8"
        },
        {
          "internalType": "string",
          "name": "variation",
          "type": "string"
        }
      ],
      "stateMutability": "view",
      "type": "function"
    },
    {
      "inputs": [
        {
          "internalType": "uint256",
          "name": "",
          "type": "uint256"
        }
      ],
      "name": "recordedSixPlayerGames",
      "outputs": [
        {
          "internalType": "address",
          "name": "player_1",
          "type": "address"
        },
        {
          "internalType": "address",
          "name": "player_2",
          "type": "address"
        },
        {
          "internalType": "address",
          "name": "player_3",
          "type": "address"
        },
        {
          "internalType": "address",
          "name": "player_4",
          "type": "address"
        },
        {
          "internalType": "address",
          "name": "player_5",
          "type": "address"
        },
        {
          "internalType": "address",
          "name": "player_6",
          "type": "address"
        },
        {
          "internalType": "uint8",
          "name": "player_1_vp",
          "type": "uint8"
        },
        {
          "internalType": "uint8",
          "name": "player_2_vp",
          "type": "uint8"
        },
        {
          "internalType": "uint8",
          "name": "player_3_vp",
          "type": "uint8"
        },
        {
          "internalType": "uint8",
          "name": "player_4_vp",
          "type": "uint8"
        },
        {
          "internalType": "uint8",
          "name": "player_5_vp",
          "type": "uint8"
        },
        {
          "internalType": "uint8",
          "name": "player_6_vp",
          "type": "uint8"
        },
        {
          "internalType": "string",
          "name": "variation",
          "type": "string"
        }
      ],
      "stateMutability": "view",
      "type": "function"
    },
    {
      "inputs": [
        {
          "internalType": "uint256",
          "name": "",
          "type": "uint256"
        }
      ],
      "name": "recordedThreePlayerGames",
      "outputs": [
        {
          "internalType": "address",
          "name": "player_1",
          "type": "address"
        },
        {
          "internalType": "address",
          "name": "player_2",
          "type": "address"
        },
        {
          "internalType": "address",
          "name": "player_3",
          "type": "address"
        },
        {
          "internalType": "uint8",
          "name": "player_1_vp",
          "type": "uint8"
        },
        {
          "internalType": "uint8",
          "name": "player_2_vp",
          "type": "uint8"
        },
        {
          "internalType": "uint8",
          "name": "player_3_vp",
          "type": "uint8"
        },
        {
          "internalType": "string",
          "name": "variation",
          "type": "string"
        }
      ],
      "stateMutability": "view",
      "type": "function"
    },
    {
      "inputs": [
        {
          "internalType": "uint256",
          "name": "",
          "type": "uint256"
        }
      ],
      "name": "recordedTwoPlayerGames",
      "outputs": [
        {
          "internalType": "address",
          "name": "player_1",
          "type": "address"
        },
        {
          "internalType": "address",
          "name": "player_2",
          "type": "address"
        },
        {
          "internalType": "uint8",
          "name": "player_1_vp",
          "type": "uint8"
        },
        {
          "internalType": "uint8",
          "name": "player_2_vp",
          "type": "uint8"
        },
        {
          "internalType": "string",
          "name": "variation",
          "type": "string"
        }
      ],
      "stateMutability": "view",
      "type": "function"
    },
    {
      "inputs": [],
      "name": "rulerOfCatan",
      "outputs": [
        {
          "internalType": "contract FluidVoteTitle",
          "name": "",
          "type": "address"
        }
      ],
      "stateMutability": "view",
      "type": "function"
    },
    {
      "inputs": [
        {
          "internalType": "address",
          "name": "from",
          "type": "address"
        },
        {
          "internalType": "address",
          "name": "to",
          "type": "address"
        },
        {
          "internalType": "uint256[]",
          "name": "ids",
          "type": "uint256[]"
        },
        {
          "internalType": "uint256[]",
          "name": "amounts",
          "type": "uint256[]"
        },
        {
          "internalType": "bytes",
          "name": "data",
          "type": "bytes"
        }
      ],
      "name": "safeBatchTransferFrom",
      "outputs": [],
      "stateMutability": "nonpayable",
      "type": "function"
    },
    {
      "inputs": [
        {
          "internalType": "address",
          "name": "from",
          "type": "address"
        },
        {
          "internalType": "address",
          "name": "to",
          "type": "address"
        },
        {
          "internalType": "uint256",
          "name": "id",
          "type": "uint256"
        },
        {
          "internalType": "uint256",
          "name": "amount",
          "type": "uint256"
        },
        {
          "internalType": "bytes",
          "name": "data",
          "type": "bytes"
        }
      ],
      "name": "safeTransferFrom",
      "outputs": [],
      "stateMutability": "nonpayable",
      "type": "function"
    },
    {
      "inputs": [
        {
          "internalType": "address",
          "name": "operator",
          "type": "address"
        },
        {
          "internalType": "bool",
          "name": "approved",
          "type": "bool"
        }
      ],
      "name": "setApprovalForAll",
      "outputs": [],
      "stateMutability": "nonpayable",
      "type": "function"
    },
    {
      "inputs": [],
      "name": "sixPlayerGameId",
      "outputs": [
        {
          "internalType": "uint256",
          "name": "",
          "type": "uint256"
        }
      ],
      "stateMutability": "view",
      "type": "function"
    },
    {
      "inputs": [
        {
          "internalType": "bytes4",
          "name": "interfaceId",
          "type": "bytes4"
        }
      ],
      "name": "supportsInterface",
      "outputs": [
        {
          "internalType": "bool",
          "name": "",
          "type": "bool"
        }
      ],
      "stateMutability": "view",
      "type": "function"
    },
    {
      "inputs": [],
      "name": "threePlayerGameId",
      "outputs": [
        {
          "internalType": "uint256",
          "name": "",
          "type": "uint256"
        }
      ],
      "stateMutability": "view",
      "type": "function"
    },
    {
      "inputs": [],
      "name": "twoPlayerGameId",
      "outputs": [
        {
          "internalType": "uint256",
          "name": "",
          "type": "uint256"
        }
      ],
      "stateMutability": "view",
      "type": "function"
    },
    {
      "inputs": [
        {
          "internalType": "uint256",
          "name": "",
          "type": "uint256"
        }
      ],
      "name": "uri",
      "outputs": [
        {
          "internalType": "string",
          "name": "",
          "type": "string"
        }
      ],
      "stateMutability": "view",
      "type": "function"
    },
    {
      "inputs": [],
      "name": "initialize",
      "outputs": [],
      "stateMutability": "nonpayable",
      "type": "function"
    },
    {
      "inputs": [
        {
          "internalType": "address",
          "name": "to",
          "type": "address"
        },
        {
          "internalType": "uint256",
          "name": "amount",
          "type": "uint256"
        }
      ],
      "name": "mintCvr",
      "outputs": [],
      "stateMutability": "nonpayable",
      "type": "function"
    },
    {
      "inputs": [
        {
          "internalType": "string",
          "name": "amendment",
          "type": "string"
        }
      ],
      "name": "proposeAmendment",
      "outputs": [],
      "stateMutability": "nonpayable",
      "type": "function"
    },
    {
      "inputs": [
        {
          "internalType": "bool",
          "name": "vote",
          "type": "bool"
        },
        {
          "internalType": "address",
          "name": "activeProposal",
          "type": "address"
        }
      ],
      "name": "voteOnProposedAmendment",
      "outputs": [],
      "stateMutability": "nonpayable",
      "type": "function"
    },
    {
      "inputs": [
        {
          "internalType": "uint256",
          "name": "amendmentNum",
          "type": "uint256"
        }
      ],
      "name": "resolveAmendment",
      "outputs": [],
      "stateMutability": "nonpayable",
      "type": "function"
    },
    {
      "inputs": [
        {
          "components": [
            {
              "internalType": "address",
              "name": "player_1",
              "type": "address"
            },
            {
              "internalType": "address",
              "name": "player_2",
              "type": "address"
            },
            {
              "internalType": "uint8",
              "name": "player_1_vp",
              "type": "uint8"
            },
            {
              "internalType": "uint8",
              "name": "player_2_vp",
              "type": "uint8"
            },
            {
              "internalType": "string",
              "name": "variation",
              "type": "string"
            }
          ],
          "internalType": "struct Games.TwoPlayerGame",
          "name": "game",
          "type": "tuple"
        }
      ],
      "name": "recordTwoPlayerGame",
      "outputs": [],
      "stateMutability": "nonpayable",
      "type": "function"
    },
    {
      "inputs": [
        {
          "components": [
            {
              "internalType": "address",
              "name": "player_1",
              "type": "address"
            },
            {
              "internalType": "address",
              "name": "player_2",
              "type": "address"
            },
            {
              "internalType": "address",
              "name": "player_3",
              "type": "address"
            },
            {
              "internalType": "uint8",
              "name": "player_1_vp",
              "type": "uint8"
            },
            {
              "internalType": "uint8",
              "name": "player_2_vp",
              "type": "uint8"
            },
            {
              "internalType": "uint8",
              "name": "player_3_vp",
              "type": "uint8"
            },
            {
              "internalType": "string",
              "name": "variation",
              "type": "string"
            }
          ],
          "internalType": "struct Games.ThreePlayerGame",
          "name": "game",
          "type": "tuple"
        }
      ],
      "name": "recordThreePlayerGame",
      "outputs": [],
      "stateMutability": "nonpayable",
      "type": "function"
    },
    {
      "inputs": [
        {
          "components": [
            {
              "internalType": "address",
              "name": "player_1",
              "type": "address"
            },
            {
              "internalType": "address",
              "name": "player_2",
              "type": "address"
            },
            {
              "internalType": "address",
              "name": "player_3",
              "type": "address"
            },
            {
              "internalType": "address",
              "name": "player_4",
              "type": "address"
            },
            {
              "internalType": "uint8",
              "name": "player_1_vp",
              "type": "uint8"
            },
            {
              "internalType": "uint8",
              "name": "player_2_vp",
              "type": "uint8"
            },
            {
              "internalType": "uint8",
              "name": "player_3_vp",
              "type": "uint8"
            },
            {
              "internalType": "uint8",
              "name": "player_4_vp",
              "type": "uint8"
            },
            {
              "internalType": "string",
              "name": "variation",
              "type": "string"
            }
          ],
          "internalType": "struct Games.FourPlayerGame",
          "name": "game",
          "type": "tuple"
        }
      ],
      "name": "recordFourPlayerGame",
      "outputs": [],
      "stateMutability": "nonpayable",
      "type": "function"
    },
    {
      "inputs": [
        {
          "components": [
            {
              "internalType": "address",
              "name": "player_1",
              "type": "address"
            },
            {
              "internalType": "address",
              "name": "player_2",
              "type": "address"
            },
            {
              "internalType": "address",
              "name": "player_3",
              "type": "address"
            },
            {
              "internalType": "address",
              "name": "player_4",
              "type": "address"
            },
            {
              "internalType": "address",
              "name": "player_5",
              "type": "address"
            },
            {
              "internalType": "uint8",
              "name": "player_1_vp",
              "type": "uint8"
            },
            {
              "internalType": "uint8",
              "name": "player_2_vp",
              "type": "uint8"
            },
            {
              "internalType": "uint8",
              "name": "player_3_vp",
              "type": "uint8"
            },
            {
              "internalType": "uint8",
              "name": "player_4_vp",
              "type": "uint8"
            },
            {
              "internalType": "uint8",
              "name": "player_5_vp",
              "type": "uint8"
            },
            {
              "internalType": "string",
              "name": "variation",
              "type": "string"
            }
          ],
          "internalType": "struct Games.FivePlayerGame",
          "name": "game",
          "type": "tuple"
        }
      ],
      "name": "recordFivePlayerGame",
      "outputs": [],
      "stateMutability": "nonpayable",
      "type": "function"
    },
    {
      "inputs": [
        {
          "components": [
            {
              "internalType": "address",
              "name": "player_1",
              "type": "address"
            },
            {
              "internalType": "address",
              "name": "player_2",
              "type": "address"
            },
            {
              "internalType": "address",
              "name": "player_3",
              "type": "address"
            },
            {
              "internalType": "address",
              "name": "player_4",
              "type": "address"
            },
            {
              "internalType": "address",
              "name": "player_5",
              "type": "address"
            },
            {
              "internalType": "address",
              "name": "player_6",
              "type": "address"
            },
            {
              "internalType": "uint8",
              "name": "player_1_vp",
              "type": "uint8"
            },
            {
              "internalType": "uint8",
              "name": "player_2_vp",
              "type": "uint8"
            },
            {
              "internalType": "uint8",
              "name": "player_3_vp",
              "type": "uint8"
            },
            {
              "internalType": "uint8",
              "name": "player_4_vp",
              "type": "uint8"
            },
            {
              "internalType": "uint8",
              "name": "player_5_vp",
              "type": "uint8"
            },
            {
              "internalType": "uint8",
              "name": "player_6_vp",
              "type": "uint8"
            },
            {
              "internalType": "string",
              "name": "variation",
              "type": "string"
            }
          ],
          "internalType": "struct Games.SixPlayerGame",
          "name": "game",
          "type": "tuple"
        }
      ],
      "name": "recordSixPlayerGame",
      "outputs": [],
      "stateMutability": "nonpayable",
      "type": "function"
    }
  ],
  "bytecode": "0x608060405234801561001057600080fd5b50618c4880620000216000396000f3fe60806040523480156200001157600080fd5b5060043610620001e95760003560e01c8062fdd58e14620001ee57806301ffc9a7146200021857806308c4268014620002405780630c0d2b2414620002595780630e89341c1462000270578063184732e014620002965780632124f45314620002ad5780632eb2c2d614620002d057806332df11ff14620002e75780633341b445146200031757806342c228a514620003415780634c5c236e146200034b5780634e1273f414620003775780634e2ca934146200039d57806353cdf0d814620003b157806355bdaed914620003c8578063613bd63714620003d25780636d997ef414620003e9578063705077cd14620003f35780637ff7139f146200040a5780638129fc1c146200043c57806392f851a114620004465780639ad91f9c1462000450578063a22cb465146200047e578063a957b28b1462000495578063aa89f57c14620004bf578063aeb5e8cc14620004c8578063b7160dee14620004dc578063bea23d4614620004e5578063bf0761971462000525578063dc480516146200053c578063dd0c297e1462000546578063deed4486146200055d578063e985e9c51462000567578063ef1322d014620005a6578063f242432a14620005b0578063f888201314620005c7578063fb08351c14620005de575b600080fd5b62000205620001ff36600462003588565b620005f5565b6040519081526020015b60405180910390f35b6200022f62000229366004620036d9565b6200068f565b60405190151581526020016200020f565b620002576200025136600462003984565b620006e3565b005b620002576200026a36600462003719565b62000950565b620002876200028136600462003c74565b62000bd4565b6040516200020f91906200407d565b62000257620002a736600462003759565b62000c70565b609754620002c1906001600160a01b031681565b6040516200020f919062003d35565b62000257620002e13660046200342a565b62000e65565b620002fe620002f836600462003c74565b62001132565b6040516200020f9b9a9998979695949392919062003de5565b6200032e62000328366004620033a5565b62001241565b6040516200020f95949392919062004211565b62000205609a5481565b620003626200035c36600462003c74565b62001310565b6040516200020f979695949392919062003edb565b6200038e62000388366004620035b7565b620013f9565b6040516200020f919062004021565b609954620002c1906001600160a01b031681565b6200032e620003c236600462003c74565b62001537565b6200020560a05481565b62000257620003e336600462003ac6565b6200155b565b6200020560a15481565b6200025762000404366004620036b8565b620016ea565b620004216200041b36600462003c74565b620019dd565b6040516200020f9d9c9b9a9998979695949392919062003d49565b6200025762001b02565b62000205609b5481565b620004676200046136600462003c74565b62001e02565b6040516200020f9998979695949392919062003e6a565b620002576200048f36600462003555565b62001f01565b620004ac620004a636600462003c74565b62001fda565b6040516200020f95949392919062003fe2565b62000205600181565b609854620002c1906001600160a01b031681565b62000205600081565b62000516620004f636600462003588565b609e60209081526000928352604080842090915290825290205460ff1681565b6040516200020f919062004068565b620002576200053636600462003c74565b620020b0565b62000205609f5481565b620002576200055736600462003bac565b6200217b565b6200020560a25481565b6200022f62000578366004620033ec565b6001600160a01b03918216600090815260666020908152604080832093909416825291909152205460ff1690565b6200020560a35481565b62000257620005c1366004620034e5565b620022d7565b62000257620005d836600462003588565b62002490565b62000257620005ef36600462003892565b620025f3565b60006001600160a01b038316620006675760405162461bcd60e51b815260206004820152602b60248201527f455243313135353a2062616c616e636520717565727920666f7220746865207a60448201526a65726f206164647265737360a81b60648201526084015b60405180910390fd5b5060009081526065602090815260408083206001600160a01b03949094168352929052205490565b60006001600160e01b03198216636cdb3d1360e11b1480620006c157506001600160e01b031982166303a24d0760e21b145b80620006dd57506301ffc9a760e01b6001600160e01b03198316145b92915050565b60975460405163a7771ee360e01b81526001600160a01b0390911690819063a7771ee3906200071790339060040162003d35565b602060405180830381600087803b1580156200073257600080fd5b505af115801562000747573d6000803e3d6000fd5b505050506040513d601f19601f820116820180604052508101906200076d919062003698565b6200078c5760405162461bcd60e51b81526004016200065e90620040da565b60a38054839160a89160009182620007a483620043e7565b9091555081526020808201929092526040908101600020835181546001600160a01b03199081166001600160a01b039283161783558585015160018401805483169184169190911790559285015160028301805485169183169190911790556060850151600383018054851691831691909117905560808501516004830180549094169082161790925560a084015160058201805460c087015160e08801516101008901516101208a01516101408b01516101608c0151979099166001600160a81b031990951694909417600160a01b60ff948516021761ffff60a81b1916600160a81b9284169290920260ff60b01b191691909117600160b01b918316919091021761ffff60b81b1916600160b81b9282169290920260ff60c01b191691909117600160c01b958216959095029490941760ff60c81b1916600160c81b949092169390930217909155610180830151805191926200090c926006850192909101906200317a565b509050506200094c3360018060405180604001604052806015815260200174436174616e4b6565706572476f7665726e616e636560581b815250620027b6565b5050565b60975460405163a7771ee360e01b81526001600160a01b0390911690819063a7771ee3906200098490339060040162003d35565b602060405180830381600087803b1580156200099f57600080fd5b505af1158015620009b4573d6000803e3d6000fd5b505050506040513d601f19601f82011682018060405250810190620009da919062003698565b620009f95760405162461bcd60e51b81526004016200065e90620040da565b6002336000908152609d60205260409020600290810154600160a01b900460ff169081111562000a2d5762000a2d6200441b565b141562000aad5760405162461bcd60e51b815260206004820152604160248201527f596f7520616c7265616479206861766520612070726f706f73616c206163746960448201527f76652c206f6e6c79206f6e6520706572207265676973746572656420766f74656064820152603960f91b608482015260a4016200065e565b609b805490600062000abf83620043e7565b919050555060006040518060a00160405280609b548152602001848152602001336001600160a01b0316815260200160028081111562000b035762000b036200441b565b815260016020918201819052336000908152609d835260409020835181558383015180519495508594919362000b3f938501929101906200317a565b506040820151600280830180546001600160a01b039093166001600160a01b031984168117825560608601519391926001600160a81b03199092161790600160a01b90849081111562000b965762000b966200441b565b0217905550608091909101516003909101555050336000908152609e60209081526040808320609b5484529091529020805460ff1916600117905550565b60606067805462000be59062004353565b80601f016020809104026020016040519081016040528092919081815260200182805462000c139062004353565b801562000c645780601f1062000c385761010080835404028352916020019162000c64565b820191906000526020600020905b81548152906001019060200180831162000c4657829003601f168201915b50505050509050919050565b60975460405163a7771ee360e01b81526001600160a01b0390911690819063a7771ee39062000ca490339060040162003d35565b602060405180830381600087803b15801562000cbf57600080fd5b505af115801562000cd4573d6000803e3d6000fd5b505050506040513d601f19601f8201168201806040525081019062000cfa919062003698565b62000d195760405162461bcd60e51b81526004016200065e90620040da565b60a28054839160a7916000918262000d3183620043e7565b9091555081526020808201929092526040908101600020835181546001600160a01b03199081166001600160a01b03928316178355858501516001840180548316918416919091179055928501516002830180548516918316919091179055606085015160038301805490941690821617909255608084015160048201805460a087015160c088015160e08901516101008a01516101208b0151969098166001600160a81b031990941693909317600160a01b60ff938416021761ffff60a81b1916600160a81b9183169190910260ff60b01b191617600160b01b928216929092029190911761ffff60b81b1916600160b81b9582169590950260ff60c01b191694909417600160c01b949092169390930217909155610140830151805191926200090c926005850192909101906200317a565b815183511462000ec95760405162461bcd60e51b815260206004820152602860248201527f455243313135353a2069647320616e6420616d6f756e7473206c656e677468206044820152670dad2e6dac2e8c6d60c31b60648201526084016200065e565b6001600160a01b03841662000ef25760405162461bcd60e51b81526004016200065e906200410a565b6001600160a01b03851633148062000f11575062000f11853362000578565b62000f7a5760405162461bcd60e51b815260206004820152603260248201527f455243313135353a207472616e736665722063616c6c6572206973206e6f74206044820152711bdddb995c881b9bdc88185c1c1c9bdd995960721b60648201526084016200065e565b3360005b8451811015620010c057600085828151811062000f9f5762000f9f62004431565b60200260200101519050600085838151811062000fc05762000fc062004431565b60209081029190910181015160008481526065835260408082206001600160a01b038e168352909352919091205490915081811015620010145760405162461bcd60e51b81526004016200065e906200419d565b62001020828262004339565b6065600085815260200190815260200160002060008c6001600160a01b03166001600160a01b0316815260200190815260200160002081905550816065600085815260200190815260200160002060008b6001600160a01b03166001600160a01b031681526020019081526020016000206000828254620010a291906200431e565b9250508190555050505080620010b890620043e7565b905062000f7e565b50846001600160a01b0316866001600160a01b0316826001600160a01b03167f4a39dc06d4c0dbc64b70af90fd698a233a518aa5d07e595d983b8c0526c8f7fb87876040516200111292919062004036565b60405180910390a46200112a818787878787620028b1565b505050505050565b60a7602052600090815260409020805460018201546002830154600384015460048501546005860180546001600160a01b039687169795871696948516959385169483169360ff600160a01b8504811694600160a81b8104821694600160b01b8204831694600160b81b8304841694600160c01b90930490931692620011b89062004353565b80601f0160208091040260200160405190810160405280929190818152602001828054620011e69062004353565b8015620012375780601f106200120b5761010080835404028352916020019162001237565b820191906000526020600020905b8154815290600101906020018083116200121957829003601f168201915b505050505090508b565b609d6020526000908152604090208054600182018054919291620012659062004353565b80601f0160208091040260200160405190810160405280929190818152602001828054620012939062004353565b8015620012e45780601f10620012b857610100808354040283529160200191620012e4565b820191906000526020600020905b815481529060010190602001808311620012c657829003601f168201915b50505050600283015460039093015491926001600160a01b03811692600160a01b90910460ff16915085565b60a56020526000908152604090208054600182015460028301546003840180546001600160a01b03948516959385169483169360ff600160a01b8504811694600160a81b8104821694600160b01b90910490911692620013709062004353565b80601f01602080910402602001604051908101604052809291908181526020018280546200139e9062004353565b8015620013ef5780601f10620013c357610100808354040283529160200191620013ef565b820191906000526020600020905b815481529060010190602001808311620013d157829003601f168201915b5050505050905087565b60608151835114620014605760405162461bcd60e51b815260206004820152602960248201527f455243313135353a206163636f756e747320616e6420696473206c656e677468604482015268040dad2e6dac2e8c6d60bb1b60648201526084016200065e565b600083516001600160401b038111156200147e576200147e62004447565b604051908082528060200260200182016040528015620014a8578160200160208202803683370190505b50905060005b84518110156200152f57620014fc858281518110620014d157620014d162004431565b6020026020010151858381518110620014ee57620014ee62004431565b6020026020010151620005f5565b82828151811062001511576200151162004431565b60209081029190910101526200152781620043e7565b9050620014ae565b509392505050565b609c6020526000908152604090208054600182018054919291620012659062004353565b60975460405163a7771ee360e01b81526001600160a01b0390911690819063a7771ee3906200158f90339060040162003d35565b602060405180830381600087803b158015620015aa57600080fd5b505af1158015620015bf573d6000803e3d6000fd5b505050506040513d601f19601f82011682018060405250810190620015e5919062003698565b620016045760405162461bcd60e51b81526004016200065e90620040da565b60a08054839160a591600091826200161c83620043e7565b9091555081526020808201929092526040908101600020835181546001600160a01b03199081166001600160a01b0392831617835585850151600184018054909216908316179055918401516002820180546060870151608088015160a0890151949096166001600160a81b031990921691909117600160a01b60ff928316021761ffff60a81b1916600160a81b9582169590950260ff60b01b191694909417600160b01b94909216939093021790915560c0830151805191926200090c926003850192909101906200317a565b60975460405163a7771ee360e01b81526001600160a01b0390911690819063a7771ee3906200171e90339060040162003d35565b602060405180830381600087803b1580156200173957600080fd5b505af11580156200174e573d6000803e3d6000fd5b505050506040513d601f19601f8201168201806040525081019062001774919062003698565b620017935760405162461bcd60e51b81526004016200065e90620040da565b336000908152609e602090815260408083206001600160a01b0386168452609d835281842054845290915281205460ff166002811115620017d857620017d86200441b565b146200185b5760405162461bcd60e51b815260206004820152604560248201527f596f75206861766520616c726561647920766f746564206f6e2074686973207060448201527f726f706f73616c2c20796f75206d6179206e6f74206368616e676520796f757260648201526420766f746560d81b608482015260a4016200065e565b8215620018a057336000908152609e602090815260408083206001600160a01b0386168452609d83528184205484529091529020805460ff19166001179055620018d9565b336000908152609e602090815260408083206001600160a01b0386168452609d83528184205484529091529020805460ff191660021790555b6001600160a01b0382166000908152609d602052604081206003018054916200190283620043e7565b9190505550609760009054906101000a90046001600160a01b03166001600160a01b0316634cbe32b86040518163ffffffff1660e01b815260040160206040518083038186803b1580156200195657600080fd5b505afa1580156200196b573d6000803e3d6000fd5b505050506040513d601f19601f8201168201806040525081019062001991919062003c8e565b6001600160a01b0383166000908152609d60205260409020600301541415620019d8576001600160a01b0382166000908152609d6020526040902054620019d89062002a31565b505050565b60a86020526000908152604090208054600182015460028301546003840154600485015460058601546006870180546001600160a01b0397881698968816979586169694861695938416949383169360ff600160a01b8504811694600160a81b8104821694600160b01b8204831694600160b81b8304841694600160c01b8404851694600160c81b90940490931692919062001a799062004353565b80601f016020809104026020016040519081016040528092919081815260200182805462001aa79062004353565b801562001af85780601f1062001acc5761010080835404028352916020019162001af8565b820191906000526020600020905b81548152906001019060200180831162001ada57829003601f168201915b505050505090508d565b600054610100900460ff168062001b1c575060005460ff16155b62001b3b5760405162461bcd60e51b81526004016200065e906200414f565b600054610100900460ff1615801562001b5e576000805461ffff19166101011790555b62001b826040518060600160405280602b815260200162008be8602b913962002ee2565b62001bc433600060066040518060400160405280601a815260200179436174616e737469747574696f6e566f74696e6752696768747360301b815250620027b6565b60405162001bd29062003209565b604051809103906000f08015801562001bef573d6000803e3d6000fd5b50609780546001600160a01b0319166001600160a01b039290921691821790556040516338db6dd360e01b81526338db6dd39062001c3290339060040162003d35565b600060405180830381600087803b15801562001c4d57600080fd5b505af115801562001c62573d6000803e3d6000fd5b50506097546040513393506001600160a01b039091169150309062001c879062003217565b60a0808252600e908201526d293ab632b91037b31021b0ba30b760911b60c082015260e06020820181905260039082015262526f4360e81b6101008201526001600160a01b0393841660408201529183166060830152909116608082015261012001604051809103906000f08015801562001d06573d6000803e3d6000fd5b50609880546001600160a01b0319166001600160a01b0392831617905560975460405133929190911690309062001d3d9062003217565b60a0808252601c908201527b25b2b2b832b91037b3103a34329021b0ba30b739ba34ba3aba34b7b760211b60c082015260e060208201819052600490820152634b6f744360e01b6101008201526001600160a01b0393841660408201529183166060830152909116608082015261012001604051809103906000f08015801562001dcb573d6000803e3d6000fd5b50609980546001600160a01b0319166001600160a01b0392909216919091179055801562001dff576000805461ff00191690555b50565b60a660205260009081526040902080546001820154600283015460038401546004850180546001600160a01b039586169694861695938416949383169360ff600160a01b8504811694600160a81b8104821694600160b01b8204831694600160b81b90920490921692919062001e789062004353565b80601f016020809104026020016040519081016040528092919081815260200182805462001ea69062004353565b801562001ef75780601f1062001ecb5761010080835404028352916020019162001ef7565b820191906000526020600020905b81548152906001019060200180831162001ed957829003601f168201915b5050505050905089565b336001600160a01b038316141562001f6e5760405162461bcd60e51b815260206004820152602960248201527f455243313135353a2073657474696e6720617070726f76616c20737461747573604482015268103337b91039b2b63360b91b60648201526084016200065e565b3360008181526066602090815260408083206001600160a01b03871680855290835292819020805460ff191686151590811790915590519081529192917f17307eab39ab6107e8899845ad3d59bd9653f200f220920489ca2b5937696c31910160405180910390a35050565b60a4602052600090815260409020805460018201546002830180546001600160a01b03938416949383169360ff600160a01b8504811694600160a81b900416929091620020279062004353565b80601f0160208091040260200160405190810160405280929190818152602001828054620020559062004353565b8015620020a65780601f106200207a57610100808354040283529160200191620020a6565b820191906000526020600020905b8154815290600101906020018083116200208857829003601f168201915b5050505050905085565b609860009054906101000a90046001600160a01b0316806001600160a01b031663e534155d6040518163ffffffff1660e01b8152600401602060405180830381600087803b1580156200210257600080fd5b505af115801562002117573d6000803e3d6000fd5b505050506040513d601f19601f820116820180604052508101906200213d9190620033cc565b6001600160a01b0316336001600160a01b031614620021705760405162461bcd60e51b81526004016200065e90620041e7565b6200094c8262002a31565b60975460405163a7771ee360e01b81526001600160a01b0390911690819063a7771ee390620021af90339060040162003d35565b602060405180830381600087803b158015620021ca57600080fd5b505af1158015620021df573d6000803e3d6000fd5b505050506040513d601f19601f8201168201806040525081019062002205919062003698565b620022245760405162461bcd60e51b81526004016200065e90620040da565b609f8054839160a491600091826200223c83620043e7565b9091555081526020808201929092526040908101600020835181546001600160a01b0319166001600160a01b0391821617825584840151600183018054948701516060880151929093166001600160a81b031990951694909417600160a01b60ff938416021760ff60a81b1916600160a81b9290911691909102179091556080830151805191926200090c926002850192909101906200317a565b6001600160a01b038416620023005760405162461bcd60e51b81526004016200065e906200410a565b6001600160a01b0385163314806200231f57506200231f853362000578565b6200237f5760405162461bcd60e51b815260206004820152602960248201527f455243313135353a2063616c6c6572206973206e6f74206f776e6572206e6f7260448201526808185c1c1c9bdd995960ba1b60648201526084016200065e565b33620023a4818787620023928862002f73565b6200239d8862002f73565b5050505050565b60008481526065602090815260408083206001600160a01b038a16845290915290205483811015620023ea5760405162461bcd60e51b81526004016200065e906200419d565b620023f6848262004339565b60008681526065602090815260408083206001600160a01b038c81168552925280832093909355881681529081208054869290620024369084906200431e565b909155505060408051868152602081018690526001600160a01b03808916928a8216929186169160008051602062008bc8833981519152910160405180910390a46200248782888888888862002fc1565b50505050505050565b609960009054906101000a90046001600160a01b0316806001600160a01b031663e534155d6040518163ffffffff1660e01b8152600401602060405180830381600087803b158015620024e257600080fd5b505af1158015620024f7573d6000803e3d6000fd5b505050506040513d601f19601f820116820180604052508101906200251d9190620033cc565b6001600160a01b0316336001600160a01b031614620025505760405162461bcd60e51b81526004016200065e90620041e7565b62002591836000846040518060400160405280601a815260200179436174616e737469747574696f6e566f74696e6752696768747360301b815250620027b6565b6097546040516338db6dd360e01b81526001600160a01b03909116906338db6dd390620025c390869060040162003d35565b600060405180830381600087803b158015620025de57600080fd5b505af115801562002487573d6000803e3d6000fd5b60975460405163a7771ee360e01b81526001600160a01b0390911690819063a7771ee3906200262790339060040162003d35565b602060405180830381600087803b1580156200264257600080fd5b505af115801562002657573d6000803e3d6000fd5b505050506040513d601f19601f820116820180604052508101906200267d919062003698565b6200269c5760405162461bcd60e51b81526004016200065e90620040da565b60a18054839160a69160009182620026b483620043e7565b9091555081526020808201929092526040908101600020835181546001600160a01b03199081166001600160a01b0392831617835585850151600184018054831691841691909117905592850151600283018054909416908216179092556060840151600382018054608087015160a088015160c089015160e08a0151959097166001600160a81b031990931692909217600160a01b60ff928316021761ffff60a81b1916600160a81b9282169290920260ff60b01b191691909117600160b01b958216959095029490941760ff60b81b1916600160b81b949092169390930217909155610100830151805191926200090c926004850192909101906200317a565b6001600160a01b038416620028185760405162461bcd60e51b815260206004820152602160248201527f455243313135353a206d696e7420746f20746865207a65726f206164647265736044820152607360f81b60648201526084016200065e565b336200282c81600087620023928862002f73565b60008481526065602090815260408083206001600160a01b038916845290915281208054859290620028609084906200431e565b909155505060408051858152602081018590526001600160a01b03808816926000929185169160008051602062008bc8833981519152910160405180910390a46200239d8160008787878762002fc1565b6001600160a01b0384163b156200112a5760405163bc197c8160e01b81526001600160a01b0385169063bc197c8190620028f8908990899088908890889060040162003f37565b602060405180830381600087803b1580156200291357600080fd5b505af192505050801562002946575060408051601f3d908101601f191682019092526200294391810190620036f9565b60015b620029fe57620029556200445d565b806308c379a014156200299657506200296d6200447a565b806200297a575062002998565b8060405162461bcd60e51b81526004016200065e91906200407d565b505b60405162461bcd60e51b815260206004820152603460248201527f455243313135353a207472616e7366657220746f206e6f6e20455243313135356044820152732932b1b2b4bb32b91034b6b83632b6b2b73a32b960611b60648201526084016200065e565b6001600160e01b0319811663bc197c8160e01b14620024875760405162461bcd60e51b81526004016200065e9062004092565b60975460408051630997c65760e31b815290516000926001600160a01b031691634cbe32b8916004808301926020929190829003018186803b15801562002a7757600080fd5b505afa15801562002a8c573d6000803e3d6000fd5b505050506040513d601f19601f8201168201806040525081019062002ab2919062003c8e565b90506000805b8281101562002bba576097546040516309fcbdd160e11b8152600481018390526000916001600160a01b0316906313f97ba29060240160206040518083038186803b15801562002b0757600080fd5b505afa15801562002b1c573d6000803e3d6000fd5b505050506040513d601f19601f8201168201806040525081019062002b429190620033cc565b905060016001600160a01b0382166000908152609e6020908152604080832089845290915290205460ff16600281111562002b815762002b816200441b565b141562002ba45762002b95816000620005f5565b62002ba190846200431e565b92505b508062002bb181620043e7565b91505062002ab8565b5062002bc562003225565b60005b8381101562002db5576097546040516309fcbdd160e11b8152600481018390526000916001600160a01b0316906313f97ba29060240160206040518083038186803b15801562002c1757600080fd5b505afa15801562002c2c573d6000803e3d6000fd5b505050506040513d601f19601f8201168201806040525081019062002c529190620033cc565b6001600160a01b0381166000908152609d602052604090205490915086141562002d9f576001600160a01b0381166000908152609d6020908152604091829020825160a0810190935280548352600181018054919284019162002cb59062004353565b80601f016020809104026020016040519081016040528092919081815260200182805462002ce39062004353565b801562002d345780601f1062002d085761010080835404028352916020019162002d34565b820191906000526020600020905b81548152906001019060200180831162002d1657829003601f168201915b50505091835250506002828101546001600160a01b0381166020840152604090920191600160a01b900460ff169081111562002d745762002d746200441b565b600281111562002d885762002d886200441b565b815260200160038201548152505092505062002db5565b508062002dac81620043e7565b91505062002bc8565b5062002dc360018462004339565b821062002ead5780609c6000609a6000815462002de090620043e7565b9182905550815260208082019290925260400160002082518155828201518051919262002e16926001850192909101906200317a565b506040820151600280830180546001600160a01b039093166001600160a01b031984168117825560608601519391926001600160a81b03199092161790600160a01b90849081111562002e6d5762002e6d6200441b565b0217905550608091909101516003909101556040818101516001600160a01b03166000908152609d60205220600201805460ff60a01b1916905562002edc565b6040818101516001600160a01b03166000908152609d60205220600201805460ff60a01b1916600160a01b1790555b50505050565b600054610100900460ff168062002efc575060005460ff16155b62002f1b5760405162461bcd60e51b81526004016200065e906200414f565b600054610100900460ff1615801562002f3e576000805461ffff19166101011790555b62002f4862003098565b62002f5262003098565b62002f5d8262003109565b80156200094c576000805461ff00191690555050565b6040805160018082528183019092526060916000919060208083019080368337019050509050828160008151811062002fb05762002fb062004431565b602090810291909101015292915050565b6001600160a01b0384163b156200112a5760405163f23a6e6160e01b81526001600160a01b0385169063f23a6e619062003008908990899088908890889060040162003f9b565b602060405180830381600087803b1580156200302357600080fd5b505af192505050801562003056575060408051601f3d908101601f191682019092526200305391810190620036f9565b60015b6200306557620029556200445d565b6001600160e01b0319811663f23a6e6160e01b14620024875760405162461bcd60e51b81526004016200065e9062004092565b600054610100900460ff1680620030b2575060005460ff16155b620030d15760405162461bcd60e51b81526004016200065e906200414f565b600054610100900460ff16158015620030f4576000805461ffff19166101011790555b801562001dff576000805461ff001916905550565b600054610100900460ff168062003123575060005460ff16155b620031425760405162461bcd60e51b81526004016200065e906200414f565b600054610100900460ff1615801562003165576000805461ffff19166101011790555b62002f5d8280516200094c9060679060208401905b828054620031889062004353565b90600052602060002090601f016020900481019282620031ac5760008555620031f7565b82601f10620031c757805160ff1916838001178555620031f7565b82800160010185558215620031f7579182015b82811115620031f7578251825591602001919060010190620031da565b506200320592915062003271565b5090565b611c97806200456583390190565b6129cc80620061fc83390190565b6040518060a00160405280600081526020016060815260200160006001600160a01b03168152602001600060028111156200326457620032646200441b565b8152602001600081525090565b5b8082111562003205576000815560010162003272565b8035620032958162004528565b919050565b600082601f830112620032ac57600080fd5b81356020620032bb82620042f8565b604051620032ca8282620043b8565b8381528281019150858301600585901b87018401881015620032eb57600080fd5b60005b858110156200330c57813584529284019290840190600101620032ee565b5090979650505050505050565b600082601f8301126200332b57600080fd5b81356001600160401b0381111562003347576200334762004447565b60405162003360601f8301601f191660200182620043b8565b8181528460208386010111156200337657600080fd5b816020850160208301376000918101602001919091529392505050565b803560ff811681146200329557600080fd5b600060208284031215620033b857600080fd5b8135620033c58162004528565b9392505050565b600060208284031215620033df57600080fd5b8151620033c58162004528565b600080604083850312156200340057600080fd5b82356200340d8162004528565b915060208301356200341f8162004528565b809150509250929050565b600080600080600060a086880312156200344357600080fd5b8535620034508162004528565b94506020860135620034628162004528565b935060408601356001600160401b03808211156200347f57600080fd5b6200348d89838a016200329a565b94506060880135915080821115620034a457600080fd5b620034b289838a016200329a565b93506080880135915080821115620034c957600080fd5b50620034d88882890162003319565b9150509295509295909350565b600080600080600060a08688031215620034fe57600080fd5b85356200350b8162004528565b945060208601356200351d8162004528565b9350604086013592506060860135915060808601356001600160401b038111156200354757600080fd5b620034d88882890162003319565b600080604083850312156200356957600080fd5b8235620035768162004528565b915060208301356200341f816200453e565b600080604083850312156200359c57600080fd5b8235620035a98162004528565b946020939093013593505050565b60008060408385031215620035cb57600080fd5b82356001600160401b0380821115620035e357600080fd5b818501915085601f830112620035f857600080fd5b813560206200360782620042f8565b604051620036168282620043b8565b8381528281019150858301600585901b870184018b10156200363757600080fd5b600096505b8487101562003667578035620036528162004528565b8352600196909601959183019183016200363c565b50965050860135925050808211156200367f57600080fd5b506200368e858286016200329a565b9150509250929050565b600060208284031215620036ab57600080fd5b8151620033c5816200453e565b60008060408385031215620036cc57600080fd5b82356200340d816200453e565b600060208284031215620036ec57600080fd5b8135620033c5816200454d565b6000602082840312156200370c57600080fd5b8151620033c5816200454d565b6000602082840312156200372c57600080fd5b81356001600160401b038111156200374357600080fd5b620037518482850162003319565b949350505050565b6000602082840312156200376c57600080fd5b81356001600160401b03808211156200378457600080fd5b9083019061016082860312156200379a57600080fd5b620037a46200425b565b620037af8362003288565b8152620037bf6020840162003288565b6020820152620037d26040840162003288565b6040820152620037e56060840162003288565b6060820152620037f86080840162003288565b60808201526200380b60a0840162003393565b60a08201526200381e60c0840162003393565b60c08201526200383160e0840162003393565b60e08201526101006200384681850162003393565b908201526101206200385a84820162003393565b9082015261014083810135838111156200387357600080fd5b620038818882870162003319565b918301919091525095945050505050565b600060208284031215620038a557600080fd5b81356001600160401b0380821115620038bd57600080fd5b908301906101208286031215620038d357600080fd5b620038dd62004287565b620038e88362003288565b8152620038f86020840162003288565b60208201526200390b6040840162003288565b60408201526200391e6060840162003288565b6060820152620039316080840162003393565b60808201526200394460a0840162003393565b60a08201526200395760c0840162003393565b60c08201526200396a60e0840162003393565b60e082015261010080840135838111156200387357600080fd5b6000602082840312156200399757600080fd5b81356001600160401b0380821115620039af57600080fd5b908301906101a08286031215620039c557600080fd5b620039cf620042ad565b620039da8362003288565b8152620039ea6020840162003288565b6020820152620039fd6040840162003288565b604082015262003a106060840162003288565b606082015262003a236080840162003288565b608082015262003a3660a0840162003288565b60a082015262003a4960c0840162003393565b60c082015262003a5c60e0840162003393565b60e082015261010062003a7181850162003393565b9082015261012062003a8584820162003393565b9082015261014062003a9984820162003393565b9082015261016062003aad84820162003393565b9082015261018083810135838111156200387357600080fd5b60006020828403121562003ad957600080fd5b81356001600160401b038082111562003af157600080fd5b9083019060e0828603121562003b0657600080fd5b62003b10620042d3565b62003b1b8362003288565b815262003b2b6020840162003288565b602082015262003b3e6040840162003288565b604082015262003b516060840162003393565b606082015262003b646080840162003393565b608082015262003b7760a0840162003393565b60a082015260c08301358281111562003b8f57600080fd5b62003b9d8782860162003319565b60c08301525095945050505050565b60006020828403121562003bbf57600080fd5b81356001600160401b038082111562003bd757600080fd5b9083019060a0828603121562003bec57600080fd5b60405162003bfa8162004390565b823562003c078162004528565b8152602083013562003c198162004528565b602082015262003c2c6040840162003393565b604082015262003c3f6060840162003393565b606082015260808301358281111562003c5757600080fd5b62003c658782860162003319565b60808301525095945050505050565b60006020828403121562003c8757600080fd5b5035919050565b60006020828403121562003ca157600080fd5b5051919050565b600081518084526020808501945080840160005b8381101562003cda5781518752958201959082019060010162003cbc565b509495945050505050565b6000815180845260005b8181101562003d0d5760208185018101518683018201520162003cef565b8181111562003d20576000602083870101525b50601f01601f19169290920160200192915050565b6001600160a01b0391909116815260200190565b6001600160a01b038e811682528d811660208301528c811660408301528b811660608301528a81166080830152891660a082015260ff881660c082015260ff871660e082015260ff861661010082015260ff851661012082015260ff841661014082015260ff83166101608201526101a0610180820152600062003dd26101a083018462003ce5565b9f9e505050505050505050505050505050565b6001600160a01b038c811682528b811660208301528a8116604083015289811660608301528816608082015260ff87811660a083015286811660c083015285811660e08301528481166101008301528316610120820152610160610140820181905260009062003e588382018562003ce5565b9e9d5050505050505050505050505050565b6001600160a01b038a81168252898116602083015288811660408301528716606082015260ff868116608083015285811660a083015284811660c0830152831660e0820152610120610100820181905260009062003ecb8382018562003ce5565b9c9b505050505050505050505050565b6001600160a01b03888116825287811660208301528616604082015260ff85811660608301528481166080830152831660a082015260e060c0820181905260009062003f2a9083018462003ce5565b9998505050505050505050565b6001600160a01b0386811682528516602082015260a06040820181905260009062003f659083018662003ca8565b828103606084015262003f79818662003ca8565b9050828103608084015262003f8f818562003ce5565b98975050505050505050565b6001600160a01b03868116825285166020820152604081018490526060810183905260a06080820181905260009062003fd79083018462003ce5565b979650505050505050565b6001600160a01b0386811682528516602082015260ff84811660408301528316606082015260a06080820181905260009062003fd79083018462003ce5565b602081526000620033c5602083018462003ca8565b6040815260006200404b604083018562003ca8565b82810360208401526200405f818562003ca8565b95945050505050565b60208101620040778362004509565b91905290565b602081526000620033c5602083018462003ce5565b60208082526028908201527f455243313135353a204552433131353552656365697665722072656a656374656040820152676420746f6b656e7360c01b606082015260800190565b6020808252601690820152752737ba1030903932b3b4b9ba32b932b2103b37ba32b960511b604082015260600190565b60208082526025908201527f455243313135353a207472616e7366657220746f20746865207a65726f206164604082015264647265737360d81b606082015260800190565b6020808252602e908201527f496e697469616c697a61626c653a20636f6e747261637420697320616c72656160408201526d191e481a5b9a5d1a585b1a5e995960921b606082015260800190565b6020808252602a908201527f455243313135353a20696e73756666696369656e742062616c616e636520666f60408201526939103a3930b739b332b960b11b606082015260800190565b60208082526010908201526f2737ba103a34ba3632903437b63232b960811b604082015260600190565b85815260a0602082015260006200422c60a083018762003ce5565b6001600160a01b03861660408401529050620042488462004509565b6060820193909352608001529392505050565b60405161016081016001600160401b038111828210171562004281576200428162004447565b60405290565b60405161012081016001600160401b038111828210171562004281576200428162004447565b6040516101a081016001600160401b038111828210171562004281576200428162004447565b60405160e081016001600160401b038111828210171562004281576200428162004447565b60006001600160401b0382111562004314576200431462004447565b5060051b60200190565b6000821982111562004334576200433462004405565b500190565b6000828210156200434e576200434e62004405565b500390565b600181811c908216806200436857607f821691505b602082108114156200438a57634e487b7160e01b600052602260045260246000fd5b50919050565b60a081016001600160401b0381118282101715620043b257620043b262004447565b60405250565b601f8201601f191681016001600160401b0381118282101715620043e057620043e062004447565b6040525050565b6000600019821415620043fe57620043fe62004405565b5060010190565b634e487b7160e01b600052601160045260246000fd5b634e487b7160e01b600052602160045260246000fd5b634e487b7160e01b600052603260045260246000fd5b634e487b7160e01b600052604160045260246000fd5b600060033d1115620044775760046000803e5060005160e01c5b90565b600060443d1015620044895790565b6040516003193d81016004833e81513d6001600160401b038083116024840183101715620044b957505050505090565b8285019150815181811115620044d25750505050505090565b843d8701016020828501011115620044ed5750505050505090565b620044fe60208286010187620043b8565b509095945050505050565b6003811062001dff57634e487b7160e01b600052602160045260246000fd5b6001600160a01b038116811462001dff57600080fd5b801515811462001dff57600080fd5b6001600160e01b03198116811462001dff57600080fdfe60806040523480156200001157600080fd5b506040805180820182526009815268159bdd195c941bdbdb60ba1b602080830191825283518085019094526002845261056560f41b9084015281519192916200005d91600091620003d9565b50805162000073906001906020840190620003d9565b505050600062000088620000e960201b60201c565b600680546001600160a01b0319166001600160a01b038316908117909155604051919250906000907f8be0079c531659141344cd1fd0a4f28419497f9722a3daafe3b4186f6b6457e0908290a350620000e3336001620000ed565b620005e3565b3390565b6200010f8282604051806020016040528060008152506200011360201b60201c565b5050565b6200011f83836200015b565b6200012e6000848484620002a3565b620001565760405162461bcd60e51b81526004016200014d906200052d565b60405180910390fd5b505050565b6001600160a01b038216620001b35760405162461bcd60e51b815260206004820181905260248201527f4552433732313a206d696e7420746f20746865207a65726f206164647265737360448201526064016200014d565b6000818152600260205260409020546001600160a01b0316156200021a5760405162461bcd60e51b815260206004820152601c60248201527f4552433732313a20746f6b656e20616c7265616479206d696e7465640000000060448201526064016200014d565b6001600160a01b0382166000908152600360205260408120805460019290620002459084906200057f565b909155505060008181526002602052604080822080546001600160a01b0319166001600160a01b03861690811790915590518392907fddf252ad1be2c89b69c2b068fc378daa952ba7f163c4a11628f55a4df523b3ef908290a45050565b6000620002c4846001600160a01b0316620003d360201b62000bf81760201c565b15620003c757604051630a85bd0160e11b81526001600160a01b0385169063150b7a0290620002fe903390899088908890600401620004b2565b602060405180830381600087803b1580156200031957600080fd5b505af19250505080156200034c575060408051601f3d908101601f1916820190925262000349918101906200047f565b60015b620003ac573d8080156200037d576040519150601f19603f3d011682016040523d82523d6000602084013e62000382565b606091505b508051620003a45760405162461bcd60e51b81526004016200014d906200052d565b805181602001fd5b6001600160e01b031916630a85bd0160e11b149050620003cb565b5060015b949350505050565b3b151590565b828054620003e790620005a6565b90600052602060002090601f0160209004810192826200040b576000855562000456565b82601f106200042657805160ff191683800117855562000456565b8280016001018555821562000456579182015b828111156200045657825182559160200191906001019062000439565b506200046492915062000468565b5090565b5b8082111562000464576000815560010162000469565b6000602082840312156200049257600080fd5b81516001600160e01b031981168114620004ab57600080fd5b9392505050565b600060018060a01b038087168352602081871681850152856040850152608060608501528451915081608085015260005b82811015620005015785810182015185820160a001528101620004e3565b828111156200051457600060a084870101525b5050601f01601f19169190910160a00195945050505050565b60208082526032908201527f4552433732313a207472616e7366657220746f206e6f6e20455243373231526560408201527131b2b4bb32b91034b6b83632b6b2b73a32b960711b606082015260800190565b60008219821115620005a157634e487b7160e01b600052601160045260246000fd5b500190565b600181811c90821680620005bb57607f821691505b60208210811415620005dd57634e487b7160e01b600052602260045260246000fd5b50919050565b6116a480620005f36000396000f3fe608060405234801561001057600080fd5b50600436106101125760003560e01c806301ffc9a71461011757806306fdde031461013f578063081812fc14610154578063095ea7b31461017f57806313f97ba21461019457806323b872dd146101bd57806338db6dd3146101d057806342842e0e146101e35780634cbe32b8146101f65780636352211e1461020d57806370a0823114610220578063715018a6146102335780637ed177511461023b5780638da5cb5b1461024e57806395d89b4114610256578063a22cb4651461025e578063a2d7e21814610271578063a7771ee314610291578063b88d4fde146102cd578063c87b56dd146102e0578063e985e9c5146102f3578063f2fde38b14610306575b600080fd5b61012a610125366004611317565b610319565b60405190151581526020015b60405180910390f35b61014761036b565b6040516101369190611402565b610167610162366004611351565b6103fd565b6040516001600160a01b039091168152602001610136565b61019261018d3660046112ed565b61048a565b005b6101676101a2366004611351565b6008602052600090815260409020546001600160a01b031681565b6101926101cb36600461119a565b61059b565b6101926101de36600461114c565b6105cc565b6101926101f136600461119a565b610681565b6101ff60075481565b604051908152602001610136565b61016761021b366004611351565b61069c565b6101ff61022e36600461114c565b610713565b61019261079a565b61019261024936600461114c565b610801565b6101676108fd565b61014761090c565b61019261026c3660046112b1565b61091b565b6101ff61027f36600461114c565b60096020526000908152604090205481565b61012a61029f36600461114c565b6001600160a01b03908116600081815260096020908152604080832054835260089091529020549091161490565b6101926102db3660046111d6565b6109dc565b6101476102ee366004611351565b610a14565b61012a610301366004611167565b610aec565b61019261031436600461114c565b610b1a565b60006001600160e01b031982166380ac58cd60e01b148061034a57506001600160e01b03198216635b5e139f60e01b145b8061036557506301ffc9a760e01b6001600160e01b03198316145b92915050565b60606000805461037a90611573565b80601f01602080910402602001604051908101604052809291908181526020018280546103a690611573565b80156103f35780601f106103c8576101008083540402835291602001916103f3565b820191906000526020600020905b8154815290600101906020018083116103d657829003601f168201915b5050505050905090565b600061040882610bfe565b61046e5760405162461bcd60e51b815260206004820152602c60248201527f4552433732313a20617070726f76656420717565727920666f72206e6f6e657860448201526b34b9ba32b73a103a37b5b2b760a11b60648201526084015b60405180910390fd5b506000908152600460205260409020546001600160a01b031690565b60006104958261069c565b9050806001600160a01b0316836001600160a01b031614156105035760405162461bcd60e51b815260206004820152602160248201527f4552433732313a20617070726f76616c20746f2063757272656e74206f776e656044820152603960f91b6064820152608401610465565b336001600160a01b038216148061051f575061051f8133610aec565b61058c5760405162461bcd60e51b815260206004820152603860248201527f4552433732313a20617070726f76652063616c6c6572206973206e6f74206f776044820152771b995c881b9bdc88185c1c1c9bdd995908199bdc88185b1b60421b6064820152608401610465565b6105968383610c1b565b505050565b6105a53382610c89565b6105c15760405162461bcd60e51b81526004016104659061149c565b610596838383610d53565b336105d56108fd565b6001600160a01b0316146105fb5760405162461bcd60e51b815260040161046590611467565b60078054600090815260086020908152604080832080546001600160a01b0319166001600160a01b0387169081179091558454908452600990925282208190559190610646836115ae565b909155506040516001600160a01b038316907ff16ce2c2236e2c6e3df646f80d657bceef4cd7f3a240c47e82adfa17a5f4724190600090a350565b610596838383604051806020016040528060008152506109dc565b6000818152600260205260408120546001600160a01b0316806103655760405162461bcd60e51b815260206004820152602960248201527f4552433732313a206f776e657220717565727920666f72206e6f6e657869737460448201526832b73a103a37b5b2b760b91b6064820152608401610465565b60006001600160a01b03821661077e5760405162461bcd60e51b815260206004820152602a60248201527f4552433732313a2062616c616e636520717565727920666f7220746865207a65604482015269726f206164647265737360b01b6064820152608401610465565b506001600160a01b031660009081526003602052604090205490565b336107a36108fd565b6001600160a01b0316146107c95760405162461bcd60e51b815260040161046590611467565b6006546040516000916001600160a01b03169060008051602061164f833981519152908390a3600680546001600160a01b0319169055565b3361080a6108fd565b6001600160a01b0316146108305760405162461bcd60e51b815260040161046590611467565b6001600160a01b0381166000908152600960205260409020545b6007548110156108b157600860006108638360016114ed565b8152602080820192909252604090810160009081205484825260089093522080546001600160a01b0319166001600160a01b03909216919091179055806108a9816115ae565b91505061084a565b50600780549060006108c28361155c565b909155506040516001600160a01b038316907f78b411a8cf59f03839ed9a669c4c63f73ed091f1aed5762c8e3ff1eae39763a490600090a350565b6006546001600160a01b031690565b60606001805461037a90611573565b6001600160a01b0382163314156109705760405162461bcd60e51b815260206004820152601960248201527822a9219b99189d1030b8383937bb32903a379031b0b63632b960391b6044820152606401610465565b3360008181526005602090815260408083206001600160a01b03871680855290835292819020805460ff191686151590811790915590519081529192917f17307eab39ab6107e8899845ad3d59bd9653f200f220920489ca2b5937696c31910160405180910390a35050565b6109e63383610c89565b610a025760405162461bcd60e51b81526004016104659061149c565b610a0e84848484610ef3565b50505050565b6060610a1f82610bfe565b610a835760405162461bcd60e51b815260206004820152602f60248201527f4552433732314d657461646174613a2055524920717565727920666f72206e6f60448201526e3732bc34b9ba32b73a103a37b5b2b760891b6064820152608401610465565b6000610a9a60408051602081019091526000815290565b90506000815111610aba5760405180602001604052806000815250610ae5565b80610ac484610f26565b604051602001610ad5929190611396565b6040516020818303038152906040525b9392505050565b6001600160a01b03918216600090815260056020908152604080832093909416825291909152205460ff1690565b33610b236108fd565b6001600160a01b031614610b495760405162461bcd60e51b815260040161046590611467565b6001600160a01b038116610bae5760405162461bcd60e51b815260206004820152602660248201527f4f776e61626c653a206e6577206f776e657220697320746865207a65726f206160448201526564647265737360d01b6064820152608401610465565b6006546040516001600160a01b0380841692169060008051602061164f83398151915290600090a3600680546001600160a01b0319166001600160a01b0392909216919091179055565b3b151590565b6000908152600260205260409020546001600160a01b0316151590565b600081815260046020526040902080546001600160a01b0319166001600160a01b0384169081179091558190610c508261069c565b6001600160a01b03167f8c5be1e5ebec7d5bd14f71427d1e84f3dd0314c0f7b2291e5b200ac8c7c3b92560405160405180910390a45050565b6000610c9482610bfe565b610cf55760405162461bcd60e51b815260206004820152602c60248201527f4552433732313a206f70657261746f7220717565727920666f72206e6f6e657860448201526b34b9ba32b73a103a37b5b2b760a11b6064820152608401610465565b6000610d008361069c565b9050806001600160a01b0316846001600160a01b03161480610d3b5750836001600160a01b0316610d30846103fd565b6001600160a01b0316145b80610d4b5750610d4b8185610aec565b949350505050565b826001600160a01b0316610d668261069c565b6001600160a01b031614610dce5760405162461bcd60e51b815260206004820152602960248201527f4552433732313a207472616e73666572206f6620746f6b656e2074686174206960448201526839903737ba1037bbb760b91b6064820152608401610465565b6001600160a01b038216610e305760405162461bcd60e51b8152602060048201526024808201527f4552433732313a207472616e7366657220746f20746865207a65726f206164646044820152637265737360e01b6064820152608401610465565b610e3b600082610c1b565b6001600160a01b0383166000908152600360205260408120805460019290610e64908490611519565b90915550506001600160a01b0382166000908152600360205260408120805460019290610e929084906114ed565b909155505060008181526002602052604080822080546001600160a01b0319166001600160a01b0386811691821790925591518493918716917fddf252ad1be2c89b69c2b068fc378daa952ba7f163c4a11628f55a4df523b3ef91a4505050565b610efe848484610d53565b610f0a84848484611023565b610a0e5760405162461bcd60e51b815260040161046590611415565b606081610f4a5750506040805180820190915260018152600360fc1b602082015290565b8160005b8115610f745780610f5e816115ae565b9150610f6d9050600a83611505565b9150610f4e565b6000816001600160401b03811115610f8e57610f8e61161f565b6040519080825280601f01601f191660200182016040528015610fb8576020820181803683370190505b5090505b8415610d4b57610fcd600183611519565b9150610fda600a866115c9565b610fe59060306114ed565b60f81b818381518110610ffa57610ffa611609565b60200101906001600160f81b031916908160001a90535061101c600a86611505565b9450610fbc565b60006001600160a01b0384163b1561112557604051630a85bd0160e11b81526001600160a01b0385169063150b7a02906110679033908990889088906004016113c5565b602060405180830381600087803b15801561108157600080fd5b505af19250505080156110b1575060408051601f3d908101601f191682019092526110ae91810190611334565b60015b61110b573d8080156110df576040519150601f19603f3d011682016040523d82523d6000602084013e6110e4565b606091505b5080516111035760405162461bcd60e51b815260040161046590611415565b805181602001fd5b6001600160e01b031916630a85bd0160e11b149050610d4b565b506001949350505050565b80356001600160a01b038116811461114757600080fd5b919050565b60006020828403121561115e57600080fd5b610ae582611130565b6000806040838503121561117a57600080fd5b61118383611130565b915061119160208401611130565b90509250929050565b6000806000606084860312156111af57600080fd5b6111b884611130565b92506111c660208501611130565b9150604084013590509250925092565b600080600080608085870312156111ec57600080fd5b6111f585611130565b935061120360208601611130565b92506040850135915060608501356001600160401b038082111561122657600080fd5b818701915087601f83011261123a57600080fd5b81358181111561124c5761124c61161f565b604051601f8201601f19908116603f011681019083821181831017156112745761127461161f565b816040528281528a602084870101111561128d57600080fd5b82602086016020830137600060208483010152809550505050505092959194509250565b600080604083850312156112c457600080fd5b6112cd83611130565b9150602083013580151581146112e257600080fd5b809150509250929050565b6000806040838503121561130057600080fd5b61130983611130565b946020939093013593505050565b60006020828403121561132957600080fd5b8135610ae581611635565b60006020828403121561134657600080fd5b8151610ae581611635565b60006020828403121561136357600080fd5b5035919050565b60008151808452611382816020860160208601611530565b601f01601f19169290920160200192915050565b600083516113a8818460208801611530565b8351908301906113bc818360208801611530565b01949350505050565b6001600160a01b03858116825284166020820152604081018390526080606082018190526000906113f89083018461136a565b9695505050505050565b602081526000610ae5602083018461136a565b60208082526032908201527f4552433732313a207472616e7366657220746f206e6f6e20455243373231526560408201527131b2b4bb32b91034b6b83632b6b2b73a32b960711b606082015260800190565b6020808252818101527f4f776e61626c653a2063616c6c6572206973206e6f7420746865206f776e6572604082015260600190565b60208082526031908201527f4552433732313a207472616e736665722063616c6c6572206973206e6f74206f6040820152701ddb995c881b9bdc88185c1c1c9bdd9959607a1b606082015260800190565b60008219821115611500576115006115dd565b500190565b600082611514576115146115f3565b500490565b60008282101561152b5761152b6115dd565b500390565b60005b8381101561154b578181015183820152602001611533565b83811115610a0e5750506000910152565b60008161156b5761156b6115dd565b506000190190565b600181811c9082168061158757607f821691505b602082108114156115a857634e487b7160e01b600052602260045260246000fd5b50919050565b60006000198214156115c2576115c26115dd565b5060010190565b6000826115d8576115d86115f3565b500690565b634e487b7160e01b600052601160045260246000fd5b634e487b7160e01b600052601260045260246000fd5b634e487b7160e01b600052603260045260246000fd5b634e487b7160e01b600052604160045260246000fd5b6001600160e01b03198116811461164b57600080fd5b5056fe8be0079c531659141344cd1fd0a4f28419497f9722a3daafe3b4186f6b6457e0a26469706673582212206081187e6c6a939423bce10f86f3bd847616a7cc2130ccffce70eef9e24efd1c64736f6c6343000806003360806040523480156200001157600080fd5b50604051620029cc380380620029cc833981016040819052620000349162000652565b6200004d858585846200007860201b62000b8d1760201c565b5060cb80546001600160a01b0319166001600160a01b039290921691909117905550620007dc915050565b600054610100900460ff168062000092575060005460ff16155b620000ba5760405162461bcd60e51b8152600401620000b190620006fe565b60405180910390fd5b600054610100900460ff16158015620000dd576000805461ffff19166101011790555b620000f485856200015460201b62000e9c1760201c565b62000101600083620001e8565b6200012d7f4c7820d3324fd4d561b192bce90b13bd3340ceb966e0fa7c1e5b46c61bbf674183620001e8565b6200013a836000620001f8565b80156200014d576000805461ff00191690555b5050505050565b600054610100900460ff16806200016e575060005460ff16155b6200018d5760405162461bcd60e51b8152600401620000b190620006fe565b600054610100900460ff16158015620001b0576000805461ffff19166101011790555b620001ba62000340565b620001c462000340565b620001d08383620003b2565b8015620001e3576000805461ff00191690555b505050565b620001f4828262000451565b5050565b6001600160a01b038216620002505760405162461bcd60e51b815260206004820181905260248201527f4552433732313a206d696e7420746f20746865207a65726f20616464726573736044820152606401620000b1565b6000818152606760205260409020546001600160a01b031615620002b75760405162461bcd60e51b815260206004820152601c60248201527f4552433732313a20746f6b656e20616c7265616479206d696e746564000000006044820152606401620000b1565b6001600160a01b0382166000908152606860205260408120805460019290620002e29084906200074c565b909155505060008181526067602052604080822080546001600160a01b0319166001600160a01b03861690811790915590518392907fddf252ad1be2c89b69c2b068fc378daa952ba7f163c4a11628f55a4df523b3ef908290a45050565b600054610100900460ff16806200035a575060005460ff16155b620003795760405162461bcd60e51b8152600401620000b190620006fe565b600054610100900460ff161580156200039c576000805461ffff19166101011790555b8015620003af576000805461ff00191690555b50565b600054610100900460ff1680620003cc575060005460ff16155b620003eb5760405162461bcd60e51b8152600401620000b190620006fe565b600054610100900460ff161580156200040e576000805461ffff19166101011790555b825162000423906065906020860190620004f5565b50815162000439906066906020850190620004f5565b508015620001e3576000805461ff0019169055505050565b60008281526097602090815260408083206001600160a01b038516845290915290205460ff16620001f45760008281526097602090815260408083206001600160a01b03851684529091529020805460ff19166001179055620004b13390565b6001600160a01b0316816001600160a01b0316837f2f8788117e7eff1d82e926ec794901d17c78024a50270940304540a733656f0d60405160405180910390a45050565b828054620005039062000773565b90600052602060002090601f01602090048101928262000527576000855562000572565b82601f106200054257805160ff191683800117855562000572565b8280016001018555821562000572579182015b828111156200057257825182559160200191906001019062000555565b506200058092915062000584565b5090565b5b8082111562000580576000815560010162000585565b600082601f830112620005ad57600080fd5b81516001600160401b0380821115620005ca57620005ca620007b0565b604051601f8301601f19908116603f01168101908282118183101715620005f557620005f5620007b0565b816040528381526020925086838588010111156200061257600080fd5b600091505b8382101562000636578582018301518183018401529082019062000617565b83821115620006485760008385830101525b9695505050505050565b600080600080600060a086880312156200066b57600080fd5b85516001600160401b03808211156200068357600080fd5b6200069189838a016200059b565b96506020880151915080821115620006a857600080fd5b50620006b7888289016200059b565b9450506040860151620006ca81620007c6565b6060870151909350620006dd81620007c6565b6080870151909250620006f081620007c6565b809150509295509295909350565b6020808252602e908201527f496e697469616c697a61626c653a20636f6e747261637420697320616c72656160408201526d191e481a5b9a5d1a585b1a5e995960921b606082015260800190565b600082198211156200076e57634e487b7160e01b600052601160045260246000fd5b500190565b600181811c908216806200078857607f821691505b60208210811415620007aa57634e487b7160e01b600052602260045260246000fd5b50919050565b634e487b7160e01b600052604160045260246000fd5b6001600160a01b0381168114620003af57600080fd5b6121e080620007ec6000396000f3fe608060405234801561001057600080fd5b506004361061015f5760003560e01c806301ffc9a71461016457806306fdde031461018c578063081812fc146101a1578063095ea7b3146101cc57806323b872dd146101e1578063248a9ca3146101f45780632f2ff15d146102155780633165d23314610228578063350580ea1461023b57806336568abe1461024e578063400bd1e41461026157806342842e0e146102765780635a87db75146102895780636352211e1461029c57806366a267a9146102af57806370a08231146102cf57806371a8cd3f146102e25780637ed17751146102f55780638f15b4141461030857806391d148541461031b57806395d89b411461032e578063a217fddf14610336578063a22cb4651461033e578063b88d4fde14610351578063c87b56dd14610364578063d547741f14610377578063d8bff5a51461038a578063e534155d146103b3578063e985e9c5146103bb575b600080fd5b610177610172366004611cf2565b6103ce565b60405190151581526020015b60405180910390f35b6101946103df565b6040516101839190611ed4565b6101b46101af366004611cb4565b610471565b6040516001600160a01b039091168152602001610183565b6101df6101da366004611c88565b6104fe565b005b6101df6101ef366004611b95565b61060f565b610207610202366004611cb4565b610640565b604051908152602001610183565b6101df610223366004611ccd565b610655565b6101df610236366004611b22565b610672565b60cb546101b4906001600160a01b031681565b6101df61025c366004611ccd565b6106e3565b61020760008051602061216b83398151915281565b6101df610284366004611b95565b610761565b6101df610297366004611b22565b61077c565b6101b46102aa366004611cb4565b6107b8565b6102076102bd366004611b22565b60ca6020526000908152604090205481565b6102076102dd366004611b22565b61082f565b6101df6102f0366004611b22565b6108b6565b6101df610303366004611b22565b610b2c565b6101df610316366004611d2c565b610b8d565b610177610329366004611ccd565b610c35565b610194610c60565b610207600081565b6101df61034c366004611c55565b610c6f565b6101df61035f366004611bd6565b610d30565b610194610372366004611cb4565b610d68565b6101df610385366004611ccd565b610e40565b6101b4610398366004611b22565b60c9602052600090815260409020546001600160a01b031681565b6101b4610e5d565b6101776103c9366004611b5c565b610e6e565b60006103d982610f23565b92915050565b6060606580546103ee9061207d565b80601f016020809104026020016040519081016040528092919081815260200182805461041a9061207d565b80156104675780601f1061043c57610100808354040283529160200191610467565b820191906000526020600020905b81548152906001019060200180831161044a57829003601f168201915b5050505050905090565b600061047c82610f48565b6104e25760405162461bcd60e51b815260206004820152602c60248201527f4552433732313a20617070726f76656420717565727920666f72206e6f6e657860448201526b34b9ba32b73a103a37b5b2b760a11b60648201526084015b60405180910390fd5b506000908152606960205260409020546001600160a01b031690565b6000610509826107b8565b9050806001600160a01b0316836001600160a01b031614156105775760405162461bcd60e51b815260206004820152602160248201527f4552433732313a20617070726f76616c20746f2063757272656e74206f776e656044820152603960f91b60648201526084016104d9565b336001600160a01b038216148061059357506105938133610e6e565b6106005760405162461bcd60e51b815260206004820152603860248201527f4552433732313a20617070726f76652063616c6c6572206973206e6f74206f776044820152771b995c881b9bdc88185c1c1c9bdd995908199bdc88185b1b60421b60648201526084016104d9565b61060a8383610f65565b505050565b6106193382610fd3565b6106355760405162461bcd60e51b81526004016104d990611f87565b61060a83838361109d565b60009081526097602052604090206001015490565b61065e82610640565b610668813361122b565b61060a838361128f565b61067a610e5d565b6001600160a01b03828116600090815260c96020526040812080546001600160a01b0319169390921692909217905560ca906106b4610e5d565b6001600160a01b03168152602081019190915260400160009081208054916106db836120b8565b919050555050565b6001600160a01b03811633146107535760405162461bcd60e51b815260206004820152602f60248201527f416363657373436f6e74726f6c3a2063616e206f6e6c792072656e6f756e636560448201526e103937b632b9903337b91039b2b63360891b60648201526084016104d9565b61075d8282611315565b5050565b61060a83838360405180602001604052806000815250610d30565b60008051602061216b833981519152610795813361122b565b61075d6107a0610e5d565b8360006040518060200160405280600081525061137c565b6000818152606760205260408120546001600160a01b0316806103d95760405162461bcd60e51b815260206004820152602960248201527f4552433732313a206f776e657220717565727920666f72206e6f6e657869737460448201526832b73a103a37b5b2b760b91b60648201526084016104d9565b60006001600160a01b03821661089a5760405162461bcd60e51b815260206004820152602a60248201527f4552433732313a2062616c616e636520717565727920666f7220746865207a65604482015269726f206164647265737360b01b60648201526084016104d9565b506001600160a01b031660009081526068602052604090205490565b33600090815260c960209081526040808320546001600160a01b0316835260ca90915281208054916108e783612066565b909155505033600090815260c96020908152604080832080546001600160a01b0319166001600160a01b038616908117909155835260ca909152812080549161092f836120b8565b919050555060008060005b60cb60009054906101000a90046001600160a01b03166001600160a01b0316634cbe32b86040518163ffffffff1660e01b815260040160206040518083038186803b15801561098857600080fd5b505afa15801561099c573d6000803e3d6000fd5b505050506040513d601f19601f820116820180604052508101906109c09190611db4565b811015610b025760cb546040516309fcbdd160e11b8152600481018390526000916001600160a01b0316906313f97ba29060240160206040518083038186803b158015610a0c57600080fd5b505afa158015610a20573d6000803e3d6000fd5b505050506040513d601f19601f82011682018060405250810190610a449190611b3f565b6001600160a01b038116600090815260ca6020526040902054909150831015610a8b576001600160a01b038116600090815260ca6020526040902054909350915082610aef565b6001600160a01b038116600090815260ca602052604090205483148015610aca5750610ab5610e5d565b6001600160a01b0316816001600160a01b0316145b15610aef576001600160a01b038116600090815260ca60205260409020549093509150825b5080610afa816120b8565b91505061093a565b50610b0b610e5d565b6001600160a01b0316826001600160a01b03161461060a5761060a826113af565b6001600160a01b03808216600090815260c96020908152604080832054909316825260ca9052908120805491610b6183612066565b90915550506001600160a01b0316600090815260c96020526040902080546001600160a01b0319169055565b600054610100900460ff1680610ba6575060005460ff16155b610bc25760405162461bcd60e51b81526004016104d990611f39565b600054610100900460ff16158015610be4576000805461ffff19166101011790555b610bee8585610e9c565b610bf96000836113d5565b610c1160008051602061216b833981519152836113d5565b610c1c8360006113df565b8015610c2e576000805461ff00191690555b5050505050565b60009182526097602090815260408084206001600160a01b0393909316845291905290205460ff1690565b6060606680546103ee9061207d565b6001600160a01b038216331415610cc45760405162461bcd60e51b815260206004820152601960248201527822a9219b99189d1030b8383937bb32903a379031b0b63632b960391b60448201526064016104d9565b336000818152606a602090815260408083206001600160a01b03871680855290835292819020805460ff191686151590811790915590519081529192917f17307eab39ab6107e8899845ad3d59bd9653f200f220920489ca2b5937696c31910160405180910390a35050565b610d3a3383610fd3565b610d565760405162461bcd60e51b81526004016104d990611f87565b610d628484848461137c565b50505050565b6060610d7382610f48565b610dd75760405162461bcd60e51b815260206004820152602f60248201527f4552433732314d657461646174613a2055524920717565727920666f72206e6f60448201526e3732bc34b9ba32b73a103a37b5b2b760891b60648201526084016104d9565b6000610dee60408051602081019091526000815290565b90506000815111610e0e5760405180602001604052806000815250610e39565b80610e18846114ff565b604051602001610e29929190611df9565b6040516020818303038152906040525b9392505050565b610e4982610640565b610e53813361122b565b61060a8383611315565b6000610e6960006107b8565b905090565b6001600160a01b039182166000908152606a6020908152604080832093909416825291909152205460ff1690565b600054610100900460ff1680610eb5575060005460ff16155b610ed15760405162461bcd60e51b81526004016104d990611f39565b600054610100900460ff16158015610ef3576000805461ffff19166101011790555b610efb6115fc565b610f036115fc565b610f0d8383611667565b801561060a576000805461ff0019169055505050565b60006001600160e01b03198216637965db0b60e01b14806103d957506103d9826116fc565b6000908152606760205260409020546001600160a01b0316151590565b600081815260696020526040902080546001600160a01b0319166001600160a01b0384169081179091558190610f9a826107b8565b6001600160a01b03167f8c5be1e5ebec7d5bd14f71427d1e84f3dd0314c0f7b2291e5b200ac8c7c3b92560405160405180910390a45050565b6000610fde82610f48565b61103f5760405162461bcd60e51b815260206004820152602c60248201527f4552433732313a206f70657261746f7220717565727920666f72206e6f6e657860448201526b34b9ba32b73a103a37b5b2b760a11b60648201526084016104d9565b600061104a836107b8565b9050806001600160a01b0316846001600160a01b031614806110855750836001600160a01b031661107a84610471565b6001600160a01b0316145b8061109557506110958185610e6e565b949350505050565b826001600160a01b03166110b0826107b8565b6001600160a01b0316146111185760405162461bcd60e51b815260206004820152602960248201527f4552433732313a207472616e73666572206f6620746f6b656e2074686174206960448201526839903737ba1037bbb760b91b60648201526084016104d9565b6001600160a01b03821661117a5760405162461bcd60e51b8152602060048201526024808201527f4552433732313a207472616e7366657220746f20746865207a65726f206164646044820152637265737360e01b60648201526084016104d9565b611185600082610f65565b6001600160a01b03831660009081526068602052604081208054600192906111ae908490612023565b90915550506001600160a01b03821660009081526068602052604081208054600192906111dc908490611fd8565b909155505060008181526067602052604080822080546001600160a01b0319166001600160a01b03868116918217909255915184939187169160008051602061218b83398151915291a4505050565b6112358282610c35565b61075d5761124d816001600160a01b0316601461174c565b61125883602061174c565b604051602001611269929190611e28565b60408051601f198184030181529082905262461bcd60e51b82526104d991600401611ed4565b6112998282610c35565b61075d5760008281526097602090815260408083206001600160a01b03851684529091529020805460ff191660011790556112d13390565b6001600160a01b0316816001600160a01b0316837f2f8788117e7eff1d82e926ec794901d17c78024a50270940304540a733656f0d60405160405180910390a45050565b61131f8282610c35565b1561075d5760008281526097602090815260408083206001600160a01b0385168085529252808320805460ff1916905551339285917ff6391f5c32d9c69d2a47ea670b442974b53935d1edc7fd64eb21e047a839171b9190a45050565b61138784848461109d565b611393848484846118e7565b610d625760405162461bcd60e51b81526004016104d990611ee7565b6113d26113ba610e5d565b8260006040518060200160405280600081525061137c565b50565b61075d828261128f565b6001600160a01b0382166114355760405162461bcd60e51b815260206004820181905260248201527f4552433732313a206d696e7420746f20746865207a65726f206164647265737360448201526064016104d9565b61143e81610f48565b1561148a5760405162461bcd60e51b815260206004820152601c60248201527b115490cdcc8c4e881d1bdad95b88185b1c9958591e481b5a5b9d195960221b60448201526064016104d9565b6001600160a01b03821660009081526068602052604081208054600192906114b3908490611fd8565b909155505060008181526067602052604080822080546001600160a01b0319166001600160a01b038616908117909155905183929060008051602061218b833981519152908290a45050565b6060816115235750506040805180820190915260018152600360fc1b602082015290565b8160005b811561154d5780611537816120b8565b91506115469050600a83611ff0565b9150611527565b6000816001600160401b0381111561156757611567612129565b6040519080825280601f01601f191660200182016040528015611591576020820181803683370190505b5090505b8415611095576115a6600183612023565b91506115b3600a866120d3565b6115be906030611fd8565b60f81b8183815181106115d3576115d3612113565b60200101906001600160f81b031916908160001a9053506115f5600a86611ff0565b9450611595565b600054610100900460ff1680611615575060005460ff16155b6116315760405162461bcd60e51b81526004016104d990611f39565b600054610100900460ff16158015611653576000805461ffff19166101011790555b80156113d2576000805461ff001916905550565b600054610100900460ff1680611680575060005460ff16155b61169c5760405162461bcd60e51b81526004016104d990611f39565b600054610100900460ff161580156116be576000805461ffff19166101011790555b82516116d19060659060208601906119f4565b5081516116e59060669060208501906119f4565b50801561060a576000805461ff0019169055505050565b60006001600160e01b031982166380ac58cd60e01b148061172d57506001600160e01b03198216635b5e139f60e01b145b806103d957506301ffc9a760e01b6001600160e01b03198316146103d9565b6060600061175b836002612004565b611766906002611fd8565b6001600160401b0381111561177d5761177d612129565b6040519080825280601f01601f1916602001820160405280156117a7576020820181803683370190505b509050600360fc1b816000815181106117c2576117c2612113565b60200101906001600160f81b031916908160001a905350600f60fb1b816001815181106117f1576117f1612113565b60200101906001600160f81b031916908160001a9053506000611815846002612004565b611820906001611fd8565b90505b6001811115611898576f181899199a1a9b1b9c1cb0b131b232b360811b85600f166010811061185457611854612113565b1a60f81b82828151811061186a5761186a612113565b60200101906001600160f81b031916908160001a90535060049490941c9361189181612066565b9050611823565b508315610e395760405162461bcd60e51b815260206004820181905260248201527f537472696e67733a20686578206c656e67746820696e73756666696369656e7460448201526064016104d9565b60006001600160a01b0384163b156119e957604051630a85bd0160e11b81526001600160a01b0385169063150b7a029061192b903390899088908890600401611e97565b602060405180830381600087803b15801561194557600080fd5b505af1925050508015611975575060408051601f3d908101601f1916820190925261197291810190611d0f565b60015b6119cf573d8080156119a3576040519150601f19603f3d011682016040523d82523d6000602084013e6119a8565b606091505b5080516119c75760405162461bcd60e51b81526004016104d990611ee7565b805181602001fd5b6001600160e01b031916630a85bd0160e11b149050611095565b506001949350505050565b828054611a009061207d565b90600052602060002090601f016020900481019282611a225760008555611a68565b82601f10611a3b57805160ff1916838001178555611a68565b82800160010185558215611a68579182015b82811115611a68578251825591602001919060010190611a4d565b50611a74929150611a78565b5090565b5b80821115611a745760008155600101611a79565b60006001600160401b0380841115611aa757611aa7612129565b604051601f8501601f19908116603f01168101908282118183101715611acf57611acf612129565b81604052809350858152868686011115611ae857600080fd5b858560208301376000602087830101525050509392505050565b600082601f830112611b1357600080fd5b610e3983833560208501611a8d565b600060208284031215611b3457600080fd5b8135610e398161213f565b600060208284031215611b5157600080fd5b8151610e398161213f565b60008060408385031215611b6f57600080fd5b8235611b7a8161213f565b91506020830135611b8a8161213f565b809150509250929050565b600080600060608486031215611baa57600080fd5b8335611bb58161213f565b92506020840135611bc58161213f565b929592945050506040919091013590565b60008060008060808587031215611bec57600080fd5b8435611bf78161213f565b93506020850135611c078161213f565b92506040850135915060608501356001600160401b03811115611c2957600080fd5b8501601f81018713611c3a57600080fd5b611c4987823560208401611a8d565b91505092959194509250565b60008060408385031215611c6857600080fd5b8235611c738161213f565b915060208301358015158114611b8a57600080fd5b60008060408385031215611c9b57600080fd5b8235611ca68161213f565b946020939093013593505050565b600060208284031215611cc657600080fd5b5035919050565b60008060408385031215611ce057600080fd5b823591506020830135611b8a8161213f565b600060208284031215611d0457600080fd5b8135610e3981612154565b600060208284031215611d2157600080fd5b8151610e3981612154565b60008060008060808587031215611d4257600080fd5b84356001600160401b0380821115611d5957600080fd5b611d6588838901611b02565b95506020870135915080821115611d7b57600080fd5b50611d8887828801611b02565b9350506040850135611d998161213f565b91506060850135611da98161213f565b939692955090935050565b600060208284031215611dc657600080fd5b5051919050565b60008151808452611de581602086016020860161203a565b601f01601f19169290920160200192915050565b60008351611e0b81846020880161203a565b835190830190611e1f81836020880161203a565b01949350505050565b76020b1b1b2b9b9a1b7b73a3937b61d1030b1b1b7bab73a1604d1b815260008351611e5a81601785016020880161203a565b7001034b99036b4b9b9b4b733903937b6329607d1b6017918401918201528351611e8b81602884016020880161203a565b01602801949350505050565b6001600160a01b0385811682528416602082015260408101839052608060608201819052600090611eca90830184611dcd565b9695505050505050565b602081526000610e396020830184611dcd565b60208082526032908201527f4552433732313a207472616e7366657220746f206e6f6e20455243373231526560408201527131b2b4bb32b91034b6b83632b6b2b73a32b960711b606082015260800190565b6020808252602e908201527f496e697469616c697a61626c653a20636f6e747261637420697320616c72656160408201526d191e481a5b9a5d1a585b1a5e995960921b606082015260800190565b60208082526031908201527f4552433732313a207472616e736665722063616c6c6572206973206e6f74206f6040820152701ddb995c881b9bdc88185c1c1c9bdd9959607a1b606082015260800190565b60008219821115611feb57611feb6120e7565b500190565b600082611fff57611fff6120fd565b500490565b600081600019048311821515161561201e5761201e6120e7565b500290565b600082821015612035576120356120e7565b500390565b60005b8381101561205557818101518382015260200161203d565b83811115610d625750506000910152565b600081612075576120756120e7565b506000190190565b600181811c9082168061209157607f821691505b602082108114156120b257634e487b7160e01b600052602260045260246000fd5b50919050565b60006000198214156120cc576120cc6120e7565b5060010190565b6000826120e2576120e26120fd565b500690565b634e487b7160e01b600052601160045260246000fd5b634e487b7160e01b600052601260045260246000fd5b634e487b7160e01b600052603260045260246000fd5b634e487b7160e01b600052604160045260246000fd5b6001600160a01b03811681146113d257600080fd5b6001600160e01b0319811681146113d257600080fdfe4c7820d3324fd4d561b192bce90b13bd3340ceb966e0fa7c1e5b46c61bbf6741ddf252ad1be2c89b69c2b068fc378daa952ba7f163c4a11628f55a4df523b3efa264697066735822122053d8aa25f57c3a80bcbcac29a818282fb42740121870d14c19cfc74abf696b0264736f6c63430008060033c3d58168c5ae7397731d063d5bbf3d657854427343f4c083240f7aacaa2d0f6268747470733a2f2f6170692e636174616e737469747574696f6e2e6f6e6c696e652f7b69647d2e6a736f6ea2646970667358221220d35384113835ddc59b76ffc017f271c5601a8057c6a5d6566e8ccb2a4c6b53d364736f6c63430008060033",
  "immutableReferences": {},
  "source": "//SPDX-License-Identifier: MIT\npragma solidity ^0.8.0;\n\nimport \"@openzeppelin/contracts-upgradeable/token/ERC1155/ERC1155Upgradeable.sol\";\nimport \"./open-orgs-v2/TitleAccess.sol\";\nimport \"./open-orgs-v2/VoterAccess.sol\";\nimport \"./open-orgs-v2/VoterPool.sol\";\nimport \"./open-orgs-v2/FluidVoteTitle.sol\";\nimport \"./Games.sol\";\n\ncontract Catanstitution is ERC1155Upgradeable, TitleAccess, VoterAccess {\n\n    //Token IDs\n    uint256 public constant CVR = 0;\n    uint256 public constant CKG = 1;\n\n    //TODO: implement NFTs that can be claimed for various achievements\n    //First Blood: Win the first game in player bracket\n    //Bloodbath: Win a game by 5 or more points\n    //Record Keeper: Record 10 games\n    //Explorers: Record a game variety that isn't the Base\n    //Robber Baron: Win a game by a single point\n    //Pillaged: Lose a game by a single point\n    //Ruler for a Time: Be elected Ruler of Catan (must claim while ruler / or keep history) - starting ruler is not eligible\n    //Sacred Keeper: Be elected Keeper of the Catanstitution (must claim while have title / or have history) - starting keeper is eligible\n    //Winning Streaks in a single bracket in order\n    //Winning Streaks in games with a specific number of players\n\n\n    //TODO: NFTs that automatically change hands when new games are entered based on various stats\n    //Rightful Ruler of Catan: whoever has the most overall victories\n    //The Power House: whoever has the largest margin of victory\n    //Weakest Link: whoever has the most overall last places\n\n    //Titles and Votes\n    VoterPool public cvrHolders;\n    FluidVoteTitle public rulerOfCatan;\n    FluidVoteTitle public keeperOfTheCatanstitution;\n\n    function initialize() public initializer {\n        ERC1155Upgradeable.__ERC1155_init(\"https://api.catanstitution.online/{id}.json\");\n\n        _mint(msg.sender, CVR, 6, \"CatanstitutionVotingRights\");\n        cvrHolders = new VoterPool();\n        cvrHolders.registerVoter(msg.sender);\n\n        rulerOfCatan = new FluidVoteTitle(\"Ruler of Catan\", \"RoC\", msg.sender, cvrHolders, address(this));\n        keeperOfTheCatanstitution = new FluidVoteTitle(\"Keeper of the Catanstitution\", \"KotC\", msg.sender, cvrHolders, address(this));\n    }\n\n    ///////////// Catanstitution\n    enum AmendmentStatus { PASSED, FAILED, PROPOSED }\n    enum VoteStatus { NOT_VOTED, FOR, AGAINST }\n\n    struct Amendment {\n        uint256 amendmentNum; //proposal number\n        string text;\n        address author;\n        AmendmentStatus status;\n        uint256 numVotes; //how many voters voted on this amendment\n    }\n\n    //Catanstitution\n    uint256 public numAcceptedAmendments;\n    uint256 public numProposedAmendments;\n    mapping(uint256 => Amendment) public catanstitution; //passed and ratified amendments\n    mapping(address => Amendment) public proposals; //one proposal per registered voter allowed\n    mapping(address => mapping(uint256 => VoteStatus)) public proposalVotes; //recorded votes for all proposals\n\n    function mintCvr(address to, uint256 amount) public onlyTitleHolder(keeperOfTheCatanstitution) {\n        _mint(to, CVR, amount, \"CatanstitutionVotingRights\");\n        //TODO: determine if we need to register or not\n        cvrHolders.registerVoter(to);\n    }\n\n    function proposeAmendment(string memory amendment) public onlyVoters(cvrHolders) {\n        require(proposals[msg.sender].status != AmendmentStatus.PROPOSED, \"You already have a proposal active, only one per registered voter\");\n\n        numProposedAmendments++;\n        Amendment memory a = Amendment(numProposedAmendments, amendment, msg.sender, AmendmentStatus.PROPOSED, 1);\n        proposals[msg.sender] = a;\n        proposalVotes[msg.sender][numProposedAmendments] = VoteStatus.FOR;\n    }\n\n    function voteOnProposedAmendment(bool vote, address activeProposal) public onlyVoters(cvrHolders) {\n        require(proposalVotes[msg.sender][proposals[activeProposal].amendmentNum] == VoteStatus.NOT_VOTED, \"You have already voted on this proposal, you may not change your vote\");\n\n        //Set vote\n        if (vote) { proposalVotes[msg.sender][proposals[activeProposal].amendmentNum] = VoteStatus.FOR; }\n        else { proposalVotes[msg.sender][proposals[activeProposal].amendmentNum] = VoteStatus.AGAINST; }\n\n        //Update number of cast votes\n        proposals[activeProposal].numVotes++;\n        if(proposals[activeProposal].numVotes == cvrHolders.numVoters()){ //all votes are cast, resolve proposal\n            _resolveAmendmentVote(proposals[activeProposal].amendmentNum);\n        }\n    }\n\n    function _resolveAmendmentVote(uint256 amendmentNum) internal {\n        uint256 numVoters = cvrHolders.numVoters();\n        //Count votes - weighted by CVR owned\n        uint256 votesFor = 0;\n        for (uint256 i = 0; i < numVoters; i++) {\n            address voter = cvrHolders.voterRegistrations(i);\n            if(proposalVotes[voter][amendmentNum] == VoteStatus.FOR){\n                votesFor += balanceOf(voter, CVR);\n            }\n        }\n\n        //Find the amendment\n        Amendment memory a;\n        for (uint256 i = 0; i < numVoters; i++) {\n            address voter = cvrHolders.voterRegistrations(i);\n            if(proposals[voter].amendmentNum == amendmentNum){\n                a = proposals[voter];\n                break;\n            }\n        }\n\n        //Requires all but one voter to pass\n        if(votesFor >= numVoters - 1){\n            //Pass amendment\n            catanstitution[++numAcceptedAmendments] = a;\n            proposals[a.author].status = AmendmentStatus.PASSED;\n        } else {\n            proposals[a.author].status = AmendmentStatus.FAILED;\n        }\n    }\n\n    function resolveAmendment(uint256 amendmentNum) public onlyTitleHolder(rulerOfCatan) {\n        //TODO: check if enough votes have been cast\n        _resolveAmendmentVote(amendmentNum);\n    }\n\n    ///////////// Catan Keeper\n    //Counters tracking the total number of games recorded\n    uint256 public twoPlayerGameId;\n    uint256 public threePlayerGameId;\n    uint256 public fourPlayerGameId;\n    uint256 public fivePlayerGameId;\n    uint256 public sixPlayerGameId;\n\n    mapping(uint256 => Games.TwoPlayerGame) public recordedTwoPlayerGames;\n    mapping(uint256 => Games.ThreePlayerGame) public recordedThreePlayerGames;\n    mapping(uint256 => Games.FourPlayerGame) public recordedFourPlayerGames;\n    mapping(uint256 => Games.FivePlayerGame) public recordedFivePlayerGames;\n    mapping(uint256 => Games.SixPlayerGame) public recordedSixPlayerGames;\n\n    //Functions to record new games\n    function recordTwoPlayerGame(Games.TwoPlayerGame memory game) public onlyVoters(cvrHolders) {\n        recordedTwoPlayerGames[twoPlayerGameId++] = game;\n        _mint(msg.sender, CKG, 1, \"CatanKeeperGovernance\");\n    }\n\n    function recordThreePlayerGame(Games.ThreePlayerGame memory game) public onlyVoters(cvrHolders) {\n        recordedThreePlayerGames[threePlayerGameId++] = game;\n        _mint(msg.sender, CKG, 1, \"CatanKeeperGovernance\");\n    }\n\n    function recordFourPlayerGame(Games.FourPlayerGame memory game) public onlyVoters(cvrHolders) {\n        recordedFourPlayerGames[fourPlayerGameId++] = game;\n        _mint(msg.sender, CKG, 1, \"CatanKeeperGovernance\");\n    }\n\n    function recordFivePlayerGame(Games.FivePlayerGame memory game) public onlyVoters(cvrHolders) {\n        recordedFivePlayerGames[fivePlayerGameId++] = game;\n        _mint(msg.sender, CKG, 1, \"CatanKeeperGovernance\");\n    }\n\n    function recordSixPlayerGame(Games.SixPlayerGame memory game) public onlyVoters(cvrHolders) {\n        recordedSixPlayerGames[sixPlayerGameId++] = game;\n        _mint(msg.sender, CKG, 1, \"CatanKeeperGovernance\");\n    }\n}\n",
  "sourcePath": "/Users/tjharrison/catanstitution/contracts/Catanstitution.sol",
  "compiler": {
    "name": "solc",
    "version": "0.8.6+commit.11564f7e.Emscripten.clang"
  },
  "schemaVersion": "3.4.1",
  "updatedAt": "2021-07-10T17:26:07.503Z",
  "devdoc": {
    "kind": "dev",
    "methods": {
      "balanceOf(address,uint256)": {
        "details": "See {IERC1155-balanceOf}. Requirements: - `account` cannot be the zero address."
      },
      "balanceOfBatch(address[],uint256[])": {
        "details": "See {IERC1155-balanceOfBatch}. Requirements: - `accounts` and `ids` must have the same length."
      },
      "isApprovedForAll(address,address)": {
        "details": "See {IERC1155-isApprovedForAll}."
      },
      "safeBatchTransferFrom(address,address,uint256[],uint256[],bytes)": {
        "details": "See {IERC1155-safeBatchTransferFrom}."
      },
      "safeTransferFrom(address,address,uint256,uint256,bytes)": {
        "details": "See {IERC1155-safeTransferFrom}."
      },
      "setApprovalForAll(address,bool)": {
        "details": "See {IERC1155-setApprovalForAll}."
      },
      "supportsInterface(bytes4)": {
        "details": "See {IERC165-supportsInterface}."
      },
      "uri(uint256)": {
        "details": "See {IERC1155MetadataURI-uri}. This implementation returns the same URI for *all* token types. It relies on the token type ID substitution mechanism https://eips.ethereum.org/EIPS/eip-1155#metadata[defined in the EIP]. Clients calling this function must replace the `\\{id\\}` substring with the actual token type ID."
      }
    },
    "version": 1
  },
  "userdoc": {
    "kind": "user",
    "methods": {},
    "version": 1
  }
}