{
  "contractName": "CatanKeeper",
  "abi": [
    {
      "anonymous": false,
      "inputs": [
        {
          "indexed": true,
          "internalType": "address",
          "name": "owner",
          "type": "address"
        },
        {
          "indexed": true,
          "internalType": "address",
          "name": "approved",
          "type": "address"
        },
        {
          "indexed": true,
          "internalType": "uint256",
          "name": "tokenId",
          "type": "uint256"
        }
      ],
      "name": "Approval",
      "type": "event"
    },
    {
      "anonymous": false,
      "inputs": [
        {
          "indexed": true,
          "internalType": "address",
          "name": "owner",
          "type": "address"
        },
        {
          "indexed": true,
          "internalType": "address",
          "name": "operator",
          "type": "address"
        },
        {
          "indexed": false,
          "internalType": "bool",
          "name": "approved",
          "type": "bool"
        }
      ],
      "name": "ApprovalForAll",
      "type": "event"
    },
    {
      "anonymous": false,
      "inputs": [
        {
          "indexed": true,
          "internalType": "address",
          "name": "from",
          "type": "address"
        },
        {
          "indexed": true,
          "internalType": "address",
          "name": "to",
          "type": "address"
        },
        {
          "indexed": true,
          "internalType": "uint256",
          "name": "tokenId",
          "type": "uint256"
        }
      ],
      "name": "Transfer",
      "type": "event"
    },
    {
      "inputs": [
        {
          "internalType": "address",
          "name": "to",
          "type": "address"
        },
        {
          "internalType": "uint256",
          "name": "tokenId",
          "type": "uint256"
        }
      ],
      "name": "approve",
      "outputs": [],
      "stateMutability": "nonpayable",
      "type": "function"
    },
    {
      "inputs": [
        {
          "internalType": "address",
          "name": "owner",
          "type": "address"
        }
      ],
      "name": "balanceOf",
      "outputs": [
        {
          "internalType": "uint256",
          "name": "",
          "type": "uint256"
        }
      ],
      "stateMutability": "view",
      "type": "function",
      "constant": true
    },
    {
      "inputs": [],
      "name": "fivePlayerGameId",
      "outputs": [
        {
          "internalType": "uint256",
          "name": "",
          "type": "uint256"
        }
      ],
      "stateMutability": "view",
      "type": "function",
      "constant": true
    },
    {
      "inputs": [],
      "name": "fourPlayerGameId",
      "outputs": [
        {
          "internalType": "uint256",
          "name": "",
          "type": "uint256"
        }
      ],
      "stateMutability": "view",
      "type": "function",
      "constant": true
    },
    {
      "inputs": [
        {
          "internalType": "uint256",
          "name": "tokenId",
          "type": "uint256"
        }
      ],
      "name": "getApproved",
      "outputs": [
        {
          "internalType": "address",
          "name": "",
          "type": "address"
        }
      ],
      "stateMutability": "view",
      "type": "function",
      "constant": true
    },
    {
      "inputs": [
        {
          "internalType": "address",
          "name": "owner",
          "type": "address"
        },
        {
          "internalType": "address",
          "name": "operator",
          "type": "address"
        }
      ],
      "name": "isApprovedForAll",
      "outputs": [
        {
          "internalType": "bool",
          "name": "",
          "type": "bool"
        }
      ],
      "stateMutability": "view",
      "type": "function",
      "constant": true
    },
    {
      "inputs": [],
      "name": "name",
      "outputs": [
        {
          "internalType": "string",
          "name": "",
          "type": "string"
        }
      ],
      "stateMutability": "view",
      "type": "function",
      "constant": true
    },
    {
      "inputs": [
        {
          "internalType": "uint256",
          "name": "tokenId",
          "type": "uint256"
        }
      ],
      "name": "ownerOf",
      "outputs": [
        {
          "internalType": "address",
          "name": "",
          "type": "address"
        }
      ],
      "stateMutability": "view",
      "type": "function",
      "constant": true
    },
    {
      "inputs": [
        {
          "internalType": "uint256",
          "name": "",
          "type": "uint256"
        }
      ],
      "name": "recordedFivePlayerGames",
      "outputs": [
        {
          "internalType": "address",
          "name": "player_1",
          "type": "address"
        },
        {
          "internalType": "address",
          "name": "player_2",
          "type": "address"
        },
        {
          "internalType": "address",
          "name": "player_3",
          "type": "address"
        },
        {
          "internalType": "address",
          "name": "player_4",
          "type": "address"
        },
        {
          "internalType": "address",
          "name": "player_5",
          "type": "address"
        },
        {
          "internalType": "uint8",
          "name": "player_1_vp",
          "type": "uint8"
        },
        {
          "internalType": "uint8",
          "name": "player_2_vp",
          "type": "uint8"
        },
        {
          "internalType": "uint8",
          "name": "player_3_vp",
          "type": "uint8"
        },
        {
          "internalType": "uint8",
          "name": "player_4_vp",
          "type": "uint8"
        },
        {
          "internalType": "uint8",
          "name": "player_5_vp",
          "type": "uint8"
        },
        {
          "internalType": "string",
          "name": "variation",
          "type": "string"
        }
      ],
      "stateMutability": "view",
      "type": "function",
      "constant": true
    },
    {
      "inputs": [
        {
          "internalType": "uint256",
          "name": "",
          "type": "uint256"
        }
      ],
      "name": "recordedFourPlayerGames",
      "outputs": [
        {
          "internalType": "address",
          "name": "player_1",
          "type": "address"
        },
        {
          "internalType": "address",
          "name": "player_2",
          "type": "address"
        },
        {
          "internalType": "address",
          "name": "player_3",
          "type": "address"
        },
        {
          "internalType": "address",
          "name": "player_4",
          "type": "address"
        },
        {
          "internalType": "uint8",
          "name": "player_1_vp",
          "type": "uint8"
        },
        {
          "internalType": "uint8",
          "name": "player_2_vp",
          "type": "uint8"
        },
        {
          "internalType": "uint8",
          "name": "player_3_vp",
          "type": "uint8"
        },
        {
          "internalType": "uint8",
          "name": "player_4_vp",
          "type": "uint8"
        },
        {
          "internalType": "string",
          "name": "variation",
          "type": "string"
        }
      ],
      "stateMutability": "view",
      "type": "function",
      "constant": true
    },
    {
      "inputs": [
        {
          "internalType": "uint256",
          "name": "",
          "type": "uint256"
        }
      ],
      "name": "recordedSixPlayerGames",
      "outputs": [
        {
          "internalType": "address",
          "name": "player_1",
          "type": "address"
        },
        {
          "internalType": "address",
          "name": "player_2",
          "type": "address"
        },
        {
          "internalType": "address",
          "name": "player_3",
          "type": "address"
        },
        {
          "internalType": "address",
          "name": "player_4",
          "type": "address"
        },
        {
          "internalType": "address",
          "name": "player_5",
          "type": "address"
        },
        {
          "internalType": "address",
          "name": "player_6",
          "type": "address"
        },
        {
          "internalType": "uint8",
          "name": "player_1_vp",
          "type": "uint8"
        },
        {
          "internalType": "uint8",
          "name": "player_2_vp",
          "type": "uint8"
        },
        {
          "internalType": "uint8",
          "name": "player_3_vp",
          "type": "uint8"
        },
        {
          "internalType": "uint8",
          "name": "player_4_vp",
          "type": "uint8"
        },
        {
          "internalType": "uint8",
          "name": "player_5_vp",
          "type": "uint8"
        },
        {
          "internalType": "uint8",
          "name": "player_6_vp",
          "type": "uint8"
        },
        {
          "internalType": "string",
          "name": "variation",
          "type": "string"
        }
      ],
      "stateMutability": "view",
      "type": "function",
      "constant": true
    },
    {
      "inputs": [
        {
          "internalType": "uint256",
          "name": "",
          "type": "uint256"
        }
      ],
      "name": "recordedThreePlayerGames",
      "outputs": [
        {
          "internalType": "address",
          "name": "player_1",
          "type": "address"
        },
        {
          "internalType": "address",
          "name": "player_2",
          "type": "address"
        },
        {
          "internalType": "address",
          "name": "player_3",
          "type": "address"
        },
        {
          "internalType": "uint8",
          "name": "player_1_vp",
          "type": "uint8"
        },
        {
          "internalType": "uint8",
          "name": "player_2_vp",
          "type": "uint8"
        },
        {
          "internalType": "uint8",
          "name": "player_3_vp",
          "type": "uint8"
        },
        {
          "internalType": "string",
          "name": "variation",
          "type": "string"
        }
      ],
      "stateMutability": "view",
      "type": "function",
      "constant": true
    },
    {
      "inputs": [
        {
          "internalType": "uint256",
          "name": "",
          "type": "uint256"
        }
      ],
      "name": "recordedTwoPlayerGames",
      "outputs": [
        {
          "internalType": "address",
          "name": "player_1",
          "type": "address"
        },
        {
          "internalType": "address",
          "name": "player_2",
          "type": "address"
        },
        {
          "internalType": "uint8",
          "name": "player_1_vp",
          "type": "uint8"
        },
        {
          "internalType": "uint8",
          "name": "player_2_vp",
          "type": "uint8"
        },
        {
          "internalType": "string",
          "name": "variation",
          "type": "string"
        }
      ],
      "stateMutability": "view",
      "type": "function",
      "constant": true
    },
    {
      "inputs": [
        {
          "internalType": "address",
          "name": "from",
          "type": "address"
        },
        {
          "internalType": "address",
          "name": "to",
          "type": "address"
        },
        {
          "internalType": "uint256",
          "name": "tokenId",
          "type": "uint256"
        }
      ],
      "name": "safeTransferFrom",
      "outputs": [],
      "stateMutability": "nonpayable",
      "type": "function"
    },
    {
      "inputs": [
        {
          "internalType": "address",
          "name": "from",
          "type": "address"
        },
        {
          "internalType": "address",
          "name": "to",
          "type": "address"
        },
        {
          "internalType": "uint256",
          "name": "tokenId",
          "type": "uint256"
        },
        {
          "internalType": "bytes",
          "name": "_data",
          "type": "bytes"
        }
      ],
      "name": "safeTransferFrom",
      "outputs": [],
      "stateMutability": "nonpayable",
      "type": "function"
    },
    {
      "inputs": [
        {
          "internalType": "address",
          "name": "operator",
          "type": "address"
        },
        {
          "internalType": "bool",
          "name": "approved",
          "type": "bool"
        }
      ],
      "name": "setApprovalForAll",
      "outputs": [],
      "stateMutability": "nonpayable",
      "type": "function"
    },
    {
      "inputs": [],
      "name": "sixPlayerGameId",
      "outputs": [
        {
          "internalType": "uint256",
          "name": "",
          "type": "uint256"
        }
      ],
      "stateMutability": "view",
      "type": "function",
      "constant": true
    },
    {
      "inputs": [
        {
          "internalType": "bytes4",
          "name": "interfaceId",
          "type": "bytes4"
        }
      ],
      "name": "supportsInterface",
      "outputs": [
        {
          "internalType": "bool",
          "name": "",
          "type": "bool"
        }
      ],
      "stateMutability": "view",
      "type": "function",
      "constant": true
    },
    {
      "inputs": [],
      "name": "symbol",
      "outputs": [
        {
          "internalType": "string",
          "name": "",
          "type": "string"
        }
      ],
      "stateMutability": "view",
      "type": "function",
      "constant": true
    },
    {
      "inputs": [],
      "name": "threePlayerGameId",
      "outputs": [
        {
          "internalType": "uint256",
          "name": "",
          "type": "uint256"
        }
      ],
      "stateMutability": "view",
      "type": "function",
      "constant": true
    },
    {
      "inputs": [
        {
          "internalType": "uint256",
          "name": "tokenId",
          "type": "uint256"
        }
      ],
      "name": "tokenURI",
      "outputs": [
        {
          "internalType": "string",
          "name": "",
          "type": "string"
        }
      ],
      "stateMutability": "view",
      "type": "function",
      "constant": true
    },
    {
      "inputs": [
        {
          "internalType": "address",
          "name": "from",
          "type": "address"
        },
        {
          "internalType": "address",
          "name": "to",
          "type": "address"
        },
        {
          "internalType": "uint256",
          "name": "tokenId",
          "type": "uint256"
        }
      ],
      "name": "transferFrom",
      "outputs": [],
      "stateMutability": "nonpayable",
      "type": "function"
    },
    {
      "inputs": [],
      "name": "twoPlayerGameId",
      "outputs": [
        {
          "internalType": "uint256",
          "name": "",
          "type": "uint256"
        }
      ],
      "stateMutability": "view",
      "type": "function",
      "constant": true
    },
    {
      "inputs": [
        {
          "internalType": "string",
          "name": "_name",
          "type": "string"
        },
        {
          "internalType": "string",
          "name": "_symbol",
          "type": "string"
        },
        {
          "internalType": "contract VoterPool",
          "name": "_allowedRecorders",
          "type": "address"
        }
      ],
      "name": "initialize",
      "outputs": [],
      "stateMutability": "nonpayable",
      "type": "function"
    },
    {
      "inputs": [
        {
          "internalType": "contract Catanstitution",
          "name": "_controller",
          "type": "address"
        },
        {
          "internalType": "uint256",
          "name": "_tokenId",
          "type": "uint256"
        }
      ],
      "name": "setGovernanceToken",
      "outputs": [],
      "stateMutability": "nonpayable",
      "type": "function"
    },
    {
      "inputs": [
        {
          "components": [
            {
              "internalType": "address",
              "name": "player_1",
              "type": "address"
            },
            {
              "internalType": "address",
              "name": "player_2",
              "type": "address"
            },
            {
              "internalType": "uint8",
              "name": "player_1_vp",
              "type": "uint8"
            },
            {
              "internalType": "uint8",
              "name": "player_2_vp",
              "type": "uint8"
            },
            {
              "internalType": "string",
              "name": "variation",
              "type": "string"
            }
          ],
          "internalType": "struct CatanKeeper.TwoPlayerGame",
          "name": "game",
          "type": "tuple"
        }
      ],
      "name": "recordTwoPlayerGame",
      "outputs": [],
      "stateMutability": "nonpayable",
      "type": "function"
    },
    {
      "inputs": [
        {
          "components": [
            {
              "internalType": "address",
              "name": "player_1",
              "type": "address"
            },
            {
              "internalType": "address",
              "name": "player_2",
              "type": "address"
            },
            {
              "internalType": "address",
              "name": "player_3",
              "type": "address"
            },
            {
              "internalType": "uint8",
              "name": "player_1_vp",
              "type": "uint8"
            },
            {
              "internalType": "uint8",
              "name": "player_2_vp",
              "type": "uint8"
            },
            {
              "internalType": "uint8",
              "name": "player_3_vp",
              "type": "uint8"
            },
            {
              "internalType": "string",
              "name": "variation",
              "type": "string"
            }
          ],
          "internalType": "struct CatanKeeper.ThreePlayerGame",
          "name": "game",
          "type": "tuple"
        }
      ],
      "name": "recordThreePlayerGame",
      "outputs": [],
      "stateMutability": "nonpayable",
      "type": "function"
    },
    {
      "inputs": [
        {
          "components": [
            {
              "internalType": "address",
              "name": "player_1",
              "type": "address"
            },
            {
              "internalType": "address",
              "name": "player_2",
              "type": "address"
            },
            {
              "internalType": "address",
              "name": "player_3",
              "type": "address"
            },
            {
              "internalType": "address",
              "name": "player_4",
              "type": "address"
            },
            {
              "internalType": "uint8",
              "name": "player_1_vp",
              "type": "uint8"
            },
            {
              "internalType": "uint8",
              "name": "player_2_vp",
              "type": "uint8"
            },
            {
              "internalType": "uint8",
              "name": "player_3_vp",
              "type": "uint8"
            },
            {
              "internalType": "uint8",
              "name": "player_4_vp",
              "type": "uint8"
            },
            {
              "internalType": "string",
              "name": "variation",
              "type": "string"
            }
          ],
          "internalType": "struct CatanKeeper.FourPlayerGame",
          "name": "game",
          "type": "tuple"
        }
      ],
      "name": "recordFourPlayerGame",
      "outputs": [],
      "stateMutability": "nonpayable",
      "type": "function"
    },
    {
      "inputs": [
        {
          "components": [
            {
              "internalType": "address",
              "name": "player_1",
              "type": "address"
            },
            {
              "internalType": "address",
              "name": "player_2",
              "type": "address"
            },
            {
              "internalType": "address",
              "name": "player_3",
              "type": "address"
            },
            {
              "internalType": "address",
              "name": "player_4",
              "type": "address"
            },
            {
              "internalType": "address",
              "name": "player_5",
              "type": "address"
            },
            {
              "internalType": "uint8",
              "name": "player_1_vp",
              "type": "uint8"
            },
            {
              "internalType": "uint8",
              "name": "player_2_vp",
              "type": "uint8"
            },
            {
              "internalType": "uint8",
              "name": "player_3_vp",
              "type": "uint8"
            },
            {
              "internalType": "uint8",
              "name": "player_4_vp",
              "type": "uint8"
            },
            {
              "internalType": "uint8",
              "name": "player_5_vp",
              "type": "uint8"
            },
            {
              "internalType": "string",
              "name": "variation",
              "type": "string"
            }
          ],
          "internalType": "struct CatanKeeper.FivePlayerGame",
          "name": "game",
          "type": "tuple"
        }
      ],
      "name": "recordFivePlayerGame",
      "outputs": [],
      "stateMutability": "nonpayable",
      "type": "function"
    },
    {
      "inputs": [
        {
          "components": [
            {
              "internalType": "address",
              "name": "player_1",
              "type": "address"
            },
            {
              "internalType": "address",
              "name": "player_2",
              "type": "address"
            },
            {
              "internalType": "address",
              "name": "player_3",
              "type": "address"
            },
            {
              "internalType": "address",
              "name": "player_4",
              "type": "address"
            },
            {
              "internalType": "address",
              "name": "player_5",
              "type": "address"
            },
            {
              "internalType": "address",
              "name": "player_6",
              "type": "address"
            },
            {
              "internalType": "uint8",
              "name": "player_1_vp",
              "type": "uint8"
            },
            {
              "internalType": "uint8",
              "name": "player_2_vp",
              "type": "uint8"
            },
            {
              "internalType": "uint8",
              "name": "player_3_vp",
              "type": "uint8"
            },
            {
              "internalType": "uint8",
              "name": "player_4_vp",
              "type": "uint8"
            },
            {
              "internalType": "uint8",
              "name": "player_5_vp",
              "type": "uint8"
            },
            {
              "internalType": "uint8",
              "name": "player_6_vp",
              "type": "uint8"
            },
            {
              "internalType": "string",
              "name": "variation",
              "type": "string"
            }
          ],
          "internalType": "struct CatanKeeper.SixPlayerGame",
          "name": "game",
          "type": "tuple"
        }
      ],
      "name": "recordSixPlayerGame",
      "outputs": [],
      "stateMutability": "nonpayable",
      "type": "function"
    }
  ],
  "bytecode": "0x608060405234801561001057600080fd5b50612dc5806100206000396000f3fe608060405234801561001057600080fd5b506004361061016a5760003560e01c806301ffc9a71461016f57806306fdde0314610197578063077f224a146101ac578063081812fc146101c157806308c42680146101e1578063095ea7b3146101f4578063184732e01461020757806323b872dd1461021a57806332df11ff1461022d57806342842e0e146102575780634c5c236e1461026a57806355bdaed914610290578063613bd637146102a75780636352211e146102ba5780636d997ef4146102cd57806370a08231146102d65780637ff7139f146102e957806395d89b41146103155780639ad91f9c1461031d578063a22cb46514610345578063a2b1834b14610358578063a957b28b1461038c578063b88d4fde146103b0578063c87b56dd146103c3578063dc480516146103d6578063dd0c297e146103df578063deed4486146103f2578063e985e9c5146103fb578063ef1322d01461040e578063fb08351c14610417575b600080fd5b61018261017d3660046121f7565b61042a565b60405190151581526020015b60405180910390f35b61019f61047c565b60405161018e9190612a3e565b6101bf6101ba366004612231565b61050e565b005b6101d46101cf36600461274b565b6105ab565b60405161018e91906127bf565b6101bf6101ef3660046124a1565b610633565b6101bf6102023660046121ae565b6108c5565b6101bf6102153660046122a8565b6109d6565b6101bf6102283660046120c0565b610bbe565b61024061023b36600461274b565b610bef565b60405161018e9b9a9998979695949392919061286d565b6101bf6102653660046120c0565b610cf6565b61027d61027836600461274b565b610d11565b60405161018e979695949392919061295f565b610299609b5481565b60405190815260200161018e565b6101bf6102b53660046125c5565b610df2565b6101d46102c836600461274b565b610f74565b610299609c5481565b6102996102e436600461206a565b610feb565b6102fc6102f736600461274b565b611072565b60405161018e9d9c9b9a999897969594939291906127d3565b61019f61118f565b61033061032b36600461274b565b61119e565b60405161018e999897969594939291906128f0565b6101bf610353366004612180565b611295565b6101bf6103663660046121ae565b609780546001600160a01b0319166001600160a01b039390931692909217909155609855565b61039f61039a36600461274b565b611356565b60405161018e9594939291906129f6565b6101bf6103be366004612101565b611424565b61019f6103d136600461274b565b611456565b610299609a5481565b6101bf6103ed366004612697565b61152e565b610299609d5481565b610182610409366004612087565b61167d565b610299609e5481565b6101bf6104253660046123c5565b6116ab565b60006001600160e01b031982166380ac58cd60e01b148061045b57506001600160e01b03198216635b5e139f60e01b145b8061047657506301ffc9a760e01b6001600160e01b03198316145b92915050565b60606065805461048b90612c94565b80601f01602080910402602001604051908101604052809291908181526020018280546104b790612c94565b80156105045780601f106104d957610100808354040283529160200191610504565b820191906000526020600020905b8154815290600101906020018083116104e757829003601f168201915b5050505050905090565b600054610100900460ff1680610527575060005460ff16155b61054c5760405162461bcd60e51b815260040161054390612ad3565b60405180910390fd5b600054610100900460ff1615801561056e576000805461ffff19166101011790555b6105788484611861565b609980546001600160a01b0319166001600160a01b03841617905580156105a5576000805461ff00191690555b50505050565b60006105b6826118e8565b6106175760405162461bcd60e51b815260206004820152602c60248201527f4552433732313a20617070726f76656420717565727920666f72206e6f6e657860448201526b34b9ba32b73a103a37b5b2b760a11b6064820152608401610543565b506000908152606960205260409020546001600160a01b031690565b60995460405163a7771ee360e01b81526001600160a01b0390911690819063a7771ee3906106659033906004016127bf565b602060405180830381600087803b15801561067f57600080fd5b505af1158015610693573d6000803e3d6000fd5b505050506040513d601f19601f820116820180604052508101906106b791906121da565b6106d35760405162461bcd60e51b815260040161054390612aa3565b609e8054839160a391600091826106e983612ccf565b9091555081526020808201929092526040908101600020835181546001600160a01b03199081166001600160a01b039283161783558585015160018401805483169184169190911790559285015160028301805485169183169190911790556060850151600383018054851691831691909117905560808501516004830180549094169082161790925560a084015160058201805460c087015160e08801516101008901516101208a01516101408b01516101608c0151979099166001600160a81b031990951694909417600160a01b60ff948516021761ffff60a81b1916600160a81b9284169290920260ff60b01b191691909117600160b01b918316919091021761ffff60b81b1916600160b81b9282169290920260ff60c01b191691909117600160c01b958216959095029490941760ff60c81b1916600160c81b9490921693909302179091556101808301518051919261084f92600685019290910190611f1b565b5050609754609854604051630ab714fb60e11b81523360048201526024810191909152600160448201526001600160a01b03909116915063156e29f690606401600060405180830381600087803b1580156108a957600080fd5b505af11580156108bd573d6000803e3d6000fd5b505050505050565b60006108d082610f74565b9050806001600160a01b0316836001600160a01b0316141561093e5760405162461bcd60e51b815260206004820152602160248201527f4552433732313a20617070726f76616c20746f2063757272656e74206f776e656044820152603960f91b6064820152608401610543565b336001600160a01b038216148061095a575061095a813361167d565b6109c75760405162461bcd60e51b815260206004820152603860248201527f4552433732313a20617070726f76652063616c6c6572206973206e6f74206f776044820152771b995c881b9bdc88185c1c1c9bdd995908199bdc88185b1b60421b6064820152608401610543565b6109d18383611905565b505050565b60995460405163a7771ee360e01b81526001600160a01b0390911690819063a7771ee390610a089033906004016127bf565b602060405180830381600087803b158015610a2257600080fd5b505af1158015610a36573d6000803e3d6000fd5b505050506040513d601f19601f82011682018060405250810190610a5a91906121da565b610a765760405162461bcd60e51b815260040161054390612aa3565b609d8054839160a29160009182610a8c83612ccf565b9091555081526020808201929092526040908101600020835181546001600160a01b03199081166001600160a01b03928316178355858501516001840180548316918416919091179055928501516002830180548516918316919091179055606085015160038301805490941690821617909255608084015160048201805460a087015160c088015160e08901516101008a01516101208b0151969098166001600160a81b031990941693909317600160a01b60ff938416021761ffff60a81b1916600160a81b9183169190910260ff60b01b191617600160b01b928216929092029190911761ffff60b81b1916600160b81b9582169590950260ff60c01b191694909417600160c01b9490921693909302179091556101408301518051919261084f92600585019290910190611f1b565b610bc83382611973565b610be45760405162461bcd60e51b815260040161054390612b21565b6109d1838383611a3d565b60a2602052600090815260409020805460018201546002830154600384015460048501546005860180546001600160a01b039687169795871696948516959385169483169360ff600160a01b8504811694600160a81b8104821694600160b01b8204831694600160b81b8304841694600160c01b90930490931692610c7390612c94565b80601f0160208091040260200160405190810160405280929190818152602001828054610c9f90612c94565b8015610cec5780601f10610cc157610100808354040283529160200191610cec565b820191906000526020600020905b815481529060010190602001808311610ccf57829003601f168201915b505050505090508b565b6109d183838360405180602001604052806000815250611424565b60a06020526000908152604090208054600182015460028301546003840180546001600160a01b03948516959385169483169360ff600160a01b8504811694600160a81b8104821694600160b01b90910490911692610d6f90612c94565b80601f0160208091040260200160405190810160405280929190818152602001828054610d9b90612c94565b8015610de85780601f10610dbd57610100808354040283529160200191610de8565b820191906000526020600020905b815481529060010190602001808311610dcb57829003601f168201915b5050505050905087565b60995460405163a7771ee360e01b81526001600160a01b0390911690819063a7771ee390610e249033906004016127bf565b602060405180830381600087803b158015610e3e57600080fd5b505af1158015610e52573d6000803e3d6000fd5b505050506040513d601f19601f82011682018060405250810190610e7691906121da565b610e925760405162461bcd60e51b815260040161054390612aa3565b609b8054839160a09160009182610ea883612ccf565b9091555081526020808201929092526040908101600020835181546001600160a01b03199081166001600160a01b0392831617835585850151600184018054909216908316179055918401516002820180546060870151608088015160a0890151949096166001600160a81b031990921691909117600160a01b60ff928316021761ffff60a81b1916600160a81b9582169590950260ff60b01b191694909417600160b01b94909216939093021790915560c08301518051919261084f92600385019290910190611f1b565b6000818152606760205260408120546001600160a01b0316806104765760405162461bcd60e51b815260206004820152602960248201527f4552433732313a206f776e657220717565727920666f72206e6f6e657869737460448201526832b73a103a37b5b2b760b91b6064820152608401610543565b60006001600160a01b0382166110565760405162461bcd60e51b815260206004820152602a60248201527f4552433732313a2062616c616e636520717565727920666f7220746865207a65604482015269726f206164647265737360b01b6064820152608401610543565b506001600160a01b031660009081526068602052604090205490565b60a36020526000908152604090208054600182015460028301546003840154600485015460058601546006870180546001600160a01b0397881698968816979586169694861695938416949383169360ff600160a01b8504811694600160a81b8104821694600160b01b8204831694600160b81b8304841694600160c01b8404851694600160c81b90940490931692919061110c90612c94565b80601f016020809104026020016040519081016040528092919081815260200182805461113890612c94565b80156111855780601f1061115a57610100808354040283529160200191611185565b820191906000526020600020905b81548152906001019060200180831161116857829003601f168201915b505050505090508d565b60606066805461048b90612c94565b60a160205260009081526040902080546001820154600283015460038401546004850180546001600160a01b039586169694861695938416949383169360ff600160a01b8504811694600160a81b8104821694600160b01b8204831694600160b81b90920490921692919061121290612c94565b80601f016020809104026020016040519081016040528092919081815260200182805461123e90612c94565b801561128b5780601f106112605761010080835404028352916020019161128b565b820191906000526020600020905b81548152906001019060200180831161126e57829003601f168201915b5050505050905089565b6001600160a01b0382163314156112ea5760405162461bcd60e51b815260206004820152601960248201527822a9219b99189d1030b8383937bb32903a379031b0b63632b960391b6044820152606401610543565b336000818152606a602090815260408083206001600160a01b03871680855290835292819020805460ff191686151590811790915590519081529192917f17307eab39ab6107e8899845ad3d59bd9653f200f220920489ca2b5937696c31910160405180910390a35050565b609f602052600090815260409020805460018201546002830180546001600160a01b03938416949383169360ff600160a01b8504811694600160a81b9004169290916113a190612c94565b80601f01602080910402602001604051908101604052809291908181526020018280546113cd90612c94565b801561141a5780601f106113ef5761010080835404028352916020019161141a565b820191906000526020600020905b8154815290600101906020018083116113fd57829003601f168201915b5050505050905085565b61142e3383611973565b61144a5760405162461bcd60e51b815260040161054390612b21565b6105a584848484611bdd565b6060611461826118e8565b6114c55760405162461bcd60e51b815260206004820152602f60248201527f4552433732314d657461646174613a2055524920717565727920666f72206e6f60448201526e3732bc34b9ba32b73a103a37b5b2b760891b6064820152608401610543565b60006114dc60408051602081019091526000815290565b905060008151116114fc5760405180602001604052806000815250611527565b8061150684611c10565b604051602001611517929190612790565b6040516020818303038152906040525b9392505050565b60995460405163a7771ee360e01b81526001600160a01b0390911690819063a7771ee3906115609033906004016127bf565b602060405180830381600087803b15801561157a57600080fd5b505af115801561158e573d6000803e3d6000fd5b505050506040513d601f19601f820116820180604052508101906115b291906121da565b6115ce5760405162461bcd60e51b815260040161054390612aa3565b609a80548391609f91600091826115e483612ccf565b9091555081526020808201929092526040908101600020835181546001600160a01b0319166001600160a01b0391821617825584840151600183018054948701516060880151929093166001600160a81b031990951694909417600160a01b60ff938416021760ff60a81b1916600160a81b92909116919091021790915560808301518051919261084f92600285019290910190611f1b565b6001600160a01b039182166000908152606a6020908152604080832093909416825291909152205460ff1690565b60995460405163a7771ee360e01b81526001600160a01b0390911690819063a7771ee3906116dd9033906004016127bf565b602060405180830381600087803b1580156116f757600080fd5b505af115801561170b573d6000803e3d6000fd5b505050506040513d601f19601f8201168201806040525081019061172f91906121da565b61174b5760405162461bcd60e51b815260040161054390612aa3565b609c8054839160a1916000918261176183612ccf565b9091555081526020808201929092526040908101600020835181546001600160a01b03199081166001600160a01b0392831617835585850151600184018054831691841691909117905592850151600283018054909416908216179092556060840151600382018054608087015160a088015160c089015160e08a0151959097166001600160a81b031990931692909217600160a01b60ff928316021761ffff60a81b1916600160a81b9282169290920260ff60b01b191691909117600160b01b958216959095029490941760ff60b81b1916600160b81b9490921693909302179091556101008301518051919261084f92600485019290910190611f1b565b600054610100900460ff168061187a575060005460ff16155b6118965760405162461bcd60e51b815260040161054390612ad3565b600054610100900460ff161580156118b8576000805461ffff19166101011790555b6118c0611d0d565b6118c8611d0d565b6118d28383611d79565b80156109d1576000805461ff0019169055505050565b6000908152606760205260409020546001600160a01b0316151590565b600081815260696020526040902080546001600160a01b0319166001600160a01b038416908117909155819061193a82610f74565b6001600160a01b03167f8c5be1e5ebec7d5bd14f71427d1e84f3dd0314c0f7b2291e5b200ac8c7c3b92560405160405180910390a45050565b600061197e826118e8565b6119df5760405162461bcd60e51b815260206004820152602c60248201527f4552433732313a206f70657261746f7220717565727920666f72206e6f6e657860448201526b34b9ba32b73a103a37b5b2b760a11b6064820152608401610543565b60006119ea83610f74565b9050806001600160a01b0316846001600160a01b03161480611a255750836001600160a01b0316611a1a846105ab565b6001600160a01b0316145b80611a355750611a35818561167d565b949350505050565b826001600160a01b0316611a5082610f74565b6001600160a01b031614611ab85760405162461bcd60e51b815260206004820152602960248201527f4552433732313a207472616e73666572206f6620746f6b656e2074686174206960448201526839903737ba1037bbb760b91b6064820152608401610543565b6001600160a01b038216611b1a5760405162461bcd60e51b8152602060048201526024808201527f4552433732313a207472616e7366657220746f20746865207a65726f206164646044820152637265737360e01b6064820152608401610543565b611b25600082611905565b6001600160a01b0383166000908152606860205260408120805460019290611b4e908490612c51565b90915550506001600160a01b0382166000908152606860205260408120805460019290611b7c908490612c25565b909155505060008181526067602052604080822080546001600160a01b0319166001600160a01b0386811691821790925591518493918716917fddf252ad1be2c89b69c2b068fc378daa952ba7f163c4a11628f55a4df523b3ef91a4505050565b611be8848484611a3d565b611bf484848484611e0e565b6105a55760405162461bcd60e51b815260040161054390612a51565b606081611c345750506040805180820190915260018152600360fc1b602082015290565b8160005b8115611c5e5780611c4881612ccf565b9150611c579050600a83612c3d565b9150611c38565b6000816001600160401b03811115611c7857611c78612d40565b6040519080825280601f01601f191660200182016040528015611ca2576020820181803683370190505b5090505b8415611a3557611cb7600183612c51565b9150611cc4600a86612cea565b611ccf906030612c25565b60f81b818381518110611ce457611ce4612d2a565b60200101906001600160f81b031916908160001a905350611d06600a86612c3d565b9450611ca6565b600054610100900460ff1680611d26575060005460ff16155b611d425760405162461bcd60e51b815260040161054390612ad3565b600054610100900460ff16158015611d64576000805461ffff19166101011790555b8015611d76576000805461ff00191690555b50565b600054610100900460ff1680611d92575060005460ff16155b611dae5760405162461bcd60e51b815260040161054390612ad3565b600054610100900460ff16158015611dd0576000805461ffff19166101011790555b8251611de3906065906020860190611f1b565b508151611df7906066906020850190611f1b565b5080156109d1576000805461ff0019169055505050565b60006001600160a01b0384163b15611f1057604051630a85bd0160e11b81526001600160a01b0385169063150b7a0290611e529033908990889088906004016129b9565b602060405180830381600087803b158015611e6c57600080fd5b505af1925050508015611e9c575060408051601f3d908101601f19168201909252611e9991810190612214565b60015b611ef6573d808015611eca576040519150601f19603f3d011682016040523d82523d6000602084013e611ecf565b606091505b508051611eee5760405162461bcd60e51b815260040161054390612a51565b805181602001fd5b6001600160e01b031916630a85bd0160e11b149050611a35565b506001949350505050565b828054611f2790612c94565b90600052602060002090601f016020900481019282611f495760008555611f8f565b82601f10611f6257805160ff1916838001178555611f8f565b82800160010185558215611f8f579182015b82811115611f8f578251825591602001919060010190611f74565b50611f9b929150611f9f565b5090565b5b80821115611f9b5760008155600101611fa0565b60006001600160401b0380841115611fce57611fce612d40565b604051601f8501601f19908116603f01168101908282118183101715611ff657611ff6612d40565b8160405280935085815286868601111561200f57600080fd5b858560208301376000602087830101525050509392505050565b803561203481612d56565b919050565b600082601f83011261204a57600080fd5b61152783833560208501611fb4565b803560ff8116811461203457600080fd5b60006020828403121561207c57600080fd5b813561152781612d56565b6000806040838503121561209a57600080fd5b82356120a581612d56565b915060208301356120b581612d56565b809150509250929050565b6000806000606084860312156120d557600080fd5b83356120e081612d56565b925060208401356120f081612d56565b929592945050506040919091013590565b6000806000806080858703121561211757600080fd5b843561212281612d56565b9350602085013561213281612d56565b92506040850135915060608501356001600160401b0381111561215457600080fd5b8501601f8101871361216557600080fd5b61217487823560208401611fb4565b91505092959194509250565b6000806040838503121561219357600080fd5b823561219e81612d56565b915060208301356120b581612d6b565b600080604083850312156121c157600080fd5b82356121cc81612d56565b946020939093013593505050565b6000602082840312156121ec57600080fd5b815161152781612d6b565b60006020828403121561220957600080fd5b813561152781612d79565b60006020828403121561222657600080fd5b815161152781612d79565b60008060006060848603121561224657600080fd5b83356001600160401b038082111561225d57600080fd5b61226987838801612039565b9450602086013591508082111561227f57600080fd5b5061228c86828701612039565b925050604084013561229d81612d56565b809150509250925092565b6000602082840312156122ba57600080fd5b81356001600160401b03808211156122d157600080fd5b9083019061016082860312156122e657600080fd5b6122ee612b72565b6122f783612029565b815261230560208401612029565b602082015261231660408401612029565b604082015261232760608401612029565b606082015261233860808401612029565b608082015261234960a08401612059565b60a082015261235a60c08401612059565b60c082015261236b60e08401612059565b60e082015261010061237e818501612059565b90820152610120612390848201612059565b9082015261014083810135838111156123a857600080fd5b6123b488828701612039565b918301919091525095945050505050565b6000602082840312156123d757600080fd5b81356001600160401b03808211156123ee57600080fd5b90830190610120828603121561240357600080fd5b61240b612b9b565b61241483612029565b815261242260208401612029565b602082015261243360408401612029565b604082015261244460608401612029565b606082015261245560808401612059565b608082015261246660a08401612059565b60a082015261247760c08401612059565b60c082015261248860e08401612059565b60e082015261010080840135838111156123a857600080fd5b6000602082840312156124b357600080fd5b81356001600160401b03808211156124ca57600080fd5b908301906101a082860312156124df57600080fd5b6124e7612bbe565b6124f083612029565b81526124fe60208401612029565b602082015261250f60408401612029565b604082015261252060608401612029565b606082015261253160808401612029565b608082015261254260a08401612029565b60a082015261255360c08401612059565b60c082015261256460e08401612059565b60e0820152610100612577818501612059565b90820152610120612589848201612059565b9082015261014061259b848201612059565b908201526101606125ad848201612059565b9082015261018083810135838111156123a857600080fd5b6000602082840312156125d757600080fd5b81356001600160401b03808211156125ee57600080fd5b9083019060e0828603121561260257600080fd5b61260a612be1565b61261383612029565b815261262160208401612029565b602082015261263260408401612029565b604082015261264360608401612059565b606082015261265460808401612059565b608082015261266560a08401612059565b60a082015260c08301358281111561267c57600080fd5b61268887828601612039565b60c08301525095945050505050565b6000602082840312156126a957600080fd5b81356001600160401b03808211156126c057600080fd5b9083019060a082860312156126d457600080fd5b6126dc612c03565b82356126e781612d56565b815260208301356126f781612d56565b602082015261270860408401612059565b604082015261271960608401612059565b606082015260808301358281111561273057600080fd5b61273c87828601612039565b60808301525095945050505050565b60006020828403121561275d57600080fd5b5035919050565b6000815180845261277c816020860160208601612c68565b601f01601f19169290920160200192915050565b600083516127a2818460208801612c68565b8351908301906127b6818360208801612c68565b01949350505050565b6001600160a01b0391909116815260200190565b6001600160a01b038e811682528d811660208301528c811660408301528b811660608301528a81166080830152891660a082015260ff881660c082015260ff871660e082015260ff861661010082015260ff851661012082015260ff841661014082015260ff83166101608201526101a0610180820152600061285a6101a0830184612764565b9f9e505050505050505050505050505050565b6001600160a01b038c811682528b811660208301528a8116604083015289811660608301528816608082015260ff87811660a083015286811660c083015285811660e0830152848116610100830152831661012082015261016061014082018190526000906128de83820185612764565b9e9d5050505050505050505050505050565b6001600160a01b038a81168252898116602083015288811660408301528716606082015260ff868116608083015285811660a083015284811660c0830152831660e0820152610120610100820181905260009061294f83820185612764565b9c9b505050505050505050505050565b6001600160a01b03888116825287811660208301528616604082015260ff85811660608301528481166080830152831660a082015260e060c082018190526000906129ac90830184612764565b9998505050505050505050565b6001600160a01b03858116825284166020820152604081018390526080606082018190526000906129ec90830184612764565b9695505050505050565b6001600160a01b0386811682528516602082015260ff84811660408301528316606082015260a060808201819052600090612a3390830184612764565b979650505050505050565b6020815260006115276020830184612764565b60208082526032908201527f4552433732313a207472616e7366657220746f206e6f6e20455243373231526560408201527131b2b4bb32b91034b6b83632b6b2b73a32b960711b606082015260800190565b6020808252601690820152752737ba1030903932b3b4b9ba32b932b2103b37ba32b960511b604082015260600190565b6020808252602e908201527f496e697469616c697a61626c653a20636f6e747261637420697320616c72656160408201526d191e481a5b9a5d1a585b1a5e995960921b606082015260800190565b60208082526031908201527f4552433732313a207472616e736665722063616c6c6572206973206e6f74206f6040820152701ddb995c881b9bdc88185c1c1c9bdd9959607a1b606082015260800190565b60405161016081016001600160401b0381118282101715612b9557612b95612d40565b60405290565b60405161012081016001600160401b0381118282101715612b9557612b95612d40565b6040516101a081016001600160401b0381118282101715612b9557612b95612d40565b60405160e081016001600160401b0381118282101715612b9557612b95612d40565b60405160a081016001600160401b0381118282101715612b9557612b95612d40565b60008219821115612c3857612c38612cfe565b500190565b600082612c4c57612c4c612d14565b500490565b600082821015612c6357612c63612cfe565b500390565b60005b83811015612c83578181015183820152602001612c6b565b838111156105a55750506000910152565b600181811c90821680612ca857607f821691505b60208210811415612cc957634e487b7160e01b600052602260045260246000fd5b50919050565b6000600019821415612ce357612ce3612cfe565b5060010190565b600082612cf957612cf9612d14565b500690565b634e487b7160e01b600052601160045260246000fd5b634e487b7160e01b600052601260045260246000fd5b634e487b7160e01b600052603260045260246000fd5b634e487b7160e01b600052604160045260246000fd5b6001600160a01b0381168114611d7657600080fd5b8015158114611d7657600080fd5b6001600160e01b031981168114611d7657600080fdfea2646970667358221220d4987ffa2ef2d0fd4108410a055fd4d042099353b70739620bcb1e8dba0f689a64736f6c63430008060033",
  "immutableReferences": {},
  "source": "//SPDX-License-Identifier: MIT\npragma solidity ^0.8.0;\n\nimport \"./open-orgs/TitleAccess.sol\";\nimport \"./open-orgs/VoterAccess.sol\";\nimport \"./Catanstitution.sol\";\n\ncontract CatanKeeper is ERC721Upgradeable, TitleAccess, VoterAccess {\n\n    Catanstitution controller;\n    uint256 tokenId;\n    VoterPool allowedRecorders;\n\n    function initialize(string memory _name, string memory _symbol, VoterPool _allowedRecorders) public initializer {\n        ERC721Upgradeable.__ERC721_init(_name, _symbol);\n        allowedRecorders = _allowedRecorders;\n    }\n\n    //TODO: access control\n    function setGovernanceToken(Catanstitution _controller, uint256 _tokenId) public {\n        controller = _controller;\n        tokenId = _tokenId;\n    }\n\n    uint256 public twoPlayerGameId;\n    uint256 public threePlayerGameId;\n    uint256 public fourPlayerGameId;\n    uint256 public fivePlayerGameId;\n    uint256 public sixPlayerGameId;\n\n    mapping(uint256 => TwoPlayerGame) public recordedTwoPlayerGames;\n    mapping(uint256 => ThreePlayerGame) public recordedThreePlayerGames;\n    mapping(uint256 => FourPlayerGame) public recordedFourPlayerGames;\n    mapping(uint256 => FivePlayerGame) public recordedFivePlayerGames;\n    mapping(uint256 => SixPlayerGame) public recordedSixPlayerGames;\n\n    //Game records, one per num of players\n    struct TwoPlayerGame {\n        address player_1;\n        address player_2;\n        uint8 player_1_vp;\n        uint8 player_2_vp;\n        string variation;\n    }\n\n    struct ThreePlayerGame {\n        address player_1;\n        address player_2;\n        address player_3;\n        uint8 player_1_vp;\n        uint8 player_2_vp;\n        uint8 player_3_vp;\n        string variation;\n    }\n\n    struct FourPlayerGame {\n        address player_1;\n        address player_2;\n        address player_3;\n        address player_4;\n        uint8 player_1_vp;\n        uint8 player_2_vp;\n        uint8 player_3_vp;\n        uint8 player_4_vp;\n        string variation;\n    }\n\n    struct FivePlayerGame {\n        address player_1;\n        address player_2;\n        address player_3;\n        address player_4;\n        address player_5;\n        uint8 player_1_vp;\n        uint8 player_2_vp;\n        uint8 player_3_vp;\n        uint8 player_4_vp;\n        uint8 player_5_vp;\n        string variation;\n    }\n\n    struct SixPlayerGame {\n        address player_1;\n        address player_2;\n        address player_3;\n        address player_4;\n        address player_5;\n        address player_6;\n        uint8 player_1_vp;\n        uint8 player_2_vp;\n        uint8 player_3_vp;\n        uint8 player_4_vp;\n        uint8 player_5_vp;\n        uint8 player_6_vp;\n        string variation;\n    }\n\n    //Functions to record new games\n    function recordTwoPlayerGame(TwoPlayerGame memory game) public onlyVoters(allowedRecorders) {\n        recordedTwoPlayerGames[twoPlayerGameId++] = game;\n        controller.mint(msg.sender, tokenId, 1);\n    }\n\n    function recordThreePlayerGame(ThreePlayerGame memory game) public onlyVoters(allowedRecorders) {\n        recordedThreePlayerGames[threePlayerGameId++] = game;\n        controller.mint(msg.sender, tokenId, 1);\n    }\n\n    function recordFourPlayerGame(FourPlayerGame memory game) public onlyVoters(allowedRecorders) {\n        recordedFourPlayerGames[fourPlayerGameId++] = game;\n        controller.mint(msg.sender, tokenId, 1);\n    }\n\n    function recordFivePlayerGame(FivePlayerGame memory game) public onlyVoters(allowedRecorders) {\n        recordedFivePlayerGames[fivePlayerGameId++] = game;\n        controller.mint(msg.sender, tokenId, 1);\n    }\n\n    function recordSixPlayerGame(SixPlayerGame memory game) public onlyVoters(allowedRecorders) {\n        recordedSixPlayerGames[sixPlayerGameId++] = game;\n        controller.mint(msg.sender, tokenId, 1);\n    }\n}\n",
  "sourcePath": "/Users/tjharrison/he/catanstitution/contracts/CatanKeeper.sol",
  "compiler": {
    "name": "solc",
    "version": "0.8.6+commit.11564f7e.Emscripten.clang"
  },
  "schemaVersion": "3.4.1",
  "updatedAt": "2021-07-11T18:05:51.586Z",
  "networkType": "ethereum",
  "devdoc": {
    "kind": "dev",
    "methods": {
      "approve(address,uint256)": {
        "details": "See {IERC721-approve}."
      },
      "balanceOf(address)": {
        "details": "See {IERC721-balanceOf}."
      },
      "getApproved(uint256)": {
        "details": "See {IERC721-getApproved}."
      },
      "isApprovedForAll(address,address)": {
        "details": "See {IERC721-isApprovedForAll}."
      },
      "name()": {
        "details": "See {IERC721Metadata-name}."
      },
      "ownerOf(uint256)": {
        "details": "See {IERC721-ownerOf}."
      },
      "safeTransferFrom(address,address,uint256)": {
        "details": "See {IERC721-safeTransferFrom}."
      },
      "safeTransferFrom(address,address,uint256,bytes)": {
        "details": "See {IERC721-safeTransferFrom}."
      },
      "setApprovalForAll(address,bool)": {
        "details": "See {IERC721-setApprovalForAll}."
      },
      "supportsInterface(bytes4)": {
        "details": "See {IERC165-supportsInterface}."
      },
      "symbol()": {
        "details": "See {IERC721Metadata-symbol}."
      },
      "tokenURI(uint256)": {
        "details": "See {IERC721Metadata-tokenURI}."
      },
      "transferFrom(address,address,uint256)": {
        "details": "See {IERC721-transferFrom}."
      }
    },
    "version": 1
  },
  "userdoc": {
    "kind": "user",
    "methods": {},
    "version": 1
  }
}