{
  "contractName": "CatanKeeper",
  "abi": [
    {
      "anonymous": false,
      "inputs": [
        {
          "indexed": true,
          "internalType": "address",
          "name": "owner",
          "type": "address"
        },
        {
          "indexed": true,
          "internalType": "address",
          "name": "approved",
          "type": "address"
        },
        {
          "indexed": true,
          "internalType": "uint256",
          "name": "tokenId",
          "type": "uint256"
        }
      ],
      "name": "Approval",
      "type": "event"
    },
    {
      "anonymous": false,
      "inputs": [
        {
          "indexed": true,
          "internalType": "address",
          "name": "owner",
          "type": "address"
        },
        {
          "indexed": true,
          "internalType": "address",
          "name": "operator",
          "type": "address"
        },
        {
          "indexed": false,
          "internalType": "bool",
          "name": "approved",
          "type": "bool"
        }
      ],
      "name": "ApprovalForAll",
      "type": "event"
    },
    {
      "anonymous": false,
      "inputs": [
        {
          "indexed": true,
          "internalType": "bytes32",
          "name": "role",
          "type": "bytes32"
        },
        {
          "indexed": true,
          "internalType": "bytes32",
          "name": "previousAdminRole",
          "type": "bytes32"
        },
        {
          "indexed": true,
          "internalType": "bytes32",
          "name": "newAdminRole",
          "type": "bytes32"
        }
      ],
      "name": "RoleAdminChanged",
      "type": "event"
    },
    {
      "anonymous": false,
      "inputs": [
        {
          "indexed": true,
          "internalType": "bytes32",
          "name": "role",
          "type": "bytes32"
        },
        {
          "indexed": true,
          "internalType": "address",
          "name": "account",
          "type": "address"
        },
        {
          "indexed": true,
          "internalType": "address",
          "name": "sender",
          "type": "address"
        }
      ],
      "name": "RoleGranted",
      "type": "event"
    },
    {
      "anonymous": false,
      "inputs": [
        {
          "indexed": true,
          "internalType": "bytes32",
          "name": "role",
          "type": "bytes32"
        },
        {
          "indexed": true,
          "internalType": "address",
          "name": "account",
          "type": "address"
        },
        {
          "indexed": true,
          "internalType": "address",
          "name": "sender",
          "type": "address"
        }
      ],
      "name": "RoleRevoked",
      "type": "event"
    },
    {
      "anonymous": false,
      "inputs": [
        {
          "indexed": true,
          "internalType": "address",
          "name": "from",
          "type": "address"
        },
        {
          "indexed": true,
          "internalType": "address",
          "name": "to",
          "type": "address"
        },
        {
          "indexed": true,
          "internalType": "uint256",
          "name": "tokenId",
          "type": "uint256"
        }
      ],
      "name": "Transfer",
      "type": "event"
    },
    {
      "inputs": [],
      "name": "DEFAULT_ADMIN_ROLE",
      "outputs": [
        {
          "internalType": "bytes32",
          "name": "",
          "type": "bytes32"
        }
      ],
      "stateMutability": "view",
      "type": "function",
      "constant": true
    },
    {
      "inputs": [],
      "name": "MANAGER",
      "outputs": [
        {
          "internalType": "bytes32",
          "name": "",
          "type": "bytes32"
        }
      ],
      "stateMutability": "view",
      "type": "function",
      "constant": true
    },
    {
      "inputs": [
        {
          "internalType": "address",
          "name": "to",
          "type": "address"
        },
        {
          "internalType": "uint256",
          "name": "tokenId",
          "type": "uint256"
        }
      ],
      "name": "approve",
      "outputs": [],
      "stateMutability": "nonpayable",
      "type": "function"
    },
    {
      "inputs": [
        {
          "internalType": "address",
          "name": "owner",
          "type": "address"
        }
      ],
      "name": "balanceOf",
      "outputs": [
        {
          "internalType": "uint256",
          "name": "",
          "type": "uint256"
        }
      ],
      "stateMutability": "view",
      "type": "function",
      "constant": true
    },
    {
      "inputs": [],
      "name": "fivePlayerGameId",
      "outputs": [
        {
          "internalType": "uint256",
          "name": "",
          "type": "uint256"
        }
      ],
      "stateMutability": "view",
      "type": "function",
      "constant": true
    },
    {
      "inputs": [],
      "name": "fourPlayerGameId",
      "outputs": [
        {
          "internalType": "uint256",
          "name": "",
          "type": "uint256"
        }
      ],
      "stateMutability": "view",
      "type": "function",
      "constant": true
    },
    {
      "inputs": [
        {
          "internalType": "uint256",
          "name": "tokenId",
          "type": "uint256"
        }
      ],
      "name": "getApproved",
      "outputs": [
        {
          "internalType": "address",
          "name": "",
          "type": "address"
        }
      ],
      "stateMutability": "view",
      "type": "function",
      "constant": true
    },
    {
      "inputs": [
        {
          "internalType": "bytes32",
          "name": "role",
          "type": "bytes32"
        }
      ],
      "name": "getRoleAdmin",
      "outputs": [
        {
          "internalType": "bytes32",
          "name": "",
          "type": "bytes32"
        }
      ],
      "stateMutability": "view",
      "type": "function",
      "constant": true
    },
    {
      "inputs": [
        {
          "internalType": "bytes32",
          "name": "role",
          "type": "bytes32"
        },
        {
          "internalType": "address",
          "name": "account",
          "type": "address"
        }
      ],
      "name": "grantRole",
      "outputs": [],
      "stateMutability": "nonpayable",
      "type": "function"
    },
    {
      "inputs": [
        {
          "internalType": "bytes32",
          "name": "role",
          "type": "bytes32"
        },
        {
          "internalType": "address",
          "name": "account",
          "type": "address"
        }
      ],
      "name": "hasRole",
      "outputs": [
        {
          "internalType": "bool",
          "name": "",
          "type": "bool"
        }
      ],
      "stateMutability": "view",
      "type": "function",
      "constant": true
    },
    {
      "inputs": [
        {
          "internalType": "address",
          "name": "",
          "type": "address"
        }
      ],
      "name": "highestWinMargin",
      "outputs": [
        {
          "internalType": "uint256",
          "name": "",
          "type": "uint256"
        }
      ],
      "stateMutability": "view",
      "type": "function",
      "constant": true
    },
    {
      "inputs": [
        {
          "internalType": "address",
          "name": "owner",
          "type": "address"
        },
        {
          "internalType": "address",
          "name": "operator",
          "type": "address"
        }
      ],
      "name": "isApprovedForAll",
      "outputs": [
        {
          "internalType": "bool",
          "name": "",
          "type": "bool"
        }
      ],
      "stateMutability": "view",
      "type": "function",
      "constant": true
    },
    {
      "inputs": [
        {
          "internalType": "address",
          "name": "",
          "type": "address"
        }
      ],
      "name": "losses",
      "outputs": [
        {
          "internalType": "uint256",
          "name": "",
          "type": "uint256"
        }
      ],
      "stateMutability": "view",
      "type": "function",
      "constant": true
    },
    {
      "inputs": [],
      "name": "name",
      "outputs": [
        {
          "internalType": "string",
          "name": "",
          "type": "string"
        }
      ],
      "stateMutability": "view",
      "type": "function",
      "constant": true
    },
    {
      "inputs": [
        {
          "internalType": "uint256",
          "name": "tokenId",
          "type": "uint256"
        }
      ],
      "name": "ownerOf",
      "outputs": [
        {
          "internalType": "address",
          "name": "",
          "type": "address"
        }
      ],
      "stateMutability": "view",
      "type": "function",
      "constant": true
    },
    {
      "inputs": [
        {
          "internalType": "uint256",
          "name": "",
          "type": "uint256"
        }
      ],
      "name": "recordedFivePlayerGames",
      "outputs": [
        {
          "internalType": "address",
          "name": "player_1",
          "type": "address"
        },
        {
          "internalType": "address",
          "name": "player_2",
          "type": "address"
        },
        {
          "internalType": "address",
          "name": "player_3",
          "type": "address"
        },
        {
          "internalType": "address",
          "name": "player_4",
          "type": "address"
        },
        {
          "internalType": "address",
          "name": "player_5",
          "type": "address"
        },
        {
          "internalType": "uint8",
          "name": "player_1_vp",
          "type": "uint8"
        },
        {
          "internalType": "uint8",
          "name": "player_2_vp",
          "type": "uint8"
        },
        {
          "internalType": "uint8",
          "name": "player_3_vp",
          "type": "uint8"
        },
        {
          "internalType": "uint8",
          "name": "player_4_vp",
          "type": "uint8"
        },
        {
          "internalType": "uint8",
          "name": "player_5_vp",
          "type": "uint8"
        },
        {
          "internalType": "string",
          "name": "variation",
          "type": "string"
        }
      ],
      "stateMutability": "view",
      "type": "function",
      "constant": true
    },
    {
      "inputs": [
        {
          "internalType": "uint256",
          "name": "",
          "type": "uint256"
        }
      ],
      "name": "recordedFourPlayerGames",
      "outputs": [
        {
          "internalType": "address",
          "name": "player_1",
          "type": "address"
        },
        {
          "internalType": "address",
          "name": "player_2",
          "type": "address"
        },
        {
          "internalType": "address",
          "name": "player_3",
          "type": "address"
        },
        {
          "internalType": "address",
          "name": "player_4",
          "type": "address"
        },
        {
          "internalType": "uint8",
          "name": "player_1_vp",
          "type": "uint8"
        },
        {
          "internalType": "uint8",
          "name": "player_2_vp",
          "type": "uint8"
        },
        {
          "internalType": "uint8",
          "name": "player_3_vp",
          "type": "uint8"
        },
        {
          "internalType": "uint8",
          "name": "player_4_vp",
          "type": "uint8"
        },
        {
          "internalType": "string",
          "name": "variation",
          "type": "string"
        }
      ],
      "stateMutability": "view",
      "type": "function",
      "constant": true
    },
    {
      "inputs": [
        {
          "internalType": "uint256",
          "name": "",
          "type": "uint256"
        }
      ],
      "name": "recordedSixPlayerGames",
      "outputs": [
        {
          "internalType": "address",
          "name": "player_1",
          "type": "address"
        },
        {
          "internalType": "address",
          "name": "player_2",
          "type": "address"
        },
        {
          "internalType": "address",
          "name": "player_3",
          "type": "address"
        },
        {
          "internalType": "address",
          "name": "player_4",
          "type": "address"
        },
        {
          "internalType": "address",
          "name": "player_5",
          "type": "address"
        },
        {
          "internalType": "address",
          "name": "player_6",
          "type": "address"
        },
        {
          "internalType": "uint8",
          "name": "player_1_vp",
          "type": "uint8"
        },
        {
          "internalType": "uint8",
          "name": "player_2_vp",
          "type": "uint8"
        },
        {
          "internalType": "uint8",
          "name": "player_3_vp",
          "type": "uint8"
        },
        {
          "internalType": "uint8",
          "name": "player_4_vp",
          "type": "uint8"
        },
        {
          "internalType": "uint8",
          "name": "player_5_vp",
          "type": "uint8"
        },
        {
          "internalType": "uint8",
          "name": "player_6_vp",
          "type": "uint8"
        },
        {
          "internalType": "string",
          "name": "variation",
          "type": "string"
        }
      ],
      "stateMutability": "view",
      "type": "function",
      "constant": true
    },
    {
      "inputs": [
        {
          "internalType": "uint256",
          "name": "",
          "type": "uint256"
        }
      ],
      "name": "recordedThreePlayerGames",
      "outputs": [
        {
          "internalType": "address",
          "name": "player_1",
          "type": "address"
        },
        {
          "internalType": "address",
          "name": "player_2",
          "type": "address"
        },
        {
          "internalType": "address",
          "name": "player_3",
          "type": "address"
        },
        {
          "internalType": "uint8",
          "name": "player_1_vp",
          "type": "uint8"
        },
        {
          "internalType": "uint8",
          "name": "player_2_vp",
          "type": "uint8"
        },
        {
          "internalType": "uint8",
          "name": "player_3_vp",
          "type": "uint8"
        },
        {
          "internalType": "string",
          "name": "variation",
          "type": "string"
        }
      ],
      "stateMutability": "view",
      "type": "function",
      "constant": true
    },
    {
      "inputs": [
        {
          "internalType": "uint256",
          "name": "",
          "type": "uint256"
        }
      ],
      "name": "recordedTwoPlayerGames",
      "outputs": [
        {
          "internalType": "address",
          "name": "player_1",
          "type": "address"
        },
        {
          "internalType": "address",
          "name": "player_2",
          "type": "address"
        },
        {
          "internalType": "uint8",
          "name": "player_1_vp",
          "type": "uint8"
        },
        {
          "internalType": "uint8",
          "name": "player_2_vp",
          "type": "uint8"
        },
        {
          "internalType": "string",
          "name": "variation",
          "type": "string"
        }
      ],
      "stateMutability": "view",
      "type": "function",
      "constant": true
    },
    {
      "inputs": [
        {
          "internalType": "bytes32",
          "name": "role",
          "type": "bytes32"
        },
        {
          "internalType": "address",
          "name": "account",
          "type": "address"
        }
      ],
      "name": "renounceRole",
      "outputs": [],
      "stateMutability": "nonpayable",
      "type": "function"
    },
    {
      "inputs": [
        {
          "internalType": "bytes32",
          "name": "role",
          "type": "bytes32"
        },
        {
          "internalType": "address",
          "name": "account",
          "type": "address"
        }
      ],
      "name": "revokeRole",
      "outputs": [],
      "stateMutability": "nonpayable",
      "type": "function"
    },
    {
      "inputs": [
        {
          "internalType": "address",
          "name": "from",
          "type": "address"
        },
        {
          "internalType": "address",
          "name": "to",
          "type": "address"
        },
        {
          "internalType": "uint256",
          "name": "tokenId",
          "type": "uint256"
        }
      ],
      "name": "safeTransferFrom",
      "outputs": [],
      "stateMutability": "nonpayable",
      "type": "function"
    },
    {
      "inputs": [
        {
          "internalType": "address",
          "name": "from",
          "type": "address"
        },
        {
          "internalType": "address",
          "name": "to",
          "type": "address"
        },
        {
          "internalType": "uint256",
          "name": "tokenId",
          "type": "uint256"
        },
        {
          "internalType": "bytes",
          "name": "_data",
          "type": "bytes"
        }
      ],
      "name": "safeTransferFrom",
      "outputs": [],
      "stateMutability": "nonpayable",
      "type": "function"
    },
    {
      "inputs": [
        {
          "internalType": "address",
          "name": "operator",
          "type": "address"
        },
        {
          "internalType": "bool",
          "name": "approved",
          "type": "bool"
        }
      ],
      "name": "setApprovalForAll",
      "outputs": [],
      "stateMutability": "nonpayable",
      "type": "function"
    },
    {
      "inputs": [],
      "name": "sixPlayerGameId",
      "outputs": [
        {
          "internalType": "uint256",
          "name": "",
          "type": "uint256"
        }
      ],
      "stateMutability": "view",
      "type": "function",
      "constant": true
    },
    {
      "inputs": [],
      "name": "symbol",
      "outputs": [
        {
          "internalType": "string",
          "name": "",
          "type": "string"
        }
      ],
      "stateMutability": "view",
      "type": "function",
      "constant": true
    },
    {
      "inputs": [],
      "name": "threePlayerGameId",
      "outputs": [
        {
          "internalType": "uint256",
          "name": "",
          "type": "uint256"
        }
      ],
      "stateMutability": "view",
      "type": "function",
      "constant": true
    },
    {
      "inputs": [
        {
          "internalType": "uint256",
          "name": "tokenId",
          "type": "uint256"
        }
      ],
      "name": "tokenURI",
      "outputs": [
        {
          "internalType": "string",
          "name": "",
          "type": "string"
        }
      ],
      "stateMutability": "view",
      "type": "function",
      "constant": true
    },
    {
      "inputs": [
        {
          "internalType": "address",
          "name": "from",
          "type": "address"
        },
        {
          "internalType": "address",
          "name": "to",
          "type": "address"
        },
        {
          "internalType": "uint256",
          "name": "tokenId",
          "type": "uint256"
        }
      ],
      "name": "transferFrom",
      "outputs": [],
      "stateMutability": "nonpayable",
      "type": "function"
    },
    {
      "inputs": [],
      "name": "twoPlayerGameId",
      "outputs": [
        {
          "internalType": "uint256",
          "name": "",
          "type": "uint256"
        }
      ],
      "stateMutability": "view",
      "type": "function",
      "constant": true
    },
    {
      "inputs": [
        {
          "internalType": "address",
          "name": "",
          "type": "address"
        }
      ],
      "name": "wins",
      "outputs": [
        {
          "internalType": "uint256",
          "name": "",
          "type": "uint256"
        }
      ],
      "stateMutability": "view",
      "type": "function",
      "constant": true
    },
    {
      "inputs": [
        {
          "internalType": "string",
          "name": "_name",
          "type": "string"
        },
        {
          "internalType": "string",
          "name": "_symbol",
          "type": "string"
        },
        {
          "internalType": "contract VoterPool",
          "name": "_allowedRecorders",
          "type": "address"
        }
      ],
      "name": "initialize",
      "outputs": [],
      "stateMutability": "nonpayable",
      "type": "function"
    },
    {
      "inputs": [
        {
          "internalType": "contract Catanstitution",
          "name": "_controller",
          "type": "address"
        },
        {
          "internalType": "uint256",
          "name": "_tokenId",
          "type": "uint256"
        }
      ],
      "name": "setGovernanceToken",
      "outputs": [],
      "stateMutability": "nonpayable",
      "type": "function"
    },
    {
      "inputs": [
        {
          "components": [
            {
              "internalType": "address",
              "name": "player_1",
              "type": "address"
            },
            {
              "internalType": "address",
              "name": "player_2",
              "type": "address"
            },
            {
              "internalType": "uint8",
              "name": "player_1_vp",
              "type": "uint8"
            },
            {
              "internalType": "uint8",
              "name": "player_2_vp",
              "type": "uint8"
            },
            {
              "internalType": "string",
              "name": "variation",
              "type": "string"
            }
          ],
          "internalType": "struct Games.TwoPlayer",
          "name": "game",
          "type": "tuple"
        }
      ],
      "name": "recordTwoPlayerGame",
      "outputs": [],
      "stateMutability": "nonpayable",
      "type": "function"
    },
    {
      "inputs": [
        {
          "components": [
            {
              "internalType": "address",
              "name": "player_1",
              "type": "address"
            },
            {
              "internalType": "address",
              "name": "player_2",
              "type": "address"
            },
            {
              "internalType": "address",
              "name": "player_3",
              "type": "address"
            },
            {
              "internalType": "uint8",
              "name": "player_1_vp",
              "type": "uint8"
            },
            {
              "internalType": "uint8",
              "name": "player_2_vp",
              "type": "uint8"
            },
            {
              "internalType": "uint8",
              "name": "player_3_vp",
              "type": "uint8"
            },
            {
              "internalType": "string",
              "name": "variation",
              "type": "string"
            }
          ],
          "internalType": "struct Games.ThreePlayer",
          "name": "game",
          "type": "tuple"
        }
      ],
      "name": "recordThreePlayerGame",
      "outputs": [],
      "stateMutability": "nonpayable",
      "type": "function"
    },
    {
      "inputs": [
        {
          "components": [
            {
              "internalType": "address",
              "name": "player_1",
              "type": "address"
            },
            {
              "internalType": "address",
              "name": "player_2",
              "type": "address"
            },
            {
              "internalType": "address",
              "name": "player_3",
              "type": "address"
            },
            {
              "internalType": "address",
              "name": "player_4",
              "type": "address"
            },
            {
              "internalType": "uint8",
              "name": "player_1_vp",
              "type": "uint8"
            },
            {
              "internalType": "uint8",
              "name": "player_2_vp",
              "type": "uint8"
            },
            {
              "internalType": "uint8",
              "name": "player_3_vp",
              "type": "uint8"
            },
            {
              "internalType": "uint8",
              "name": "player_4_vp",
              "type": "uint8"
            },
            {
              "internalType": "string",
              "name": "variation",
              "type": "string"
            }
          ],
          "internalType": "struct Games.FourPlayer",
          "name": "game",
          "type": "tuple"
        }
      ],
      "name": "recordFourPlayerGame",
      "outputs": [],
      "stateMutability": "nonpayable",
      "type": "function"
    },
    {
      "inputs": [
        {
          "components": [
            {
              "internalType": "address",
              "name": "player_1",
              "type": "address"
            },
            {
              "internalType": "address",
              "name": "player_2",
              "type": "address"
            },
            {
              "internalType": "address",
              "name": "player_3",
              "type": "address"
            },
            {
              "internalType": "address",
              "name": "player_4",
              "type": "address"
            },
            {
              "internalType": "address",
              "name": "player_5",
              "type": "address"
            },
            {
              "internalType": "uint8",
              "name": "player_1_vp",
              "type": "uint8"
            },
            {
              "internalType": "uint8",
              "name": "player_2_vp",
              "type": "uint8"
            },
            {
              "internalType": "uint8",
              "name": "player_3_vp",
              "type": "uint8"
            },
            {
              "internalType": "uint8",
              "name": "player_4_vp",
              "type": "uint8"
            },
            {
              "internalType": "uint8",
              "name": "player_5_vp",
              "type": "uint8"
            },
            {
              "internalType": "string",
              "name": "variation",
              "type": "string"
            }
          ],
          "internalType": "struct Games.FivePlayer",
          "name": "game",
          "type": "tuple"
        }
      ],
      "name": "recordFivePlayerGame",
      "outputs": [],
      "stateMutability": "nonpayable",
      "type": "function"
    },
    {
      "inputs": [
        {
          "components": [
            {
              "internalType": "address",
              "name": "player_1",
              "type": "address"
            },
            {
              "internalType": "address",
              "name": "player_2",
              "type": "address"
            },
            {
              "internalType": "address",
              "name": "player_3",
              "type": "address"
            },
            {
              "internalType": "address",
              "name": "player_4",
              "type": "address"
            },
            {
              "internalType": "address",
              "name": "player_5",
              "type": "address"
            },
            {
              "internalType": "address",
              "name": "player_6",
              "type": "address"
            },
            {
              "internalType": "uint8",
              "name": "player_1_vp",
              "type": "uint8"
            },
            {
              "internalType": "uint8",
              "name": "player_2_vp",
              "type": "uint8"
            },
            {
              "internalType": "uint8",
              "name": "player_3_vp",
              "type": "uint8"
            },
            {
              "internalType": "uint8",
              "name": "player_4_vp",
              "type": "uint8"
            },
            {
              "internalType": "uint8",
              "name": "player_5_vp",
              "type": "uint8"
            },
            {
              "internalType": "uint8",
              "name": "player_6_vp",
              "type": "uint8"
            },
            {
              "internalType": "string",
              "name": "variation",
              "type": "string"
            }
          ],
          "internalType": "struct Games.SixPlayer",
          "name": "game",
          "type": "tuple"
        }
      ],
      "name": "recordSixPlayerGame",
      "outputs": [],
      "stateMutability": "nonpayable",
      "type": "function"
    },
    {
      "inputs": [
        {
          "components": [
            {
              "internalType": "address",
              "name": "player_1",
              "type": "address"
            },
            {
              "internalType": "address",
              "name": "player_2",
              "type": "address"
            },
            {
              "internalType": "uint8",
              "name": "player_1_vp",
              "type": "uint8"
            },
            {
              "internalType": "uint8",
              "name": "player_2_vp",
              "type": "uint8"
            },
            {
              "internalType": "string",
              "name": "variation",
              "type": "string"
            }
          ],
          "internalType": "struct Games.TwoPlayer",
          "name": "game",
          "type": "tuple"
        },
        {
          "internalType": "address",
          "name": "recorder",
          "type": "address"
        }
      ],
      "name": "recordHistoricalTwoPlayerGame",
      "outputs": [],
      "stateMutability": "nonpayable",
      "type": "function"
    },
    {
      "inputs": [
        {
          "components": [
            {
              "internalType": "address",
              "name": "player_1",
              "type": "address"
            },
            {
              "internalType": "address",
              "name": "player_2",
              "type": "address"
            },
            {
              "internalType": "address",
              "name": "player_3",
              "type": "address"
            },
            {
              "internalType": "uint8",
              "name": "player_1_vp",
              "type": "uint8"
            },
            {
              "internalType": "uint8",
              "name": "player_2_vp",
              "type": "uint8"
            },
            {
              "internalType": "uint8",
              "name": "player_3_vp",
              "type": "uint8"
            },
            {
              "internalType": "string",
              "name": "variation",
              "type": "string"
            }
          ],
          "internalType": "struct Games.ThreePlayer",
          "name": "game",
          "type": "tuple"
        },
        {
          "internalType": "address",
          "name": "recorder",
          "type": "address"
        }
      ],
      "name": "recordHistoricalThreePlayerGame",
      "outputs": [],
      "stateMutability": "nonpayable",
      "type": "function"
    },
    {
      "inputs": [
        {
          "components": [
            {
              "internalType": "address",
              "name": "player_1",
              "type": "address"
            },
            {
              "internalType": "address",
              "name": "player_2",
              "type": "address"
            },
            {
              "internalType": "address",
              "name": "player_3",
              "type": "address"
            },
            {
              "internalType": "address",
              "name": "player_4",
              "type": "address"
            },
            {
              "internalType": "uint8",
              "name": "player_1_vp",
              "type": "uint8"
            },
            {
              "internalType": "uint8",
              "name": "player_2_vp",
              "type": "uint8"
            },
            {
              "internalType": "uint8",
              "name": "player_3_vp",
              "type": "uint8"
            },
            {
              "internalType": "uint8",
              "name": "player_4_vp",
              "type": "uint8"
            },
            {
              "internalType": "string",
              "name": "variation",
              "type": "string"
            }
          ],
          "internalType": "struct Games.FourPlayer",
          "name": "game",
          "type": "tuple"
        },
        {
          "internalType": "address",
          "name": "recorder",
          "type": "address"
        }
      ],
      "name": "recordHistoricalFourPlayerGame",
      "outputs": [],
      "stateMutability": "nonpayable",
      "type": "function"
    },
    {
      "inputs": [
        {
          "components": [
            {
              "internalType": "address",
              "name": "player_1",
              "type": "address"
            },
            {
              "internalType": "address",
              "name": "player_2",
              "type": "address"
            },
            {
              "internalType": "address",
              "name": "player_3",
              "type": "address"
            },
            {
              "internalType": "address",
              "name": "player_4",
              "type": "address"
            },
            {
              "internalType": "address",
              "name": "player_5",
              "type": "address"
            },
            {
              "internalType": "uint8",
              "name": "player_1_vp",
              "type": "uint8"
            },
            {
              "internalType": "uint8",
              "name": "player_2_vp",
              "type": "uint8"
            },
            {
              "internalType": "uint8",
              "name": "player_3_vp",
              "type": "uint8"
            },
            {
              "internalType": "uint8",
              "name": "player_4_vp",
              "type": "uint8"
            },
            {
              "internalType": "uint8",
              "name": "player_5_vp",
              "type": "uint8"
            },
            {
              "internalType": "string",
              "name": "variation",
              "type": "string"
            }
          ],
          "internalType": "struct Games.FivePlayer",
          "name": "game",
          "type": "tuple"
        },
        {
          "internalType": "address",
          "name": "recorder",
          "type": "address"
        }
      ],
      "name": "recordHistoricalFivePlayerGame",
      "outputs": [],
      "stateMutability": "nonpayable",
      "type": "function"
    },
    {
      "inputs": [
        {
          "components": [
            {
              "internalType": "address",
              "name": "player_1",
              "type": "address"
            },
            {
              "internalType": "address",
              "name": "player_2",
              "type": "address"
            },
            {
              "internalType": "address",
              "name": "player_3",
              "type": "address"
            },
            {
              "internalType": "address",
              "name": "player_4",
              "type": "address"
            },
            {
              "internalType": "address",
              "name": "player_5",
              "type": "address"
            },
            {
              "internalType": "address",
              "name": "player_6",
              "type": "address"
            },
            {
              "internalType": "uint8",
              "name": "player_1_vp",
              "type": "uint8"
            },
            {
              "internalType": "uint8",
              "name": "player_2_vp",
              "type": "uint8"
            },
            {
              "internalType": "uint8",
              "name": "player_3_vp",
              "type": "uint8"
            },
            {
              "internalType": "uint8",
              "name": "player_4_vp",
              "type": "uint8"
            },
            {
              "internalType": "uint8",
              "name": "player_5_vp",
              "type": "uint8"
            },
            {
              "internalType": "uint8",
              "name": "player_6_vp",
              "type": "uint8"
            },
            {
              "internalType": "string",
              "name": "variation",
              "type": "string"
            }
          ],
          "internalType": "struct Games.SixPlayer",
          "name": "game",
          "type": "tuple"
        },
        {
          "internalType": "address",
          "name": "recorder",
          "type": "address"
        }
      ],
      "name": "recordHistoricalSixPlayerGame",
      "outputs": [],
      "stateMutability": "nonpayable",
      "type": "function"
    },
    {
      "inputs": [
        {
          "internalType": "bytes4",
          "name": "interfaceId",
          "type": "bytes4"
        }
      ],
      "name": "supportsInterface",
      "outputs": [
        {
          "internalType": "bool",
          "name": "",
          "type": "bool"
        }
      ],
      "stateMutability": "view",
      "type": "function",
      "constant": true
    }
  ],
  "bytecode": "0x608060405234801561001057600080fd5b5061598480620000216000396000f3fe608060405234801561001057600080fd5b506004361061020f5760003560e01c806301ffc9a71461021457806306fdde031461023c578063077f224a14610251578063081812fc1461026657806308c4268014610286578063095ea7b314610299578063184732e0146102ac5780631b2df850146102bf57806323b872dd146102e2578063248a9ca3146102f55780632f2ff15d1461030857806332df11ff1461031b57806336568abe1461034557806342842e0e146103585780634c5c236e1461036b57806355bdaed914610391578063613bd6371461039a5780636352211e146103ad5780636b1e1d24146103c05780636d997ef4146103d357806370a08231146103dc5780637b1f4433146103ef5780637ff7139f146104025780638047a97a1461042e57806388da1f281461044e5780638ab910951461046157806391d148541461047457806395d89b41146104875780639ad91f9c1461048f578063a217fddf146104b7578063a22cb465146104bf578063a2b1834b146104d2578063a957b28b146104e5578063b88d4fde14610509578063b89fb0f61461051c578063c87b56dd1461053c578063c903c2331461054f578063d547741f1461056f578063dc48051614610582578063dd0c297e1461058b578063deed44861461059e578063e985e9c5146105a7578063ef1322d0146105ba578063f73fb160146105c3578063fb08351c146105d6575b600080fd5b610227610222366004614913565b6105e9565b60405190151581526020015b60405180910390f35b6102446105fa565b6040516102339190614988565b61026461025f366004614aec565b61068c565b005b610279610274366004614b63565b610759565b6040516102339190614b7c565b610264610294366004614ccb565b6107e1565b6102646102a7366004614cff565b610880565b6102646102ba366004614e09565b610991565b6102d460008051602061592f83398151915281565b604051908152602001610233565b6102646102f0366004614e3d565b610a2c565b6102d4610303366004614b63565b610a5d565b610264610316366004614e7e565b610a72565b61032e610329366004614b63565b610a8f565b6040516102339b9a99989796959493929190614eae565b610264610353366004614e7e565b610b96565b610264610366366004614e3d565b610c10565b61037e610379366004614b63565b610c2b565b6040516102339796959493929190614f31565b6102d460cd5481565b6102646103a8366004615038565b610d0c565b6102796103bb366004614b63565b610da7565b6102646103ce366004615126565b610e1e565b6102d460ce5481565b6102d46103ea36600461516c565b610e41565b6102646103fd36600461523a565b610ec8565b610415610410366004614b63565b610eeb565b6040516102339d9c9b9a9998979695949392919061526f565b6102d461043c36600461516c565b60d66020526000908152604090205481565b61026461045c366004615309565b611008565b61026461046f36600461533e565b61102b565b610227610482366004614e7e565b61104e565b610244611079565b6104a261049d366004614b63565b611088565b60405161023399989796959493929190615373565b6102d4600081565b6102646104cd3660046153f0565b61117f565b6102646104e0366004614cff565b611240565b6104f86104f3366004614b63565b611280565b60405161023395949392919061541e565b610264610517366004615466565b61134e565b6102d461052a36600461516c565b60d86020526000908152604090205481565b61024461054a366004614b63565b611380565b6102d461055d36600461516c565b60d76020526000908152604090205481565b61026461057d366004614e7e565b611458565b6102d460cc5481565b6102646105993660046154e5565b611475565b6102d460cf5481565b6102276105b5366004615519565b611510565b6102d460d05481565b6102646105d1366004615547565b61153e565b6102646105e436600461557c565b611561565b60006105f4826115fc565b92915050565b606060658054610609906155b0565b80601f0160208091040260200160405190810160405280929190818152602001828054610635906155b0565b80156106825780601f1061065757610100808354040283529160200191610682565b820191906000526020600020905b81548152906001019060200180831161066557829003601f168201915b5050505050905090565b600054610100900460ff16806106a5575060005460ff16155b6106ca5760405162461bcd60e51b81526004016106c1906155eb565b60405180910390fd5b600054610100900460ff161580156106ec576000805461ffff19166101011790555b6106f68484611621565b60cb80546001600160a01b0319166001600160a01b03841617905561072960008051602061592f833981519152806116a8565b61074160008051602061592f833981519152336116f2565b8015610753576000805461ff00191690555b50505050565b6000610764826116fc565b6107c55760405162461bcd60e51b815260206004820152602c60248201527f4552433732313a20617070726f76656420717565727920666f72206e6f6e657860448201526b34b9ba32b73a103a37b5b2b760a11b60648201526084016106c1565b506000908152606960205260409020546001600160a01b031690565b60cb5460405163a7771ee360e01b81526001600160a01b0390911690819063a7771ee390610813903390600401614b7c565b6020604051808303816000875af1158015610832573d6000803e3d6000fd5b505050506040513d601f19601f820116820180604052508101906108569190615639565b6108725760405162461bcd60e51b81526004016106c190615656565b61087c8233611719565b5050565b600061088b82610da7565b9050806001600160a01b0316836001600160a01b031614156108f95760405162461bcd60e51b815260206004820152602160248201527f4552433732313a20617070726f76616c20746f2063757272656e74206f776e656044820152603960f91b60648201526084016106c1565b336001600160a01b038216148061091557506109158133611510565b6109825760405162461bcd60e51b815260206004820152603860248201527f4552433732313a20617070726f76652063616c6c6572206973206e6f74206f776044820152771b995c881b9bdc88185c1c1c9bdd995908199bdc88185b1b60421b60648201526084016106c1565b61098c8383611903565b505050565b60cb5460405163a7771ee360e01b81526001600160a01b0390911690819063a7771ee3906109c3903390600401614b7c565b6020604051808303816000875af11580156109e2573d6000803e3d6000fd5b505050506040513d601f19601f82011682018060405250810190610a069190615639565b610a225760405162461bcd60e51b81526004016106c190615656565b61087c8233611971565b610a363382611b27565b610a525760405162461bcd60e51b81526004016106c190615686565b61098c838383611bf1565b60009081526097602052604090206001015490565b610a7b82610a5d565b610a858133611d91565b61098c8383611df5565b60d4602052600090815260409020805460018201546002830154600384015460048501546005860180546001600160a01b039687169795871696948516959385169483169360ff600160a01b8504811694600160a81b8104821694600160b01b8204831694600160b81b8304841694600160c01b90930490931692610b13906155b0565b80601f0160208091040260200160405190810160405280929190818152602001828054610b3f906155b0565b8015610b8c5780601f10610b6157610100808354040283529160200191610b8c565b820191906000526020600020905b815481529060010190602001808311610b6f57829003601f168201915b505050505090508b565b6001600160a01b0381163314610c065760405162461bcd60e51b815260206004820152602f60248201527f416363657373436f6e74726f6c3a2063616e206f6e6c792072656e6f756e636560448201526e103937b632b9903337b91039b2b63360891b60648201526084016106c1565b61087c8282611e7b565b61098c8383836040518060200160405280600081525061134e565b60d26020526000908152604090208054600182015460028301546003840180546001600160a01b03948516959385169483169360ff600160a01b8504811694600160a81b8104821694600160b01b90910490911692610c89906155b0565b80601f0160208091040260200160405190810160405280929190818152602001828054610cb5906155b0565b8015610d025780601f10610cd757610100808354040283529160200191610d02565b820191906000526020600020905b815481529060010190602001808311610ce557829003601f168201915b5050505050905087565b60cb5460405163a7771ee360e01b81526001600160a01b0390911690819063a7771ee390610d3e903390600401614b7c565b6020604051808303816000875af1158015610d5d573d6000803e3d6000fd5b505050506040513d601f19601f82011682018060405250810190610d819190615639565b610d9d5760405162461bcd60e51b81526004016106c190615656565b61087c8233611ee2565b6000818152606760205260408120546001600160a01b0316806105f45760405162461bcd60e51b815260206004820152602960248201527f4552433732313a206f776e657220717565727920666f72206e6f6e657869737460448201526832b73a103a37b5b2b760b91b60648201526084016106c1565b60008051602061592f833981519152610e378133611d91565b61098c8383612032565b60006001600160a01b038216610eac5760405162461bcd60e51b815260206004820152602a60248201527f4552433732313a2062616c616e636520717565727920666f7220746865207a65604482015269726f206164647265737360b01b60648201526084016106c1565b506001600160a01b031660009081526068602052604090205490565b60008051602061592f833981519152610ee18133611d91565b61098c83836121b6565b60d56020526000908152604090208054600182015460028301546003840154600485015460058601546006870180546001600160a01b0397881698968816979586169694861695938416949383169360ff600160a01b8504811694600160a81b8104821694600160b01b8204831694600160b81b8304841694600160c01b8404851694600160c81b909404909316929190610f85906155b0565b80601f0160208091040260200160405190810160405280929190818152602001828054610fb1906155b0565b8015610ffe5780601f10610fd357610100808354040283529160200191610ffe565b820191906000526020600020905b815481529060010190602001808311610fe157829003601f168201915b505050505090508d565b60008051602061592f8339815191526110218133611d91565b61098c8383611719565b60008051602061592f8339815191526110448133611d91565b61098c8383611ee2565b60009182526097602090815260408084206001600160a01b0393909316845291905290205460ff1690565b606060668054610609906155b0565b60d360205260009081526040902080546001820154600283015460038401546004850180546001600160a01b039586169694861695938416949383169360ff600160a01b8504811694600160a81b8104821694600160b01b8204831694600160b81b9092049092169291906110fc906155b0565b80601f0160208091040260200160405190810160405280929190818152602001828054611128906155b0565b80156111755780601f1061114a57610100808354040283529160200191611175565b820191906000526020600020905b81548152906001019060200180831161115857829003601f168201915b5050505050905089565b6001600160a01b0382163314156111d45760405162461bcd60e51b815260206004820152601960248201527822a9219b99189d1030b8383937bb32903a379031b0b63632b960391b60448201526064016106c1565b336000818152606a602090815260408083206001600160a01b03871680855290835292819020805460ff191686151590811790915590519081529192917f17307eab39ab6107e8899845ad3d59bd9653f200f220920489ca2b5937696c31910160405180910390a35050565b60008051602061592f8339815191526112598133611d91565b5060c980546001600160a01b0319166001600160a01b03939093169290921790915560ca55565b60d1602052600090815260409020805460018201546002830180546001600160a01b03938416949383169360ff600160a01b8504811694600160a81b9004169290916112cb906155b0565b80601f01602080910402602001604051908101604052809291908181526020018280546112f7906155b0565b80156113445780601f1061131957610100808354040283529160200191611344565b820191906000526020600020905b81548152906001019060200180831161132757829003601f168201915b5050505050905085565b6113583383611b27565b6113745760405162461bcd60e51b81526004016106c190615686565b610753848484846122d3565b606061138b826116fc565b6113ef5760405162461bcd60e51b815260206004820152602f60248201527f4552433732314d657461646174613a2055524920717565727920666f72206e6f60448201526e3732bc34b9ba32b73a103a37b5b2b760891b60648201526084016106c1565b600061140660408051602081019091526000815290565b905060008151116114265760405180602001604052806000815250611451565b8061143084612306565b6040516020016114419291906156d7565b6040516020818303038152906040525b9392505050565b61146182610a5d565b61146b8133611d91565b61098c8383611e7b565b60cb5460405163a7771ee360e01b81526001600160a01b0390911690819063a7771ee3906114a7903390600401614b7c565b6020604051808303816000875af11580156114c6573d6000803e3d6000fd5b505050506040513d601f19601f820116820180604052508101906114ea9190615639565b6115065760405162461bcd60e51b81526004016106c190615656565b61087c82336121b6565b6001600160a01b039182166000908152606a6020908152604080832093909416825291909152205460ff1690565b60008051602061592f8339815191526115578133611d91565b61098c8383611971565b60cb5460405163a7771ee360e01b81526001600160a01b0390911690819063a7771ee390611593903390600401614b7c565b6020604051808303816000875af11580156115b2573d6000803e3d6000fd5b505050506040513d601f19601f820116820180604052508101906115d69190615639565b6115f25760405162461bcd60e51b81526004016106c190615656565b61087c8233612032565b60006001600160e01b03198216637965db0b60e01b14806105f457506105f482612403565b600054610100900460ff168061163a575060005460ff16155b6116565760405162461bcd60e51b81526004016106c1906155eb565b600054610100900460ff16158015611678576000805461ffff19166101011790555b611680612453565b611688612453565b61169283836124bf565b801561098c576000805461ff0019169055505050565b806116b283610a5d565b60405184907fbd79b86ffe0ab8e8776151514217cd7cacd52c909f66475c3af44e129f0b00ff90600090a460009182526097602052604090912060010155565b61087c8282611df5565b6000908152606760205260409020546001600160a01b0316151590565b60d08054839160d5916000918261172f8361571c565b9091555081526020808201929092526040908101600020835181546001600160a01b03199081166001600160a01b039283161783558585015160018401805483169184169190911790559285015160028301805485169183169190911790556060850151600383018054851691831691909117905560808501516004830180549094169082161790925560a084015160058201805460c087015160e08801516101008901516101208a01516101408b01516101608c0151979099166001600160a81b031990951694909417600160a01b60ff948516021761ffff60a81b1916600160a81b9284169290920260ff60b01b191691909117600160b01b918316919091021761ffff60b81b1916600160b81b9282169290920260ff60c01b191691909117600160c01b958216959095029490941760ff60c81b1916600160c81b9490921693909302179091556101808301518051919261189592600685019290910190614864565b505060c9546040516326da9bd360e21b81526001600160a01b039091169150639b6a6f4c906118c8908490600401614b7c565b600060405180830381600087803b1580156118e257600080fd5b505af11580156118f6573d6000803e3d6000fd5b5050505061087c82612554565b600081815260696020526040902080546001600160a01b0319166001600160a01b038416908117909155819061193882610da7565b6001600160a01b03167f8c5be1e5ebec7d5bd14f71427d1e84f3dd0314c0f7b2291e5b200ac8c7c3b92560405160405180910390a45050565b60cf8054839160d491600091826119878361571c565b9091555081526020808201929092526040908101600020835181546001600160a01b03199081166001600160a01b03928316178355858501516001840180548316918416919091179055928501516002830180548516918316919091179055606085015160038301805490941690821617909255608084015160048201805460a087015160c088015160e08901516101008a01516101208b0151969098166001600160a81b031990941693909317600160a01b60ff938416021761ffff60a81b1916600160a81b9183169190910260ff60b01b191617600160b01b928216929092029190911761ffff60b81b1916600160b81b9582169590950260ff60c01b191694909417600160c01b94909216939093021790915561014083015180519192611ab992600585019290910190614864565b505060c9546040516326da9bd360e21b81526001600160a01b039091169150639b6a6f4c90611aec908490600401614b7c565b600060405180830381600087803b158015611b0657600080fd5b505af1158015611b1a573d6000803e3d6000fd5b5050505061087c82612574565b6000611b32826116fc565b611b935760405162461bcd60e51b815260206004820152602c60248201527f4552433732313a206f70657261746f7220717565727920666f72206e6f6e657860448201526b34b9ba32b73a103a37b5b2b760a11b60648201526084016106c1565b6000611b9e83610da7565b9050806001600160a01b0316846001600160a01b03161480611bd95750836001600160a01b0316611bce84610759565b6001600160a01b0316145b80611be95750611be98185611510565b949350505050565b826001600160a01b0316611c0482610da7565b6001600160a01b031614611c6c5760405162461bcd60e51b815260206004820152602960248201527f4552433732313a207472616e73666572206f6620746f6b656e2074686174206960448201526839903737ba1037bbb760b91b60648201526084016106c1565b6001600160a01b038216611cce5760405162461bcd60e51b8152602060048201526024808201527f4552433732313a207472616e7366657220746f20746865207a65726f206164646044820152637265737360e01b60648201526084016106c1565b611cd9600082611903565b6001600160a01b0383166000908152606860205260408120805460019290611d02908490615737565b90915550506001600160a01b0382166000908152606860205260408120805460019290611d3090849061574e565b909155505060008181526067602052604080822080546001600160a01b0319166001600160a01b0386811691821790925591518493918716917fddf252ad1be2c89b69c2b068fc378daa952ba7f163c4a11628f55a4df523b3ef91a4505050565b611d9b828261104e565b61087c57611db3816001600160a01b03166014612582565b611dbe836020612582565b604051602001611dcf929190615766565b60408051601f198184030181529082905262461bcd60e51b82526106c191600401614988565b611dff828261104e565b61087c5760008281526097602090815260408083206001600160a01b03851684529091529020805460ff19166001179055611e373390565b6001600160a01b0316816001600160a01b0316837f2f8788117e7eff1d82e926ec794901d17c78024a50270940304540a733656f0d60405160405180910390a45050565b611e85828261104e565b1561087c5760008281526097602090815260408083206001600160a01b0385168085529252808320805460ff1916905551339285917ff6391f5c32d9c69d2a47ea670b442974b53935d1edc7fd64eb21e047a839171b9190a45050565b60cd8054839160d29160009182611ef88361571c565b9091555081526020808201929092526040908101600020835181546001600160a01b03199081166001600160a01b0392831617835585850151600184018054909216908316179055918401516002820180546060870151608088015160a0890151949096166001600160a81b031990921691909117600160a01b60ff928316021761ffff60a81b1916600160a81b9582169590950260ff60b01b191694909417600160b01b94909216939093021790915560c083015180519192611fc492600385019290910190614864565b505060c9546040516326da9bd360e21b81526001600160a01b039091169150639b6a6f4c90611ff7908490600401614b7c565b600060405180830381600087803b15801561201157600080fd5b505af1158015612025573d6000803e3d6000fd5b5050505061087c8261271d565b60ce8054839160d391600091826120488361571c565b9091555081526020808201929092526040908101600020835181546001600160a01b03199081166001600160a01b0392831617835585850151600184018054831691841691909117905592850151600283018054909416908216179092556060840151600382018054608087015160a088015160c089015160e08a0151959097166001600160a81b031990931692909217600160a01b60ff928316021761ffff60a81b1916600160a81b9282169290920260ff60b01b191691909117600160b01b958216959095029490941760ff60b81b1916600160b81b9490921693909302179091556101008301518051919261214892600485019290910190614864565b505060c9546040516326da9bd360e21b81526001600160a01b039091169150639b6a6f4c9061217b908490600401614b7c565b600060405180830381600087803b15801561219557600080fd5b505af11580156121a9573d6000803e3d6000fd5b5050505061087c8261272b565b60cc8054839160d191600091826121cc8361571c565b9091555081526020808201929092526040908101600020835181546001600160a01b0319166001600160a01b0391821617825584840151600183018054948701516060880151929093166001600160a81b031990951694909417600160a01b60ff938416021760ff60a81b1916600160a81b92909116919091021790915560808301518051919261226592600285019290910190614864565b505060c9546040516326da9bd360e21b81526001600160a01b039091169150639b6a6f4c90612298908490600401614b7c565b600060405180830381600087803b1580156122b257600080fd5b505af11580156122c6573d6000803e3d6000fd5b5050505061087c82612739565b6122de848484611bf1565b6122ea84848484612747565b6107535760405162461bcd60e51b81526004016106c1906157d5565b60608161232a5750506040805180820190915260018152600360fc1b602082015290565b8160005b8115612354578061233e8161571c565b915061234d9050600a8361583d565b915061232e565b6000816001600160401b0381111561236e5761236e61499b565b6040519080825280601f01601f191660200182016040528015612398576020820181803683370190505b5090505b8415611be9576123ad600183615737565b91506123ba600a86615851565b6123c590603061574e565b60f81b8183815181106123da576123da615865565b60200101906001600160f81b031916908160001a9053506123fc600a8661583d565b945061239c565b60006001600160e01b031982166380ac58cd60e01b148061243457506001600160e01b03198216635b5e139f60e01b145b806105f457506301ffc9a760e01b6001600160e01b03198316146105f4565b600054610100900460ff168061246c575060005460ff16155b6124885760405162461bcd60e51b81526004016106c1906155eb565b600054610100900460ff161580156124aa576000805461ffff19166101011790555b80156124bc576000805461ff00191690555b50565b600054610100900460ff16806124d8575060005460ff16155b6124f45760405162461bcd60e51b81526004016106c1906155eb565b600054610100900460ff16158015612516576000805461ffff19166101011790555b8251612529906065906020860190614864565b50815161253d906066906020850190614864565b50801561098c576000805461ff0019169055505050565b600080600061256284612845565b91945092509050610753838383613919565b6000806000612562846139b1565b6060600061259183600261587b565b61259c90600261574e565b6001600160401b038111156125b3576125b361499b565b6040519080825280601f01601f1916602001820160405280156125dd576020820181803683370190505b509050600360fc1b816000815181106125f8576125f8615865565b60200101906001600160f81b031916908160001a905350600f60fb1b8160018151811061262757612627615865565b60200101906001600160f81b031916908160001a905350600061264b84600261587b565b61265690600161574e565b90505b60018111156126ce576f181899199a1a9b1b9c1cb0b131b232b360811b85600f166010811061268a5761268a615865565b1a60f81b8282815181106126a0576126a0615865565b60200101906001600160f81b031916908160001a90535060049490941c936126c78161589a565b9050612659565b5083156114515760405162461bcd60e51b815260206004820181905260248201527f537472696e67733a20686578206c656e67746820696e73756666696369656e7460448201526064016106c1565b6000806000612562846142ce565b6000806000612562846144a7565b6000806000612562846147eb565b60006001600160a01b0384163b1561283a57604051630a85bd0160e11b81526001600160a01b0385169063150b7a029061278b9033908990889088906004016158b1565b6020604051808303816000875af19250505080156127c6575060408051601f3d908101601f191682019092526127c3918101906158ee565b60015b612820573d8080156127f4576040519150601f19603f3d011682016040523d82523d6000602084013e6127f9565b606091505b5080516128185760405162461bcd60e51b81526004016106c1906157d5565b805181602001fd5b6001600160e01b031916630a85bd0160e11b149050611be9565b506001949350505050565b6000806000806000808660e0015160ff168760c0015160ff16118015612879575086610100015160ff168760c0015160ff16115b8015612893575086610120015160ff168760c0015160ff16115b80156128ad575086610140015160ff168760c0015160ff16115b80156128c7575086610160015160ff168760c0015160ff16115b15612b69578660000151925061291687610160015161290d89610140015161290d8b610120015161290d8d61010001518e60e0015160ff1661484790919063ffffffff16565b60ff1690614847565b8760c00151612925919061590b565b905086610100015160ff168760e0015160ff16108015612953575086610120015160ff168760e0015160ff16105b801561296d575086610140015160ff168760e0015160ff16105b8015612987575086610160015160ff168760e0015160ff16105b15612998578660200151915061390a565b8660e0015160ff1687610100015160ff161080156129c5575086610120015160ff1687610100015160ff16105b80156129e0575086610140015160ff1687610100015160ff16105b80156129fb575086610160015160ff1687610100015160ff16105b15612a0c578660400151915061390a565b8660e0015160ff1687610120015160ff16108015612a39575086610100015160ff1687610120015160ff16105b8015612a54575086610140015160ff1687610120015160ff16105b8015612a6f575086610160015160ff1687610120015160ff16105b15612a80578660600151915061390a565b8660e0015160ff1687610140015160ff16108015612aad575086610100015160ff1687610140015160ff16105b8015612ac8575086610120015160ff1687610140015160ff16105b8015612ae3575086610160015160ff1687610140015160ff16105b15612af4578660800151915061390a565b8660e0015160ff1687610160015160ff16108015612b21575086610100015160ff1687610160015160ff16105b8015612b3c575086610120015160ff1687610160015160ff16105b8015612b57575086610140015160ff1687610160015160ff16105b15612b64578660a0015191505b61390a565b86610100015160ff168760e0015160ff16118015612b95575086610120015160ff168760e0015160ff16115b8015612baf575086610140015160ff168760e0015160ff16115b8015612bc9575086610160015160ff168760e0015160ff16115b15612e5b5786602001519250612c0f87610160015161290d89610140015161290d8b610120015161290d8d61010001518e60c0015160ff1661484790919063ffffffff16565b8760e00151612c1e919061590b565b905086610100015160ff168760c0015160ff16108015612c4c575086610120015160ff168760c0015160ff16105b8015612c66575086610140015160ff168760c0015160ff16105b8015612c80575086610160015160ff168760c0015160ff16105b15612c8e578651915061390a565b8660c0015160ff1687610100015160ff16108015612cbb575086610120015160ff1687610100015160ff16105b8015612cd6575086610140015160ff1687610100015160ff16105b8015612cf1575086610160015160ff1687610100015160ff16105b15612d02578660400151915061390a565b8660c0015160ff1687610120015160ff16108015612d2f575086610100015160ff1687610120015160ff16105b8015612d4a575086610140015160ff1687610120015160ff16105b8015612d65575086610160015160ff1687610120015160ff16105b15612d76578660600151915061390a565b8660c0015160ff1687610140015160ff16108015612da3575086610100015160ff1687610140015160ff16105b8015612dbe575086610120015160ff1687610140015160ff16105b8015612dd9575086610160015160ff1687610140015160ff16105b15612dea578660800151915061390a565b8660c0015160ff1687610160015160ff16108015612b21575086610100015160ff1687610160015160ff16108015612b3c575086610120015160ff1687610160015160ff16108015612b57575086610140015160ff1687610160015160ff161015612b64578660a00151915061390a565b86610120015160ff1687610100015160ff16118015612e89575086610140015160ff1687610100015160ff16115b8015612ea4575086610160015160ff1687610100015160ff16115b1561312e5786604001519250612ee987610160015161290d89610140015161290d8b610120015161290d8d60e001518e60c0015160ff1661484790919063ffffffff16565b876101000151612ef9919061590b565b90508660e0015160ff168760c0015160ff16108015612f26575086610120015160ff168760c0015160ff16105b8015612f40575086610140015160ff168760c0015160ff16105b8015612f5a575086610160015160ff168760c0015160ff16105b15612f68578651915061390a565b8660c0015160ff168760e0015160ff16108015612f93575086610120015160ff168760e0015160ff16105b8015612fad575086610140015160ff168760e0015160ff16105b8015612fc7575086610160015160ff168760e0015160ff16105b15612fd8578660200151915061390a565b8660c0015160ff1687610120015160ff1610801561300457508660e0015160ff1687610120015160ff16105b801561301f575086610140015160ff1687610120015160ff16105b801561303a575086610160015160ff1687610120015160ff16105b1561304b578660600151915061390a565b8660c0015160ff1687610140015160ff1610801561307757508660e0015160ff1687610140015160ff16105b8015613092575086610120015160ff1687610140015160ff16105b80156130ad575086610160015160ff1687610140015160ff16105b156130be578660800151915061390a565b8660c0015160ff1687610160015160ff16108015612b2157508660e0015160ff1687610160015160ff16108015612b3c575086610120015160ff1687610160015160ff16108015612b57575086610140015160ff1687610160015160ff161015612b64578660a00151915061390a565b86610140015160ff1687610120015160ff1611801561315c575086610160015160ff1687610120015160ff16115b156133e757866060015192506131a187610160015161290d89610140015161290d8b610100015161290d8d60e001518e60c0015160ff1661484790919063ffffffff16565b8761012001516131b1919061590b565b90508660e0015160ff168760c0015160ff161080156131de575086610100015160ff168760c0015160ff16105b80156131f8575086610140015160ff168760c0015160ff16105b8015613212575086610160015160ff168760c0015160ff16105b15613220578651915061390a565b8660c0015160ff168760e0015160ff1610801561324b575086610100015160ff168760e0015160ff16105b8015613265575086610140015160ff168760e0015160ff16105b801561327f575086610160015160ff168760e0015160ff16105b15613290578660200151915061390a565b8660c0015160ff1687610100015160ff161080156132bc57508660e0015160ff1687610100015160ff16105b80156132d7575086610140015160ff1687610100015160ff16105b80156132f2575086610160015160ff1687610100015160ff16105b15613303578660400151915061390a565b8660c0015160ff1687610140015160ff1610801561332f57508660e0015160ff1687610140015160ff16105b801561334a575086610100015160ff1687610140015160ff16105b8015613365575086610160015160ff1687610140015160ff16105b15613376578660800151915061390a565b8660c0015160ff1687610160015160ff161080156133a257508660e0015160ff1687610160015160ff16105b8015612b3c575086610100015160ff1687610160015160ff16108015612b57575086610140015160ff1687610160015160ff161015612b64578660a00151915061390a565b86610160015160ff1687610140015160ff161115613686578660800151925061343f87610160015161290d89610120015161290d8b610100015161290d8d60e001518e60c0015160ff1661484790919063ffffffff16565b87610140015161344f919061590b565b90508660e0015160ff168760c0015160ff1610801561347c575086610100015160ff168760c0015160ff16105b8015613496575086610120015160ff168760c0015160ff16105b80156134b0575086610160015160ff168760c0015160ff16105b156134be578651915061390a565b8660c0015160ff168760e0015160ff161080156134e9575086610100015160ff168760e0015160ff16105b8015613503575086610120015160ff168760e0015160ff16105b801561351d575086610160015160ff168760e0015160ff16105b1561352e578660200151915061390a565b8660c0015160ff1687610100015160ff1610801561355a57508660e0015160ff1687610100015160ff16105b8015613575575086610120015160ff1687610100015160ff16105b8015613590575086610160015160ff1687610100015160ff16105b156135a1578660400151915061390a565b8660c0015160ff1687610120015160ff161080156135cd57508660e0015160ff1687610120015160ff16105b80156135e8575086610100015160ff1687610120015160ff16105b8015613603575086610160015160ff1687610120015160ff16105b15613614578660600151915061390a565b8660c0015160ff1687610160015160ff1610801561364057508660e0015160ff1687610160015160ff16105b801561365b575086610100015160ff1687610160015160ff16105b8015612b57575086610120015160ff1687610160015160ff161015612b64578660a00151915061390a565b8660a0015192506136c687610140015161290d89610120015161290d8b610100015161290d8d60e001518e60c0015160ff1661484790919063ffffffff16565b8761016001516136d6919061590b565b90508660e0015160ff168760c0015160ff16108015613703575086610100015160ff168760c0015160ff16105b801561371d575086610120015160ff168760c0015160ff16105b8015613737575086610140015160ff168760c0015160ff16105b15613745578651915061390a565b8660c0015160ff168760e0015160ff16108015613770575086610100015160ff168760e0015160ff16105b801561378a575086610120015160ff168760e0015160ff16105b80156137a4575086610140015160ff168760e0015160ff16105b156137b5578660200151915061390a565b8660c0015160ff1687610100015160ff161080156137e157508660e0015160ff1687610100015160ff16105b80156137fc575086610120015160ff1687610100015160ff16105b8015613817575086610140015160ff1687610100015160ff16105b15613828578660400151915061390a565b8660c0015160ff1687610120015160ff1610801561385457508660e0015160ff1687610120015160ff16105b801561386f575086610100015160ff1687610120015160ff16105b801561388a575086610140015160ff1687610120015160ff16105b1561389b578660600151915061390a565b8660c0015160ff1687610140015160ff161080156138c757508660e0015160ff1687610140015160ff16105b80156138e2575086610100015160ff1687610140015160ff16105b80156138fd575086610120015160ff1687610140015160ff16105b1561390a57866080015191505b919450925090505b9193909250565b6001600160a01b038316600090815260d66020526040812080549161393d8361571c565b90915550506001600160a01b038216600090815260d7602052604081208054916139668361571c565b90915550506001600160a01b038316600090815260d8602052604090205460ff8216111561098c576001600160a01b038316600090815260d86020526040902060ff82169055505050565b6000806000806000808660c0015160ff168760a0015160ff161180156139e457508660e0015160ff168760a0015160ff16115b80156139fe575086610100015160ff168760a0015160ff16115b8015613a18575086610120015160ff168760a0015160ff16115b15613bc15786600001519250613a5487610120015161290d89610100015161290d8b60e001518c60c0015160ff1661484790919063ffffffff16565b8760a00151613a63919061590b565b90508660e0015160ff168760c0015160ff16108015613a90575086610100015160ff168760c0015160ff16105b8015613aaa575086610120015160ff168760c0015160ff16105b15613abb578660200151915061390a565b8660c0015160ff168760e0015160ff16108015613ae6575086610100015160ff168760e0015160ff16105b8015613b00575086610120015160ff168760e0015160ff16105b15613b11578660400151915061390a565b8660c0015160ff1687610100015160ff16108015613b3d57508660e0015160ff1687610100015160ff16105b8015613b58575086610120015160ff1687610100015160ff16105b15613b69578660600151915061390a565b8660c0015160ff1687610120015160ff16108015613b9557508660e0015160ff1687610120015160ff16105b8015613bb0575086610100015160ff1687610120015160ff16105b15612b64578660800151915061390a565b8660e0015160ff168760c0015160ff16118015613bec575086610100015160ff168760c0015160ff16115b8015613c06575086610120015160ff168760c0015160ff16115b15613daa5786602001519250613c4287610120015161290d89610100015161290d8b60e001518c60a0015160ff1661484790919063ffffffff16565b8760c00151613c51919061590b565b90508660e0015160ff168760a0015160ff16108015613c7e575086610100015160ff168760a0015160ff16105b8015613c98575086610120015160ff168760a0015160ff16105b15613ca6578651915061390a565b8660a0015160ff168760e0015160ff16108015613cd1575086610100015160ff168760e0015160ff16105b8015613ceb575086610120015160ff168760e0015160ff16105b15613cfc578660400151915061390a565b8660a0015160ff1687610100015160ff16108015613d2857508660e0015160ff1687610100015160ff16105b8015613d43575086610120015160ff1687610100015160ff16105b15613d54578660600151915061390a565b8660a0015160ff1687610120015160ff16108015613b9557508660e0015160ff1687610120015160ff16108015613bb0575086610100015160ff1687610120015160ff161015612b64578660800151915061390a565b86610100015160ff168760e0015160ff16118015613dd6575086610120015160ff168760e0015160ff16115b15613f7a5786604001519250613e1287610120015161290d89610100015161290d8b60c001518c60a0015160ff1661484790919063ffffffff16565b8760e00151613e21919061590b565b90508660c0015160ff168760a0015160ff16108015613e4e575086610100015160ff168760a0015160ff16105b8015613e68575086610120015160ff168760a0015160ff16105b15613e76578651915061390a565b8660a0015160ff168760c0015160ff16108015613ea1575086610100015160ff168760c0015160ff16105b8015613ebb575086610120015160ff168760c0015160ff16105b15613ecc578660200151915061390a565b8660a0015160ff1687610100015160ff16108015613ef857508660c0015160ff1687610100015160ff16105b8015613f13575086610120015160ff1687610100015160ff16105b15613f24578660600151915061390a565b8660a0015160ff1687610120015160ff16108015613b9557508660c0015160ff1687610120015160ff16108015613bb0575086610100015160ff1687610120015160ff161015612b64578660800151915061390a565b86610120015160ff1687610100015160ff16111561412c5786606001519250613fc887610120015161290d8960e0015161290d8b60c001518c60a0015160ff1661484790919063ffffffff16565b876101000151613fd8919061590b565b90508660c0015160ff168760a0015160ff1610801561400457508660e0015160ff168760a0015160ff16105b801561401e575086610120015160ff168760a0015160ff16105b1561402c578651915061390a565b8660a0015160ff168760c0015160ff1610801561405657508660e0015160ff168760c0015160ff16105b8015614070575086610120015160ff168760c0015160ff16105b15614081578660200151915061390a565b8660a0015160ff168760e0015160ff161080156140ab57508660c0015160ff168760e0015160ff16105b80156140c5575086610120015160ff168760e0015160ff16105b156140d6578660400151915061390a565b8660a0015160ff1687610120015160ff1610801561410257508660c0015160ff1687610120015160ff16105b8015613bb057508660e0015160ff1687610120015160ff161015612b64578660800151915061390a565b8660800151925061416287610100015161290d8960e0015161290d8b60c001518c60a0015160ff1661484790919063ffffffff16565b876101200151614172919061590b565b90508660c0015160ff168760a0015160ff1610801561419e57508660e0015160ff168760a0015160ff16105b80156141b8575086610100015160ff168760a0015160ff16105b156141c6578651915061390a565b8660a0015160ff168760c0015160ff161080156141f057508660e0015160ff168760c0015160ff16105b801561420a575086610100015160ff168760c0015160ff16105b1561421b578660200151915061390a565b8660a0015160ff168760e0015160ff1610801561424557508660c0015160ff168760e0015160ff16105b801561425f575086610100015160ff168760e0015160ff16105b15614270578660400151915061390a565b8660a0015160ff1687610100015160ff1610801561429c57508660c0015160ff1687610100015160ff16105b80156142b657508660e0015160ff1687610100015160ff16105b1561390a576060909601519196919594509092505050565b600080600080600080866080015160ff16876060015160ff1611801561430157508660a0015160ff16876060015160ff16115b1561439857866000015192508660a0015160ff16876080015160ff16141561433e5786608001518760600151614337919061590b565b905061390a565b8660a0015160ff16876080015160ff1611156143765786608001518760600151614368919061590b565b90508660400151915061390a565b8660a00151876060015161438a919061590b565b90508660200151915061390a565b8660a0015160ff16876080015160ff16111561442857866020015192508660a0015160ff16876060015160ff1614156143df5786606001518760800151614337919061590b565b8660a0015160ff16876060015160ff1611156144095786606001518760800151614368919061590b565b8660a00151876080015161441d919061590b565b87519250905061390a565b86604001519250866080015160ff16876060015160ff1614156144595786606001518760a00151614337919061590b565b866080015160ff16876060015160ff1611156144835786606001518760a0015161438a919061590b565b86608001518760a00151614497919061590b565b9651929792969550919350505050565b6000806000806000808660a0015160ff16876080015160ff161180156144da57508660c0015160ff16876080015160ff16115b80156144f357508660e0015160ff16876080015160ff16115b156145b557866000015192506145258760e0015161290d8960c001518a60a0015160ff1661484790919063ffffffff16565b8760800151614534919061590b565b90508660c0015160ff168760a0015160ff1610801561456057508660e0015160ff168760a0015160ff16105b15614571578660200151915061390a565b8660e0015160ff168760c0015160ff161015614593578660400151915061390a565b8660c0015160ff168760e0015160ff161015612b64578660600151915061390a565b8660c0015160ff168760a0015160ff161180156145df57508660e0015160ff168760a0015160ff16115b1561465a57866020015192506146118760e0015161290d8960c001518a6080015160ff1661484790919063ffffffff16565b8760a00151614620919061590b565b90508660c0015160ff16876080015160ff1610801561464c57508660e0015160ff16876080015160ff16105b15614571578651915061390a565b8660e0015160ff168760c0015160ff16111561472a578660400151925061469d8760e0015161290d8960a001518a6080015160ff1661484790919063ffffffff16565b8760c001516146ac919061590b565b90508660a0015160ff16876080015160ff161080156146d857508660e0015160ff16876080015160ff16105b156146e6578651915061390a565b8660e0015160ff168760a0015160ff161015614708578660200151915061390a565b8660a0015160ff168760e0015160ff161015612b64578660600151915061390a565b866060015192506147578760c0015161290d8960a001518a6080015160ff1661484790919063ffffffff16565b8760e00151614766919061590b565b90508660a0015160ff16876080015160ff1610801561479257508660c0015160ff16876080015160ff16105b156147a0578651915061390a565b8660c0015160ff168760a0015160ff1610156147c2578660200151915061390a565b8660a0015160ff168760c0015160ff16101561390a576040909601519196919594509092505050565b6000806000836060015160ff16846040015160ff16111561482c578351602085015160608601516040870151614821919061590b565b925092509250613912565b6020840151845160408601516060870151614821919061590b565b60008160ff168360ff16101561485d5781611451565b5090919050565b828054614870906155b0565b90600052602060002090601f01602090048101928261489257600085556148d8565b82601f106148ab57805160ff19168380011785556148d8565b828001600101855582156148d8579182015b828111156148d85782518255916020019190600101906148bd565b506148e49291506148e8565b5090565b5b808211156148e457600081556001016148e9565b6001600160e01b0319811681146124bc57600080fd5b60006020828403121561492557600080fd5b8135611451816148fd565b60005b8381101561494b578181015183820152602001614933565b838111156107535750506000910152565b60008151808452614974816020860160208601614930565b601f01601f19169290920160200192915050565b602081526000611451602083018461495c565b634e487b7160e01b600052604160045260246000fd5b6040516101a081016001600160401b03811182821017156149d4576149d461499b565b60405290565b60405161016081016001600160401b03811182821017156149d4576149d461499b565b60405160e081016001600160401b03811182821017156149d4576149d461499b565b60405161012081016001600160401b03811182821017156149d4576149d461499b565b60006001600160401b0380841115614a5c57614a5c61499b565b604051601f8501601f19908116603f01168101908282118183101715614a8457614a8461499b565b81604052809350858152868686011115614a9d57600080fd5b858560208301376000602087830101525050509392505050565b600082601f830112614ac857600080fd5b61145183833560208501614a42565b6001600160a01b03811681146124bc57600080fd5b600080600060608486031215614b0157600080fd5b83356001600160401b0380821115614b1857600080fd5b614b2487838801614ab7565b94506020860135915080821115614b3a57600080fd5b50614b4786828701614ab7565b9250506040840135614b5881614ad7565b809150509250925092565b600060208284031215614b7557600080fd5b5035919050565b6001600160a01b0391909116815260200190565b8035614b9b81614ad7565b919050565b803560ff81168114614b9b57600080fd5b60006101a08284031215614bc457600080fd5b614bcc6149b1565b9050614bd782614b90565b8152614be560208301614b90565b6020820152614bf660408301614b90565b6040820152614c0760608301614b90565b6060820152614c1860808301614b90565b6080820152614c2960a08301614b90565b60a0820152614c3a60c08301614ba0565b60c0820152614c4b60e08301614ba0565b60e0820152610100614c5e818401614ba0565b90820152610120614c70838201614ba0565b90820152610140614c82838201614ba0565b90820152610160614c94838201614ba0565b90820152610180828101356001600160401b03811115614cb357600080fd5b614cbf85828601614ab7565b82840152505092915050565b600060208284031215614cdd57600080fd5b81356001600160401b03811115614cf357600080fd5b611be984828501614bb1565b60008060408385031215614d1257600080fd5b8235614d1d81614ad7565b946020939093013593505050565b60006101608284031215614d3e57600080fd5b614d466149da565b9050614d5182614b90565b8152614d5f60208301614b90565b6020820152614d7060408301614b90565b6040820152614d8160608301614b90565b6060820152614d9260808301614b90565b6080820152614da360a08301614ba0565b60a0820152614db460c08301614ba0565b60c0820152614dc560e08301614ba0565b60e0820152610100614dd8818401614ba0565b90820152610120614dea838201614ba0565b90820152610140828101356001600160401b03811115614cb357600080fd5b600060208284031215614e1b57600080fd5b81356001600160401b03811115614e3157600080fd5b611be984828501614d2b565b600080600060608486031215614e5257600080fd5b8335614e5d81614ad7565b92506020840135614e6d81614ad7565b929592945050506040919091013590565b60008060408385031215614e9157600080fd5b823591506020830135614ea381614ad7565b809150509250929050565b6001600160a01b038c811682528b811660208301528a8116604083015289811660608301528816608082015260ff87811660a083015286811660c083015285811660e083015284811661010083015283166101208201526101606101408201819052600090614f1f8382018561495c565b9e9d5050505050505050505050505050565b6001600160a01b03888116825287811660208301528616604082015260ff85811660608301528481166080830152831660a082015260e060c08201819052600090614f7e9083018461495c565b9998505050505050505050565b600060e08284031215614f9d57600080fd5b614fa56149fd565b9050614fb082614b90565b8152614fbe60208301614b90565b6020820152614fcf60408301614b90565b6040820152614fe060608301614ba0565b6060820152614ff160808301614ba0565b608082015261500260a08301614ba0565b60a082015260c08201356001600160401b0381111561502057600080fd5b61502c84828501614ab7565b60c08301525092915050565b60006020828403121561504a57600080fd5b81356001600160401b0381111561506057600080fd5b611be984828501614f8b565b6000610120828403121561507f57600080fd5b615087614a1f565b905061509282614b90565b81526150a060208301614b90565b60208201526150b160408301614b90565b60408201526150c260608301614b90565b60608201526150d360808301614ba0565b60808201526150e460a08301614ba0565b60a08201526150f560c08301614ba0565b60c082015261510660e08301614ba0565b60e0820152610100828101356001600160401b03811115614cb357600080fd5b6000806040838503121561513957600080fd5b82356001600160401b0381111561514f57600080fd5b61515b8582860161506c565b9250506020830135614ea381614ad7565b60006020828403121561517e57600080fd5b813561145181614ad7565b600060a0828403121561519b57600080fd5b60405160a081016001600160401b0380821183831017156151be576151be61499b565b81604052829350843591506151d282614ad7565b9082526020840135906151e482614ad7565b8160208401526151f660408601614ba0565b604084015261520760608601614ba0565b6060840152608085013591508082111561522057600080fd5b5061522d85828601614ab7565b6080830152505092915050565b6000806040838503121561524d57600080fd5b82356001600160401b0381111561526357600080fd5b61515b85828601615189565b6001600160a01b038e811682528d811660208301528c811660408301528b811660608301528a81166080830152891660a082015260ff881660c082015260ff871660e082015260ff861661010082015260ff851661012082015260ff841661014082015260ff83166101608201526101a061018082015260006152f66101a083018461495c565b9f9e505050505050505050505050505050565b6000806040838503121561531c57600080fd5b82356001600160401b0381111561533257600080fd5b61515b85828601614bb1565b6000806040838503121561535157600080fd5b82356001600160401b0381111561536757600080fd5b61515b85828601614f8b565b6001600160a01b038a81168252898116602083015288811660408301528716606082015260ff868116608083015285811660a083015284811660c0830152831660e082015261012061010082018190526000906153d28382018561495c565b9c9b505050505050505050505050565b80151581146124bc57600080fd5b6000806040838503121561540357600080fd5b823561540e81614ad7565b91506020830135614ea3816153e2565b6001600160a01b0386811682528516602082015260ff84811660408301528316606082015260a06080820181905260009061545b9083018461495c565b979650505050505050565b6000806000806080858703121561547c57600080fd5b843561548781614ad7565b9350602085013561549781614ad7565b92506040850135915060608501356001600160401b038111156154b957600080fd5b8501601f810187136154ca57600080fd5b6154d987823560208401614a42565b91505092959194509250565b6000602082840312156154f757600080fd5b81356001600160401b0381111561550d57600080fd5b611be984828501615189565b6000806040838503121561552c57600080fd5b823561553781614ad7565b91506020830135614ea381614ad7565b6000806040838503121561555a57600080fd5b82356001600160401b0381111561557057600080fd5b61515b85828601614d2b565b60006020828403121561558e57600080fd5b81356001600160401b038111156155a457600080fd5b611be98482850161506c565b600181811c908216806155c457607f821691505b602082108114156155e557634e487b7160e01b600052602260045260246000fd5b50919050565b6020808252602e908201527f496e697469616c697a61626c653a20636f6e747261637420697320616c72656160408201526d191e481a5b9a5d1a585b1a5e995960921b606082015260800190565b60006020828403121561564b57600080fd5b8151611451816153e2565b6020808252601690820152752737ba1030903932b3b4b9ba32b932b2103b37ba32b960511b604082015260600190565b60208082526031908201527f4552433732313a207472616e736665722063616c6c6572206973206e6f74206f6040820152701ddb995c881b9bdc88185c1c1c9bdd9959607a1b606082015260800190565b600083516156e9818460208801614930565b8351908301906156fd818360208801614930565b01949350505050565b634e487b7160e01b600052601160045260246000fd5b600060001982141561573057615730615706565b5060010190565b60008282101561574957615749615706565b500390565b6000821982111561576157615761615706565b500190565b76020b1b1b2b9b9a1b7b73a3937b61d1030b1b1b7bab73a1604d1b815260008351615798816017850160208801614930565b7001034b99036b4b9b9b4b733903937b6329607d1b60179184019182015283516157c9816028840160208801614930565b01602801949350505050565b60208082526032908201527f4552433732313a207472616e7366657220746f206e6f6e20455243373231526560408201527131b2b4bb32b91034b6b83632b6b2b73a32b960711b606082015260800190565b634e487b7160e01b600052601260045260246000fd5b60008261584c5761584c615827565b500490565b60008261586057615860615827565b500690565b634e487b7160e01b600052603260045260246000fd5b600081600019048311821515161561589557615895615706565b500290565b6000816158a9576158a9615706565b506000190190565b6001600160a01b03858116825284166020820152604081018390526080606082018190526000906158e49083018461495c565b9695505050505050565b60006020828403121561590057600080fd5b8151611451816148fd565b600060ff821660ff84168082101561592557615925615706565b9003939250505056fe241ecf16d79d0f8dbfb92cbc07fe17840425976cf0667f022fe9877caa831b08a264697066735822122049bab13678ee3d51dea29ba6fe257f7641d6c8872811f74e35f7e6a20398dae564736f6c634300080a0033",
  "immutableReferences": {},
  "source": "//SPDX-License-Identifier: MIT\npragma solidity ^0.8.0;\n\nimport \"@openzeppelin/contracts-upgradeable/access/AccessControlUpgradeable.sol\";\nimport \"./open-orgs/TitleAccess.sol\";\nimport \"./open-orgs/VoterAccess.sol\";\nimport \"./GameStatsCalculator.sol\";\nimport \"./Catanstitution.sol\";\nimport \"./Games.sol\";\n\ncontract CatanKeeper is ERC721Upgradeable, TitleAccess, VoterAccess, AccessControlUpgradeable {\n\n    using GameStatsCalculator for Games.TwoPlayer;\n    using GameStatsCalculator for Games.ThreePlayer;\n    using GameStatsCalculator for Games.FourPlayer;\n    using GameStatsCalculator for Games.FivePlayer;\n    using GameStatsCalculator for Games.SixPlayer;\n\n    bytes32 public constant MANAGER = keccak256(\"MANAGER_ROLE\");\n\n    Catanstitution controller;\n    uint256 tokenId;\n    VoterPool allowedRecorders;\n\n    function initialize(string memory _name, string memory _symbol, VoterPool _allowedRecorders) public initializer {\n        ERC721Upgradeable.__ERC721_init(_name, _symbol);\n        allowedRecorders = _allowedRecorders;\n\n        _setRoleAdmin(MANAGER, MANAGER);\n        _setupRole(MANAGER, msg.sender);\n    }\n\n    function setGovernanceToken(Catanstitution _controller, uint256 _tokenId) external onlyRole(MANAGER) {\n        controller = _controller;\n        tokenId = _tokenId;\n    }\n\n    uint256 public twoPlayerGameId;\n    uint256 public threePlayerGameId;\n    uint256 public fourPlayerGameId;\n    uint256 public fivePlayerGameId;\n    uint256 public sixPlayerGameId;\n\n    mapping(uint256 => Games.TwoPlayer) public recordedTwoPlayerGames;\n    mapping(uint256 => Games.ThreePlayer) public recordedThreePlayerGames;\n    mapping(uint256 => Games.FourPlayer) public recordedFourPlayerGames;\n    mapping(uint256 => Games.FivePlayer) public recordedFivePlayerGames;\n    mapping(uint256 => Games.SixPlayer) public recordedSixPlayerGames;\n\n    //Stats tracked for claimable trophies\n    mapping(address => uint256) public wins;\n    mapping(address => uint256) public losses;\n    mapping(address => uint256) public highestWinMargin;\n\n    //Functions to update tracked stats for claimable trophies\n    function _saveStats(address winner, address loser, uint8 winMargin) internal {\n        wins[winner]++;\n        losses[loser]++;\n        if(highestWinMargin[winner] < winMargin){\n            highestWinMargin[winner] = winMargin;\n        }\n    }\n\n    function _updateStats(Games.TwoPlayer memory game) internal {\n        address winner; address loser; uint8 winMargin;\n        (winner, loser, winMargin) = game.calculateStats();\n        _saveStats(winner, loser, winMargin);\n    }\n\n    function _updateStats(Games.ThreePlayer memory game) internal {\n        address winner; address loser; uint8 winMargin;\n        (winner, loser, winMargin) = game.calculateStats();\n        _saveStats(winner, loser, winMargin);\n    }\n\n    function _updateStats(Games.FourPlayer memory game) internal {\n        address winner; address loser; uint8 winMargin;\n        (winner, loser, winMargin) = game.calculateStats();\n        _saveStats(winner, loser, winMargin);\n    }\n\n    function _updateStats(Games.FivePlayer memory game) internal {\n        address winner; address loser; uint8 winMargin;\n        (winner, loser, winMargin) = game.calculateStats();\n        _saveStats(winner, loser, winMargin);\n    }\n\n    function _updateStats(Games.SixPlayer memory game) internal {\n        address winner; address loser; uint8 winMargin;\n        (winner, loser, winMargin) = game.calculateStats();\n        _saveStats(winner, loser, winMargin);\n    }\n\n    //Internal functions to record games\n    function _recordTwoPlayerGame(Games.TwoPlayer memory game, address recorder) internal {\n        recordedTwoPlayerGames[twoPlayerGameId++] = game;\n        controller.mintGameToken(recorder);\n        _updateStats(game);\n    }\n\n    function _recordThreePlayerGame(Games.ThreePlayer memory game, address recorder) internal {\n        recordedThreePlayerGames[threePlayerGameId++] = game;\n        controller.mintGameToken(recorder);\n        _updateStats(game);\n    }\n\n    function _recordFourPlayerGame(Games.FourPlayer memory game, address recorder) internal {\n        recordedFourPlayerGames[fourPlayerGameId++] = game;\n        controller.mintGameToken(recorder);\n        _updateStats(game);\n    }\n\n    function _recordFivePlayerGame(Games.FivePlayer memory game, address recorder) internal {\n        recordedFivePlayerGames[fivePlayerGameId++] = game;\n        controller.mintGameToken(recorder);\n        _updateStats(game);\n    }\n\n    function _recordSixPlayerGame(Games.SixPlayer memory game, address recorder) internal {\n        recordedSixPlayerGames[sixPlayerGameId++] = game;\n        controller.mintGameToken(recorder);\n        _updateStats(game);\n    }\n\n    //Functions to record new games\n    function recordTwoPlayerGame(Games.TwoPlayer memory game) external onlyVoters(allowedRecorders) {\n        _recordTwoPlayerGame(game, msg.sender);\n    }\n\n    function recordThreePlayerGame(Games.ThreePlayer memory game) external onlyVoters(allowedRecorders) {\n        _recordThreePlayerGame(game, msg.sender);\n    }\n\n    function recordFourPlayerGame(Games.FourPlayer memory game) external onlyVoters(allowedRecorders) {\n        _recordFourPlayerGame(game, msg.sender);\n    }\n\n    function recordFivePlayerGame(Games.FivePlayer memory game) external onlyVoters(allowedRecorders) {\n        _recordFivePlayerGame(game, msg.sender);\n    }\n\n    function recordSixPlayerGame(Games.SixPlayer memory game) external onlyVoters(allowedRecorders) {\n        _recordSixPlayerGame(game, msg.sender);\n    }\n\n    //Admin functions to record historical games\n    function recordHistoricalTwoPlayerGame(Games.TwoPlayer memory game, address recorder) public onlyRole(MANAGER) {\n        _recordTwoPlayerGame(game, recorder);\n    }\n\n    function recordHistoricalThreePlayerGame(Games.ThreePlayer memory game, address recorder) public onlyRole(MANAGER) {\n        _recordThreePlayerGame(game, recorder);\n    }\n\n    function recordHistoricalFourPlayerGame(Games.FourPlayer memory game, address recorder) public onlyRole(MANAGER) {\n        _recordFourPlayerGame(game, recorder);\n    }\n\n    function recordHistoricalFivePlayerGame(Games.FivePlayer memory game, address recorder) public onlyRole(MANAGER) {\n        _recordFivePlayerGame(game, recorder);\n    }\n\n    function recordHistoricalSixPlayerGame(Games.SixPlayer memory game, address recorder) public onlyRole(MANAGER) {\n        _recordSixPlayerGame(game, recorder);\n    }\n\n    function supportsInterface(bytes4 interfaceId) public view override(ERC721Upgradeable, AccessControlUpgradeable) returns (bool) {\n        return super.supportsInterface(interfaceId);\n    }\n}\n",
  "sourcePath": "/Users/tjharrison/he/catanstitution/contracts/CatanKeeper.sol",
  "compiler": {
    "name": "solc",
    "version": "0.8.10+commit.fc410830.Emscripten.clang"
  },
  "schemaVersion": "3.4.3",
  "updatedAt": "2021-12-04T13:20:01.610Z",
  "networkType": "ethereum",
  "devdoc": {
    "kind": "dev",
    "methods": {
      "approve(address,uint256)": {
        "details": "See {IERC721-approve}."
      },
      "balanceOf(address)": {
        "details": "See {IERC721-balanceOf}."
      },
      "getApproved(uint256)": {
        "details": "See {IERC721-getApproved}."
      },
      "getRoleAdmin(bytes32)": {
        "details": "Returns the admin role that controls `role`. See {grantRole} and {revokeRole}. To change a role's admin, use {_setRoleAdmin}."
      },
      "grantRole(bytes32,address)": {
        "details": "Grants `role` to `account`. If `account` had not been already granted `role`, emits a {RoleGranted} event. Requirements: - the caller must have ``role``'s admin role."
      },
      "hasRole(bytes32,address)": {
        "details": "Returns `true` if `account` has been granted `role`."
      },
      "isApprovedForAll(address,address)": {
        "details": "See {IERC721-isApprovedForAll}."
      },
      "name()": {
        "details": "See {IERC721Metadata-name}."
      },
      "ownerOf(uint256)": {
        "details": "See {IERC721-ownerOf}."
      },
      "renounceRole(bytes32,address)": {
        "details": "Revokes `role` from the calling account. Roles are often managed via {grantRole} and {revokeRole}: this function's purpose is to provide a mechanism for accounts to lose their privileges if they are compromised (such as when a trusted device is misplaced). If the calling account had been granted `role`, emits a {RoleRevoked} event. Requirements: - the caller must be `account`."
      },
      "revokeRole(bytes32,address)": {
        "details": "Revokes `role` from `account`. If `account` had been granted `role`, emits a {RoleRevoked} event. Requirements: - the caller must have ``role``'s admin role."
      },
      "safeTransferFrom(address,address,uint256)": {
        "details": "See {IERC721-safeTransferFrom}."
      },
      "safeTransferFrom(address,address,uint256,bytes)": {
        "details": "See {IERC721-safeTransferFrom}."
      },
      "setApprovalForAll(address,bool)": {
        "details": "See {IERC721-setApprovalForAll}."
      },
      "symbol()": {
        "details": "See {IERC721Metadata-symbol}."
      },
      "tokenURI(uint256)": {
        "details": "See {IERC721Metadata-tokenURI}."
      },
      "transferFrom(address,address,uint256)": {
        "details": "See {IERC721-transferFrom}."
      }
    },
    "version": 1
  },
  "userdoc": {
    "kind": "user",
    "methods": {},
    "version": 1
  }
}