{
  "contractName": "CatanKeeper",
  "abi": [
    {
      "anonymous": false,
      "inputs": [
        {
          "indexed": true,
          "internalType": "uint256",
          "name": "fivePlayerGameId",
          "type": "uint256"
        }
      ],
      "name": "NewFivePlayerGameRecorded",
      "type": "event"
    },
    {
      "anonymous": false,
      "inputs": [
        {
          "indexed": true,
          "internalType": "uint256",
          "name": "fourPlayerGameId",
          "type": "uint256"
        }
      ],
      "name": "NewFourPlayerGameRecorded",
      "type": "event"
    },
    {
      "anonymous": false,
      "inputs": [
        {
          "indexed": true,
          "internalType": "uint256",
          "name": "sixPlayerGameId",
          "type": "uint256"
        }
      ],
      "name": "NewSixPlayerGameRecorded",
      "type": "event"
    },
    {
      "anonymous": false,
      "inputs": [
        {
          "indexed": true,
          "internalType": "uint256",
          "name": "threePlayerGameId",
          "type": "uint256"
        }
      ],
      "name": "NewThreePlayerGameRecorded",
      "type": "event"
    },
    {
      "anonymous": false,
      "inputs": [
        {
          "indexed": true,
          "internalType": "uint256",
          "name": "twoPlayerGameId",
          "type": "uint256"
        }
      ],
      "name": "NewTwoPlayerGameRecorded",
      "type": "event"
    },
    {
      "inputs": [],
      "name": "fivePlayerGameId",
      "outputs": [
        {
          "internalType": "uint256",
          "name": "",
          "type": "uint256"
        }
      ],
      "stateMutability": "view",
      "type": "function",
      "constant": true
    },
    {
      "inputs": [],
      "name": "fourPlayerGameId",
      "outputs": [
        {
          "internalType": "uint256",
          "name": "",
          "type": "uint256"
        }
      ],
      "stateMutability": "view",
      "type": "function",
      "constant": true
    },
    {
      "inputs": [
        {
          "internalType": "uint256",
          "name": "",
          "type": "uint256"
        }
      ],
      "name": "recordedFivePlayerGames",
      "outputs": [
        {
          "internalType": "address",
          "name": "player_1",
          "type": "address"
        },
        {
          "internalType": "address",
          "name": "player_2",
          "type": "address"
        },
        {
          "internalType": "address",
          "name": "player_3",
          "type": "address"
        },
        {
          "internalType": "address",
          "name": "player_4",
          "type": "address"
        },
        {
          "internalType": "address",
          "name": "player_5",
          "type": "address"
        },
        {
          "internalType": "uint8",
          "name": "player_1_vp",
          "type": "uint8"
        },
        {
          "internalType": "uint8",
          "name": "player_2_vp",
          "type": "uint8"
        },
        {
          "internalType": "uint8",
          "name": "player_3_vp",
          "type": "uint8"
        },
        {
          "internalType": "uint8",
          "name": "player_4_vp",
          "type": "uint8"
        },
        {
          "internalType": "uint8",
          "name": "player_5_vp",
          "type": "uint8"
        },
        {
          "internalType": "string",
          "name": "variation",
          "type": "string"
        }
      ],
      "stateMutability": "view",
      "type": "function",
      "constant": true
    },
    {
      "inputs": [
        {
          "internalType": "uint256",
          "name": "",
          "type": "uint256"
        }
      ],
      "name": "recordedFourPlayerGames",
      "outputs": [
        {
          "internalType": "address",
          "name": "player_1",
          "type": "address"
        },
        {
          "internalType": "address",
          "name": "player_2",
          "type": "address"
        },
        {
          "internalType": "address",
          "name": "player_3",
          "type": "address"
        },
        {
          "internalType": "address",
          "name": "player_4",
          "type": "address"
        },
        {
          "internalType": "uint8",
          "name": "player_1_vp",
          "type": "uint8"
        },
        {
          "internalType": "uint8",
          "name": "player_2_vp",
          "type": "uint8"
        },
        {
          "internalType": "uint8",
          "name": "player_3_vp",
          "type": "uint8"
        },
        {
          "internalType": "uint8",
          "name": "player_4_vp",
          "type": "uint8"
        },
        {
          "internalType": "string",
          "name": "variation",
          "type": "string"
        }
      ],
      "stateMutability": "view",
      "type": "function",
      "constant": true
    },
    {
      "inputs": [
        {
          "internalType": "uint256",
          "name": "",
          "type": "uint256"
        }
      ],
      "name": "recordedSixPlayerGames",
      "outputs": [
        {
          "internalType": "address",
          "name": "player_1",
          "type": "address"
        },
        {
          "internalType": "address",
          "name": "player_2",
          "type": "address"
        },
        {
          "internalType": "address",
          "name": "player_3",
          "type": "address"
        },
        {
          "internalType": "address",
          "name": "player_4",
          "type": "address"
        },
        {
          "internalType": "address",
          "name": "player_5",
          "type": "address"
        },
        {
          "internalType": "address",
          "name": "player_6",
          "type": "address"
        },
        {
          "internalType": "uint8",
          "name": "player_1_vp",
          "type": "uint8"
        },
        {
          "internalType": "uint8",
          "name": "player_2_vp",
          "type": "uint8"
        },
        {
          "internalType": "uint8",
          "name": "player_3_vp",
          "type": "uint8"
        },
        {
          "internalType": "uint8",
          "name": "player_4_vp",
          "type": "uint8"
        },
        {
          "internalType": "uint8",
          "name": "player_5_vp",
          "type": "uint8"
        },
        {
          "internalType": "uint8",
          "name": "player_6_vp",
          "type": "uint8"
        },
        {
          "internalType": "string",
          "name": "variation",
          "type": "string"
        }
      ],
      "stateMutability": "view",
      "type": "function",
      "constant": true
    },
    {
      "inputs": [
        {
          "internalType": "uint256",
          "name": "",
          "type": "uint256"
        }
      ],
      "name": "recordedThreePlayerGames",
      "outputs": [
        {
          "internalType": "address",
          "name": "player_1",
          "type": "address"
        },
        {
          "internalType": "address",
          "name": "player_2",
          "type": "address"
        },
        {
          "internalType": "address",
          "name": "player_3",
          "type": "address"
        },
        {
          "internalType": "uint8",
          "name": "player_1_vp",
          "type": "uint8"
        },
        {
          "internalType": "uint8",
          "name": "player_2_vp",
          "type": "uint8"
        },
        {
          "internalType": "uint8",
          "name": "player_3_vp",
          "type": "uint8"
        },
        {
          "internalType": "string",
          "name": "variation",
          "type": "string"
        }
      ],
      "stateMutability": "view",
      "type": "function",
      "constant": true
    },
    {
      "inputs": [
        {
          "internalType": "uint256",
          "name": "",
          "type": "uint256"
        }
      ],
      "name": "recordedTwoPlayerGames",
      "outputs": [
        {
          "internalType": "address",
          "name": "player_1",
          "type": "address"
        },
        {
          "internalType": "address",
          "name": "player_2",
          "type": "address"
        },
        {
          "internalType": "uint8",
          "name": "player_1_vp",
          "type": "uint8"
        },
        {
          "internalType": "uint8",
          "name": "player_2_vp",
          "type": "uint8"
        },
        {
          "internalType": "string",
          "name": "variation",
          "type": "string"
        }
      ],
      "stateMutability": "view",
      "type": "function",
      "constant": true
    },
    {
      "inputs": [],
      "name": "sixPlayerGameId",
      "outputs": [
        {
          "internalType": "uint256",
          "name": "",
          "type": "uint256"
        }
      ],
      "stateMutability": "view",
      "type": "function",
      "constant": true
    },
    {
      "inputs": [],
      "name": "threePlayerGameId",
      "outputs": [
        {
          "internalType": "uint256",
          "name": "",
          "type": "uint256"
        }
      ],
      "stateMutability": "view",
      "type": "function",
      "constant": true
    },
    {
      "inputs": [],
      "name": "twoPlayerGameId",
      "outputs": [
        {
          "internalType": "uint256",
          "name": "",
          "type": "uint256"
        }
      ],
      "stateMutability": "view",
      "type": "function",
      "constant": true
    },
    {
      "inputs": [
        {
          "components": [
            {
              "internalType": "address",
              "name": "player_1",
              "type": "address"
            },
            {
              "internalType": "address",
              "name": "player_2",
              "type": "address"
            },
            {
              "internalType": "uint8",
              "name": "player_1_vp",
              "type": "uint8"
            },
            {
              "internalType": "uint8",
              "name": "player_2_vp",
              "type": "uint8"
            },
            {
              "internalType": "string",
              "name": "variation",
              "type": "string"
            }
          ],
          "internalType": "struct CatanKeeper.TwoPlayerGame",
          "name": "game",
          "type": "tuple"
        }
      ],
      "name": "recordTwoPlayerGame",
      "outputs": [],
      "stateMutability": "nonpayable",
      "type": "function"
    },
    {
      "inputs": [
        {
          "components": [
            {
              "internalType": "address",
              "name": "player_1",
              "type": "address"
            },
            {
              "internalType": "address",
              "name": "player_2",
              "type": "address"
            },
            {
              "internalType": "address",
              "name": "player_3",
              "type": "address"
            },
            {
              "internalType": "uint8",
              "name": "player_1_vp",
              "type": "uint8"
            },
            {
              "internalType": "uint8",
              "name": "player_2_vp",
              "type": "uint8"
            },
            {
              "internalType": "uint8",
              "name": "player_3_vp",
              "type": "uint8"
            },
            {
              "internalType": "string",
              "name": "variation",
              "type": "string"
            }
          ],
          "internalType": "struct CatanKeeper.ThreePlayerGame",
          "name": "game",
          "type": "tuple"
        }
      ],
      "name": "recordThreePlayerGame",
      "outputs": [],
      "stateMutability": "nonpayable",
      "type": "function"
    },
    {
      "inputs": [
        {
          "components": [
            {
              "internalType": "address",
              "name": "player_1",
              "type": "address"
            },
            {
              "internalType": "address",
              "name": "player_2",
              "type": "address"
            },
            {
              "internalType": "address",
              "name": "player_3",
              "type": "address"
            },
            {
              "internalType": "address",
              "name": "player_4",
              "type": "address"
            },
            {
              "internalType": "uint8",
              "name": "player_1_vp",
              "type": "uint8"
            },
            {
              "internalType": "uint8",
              "name": "player_2_vp",
              "type": "uint8"
            },
            {
              "internalType": "uint8",
              "name": "player_3_vp",
              "type": "uint8"
            },
            {
              "internalType": "uint8",
              "name": "player_4_vp",
              "type": "uint8"
            },
            {
              "internalType": "string",
              "name": "variation",
              "type": "string"
            }
          ],
          "internalType": "struct CatanKeeper.FourPlayerGame",
          "name": "game",
          "type": "tuple"
        }
      ],
      "name": "recordFourPlayerGame",
      "outputs": [],
      "stateMutability": "nonpayable",
      "type": "function"
    },
    {
      "inputs": [
        {
          "components": [
            {
              "internalType": "address",
              "name": "player_1",
              "type": "address"
            },
            {
              "internalType": "address",
              "name": "player_2",
              "type": "address"
            },
            {
              "internalType": "address",
              "name": "player_3",
              "type": "address"
            },
            {
              "internalType": "address",
              "name": "player_4",
              "type": "address"
            },
            {
              "internalType": "address",
              "name": "player_5",
              "type": "address"
            },
            {
              "internalType": "uint8",
              "name": "player_1_vp",
              "type": "uint8"
            },
            {
              "internalType": "uint8",
              "name": "player_2_vp",
              "type": "uint8"
            },
            {
              "internalType": "uint8",
              "name": "player_3_vp",
              "type": "uint8"
            },
            {
              "internalType": "uint8",
              "name": "player_4_vp",
              "type": "uint8"
            },
            {
              "internalType": "uint8",
              "name": "player_5_vp",
              "type": "uint8"
            },
            {
              "internalType": "string",
              "name": "variation",
              "type": "string"
            }
          ],
          "internalType": "struct CatanKeeper.FivePlayerGame",
          "name": "game",
          "type": "tuple"
        }
      ],
      "name": "recordFivePlayerGame",
      "outputs": [],
      "stateMutability": "nonpayable",
      "type": "function"
    },
    {
      "inputs": [
        {
          "components": [
            {
              "internalType": "address",
              "name": "player_1",
              "type": "address"
            },
            {
              "internalType": "address",
              "name": "player_2",
              "type": "address"
            },
            {
              "internalType": "address",
              "name": "player_3",
              "type": "address"
            },
            {
              "internalType": "address",
              "name": "player_4",
              "type": "address"
            },
            {
              "internalType": "address",
              "name": "player_5",
              "type": "address"
            },
            {
              "internalType": "address",
              "name": "player_6",
              "type": "address"
            },
            {
              "internalType": "uint8",
              "name": "player_1_vp",
              "type": "uint8"
            },
            {
              "internalType": "uint8",
              "name": "player_2_vp",
              "type": "uint8"
            },
            {
              "internalType": "uint8",
              "name": "player_3_vp",
              "type": "uint8"
            },
            {
              "internalType": "uint8",
              "name": "player_4_vp",
              "type": "uint8"
            },
            {
              "internalType": "uint8",
              "name": "player_5_vp",
              "type": "uint8"
            },
            {
              "internalType": "uint8",
              "name": "player_6_vp",
              "type": "uint8"
            },
            {
              "internalType": "string",
              "name": "variation",
              "type": "string"
            }
          ],
          "internalType": "struct CatanKeeper.SixPlayerGame",
          "name": "game",
          "type": "tuple"
        }
      ],
      "name": "recordSixPlayerGame",
      "outputs": [],
      "stateMutability": "nonpayable",
      "type": "function"
    }
  ],
  "bytecode": "0x608060405234801561001057600080fd5b50611737806100206000396000f3fe608060405234801561001057600080fd5b50600436106100c55760003560e01c806308c42680146100ca578063184732e0146100df57806332df11ff146100f25780634c5c236e1461012557806355bdaed91461014b578063613bd637146101625780636d997ef4146101755780637ff7139f1461017e5780639ad91f9c146101aa578063a957b28b146101d2578063dc480516146101f6578063dd0c297e146101ff578063deed448614610212578063ef1322d01461021b578063fb08351c14610224575b600080fd5b6100dd6100d836600461109a565b610237565b005b6100dd6100ed366004610ea1565b6103e1565b610105610100366004611340565b610557565b60405161011c9b9a99989796959493929190611440565b60405180910390f35b610138610133366004611340565b61065e565b60405161011c9796959493929190611532565b61015460025481565b60405190815260200161011c565b6100dd6101703660046111be565b61073f565b61015460035481565b61019161018c366004611340565b61084f565b60405161011c9d9c9b9a999897969594939291906113a6565b6101bd6101b8366004611340565b61096c565b60405161011c999897969594939291906114c3565b6101e56101e0366004611340565b610a63565b60405161011c95949392919061158c565b61015460015481565b6100dd61020d366004611290565b610b31565b61015460045481565b61015460055481565b6100dd610232366004610fbe565b610c0b565b600580546000908152600a6020908152604091829020845181546001600160a01b03199081166001600160a01b039283161783558684015160018401805483169184169190911790559386015160028301805486169183169190911790556060860151600383018054861691831691909117905560808601516004830180549095169082161790935560a0850151938101805460c087015160e08801516101008901516101208a01516101408b01516101608c01519a9099166001600160a81b031990951694909417600160a01b60ff948516021761ffff60a81b1916600160a81b9284169290920260ff60b01b191691909117600160b01b918316919091021761ffff60b81b1916600160b81b9282169290920260ff60c01b191691909117600160c01b958216959095029490941760ff60c81b1916600160c81b949095169390930293909317909155610180830151805184939261039e926006850192910190610d4f565b505060058054915060006103b1836116c2565b909155506040517f79178471b9c1393316c6475119374173dbf5b4995ebdc81949d7478ed231819a90600090a250565b60048054600090815260096020908152604091829020845181546001600160a01b03199081166001600160a01b039283161783558684015160018401805483169184169190911790559386015160028301805486169183169190911790556060860151600383018054909516908216179093556080850151938101805460a087015160c088015160e08901516101008a01516101208b0151999098166001600160a81b031990941693909317600160a01b60ff938416021761ffff60a81b1916600160a81b9183169190910260ff60b01b191617600160b01b928216929092029190911761ffff60b81b1916600160b81b9582169590950260ff60c01b191694909417600160c01b9490951693909302939093179091556101408301518051849392610514926005850192910190610d4f565b50506004805491506000610527836116c2565b909155506040517fa4427046178ace8aebed29fc8c35b380fc91af17dc22aefca293fba9c49a64f190600090a250565b6009602052600090815260409020805460018201546002830154600384015460048501546005860180546001600160a01b039687169795871696948516959385169483169360ff600160a01b8504811694600160a81b8104821694600160b01b8204831694600160b81b8304841694600160c01b909304909316926105db90611687565b80601f016020809104026020016040519081016040528092919081815260200182805461060790611687565b80156106545780601f1061062957610100808354040283529160200191610654565b820191906000526020600020905b81548152906001019060200180831161063757829003601f168201915b505050505090508b565b60076020526000908152604090208054600182015460028301546003840180546001600160a01b03948516959385169483169360ff600160a01b8504811694600160a81b8104821694600160b01b909104909116926106bc90611687565b80601f01602080910402602001604051908101604052809291908181526020018280546106e890611687565b80156107355780601f1061070a57610100808354040283529160200191610735565b820191906000526020600020905b81548152906001019060200180831161071857829003601f168201915b5050505050905087565b60028054600090815260076020908152604091829020845181546001600160a01b03199081166001600160a01b03928316178355868401516001840180549092169083161790559285015193810180546060870151608088015160a0890151979096166001600160a81b031990921691909117600160a01b60ff928316021761ffff60a81b1916600160a81b9582169590950260ff60b01b191694909417600160b01b94909516939093029390931790915560c0830151805184939261080c926003850192910190610d4f565b5050600280549150600061081f836116c2565b909155506040517f29cdecc833ffaddf93815187a0788d1b9d4ba09c1b5dbc39f3603ffb17be725a90600090a250565b600a6020526000908152604090208054600182015460028301546003840154600485015460058601546006870180546001600160a01b0397881698968816979586169694861695938416949383169360ff600160a01b8504811694600160a81b8104821694600160b01b8204831694600160b81b8304841694600160c01b8404851694600160c81b9094049093169291906108e990611687565b80601f016020809104026020016040519081016040528092919081815260200182805461091590611687565b80156109625780601f1061093757610100808354040283529160200191610962565b820191906000526020600020905b81548152906001019060200180831161094557829003601f168201915b505050505090508d565b600860205260009081526040902080546001820154600283015460038401546004850180546001600160a01b039586169694861695938416949383169360ff600160a01b8504811694600160a81b8104821694600160b01b8204831694600160b81b9092049092169291906109e090611687565b80601f0160208091040260200160405190810160405280929190818152602001828054610a0c90611687565b8015610a595780601f10610a2e57610100808354040283529160200191610a59565b820191906000526020600020905b815481529060010190602001808311610a3c57829003601f168201915b5050505050905089565b6006602052600090815260409020805460018201546002830180546001600160a01b03938416949383169360ff600160a01b8504811694600160a81b900416929091610aae90611687565b80601f0160208091040260200160405190810160405280929190818152602001828054610ada90611687565b8015610b275780601f10610afc57610100808354040283529160200191610b27565b820191906000526020600020905b815481529060010190602001808311610b0a57829003601f168201915b5050505050905085565b60018054600090815260066020908152604091829020845181546001600160a01b0319166001600160a01b03918216178255858301519482018054948701516060880151969092166001600160a81b031990951694909417600160a01b60ff928316021760ff60a81b1916600160a81b91909516029390931790915560808301518051849392610bc8926002850192910190610d4f565b50506001805491506000610bdb836116c2565b909155506040517ff45ea1dee78e3b0f3246aabce9adc7b71c5c6bba04cb027e1cf530a08f38db2690600090a250565b60038054600090815260086020908152604091829020845181546001600160a01b03199081166001600160a01b03928316178355868401516001840180548316918416919091179055938601516002830180549095169082161790935560608501519381018054608087015160a088015160c089015160e08a0151989097166001600160a81b031990931692909217600160a01b60ff928316021761ffff60a81b1916600160a81b9282169290920260ff60b01b191691909117600160b01b958216959095029490941760ff60b81b1916600160b81b9490951693909302939093179091556101008301518051849392610d0c926004850192910190610d4f565b50506003805491506000610d1f836116c2565b909155506040517ff334859c4e21f70495c76ebecba6981d67cf1ed5f3acb759bf61b9bcf9a8db2f90600090a250565b828054610d5b90611687565b90600052602060002090601f016020900481019282610d7d5760008555610dc3565b82601f10610d9657805160ff1916838001178555610dc3565b82800160010185558215610dc3579182015b82811115610dc3578251825591602001919060010190610da8565b50610dcf929150610dd3565b5090565b5b80821115610dcf5760008155600101610dd4565b80356001600160a01b0381168114610dff57600080fd5b919050565b600082601f830112610e1557600080fd5b81356001600160401b0380821115610e2f57610e2f6116eb565b604051601f8301601f19908116603f01168101908282118183101715610e5757610e576116eb565b81604052838152866020858801011115610e7057600080fd5b836020870160208301376000602085830101528094505050505092915050565b803560ff81168114610dff57600080fd5b600060208284031215610eb357600080fd5b81356001600160401b0380821115610eca57600080fd5b908301906101608286031215610edf57600080fd5b610ee76115d4565b610ef083610de8565b8152610efe60208401610de8565b6020820152610f0f60408401610de8565b6040820152610f2060608401610de8565b6060820152610f3160808401610de8565b6080820152610f4260a08401610e90565b60a0820152610f5360c08401610e90565b60c0820152610f6460e08401610e90565b60e0820152610100610f77818501610e90565b90820152610120610f89848201610e90565b908201526101408381013583811115610fa157600080fd5b610fad88828701610e04565b918301919091525095945050505050565b600060208284031215610fd057600080fd5b81356001600160401b0380821115610fe757600080fd5b908301906101208286031215610ffc57600080fd5b6110046115fd565b61100d83610de8565b815261101b60208401610de8565b602082015261102c60408401610de8565b604082015261103d60608401610de8565b606082015261104e60808401610e90565b608082015261105f60a08401610e90565b60a082015261107060c08401610e90565b60c082015261108160e08401610e90565b60e08201526101008084013583811115610fa157600080fd5b6000602082840312156110ac57600080fd5b81356001600160401b03808211156110c357600080fd5b908301906101a082860312156110d857600080fd5b6110e0611620565b6110e983610de8565b81526110f760208401610de8565b602082015261110860408401610de8565b604082015261111960608401610de8565b606082015261112a60808401610de8565b608082015261113b60a08401610de8565b60a082015261114c60c08401610e90565b60c082015261115d60e08401610e90565b60e0820152610100611170818501610e90565b90820152610120611182848201610e90565b90820152610140611194848201610e90565b908201526101606111a6848201610e90565b908201526101808381013583811115610fa157600080fd5b6000602082840312156111d057600080fd5b81356001600160401b03808211156111e757600080fd5b9083019060e082860312156111fb57600080fd5b611203611643565b61120c83610de8565b815261121a60208401610de8565b602082015261122b60408401610de8565b604082015261123c60608401610e90565b606082015261124d60808401610e90565b608082015261125e60a08401610e90565b60a082015260c08301358281111561127557600080fd5b61128187828601610e04565b60c08301525095945050505050565b6000602082840312156112a257600080fd5b81356001600160401b03808211156112b957600080fd5b9083019060a082860312156112cd57600080fd5b6112d5611665565b6112de83610de8565b81526112ec60208401610de8565b60208201526112fd60408401610e90565b604082015261130e60608401610e90565b606082015260808301358281111561132557600080fd5b61133187828601610e04565b60808301525095945050505050565b60006020828403121561135257600080fd5b5035919050565b6000815180845260005b8181101561137f57602081850181015186830182015201611363565b81811115611391576000602083870101525b50601f01601f19169290920160200192915050565b6001600160a01b038e811682528d811660208301528c811660408301528b811660608301528a81166080830152891660a082015260ff881660c082015260ff871660e082015260ff861661010082015260ff851661012082015260ff841661014082015260ff83166101608201526101a0610180820152600061142d6101a0830184611359565b9f9e505050505050505050505050505050565b6001600160a01b038c811682528b811660208301528a8116604083015289811660608301528816608082015260ff87811660a083015286811660c083015285811660e0830152848116610100830152831661012082015261016061014082018190526000906114b183820185611359565b9e9d5050505050505050505050505050565b6001600160a01b038a81168252898116602083015288811660408301528716606082015260ff868116608083015285811660a083015284811660c0830152831660e0820152610120610100820181905260009061152283820185611359565b9c9b505050505050505050505050565b6001600160a01b03888116825287811660208301528616604082015260ff85811660608301528481166080830152831660a082015260e060c0820181905260009061157f90830184611359565b9998505050505050505050565b6001600160a01b0386811682528516602082015260ff84811660408301528316606082015260a0608082018190526000906115c990830184611359565b979650505050505050565b60405161016081016001600160401b03811182821017156115f7576115f76116eb565b60405290565b60405161012081016001600160401b03811182821017156115f7576115f76116eb565b6040516101a081016001600160401b03811182821017156115f7576115f76116eb565b60405160e081016001600160401b03811182821017156115f7576115f76116eb565b60405160a081016001600160401b03811182821017156115f7576115f76116eb565b600181811c9082168061169b57607f821691505b602082108114156116bc57634e487b7160e01b600052602260045260246000fd5b50919050565b60006000198214156116e457634e487b7160e01b600052601160045260246000fd5b5060010190565b634e487b7160e01b600052604160045260246000fdfea26469706673582212203a12436868cb4b870df1e04a988b98449dca378ea1799935982940912c1fe75664736f6c63430008060033",
  "immutableReferences": {},
  "source": "//SPDX-License-Identifier: MIT\npragma solidity ^0.8.0;\n\nimport \"@openzeppelin/contracts-upgradeable/proxy/utils/Initializable.sol\";\n\ncontract CatanKeeper is Initializable {\n\n    //Game records, one per num of players\n    struct TwoPlayerGame {\n        address player_1;\n        address player_2;\n        uint8 player_1_vp;\n        uint8 player_2_vp;\n        string variation;\n    }\n\n    struct ThreePlayerGame {\n        address player_1;\n        address player_2;\n        address player_3;\n        uint8 player_1_vp;\n        uint8 player_2_vp;\n        uint8 player_3_vp;\n        string variation;\n    }\n\n    struct FourPlayerGame {\n        address player_1;\n        address player_2;\n        address player_3;\n        address player_4;\n        uint8 player_1_vp;\n        uint8 player_2_vp;\n        uint8 player_3_vp;\n        uint8 player_4_vp;\n        string variation;\n    }\n\n    struct FivePlayerGame {\n        address player_1;\n        address player_2;\n        address player_3;\n        address player_4;\n        address player_5;\n        uint8 player_1_vp;\n        uint8 player_2_vp;\n        uint8 player_3_vp;\n        uint8 player_4_vp;\n        uint8 player_5_vp;\n        string variation;\n    }\n\n    struct SixPlayerGame {\n        address player_1;\n        address player_2;\n        address player_3;\n        address player_4;\n        address player_5;\n        address player_6;\n        uint8 player_1_vp;\n        uint8 player_2_vp;\n        uint8 player_3_vp;\n        uint8 player_4_vp;\n        uint8 player_5_vp;\n        uint8 player_6_vp;\n        string variation;\n    }\n\n    //Counters tracking the total number of games recorded\n    uint256 public twoPlayerGameId;\n    uint256 public threePlayerGameId;\n    uint256 public fourPlayerGameId;\n    uint256 public fivePlayerGameId;\n    uint256 public sixPlayerGameId;\n\n    mapping(uint256 => TwoPlayerGame) public recordedTwoPlayerGames;\n    mapping(uint256 => ThreePlayerGame) public recordedThreePlayerGames;\n    mapping(uint256 => FourPlayerGame) public recordedFourPlayerGames;\n    mapping(uint256 => FivePlayerGame) public recordedFivePlayerGames;\n    mapping(uint256 => SixPlayerGame) public recordedSixPlayerGames;\n\n    //Functions to record new games\n    function recordTwoPlayerGame(TwoPlayerGame memory game) public {\n        recordedTwoPlayerGames[twoPlayerGameId] = game;\n        emit NewTwoPlayerGameRecorded(twoPlayerGameId++);\n    }\n\n    function recordThreePlayerGame(ThreePlayerGame memory game) public {\n        recordedThreePlayerGames[threePlayerGameId] = game;\n        emit NewThreePlayerGameRecorded(threePlayerGameId++);\n    }\n\n    function recordFourPlayerGame(FourPlayerGame memory game) public {\n        recordedFourPlayerGames[fourPlayerGameId] = game;\n        emit NewFourPlayerGameRecorded(fourPlayerGameId++);\n    }\n\n    function recordFivePlayerGame(FivePlayerGame memory game) public {\n        recordedFivePlayerGames[fivePlayerGameId] = game;\n        emit NewFivePlayerGameRecorded(fivePlayerGameId++);\n    }\n\n    function recordSixPlayerGame(SixPlayerGame memory game) public {\n        recordedSixPlayerGames[sixPlayerGameId] = game;\n        emit NewSixPlayerGameRecorded(sixPlayerGameId++);\n    }\n\n    //Events tracking when games are recorded\n    event NewTwoPlayerGameRecorded (\n        uint256 indexed twoPlayerGameId\n    );\n\n    event NewThreePlayerGameRecorded (\n        uint256 indexed threePlayerGameId\n    );\n\n    event NewFourPlayerGameRecorded (\n        uint256 indexed fourPlayerGameId\n    );\n\n    event NewFivePlayerGameRecorded (\n        uint256 indexed fivePlayerGameId\n    );\n\n    event NewSixPlayerGameRecorded (\n        uint256 indexed sixPlayerGameId\n    );\n}\n",
  "sourcePath": "/Users/tjharrison/catanstitution/contracts/CatanKeeper.sol",
  "compiler": {
    "name": "solc",
    "version": "0.8.6+commit.11564f7e.Emscripten.clang"
  },
  "schemaVersion": "3.4.1",
  "updatedAt": "2021-07-10T17:26:21.453Z",
  "networkType": "ethereum",
  "devdoc": {
    "kind": "dev",
    "methods": {},
    "version": 1
  },
  "userdoc": {
    "kind": "user",
    "methods": {},
    "version": 1
  }
}