{
  "contractName": "CatanstitutionVotingRights",
  "abi": [
    {
      "anonymous": false,
      "inputs": [
        {
          "indexed": true,
          "internalType": "address",
          "name": "owner",
          "type": "address"
        },
        {
          "indexed": true,
          "internalType": "address",
          "name": "spender",
          "type": "address"
        },
        {
          "indexed": false,
          "internalType": "uint256",
          "name": "value",
          "type": "uint256"
        }
      ],
      "name": "Approval",
      "type": "event"
    },
    {
      "anonymous": false,
      "inputs": [
        {
          "indexed": true,
          "internalType": "address",
          "name": "from",
          "type": "address"
        },
        {
          "indexed": true,
          "internalType": "address",
          "name": "to",
          "type": "address"
        },
        {
          "indexed": false,
          "internalType": "uint256",
          "name": "value",
          "type": "uint256"
        }
      ],
      "name": "Transfer",
      "type": "event"
    },
    {
      "anonymous": false,
      "inputs": [
        {
          "indexed": true,
          "internalType": "address",
          "name": "voter",
          "type": "address"
        },
        {
          "indexed": true,
          "internalType": "uint256",
          "name": "voterNum",
          "type": "uint256"
        }
      ],
      "name": "VoterRegistered",
      "type": "event"
    },
    {
      "anonymous": false,
      "inputs": [
        {
          "indexed": true,
          "internalType": "address",
          "name": "voter",
          "type": "address"
        },
        {
          "indexed": true,
          "internalType": "uint256",
          "name": "voterNum",
          "type": "uint256"
        }
      ],
      "name": "VoterUnregistered",
      "type": "event"
    },
    {
      "inputs": [
        {
          "internalType": "address",
          "name": "owner",
          "type": "address"
        },
        {
          "internalType": "address",
          "name": "spender",
          "type": "address"
        }
      ],
      "name": "allowance",
      "outputs": [
        {
          "internalType": "uint256",
          "name": "",
          "type": "uint256"
        }
      ],
      "stateMutability": "view",
      "type": "function",
      "constant": true
    },
    {
      "inputs": [
        {
          "internalType": "address",
          "name": "spender",
          "type": "address"
        },
        {
          "internalType": "uint256",
          "name": "amount",
          "type": "uint256"
        }
      ],
      "name": "approve",
      "outputs": [
        {
          "internalType": "bool",
          "name": "",
          "type": "bool"
        }
      ],
      "stateMutability": "nonpayable",
      "type": "function"
    },
    {
      "inputs": [
        {
          "internalType": "address",
          "name": "account",
          "type": "address"
        }
      ],
      "name": "balanceOf",
      "outputs": [
        {
          "internalType": "uint256",
          "name": "",
          "type": "uint256"
        }
      ],
      "stateMutability": "view",
      "type": "function",
      "constant": true
    },
    {
      "inputs": [
        {
          "internalType": "uint256",
          "name": "amount",
          "type": "uint256"
        }
      ],
      "name": "burn",
      "outputs": [],
      "stateMutability": "nonpayable",
      "type": "function"
    },
    {
      "inputs": [
        {
          "internalType": "address",
          "name": "account",
          "type": "address"
        },
        {
          "internalType": "uint256",
          "name": "amount",
          "type": "uint256"
        }
      ],
      "name": "burnFrom",
      "outputs": [],
      "stateMutability": "nonpayable",
      "type": "function"
    },
    {
      "inputs": [
        {
          "internalType": "uint256",
          "name": "",
          "type": "uint256"
        }
      ],
      "name": "catanstitution",
      "outputs": [
        {
          "internalType": "uint256",
          "name": "amendmentNum",
          "type": "uint256"
        },
        {
          "internalType": "string",
          "name": "text",
          "type": "string"
        },
        {
          "internalType": "address",
          "name": "author",
          "type": "address"
        },
        {
          "internalType": "enum CatanstitutionVotingRights.AmendmentStatus",
          "name": "status",
          "type": "uint8"
        },
        {
          "internalType": "uint256",
          "name": "numVotes",
          "type": "uint256"
        }
      ],
      "stateMutability": "view",
      "type": "function",
      "constant": true
    },
    {
      "inputs": [],
      "name": "decimals",
      "outputs": [
        {
          "internalType": "uint8",
          "name": "",
          "type": "uint8"
        }
      ],
      "stateMutability": "view",
      "type": "function",
      "constant": true
    },
    {
      "inputs": [
        {
          "internalType": "address",
          "name": "spender",
          "type": "address"
        },
        {
          "internalType": "uint256",
          "name": "subtractedValue",
          "type": "uint256"
        }
      ],
      "name": "decreaseAllowance",
      "outputs": [
        {
          "internalType": "bool",
          "name": "",
          "type": "bool"
        }
      ],
      "stateMutability": "nonpayable",
      "type": "function"
    },
    {
      "inputs": [
        {
          "internalType": "address",
          "name": "spender",
          "type": "address"
        },
        {
          "internalType": "uint256",
          "name": "addedValue",
          "type": "uint256"
        }
      ],
      "name": "increaseAllowance",
      "outputs": [
        {
          "internalType": "bool",
          "name": "",
          "type": "bool"
        }
      ],
      "stateMutability": "nonpayable",
      "type": "function"
    },
    {
      "inputs": [],
      "name": "keeperOfTheCatanstitution",
      "outputs": [
        {
          "internalType": "contract FluidVoteTitleV1",
          "name": "",
          "type": "address"
        }
      ],
      "stateMutability": "view",
      "type": "function",
      "constant": true
    },
    {
      "inputs": [],
      "name": "name",
      "outputs": [
        {
          "internalType": "string",
          "name": "",
          "type": "string"
        }
      ],
      "stateMutability": "view",
      "type": "function",
      "constant": true
    },
    {
      "inputs": [],
      "name": "numAcceptedAmendments",
      "outputs": [
        {
          "internalType": "uint256",
          "name": "",
          "type": "uint256"
        }
      ],
      "stateMutability": "view",
      "type": "function",
      "constant": true
    },
    {
      "inputs": [],
      "name": "numProposedAmendments",
      "outputs": [
        {
          "internalType": "uint256",
          "name": "",
          "type": "uint256"
        }
      ],
      "stateMutability": "view",
      "type": "function",
      "constant": true
    },
    {
      "inputs": [],
      "name": "numVoters",
      "outputs": [
        {
          "internalType": "uint256",
          "name": "",
          "type": "uint256"
        }
      ],
      "stateMutability": "view",
      "type": "function",
      "constant": true
    },
    {
      "inputs": [
        {
          "internalType": "address",
          "name": "",
          "type": "address"
        },
        {
          "internalType": "uint256",
          "name": "",
          "type": "uint256"
        }
      ],
      "name": "proposalVotes",
      "outputs": [
        {
          "internalType": "enum CatanstitutionVotingRights.VoteStatus",
          "name": "",
          "type": "uint8"
        }
      ],
      "stateMutability": "view",
      "type": "function",
      "constant": true
    },
    {
      "inputs": [
        {
          "internalType": "address",
          "name": "",
          "type": "address"
        }
      ],
      "name": "proposals",
      "outputs": [
        {
          "internalType": "uint256",
          "name": "amendmentNum",
          "type": "uint256"
        },
        {
          "internalType": "string",
          "name": "text",
          "type": "string"
        },
        {
          "internalType": "address",
          "name": "author",
          "type": "address"
        },
        {
          "internalType": "enum CatanstitutionVotingRights.AmendmentStatus",
          "name": "status",
          "type": "uint8"
        },
        {
          "internalType": "uint256",
          "name": "numVotes",
          "type": "uint256"
        }
      ],
      "stateMutability": "view",
      "type": "function",
      "constant": true
    },
    {
      "inputs": [],
      "name": "rulerOfCatan",
      "outputs": [
        {
          "internalType": "contract FluidVoteTitleV1",
          "name": "",
          "type": "address"
        }
      ],
      "stateMutability": "view",
      "type": "function",
      "constant": true
    },
    {
      "inputs": [],
      "name": "symbol",
      "outputs": [
        {
          "internalType": "string",
          "name": "",
          "type": "string"
        }
      ],
      "stateMutability": "view",
      "type": "function",
      "constant": true
    },
    {
      "inputs": [],
      "name": "totalSupply",
      "outputs": [
        {
          "internalType": "uint256",
          "name": "",
          "type": "uint256"
        }
      ],
      "stateMutability": "view",
      "type": "function",
      "constant": true
    },
    {
      "inputs": [
        {
          "internalType": "address",
          "name": "recipient",
          "type": "address"
        },
        {
          "internalType": "uint256",
          "name": "amount",
          "type": "uint256"
        }
      ],
      "name": "transfer",
      "outputs": [
        {
          "internalType": "bool",
          "name": "",
          "type": "bool"
        }
      ],
      "stateMutability": "nonpayable",
      "type": "function"
    },
    {
      "inputs": [
        {
          "internalType": "address",
          "name": "sender",
          "type": "address"
        },
        {
          "internalType": "address",
          "name": "recipient",
          "type": "address"
        },
        {
          "internalType": "uint256",
          "name": "amount",
          "type": "uint256"
        }
      ],
      "name": "transferFrom",
      "outputs": [
        {
          "internalType": "bool",
          "name": "",
          "type": "bool"
        }
      ],
      "stateMutability": "nonpayable",
      "type": "function"
    },
    {
      "inputs": [
        {
          "internalType": "address",
          "name": "",
          "type": "address"
        }
      ],
      "name": "voterRegistrationIndexes",
      "outputs": [
        {
          "internalType": "uint256",
          "name": "",
          "type": "uint256"
        }
      ],
      "stateMutability": "view",
      "type": "function",
      "constant": true
    },
    {
      "inputs": [
        {
          "internalType": "uint256",
          "name": "",
          "type": "uint256"
        }
      ],
      "name": "voterRegistrations",
      "outputs": [
        {
          "internalType": "address",
          "name": "",
          "type": "address"
        }
      ],
      "stateMutability": "view",
      "type": "function",
      "constant": true
    },
    {
      "inputs": [
        {
          "internalType": "string",
          "name": "name",
          "type": "string"
        },
        {
          "internalType": "string",
          "name": "symbol",
          "type": "string"
        }
      ],
      "name": "initialize",
      "outputs": [],
      "stateMutability": "nonpayable",
      "type": "function"
    },
    {
      "inputs": [],
      "name": "initialize",
      "outputs": [],
      "stateMutability": "nonpayable",
      "type": "function"
    },
    {
      "inputs": [
        {
          "internalType": "address",
          "name": "to",
          "type": "address"
        },
        {
          "internalType": "uint256",
          "name": "amount",
          "type": "uint256"
        }
      ],
      "name": "mint",
      "outputs": [],
      "stateMutability": "nonpayable",
      "type": "function"
    },
    {
      "inputs": [
        {
          "internalType": "string",
          "name": "amendment",
          "type": "string"
        }
      ],
      "name": "proposeAmendment",
      "outputs": [],
      "stateMutability": "nonpayable",
      "type": "function"
    },
    {
      "inputs": [
        {
          "internalType": "bool",
          "name": "vote",
          "type": "bool"
        },
        {
          "internalType": "address",
          "name": "activeProposal",
          "type": "address"
        }
      ],
      "name": "voteOnProposedAmendment",
      "outputs": [],
      "stateMutability": "nonpayable",
      "type": "function"
    },
    {
      "inputs": [
        {
          "internalType": "uint256",
          "name": "amendmentNum",
          "type": "uint256"
        }
      ],
      "name": "resolveAmendment",
      "outputs": [],
      "stateMutability": "nonpayable",
      "type": "function"
    }
  ],
  "bytecode": "0x608060405234801561001057600080fd5b50612ffb806100206000396000f3fe60806040523480156200001157600080fd5b50600436106200017e5760003560e01c806306fdde031462000183578063095ea7b314620001a55780630c0d2b2414620001cd57806313f97ba214620001e657806318160ddd146200022157806323b872dd1462000234578063313ce567146200024b5780633341b445146200025b57806339509351146200028557806340c10f19146200029c57806342966c6814620002b357806342c228a514620002ca5780634cbe32b814620002d45780634cd88b7614620002de5780634e2ca93414620002f557806353cdf0d81462000309578063705077cd146200032057806370a08231146200033757806379cc6790146200034e5780638129fc1c146200036557806392f851a1146200036f57806395d89b411462000379578063a2d7e2181462000383578063a457c2d714620003a6578063a9059cbb14620003bd578063aeb5e8cc14620003d4578063bea23d4614620003e8578063bf0761971462000428578063dd62ed3e146200043f575b600080fd5b6200018d6200047b565b6040516200019c91906200211d565b60405180910390f35b620001bc620001b636600462001f8c565b62000515565b60405190151581526020016200019c565b620001e4620001de36600462001fe0565b6200052d565b005b62000212620001f73660046200208a565b6098602052600090815260409020546001600160a01b031681565b6040516200019c9190620020f4565b6035545b6040519081526020016200019c565b620001bc6200024536600462001f46565b62000772565b604051601281526020016200019c565b620002726200026c36600462001ec1565b6200082b565b6040516200019c95949392919062002180565b620001bc6200029636600462001f8c565b620008fa565b620001e4620002ad36600462001f8c565b62000934565b620001e4620002c43660046200208a565b62000aba565b62000225609c5481565b6200022560975481565b620001e4620002ef36600462002020565b62000ae7565b609b5462000212906001600160a01b031681565b620002726200031a3660046200208a565b62000b67565b620001e46200033136600462001fbb565b62000b8b565b620002256200034836600462001ec1565b62000db3565b620001e46200035f36600462001f8c565b62000dce565b620001e462000e5a565b62000225609d5481565b6200018d6200104c565b620002256200039436600462001ec1565b60996020526000908152604090205481565b620001bc620003b736600462001f8c565b6200105d565b620001bc620003ce36600462001f8c565b620010fd565b609a5462000212906001600160a01b031681565b62000419620003f936600462001f8c565b60a060209081526000928352604080842090915290825290205460ff1681565b6040516200019c919062002108565b620001e4620004393660046200208a565b6200110c565b620002256200045036600462001f08565b6001600160a01b03918216600090815260346020908152604080832093909416825291909152205490565b6060603680546200048c9062002219565b80601f0160208091040260200160405190810160405280929190818152602001828054620004ba9062002219565b80156200050b5780601f10620004df576101008083540402835291602001916200050b565b820191906000526020600020905b815481529060010190602001808311620004ed57829003601f168201915b5050505050905090565b600062000524338484620011c0565b50600192915050565b60006200053a3362000db3565b11620005985760405162461bcd60e51b815260206004820152602260248201527f4d757374206f776e2043565220746f2070726f706f736520616d656e646d656e604482015261747360f01b60648201526084015b60405180910390fd5b6002336000908152609f60205260409020600290810154600160a01b900460ff1690811115620005cc57620005cc6200228a565b14156200064c5760405162461bcd60e51b815260206004820152604160248201527f596f7520616c7265616479206861766520612070726f706f73616c206163746960448201527f76652c206f6e6c79206f6e6520706572207265676973746572656420766f74656064820152603960f91b608482015260a4016200058f565b609d80549060006200065e8362002256565b919050555060006040518060a00160405280609d548152602001838152602001336001600160a01b03168152602001600280811115620006a257620006a26200228a565b815260016020918201819052336000908152609f8352604090208351815583830151805194955085949193620006de9385019291019062001d2d565b506040820151600280830180546001600160a01b039093166001600160a01b031984168117825560608601519391926001600160a81b03199092161790600160a01b9084908111156200073557620007356200228a565b021790555060809190910151600390910155505033600090815260a060209081526040808320609d5484529091529020805460ff19166001179055565b600062000781848484620012e9565b6001600160a01b038416600090815260346020908152604080832033845290915290205482811015620008085760405162461bcd60e51b815260206004820152602860248201527f45524332303a207472616e7366657220616d6f756e74206578636565647320616044820152676c6c6f77616e636560c01b60648201526084016200058f565b6200082085336200081a8685620021e5565b620011c0565b506001949350505050565b609f60205260009081526040902080546001820180549192916200084f9062002219565b80601f01602080910402602001604051908101604052809291908181526020018280546200087d9062002219565b8015620008ce5780601f10620008a257610100808354040283529160200191620008ce565b820191906000526020600020905b815481529060010190602001808311620008b057829003601f168201915b50505050600283015460039093015491926001600160a01b03811692600160a01b90910460ff16915085565b3360008181526034602090815260408083206001600160a01b03871684529091528120549091620005249185906200081a908690620021ca565b609b60009054906101000a90046001600160a01b0316806001600160a01b031663e534155d6040518163ffffffff1660e01b815260040160206040518083038186803b1580156200098457600080fd5b505afa15801562000999573d6000803e3d6000fd5b505050506040513d601f19601f82011682018060405250810190620009bf919062001ee8565b6001600160a01b0316336001600160a01b031614620009dd57600080fd5b620009e98383620014bb565b609a54604051633165d23360e01b81526001600160a01b0390911690633165d2339062000a1b908690600401620020f4565b600060405180830381600087803b15801562000a3657600080fd5b505af115801562000a4b573d6000803e3d6000fd5b5050609b54604051633165d23360e01b81526001600160a01b039091169250633165d233915062000a81908690600401620020f4565b600060405180830381600087803b15801562000a9c57600080fd5b505af115801562000ab1573d6000803e3d6000fd5b50505050505050565b8062000ac63362000db3565b141562000ad85762000ad833620014f1565b62000ae43382620015c6565b50565b600054610100900460ff168062000b01575060005460ff16155b62000b205760405162461bcd60e51b81526004016200058f9062002132565b600054610100900460ff1615801562000b43576000805461ffff19166101011790555b62000b4f83836200170d565b801562000b62576000805461ff00191690555b505050565b609e60205260009081526040902080546001820180549192916200084f9062002219565b600062000b983362000db3565b1162000bf15760405162461bcd60e51b815260206004820152602160248201527f4d757374206f776e2043565220746f20766f7465206f6e2070726f706f73616c6044820152607360f81b60648201526084016200058f565b33600090815260a0602090815260408083206001600160a01b0385168452609f835281842054845290915281205460ff16600281111562000c365762000c366200228a565b1462000cb95760405162461bcd60e51b815260206004820152604560248201527f596f75206861766520616c726561647920766f746564206f6e2074686973207060448201527f726f706f73616c2c20796f75206d6179206e6f74206368616e676520796f757260648201526420766f746560d81b608482015260a4016200058f565b811562000cfe5733600090815260a0602090815260408083206001600160a01b0385168452609f83528184205484529091529020805460ff1916600117905562000d37565b33600090815260a0602090815260408083206001600160a01b0385168452609f83528184205484529091529020805460ff191660021790555b6001600160a01b0381166000908152609f6020526040812060030180549162000d608362002256565b90915550506097546001600160a01b0382166000908152609f6020526040902060030154141562000daf576001600160a01b0381166000908152609f602052604090205462000daf906200177f565b5050565b6001600160a01b031660009081526033602052604090205490565b600062000ddc833362000450565b90508181101562000e3c5760405162461bcd60e51b8152602060048201526024808201527f45524332303a206275726e20616d6f756e74206578636565647320616c6c6f77604482015263616e636560e01b60648201526084016200058f565b62000e4e83336200081a8585620021e5565b62000b628383620015c6565b600054610100900460ff168062000e74575060005460ff16155b62000e935760405162461bcd60e51b81526004016200058f9062002132565b600054610100900460ff1615801562000eb6576000805461ffff19166101011790555b62000f0f6040518060400160405280601a815260200179436174616e737469747574696f6e566f74696e6752696768747360301b8152506040518060400160405280600381526020016221ab2960e91b81525062000ae7565b333060405162000f1f9062001dbc565b6060808252600e908201526d293ab632b91037b31021b0ba30b760911b60808201526001600160a01b0392831660208201529116604082015260a001604051809103906000f08015801562000f78573d6000803e3d6000fd5b50609a60006101000a8154816001600160a01b0302191690836001600160a01b03160217905550333060405162000faf9062001dbc565b6060808252601c908201527b25b2b2b832b91037b3103a34329021b0ba30b739ba34ba3aba34b7b760211b60808201526001600160a01b0392831660208201529116604082015260a001604051809103906000f08015801562001016573d6000803e3d6000fd5b50609b80546001600160a01b0319166001600160a01b0392909216919091179055801562000ae4576000805461ff001916905550565b6060603780546200048c9062002219565b3360009081526034602090815260408083206001600160a01b038616845290915281205482811015620010e15760405162461bcd60e51b815260206004820152602560248201527f45524332303a2064656372656173656420616c6c6f77616e63652062656c6f77604482015264207a65726f60d81b60648201526084016200058f565b620010f333856200081a8685620021e5565b5060019392505050565b600062000524338484620012e9565b609a60009054906101000a90046001600160a01b0316806001600160a01b031663e534155d6040518163ffffffff1660e01b815260040160206040518083038186803b1580156200115c57600080fd5b505afa15801562001171573d6000803e3d6000fd5b505050506040513d601f19601f8201168201806040525081019062001197919062001ee8565b6001600160a01b0316336001600160a01b031614620011b557600080fd5b62000daf826200177f565b6001600160a01b038316620012245760405162461bcd60e51b8152602060048201526024808201527f45524332303a20617070726f76652066726f6d20746865207a65726f206164646044820152637265737360e01b60648201526084016200058f565b6001600160a01b038216620012875760405162461bcd60e51b815260206004820152602260248201527f45524332303a20617070726f766520746f20746865207a65726f206164647265604482015261737360f01b60648201526084016200058f565b6001600160a01b0383811660008181526034602090815260408083209487168084529482529182902085905590518481527f8c5be1e5ebec7d5bd14f71427d1e84f3dd0314c0f7b2291e5b200ac8c7c3b92591015b60405180910390a3505050565b6001600160a01b0383166200134f5760405162461bcd60e51b815260206004820152602560248201527f45524332303a207472616e736665722066726f6d20746865207a65726f206164604482015264647265737360d81b60648201526084016200058f565b6001600160a01b038216620013b35760405162461bcd60e51b815260206004820152602360248201527f45524332303a207472616e7366657220746f20746865207a65726f206164647260448201526265737360e81b60648201526084016200058f565b6001600160a01b038316600090815260336020526040902054818110156200142d5760405162461bcd60e51b815260206004820152602660248201527f45524332303a207472616e7366657220616d6f756e7420657863656564732062604482015265616c616e636560d01b60648201526084016200058f565b620014398282620021e5565b6001600160a01b03808616600090815260336020526040808220939093559085168152908120805484929062001471908490620021ca565b92505081905550826001600160a01b0316846001600160a01b031660008051602062002fa683398151915284604051620014ad91815260200190565b60405180910390a350505050565b620014c68262000db3565b158015620014d45750600081115b15620014e557620014e58262001ac1565b62000daf828262001b49565b6001600160a01b0381166000908152609960205260409020545b60975481101562001578576098600062001527836001620021ca565b8152602080820192909252604090810160009081205484825260989093522080546001600160a01b0319166001600160a01b03909216919091179055806200156f8162002256565b9150506200150b565b50609780549060006200158b83620021ff565b909155506040516001600160a01b038316907f78b411a8cf59f03839ed9a669c4c63f73ed091f1aed5762c8e3ff1eae39763a490600090a350565b6001600160a01b038216620016285760405162461bcd60e51b815260206004820152602160248201527f45524332303a206275726e2066726f6d20746865207a65726f206164647265736044820152607360f81b60648201526084016200058f565b6001600160a01b038216600090815260336020526040902054818110156200169e5760405162461bcd60e51b815260206004820152602260248201527f45524332303a206275726e20616d6f756e7420657863656564732062616c616e604482015261636560f01b60648201526084016200058f565b620016aa8282620021e5565b6001600160a01b03841660009081526033602052604081209190915560358054849290620016da908490620021e5565b90915550506040518281526000906001600160a01b0385169060008051602062002fa683398151915290602001620012dc565b600054610100900460ff168062001727575060005460ff16155b620017465760405162461bcd60e51b81526004016200058f9062002132565b600054610100900460ff1615801562001769576000805461ffff19166101011790555b6200177362001c1d565b62000b4f838362001c8e565b6000805b6097548110156200180e576000818152609860209081526040808320546001600160a01b031680845260a083528184208785529092529091205460019060ff166002811115620017d757620017d76200228a565b1415620017f857620017e98162000db3565b620017f59084620021ca565b92505b5080620018058162002256565b91505062001783565b506200181962001dca565b60005b60975481101562001995576000818152609860209081526040808320546001600160a01b0316808452609f909252909120548514156200197f576001600160a01b0381166000908152609f6020908152604091829020825160a08101909352805483526001810180549192840191620018959062002219565b80601f0160208091040260200160405190810160405280929190818152602001828054620018c39062002219565b8015620019145780601f10620018e85761010080835404028352916020019162001914565b820191906000526020600020905b815481529060010190602001808311620018f657829003601f168201915b50505091835250506002828101546001600160a01b0381166020840152604090920191600160a01b900460ff16908111156200195457620019546200228a565b60028111156200196857620019686200228a565b815260200160038201548152505092505062001995565b50806200198c8162002256565b9150506200181c565b506001609754620019a79190620021e5565b821062001a8f5780609e6000609c60008154620019c49062002256565b91829055508152602080820192909252604001600020825181558282015180519192620019fa9260018501929091019062001d2d565b506040820151600280830180546001600160a01b039093166001600160a01b031984168117825560608601519391926001600160a81b03199092161790600160a01b90849081111562001a515762001a516200228a565b0217905550608091909101516003909101556040908101516001600160a01b03166000908152609f60205220600201805460ff60a01b191690555050565b6040908101516001600160a01b03166000908152609f60205220600201805460ff60a01b1916600160a01b1790555050565b60978054600090815260986020908152604080832080546001600160a01b0319166001600160a01b038716908117909155845490845260999092528220819055919062001b0e8362002256565b909155506040516001600160a01b038316907ff16ce2c2236e2c6e3df646f80d657bceef4cd7f3a240c47e82adfa17a5f4724190600090a350565b6001600160a01b03821662001ba15760405162461bcd60e51b815260206004820152601f60248201527f45524332303a206d696e7420746f20746865207a65726f20616464726573730060448201526064016200058f565b806035600082825462001bb59190620021ca565b90915550506001600160a01b0382166000908152603360205260408120805483929062001be4908490620021ca565b90915550506040518181526001600160a01b0383169060009060008051602062002fa68339815191529060200160405180910390a35050565b600054610100900460ff168062001c37575060005460ff16155b62001c565760405162461bcd60e51b81526004016200058f9062002132565b600054610100900460ff1615801562001c79576000805461ffff19166101011790555b801562000ae4576000805461ff001916905550565b600054610100900460ff168062001ca8575060005460ff16155b62001cc75760405162461bcd60e51b81526004016200058f9062002132565b600054610100900460ff1615801562001cea576000805461ffff19166101011790555b825162001cff90603690602086019062001d2d565b50815162001d1590603790602085019062001d2d565b50801562000b62576000805461ff0019169055505050565b82805462001d3b9062002219565b90600052602060002090601f01602090048101928262001d5f576000855562001daa565b82601f1062001d7a57805160ff191683800117855562001daa565b8280016001018555821562001daa579182015b8281111562001daa57825182559160200191906001019062001d8d565b5062001db892915062001e16565b5090565b610cba80620022ec83390190565b6040518060a00160405280600081526020016060815260200160006001600160a01b031681526020016000600281111562001e095762001e096200228a565b8152602001600081525090565b5b8082111562001db8576000815560010162001e17565b600082601f83011262001e3f57600080fd5b81356001600160401b038082111562001e5c5762001e5c620022a0565b604051601f8301601f19908116603f0116810190828211818310171562001e875762001e87620022a0565b8160405283815286602085880101111562001ea157600080fd5b836020870160208301376000602085830101528094505050505092915050565b60006020828403121562001ed457600080fd5b813562001ee181620022d5565b9392505050565b60006020828403121562001efb57600080fd5b815162001ee181620022d5565b6000806040838503121562001f1c57600080fd5b823562001f2981620022d5565b9150602083013562001f3b81620022d5565b809150509250929050565b60008060006060848603121562001f5c57600080fd5b833562001f6981620022d5565b9250602084013562001f7b81620022d5565b929592945050506040919091013590565b6000806040838503121562001fa057600080fd5b823562001fad81620022d5565b946020939093013593505050565b6000806040838503121562001fcf57600080fd5b8235801515811462001f2957600080fd5b60006020828403121562001ff357600080fd5b81356001600160401b038111156200200a57600080fd5b620020188482850162001e2d565b949350505050565b600080604083850312156200203457600080fd5b82356001600160401b03808211156200204c57600080fd5b6200205a8683870162001e2d565b935060208501359150808211156200207157600080fd5b50620020808582860162001e2d565b9150509250929050565b6000602082840312156200209d57600080fd5b5035919050565b6000815180845260005b81811015620020cc57602081850181015186830182015201620020ae565b81811115620020df576000602083870101525b50601f01601f19169290920160200192915050565b6001600160a01b0391909116815260200190565b602081016200211783620022b6565b91905290565b60208152600062001ee16020830184620020a4565b6020808252602e908201527f496e697469616c697a61626c653a20636f6e747261637420697320616c72656160408201526d191e481a5b9a5d1a585b1a5e995960921b606082015260800190565b85815260a0602082015260006200219b60a0830187620020a4565b6001600160a01b03861660408401529050620021b784620022b6565b6060820193909352608001529392505050565b60008219821115620021e057620021e062002274565b500190565b600082821015620021fa57620021fa62002274565b500390565b60008162002211576200221162002274565b506000190190565b600181811c908216806200222e57607f821691505b602082108114156200225057634e487b7160e01b600052602260045260246000fd5b50919050565b60006000198214156200226d576200226d62002274565b5060010190565b634e487b7160e01b600052601160045260246000fd5b634e487b7160e01b600052602160045260246000fd5b634e487b7160e01b600052604160045260246000fd5b6003811062000ae457634e487b7160e01b600052602160045260246000fd5b6001600160a01b038116811462000ae457600080fdfe60806040523480156200001157600080fd5b5060405162000cba38038062000cba833981016040819052620000349162000225565b6200004b83836200007460201b620004e71760201c565b600580546001600160a01b0319166001600160a01b0392909216919091179055506200037b9050565b600054610100900460ff16806200008e575060005460ff16155b620000f65760405162461bcd60e51b815260206004820152602e60248201527f496e697469616c697a61626c653a20636f6e747261637420697320616c72656160448201526d191e481a5b9a5d1a585b1a5e995960921b606482015260840160405180910390fd5b600054610100900460ff1615801562000119576000805461ffff19166101011790555b82516200012e90600190602086019062000162565b50600280546001600160a01b0319166001600160a01b03841617905580156200015d576000805461ff00191690555b505050565b828054620001709062000328565b90600052602060002090601f016020900481019282620001945760008555620001df565b82601f10620001af57805160ff1916838001178555620001df565b82800160010185558215620001df579182015b82811115620001df578251825591602001919060010190620001c2565b50620001ed929150620001f1565b5090565b5b80821115620001ed5760008155600101620001f2565b80516001600160a01b03811681146200022057600080fd5b919050565b6000806000606084860312156200023b57600080fd5b83516001600160401b03808211156200025357600080fd5b818601915086601f8301126200026857600080fd5b8151818111156200027d576200027d62000365565b604051601f8201601f19908116603f01168101908382118183101715620002a857620002a862000365565b81604052828152602093508984848701011115620002c557600080fd5b600091505b82821015620002e95784820184015181830185015290830190620002ca565b82821115620002fb5760008484830101525b96506200030d91505086820162000208565b935050506200031f6040850162000208565b90509250925092565b600181811c908216806200033d57607f821691505b602082108114156200035f57634e487b7160e01b600052602260045260246000fd5b50919050565b634e487b7160e01b600052604160045260246000fd5b61092f806200038b6000396000f3fe608060405234801561001057600080fd5b50600436106100835760003560e01c80633165d23314610088578063350580ea1461009d5780634a79d50c146100cd57806366a267a9146100e257806371a8cd3f146101105780637ab4339d146101235780637ed1775114610136578063d8bff5a514610149578063e534155d14610172575b600080fd5b61009b6100963660046106d8565b610185565b005b6005546100b0906001600160a01b031681565b6040516001600160a01b0390911681526020015b60405180910390f35b6100d56101dd565b6040516100c491906107f3565b6101026100f03660046106d8565b60046020526000908152604090205481565b6040519081526020016100c4565b61009b61011e3660046106d8565b61026b565b61009b610131366004610719565b6104e7565b61009b6101443660046106d8565b6105ce565b6100b06101573660046106d8565b6003602052600090815260409020546001600160a01b031681565b6002546100b0906001600160a01b031681565b600280546001600160a01b03838116600090815260036020908152604080832080546001600160a01b0319169585169590951790945593549091168152600490925281208054916101d58361089a565b919050555050565b600180546101ea9061085f565b80601f01602080910402602001604051908101604052809291908181526020018280546102169061085f565b80156102635780601f1061023857610100808354040283529160200191610263565b820191906000526020600020905b81548152906001019060200180831161024657829003601f168201915b505050505081565b336000908152600360209081526040808320546001600160a01b031683526004909152812080549161029c83610848565b909155505033600090815260036020908152604080832080546001600160a01b0319166001600160a01b0386169081179091558352600490915281208054916102e48361089a565b919050555060008060005b600560009054906101000a90046001600160a01b03166001600160a01b0316634cbe32b86040518163ffffffff1660e01b815260040160206040518083038186803b15801561033d57600080fd5b505afa158015610351573d6000803e3d6000fd5b505050506040513d601f19601f8201168201806040525081019061037591906107da565b8110156104ac576005546040516309fcbdd160e11b8152600481018390526000916001600160a01b0316906313f97ba29060240160206040518083038186803b1580156103c157600080fd5b505afa1580156103d5573d6000803e3d6000fd5b505050506040513d601f19601f820116820180604052508101906103f991906106fc565b6001600160a01b038116600090815260046020526040902054909150831015610440576001600160a01b038116600090815260046020526040902054909350915082610499565b6001600160a01b0381166000908152600460205260409020548314801561047457506002546001600160a01b038281169116145b15610499576001600160a01b0381166000908152600460205260409020549093509150825b50806104a48161089a565b9150506102ef565b506002546001600160a01b038381169116146104e257600280546001600160a01b0319166001600160a01b038416179055505050565b505050565b600054610100900460ff1680610500575060005460ff16155b6105675760405162461bcd60e51b815260206004820152602e60248201527f496e697469616c697a61626c653a20636f6e747261637420697320616c72656160448201526d191e481a5b9a5d1a585b1a5e995960921b606482015260840160405180910390fd5b600054610100900460ff16158015610589576000805461ffff19166101011790555b825161059c90600190602086019061062f565b50600280546001600160a01b0319166001600160a01b03841617905580156104e2576000805461ff0019169055505050565b6001600160a01b0380821660009081526003602090815260408083205490931682526004905290812080549161060383610848565b90915550506001600160a01b0316600090815260036020526040902080546001600160a01b0319169055565b82805461063b9061085f565b90600052602060002090601f01602090048101928261065d57600085556106a3565b82601f1061067657805160ff19168380011785556106a3565b828001600101855582156106a3579182015b828111156106a3578251825591602001919060010190610688565b506106af9291506106b3565b5090565b5b808211156106af57600081556001016106b4565b80356106d3816108e1565b919050565b6000602082840312156106ea57600080fd5b81356106f5816108e1565b9392505050565b60006020828403121561070e57600080fd5b81516106f5816108e1565b6000806040838503121561072c57600080fd5b82356001600160401b038082111561074357600080fd5b818501915085601f83011261075757600080fd5b813581811115610769576107696108cb565b604051601f8201601f19908116603f01168101908382118183101715610791576107916108cb565b816040528281528860208487010111156107aa57600080fd5b8260208601602083013760006020848301015280965050505050506107d1602084016106c8565b90509250929050565b6000602082840312156107ec57600080fd5b5051919050565b600060208083528351808285015260005b8181101561082057858101830151858201604001528201610804565b81811115610832576000604083870101525b50601f01601f1916929092016040019392505050565b600081610857576108576108b5565b506000190190565b600181811c9082168061087357607f821691505b6020821081141561089457634e487b7160e01b600052602260045260246000fd5b50919050565b60006000198214156108ae576108ae6108b5565b5060010190565b634e487b7160e01b600052601160045260246000fd5b634e487b7160e01b600052604160045260246000fd5b6001600160a01b03811681146108f657600080fd5b5056fea26469706673582212200eb79f43d4642ddb0e0cdfb6131cc34657b6d4d0a6e17590fc6859b9badc95f964736f6c63430008060033ddf252ad1be2c89b69c2b068fc378daa952ba7f163c4a11628f55a4df523b3efa2646970667358221220f8b306e65c954b24b2ad631c88f83974323e9fe05b23d856da9460c229c6510964736f6c63430008060033",
  "immutableReferences": {},
  "source": "//SPDX-License-Identifier: MIT\npragma solidity ^0.8.0;\n\nimport \"./open-orgs/ERC20VoterToken.sol\";\nimport \"./open-orgs/FluidVoteTitleV1.sol\";\n\ncontract CatanstitutionVotingRights is ERC20VoterToken {\n\n    FluidVoteTitleV1 public rulerOfCatan;\n    FluidVoteTitleV1 public keeperOfTheCatanstitution;\n\n    enum AmendmentStatus { PASSED, FAILED, PROPOSED }\n    enum VoteStatus { NOT_VOTED, FOR, AGAINST }\n\n    struct Amendment {\n        uint256 amendmentNum; //proposal number\n        string text;\n        address author;\n        AmendmentStatus status;\n        uint256 numVotes; //how many voters voted on this amendment\n    }\n\n    //Catanstitution\n    uint256 public numAcceptedAmendments;\n    uint256 public numProposedAmendments;\n    mapping(uint256 => Amendment) public catanstitution; //passed and ratified amendments\n    mapping(address => Amendment) public proposals; //one proposal per registered voter allowed\n    mapping(address => mapping(uint256 => VoteStatus)) public proposalVotes; //recorded votes for all proposals\n\n    function initialize() public initializer {\n        ERC20VoterToken.initialize(\"CatanstitutionVotingRights\", \"CVR\");\n        rulerOfCatan = new FluidVoteTitleV1(\"Ruler of Catan\", msg.sender, this);\n        keeperOfTheCatanstitution = new FluidVoteTitleV1(\"Keeper of the Catanstitution\", msg.sender, this);\n    }\n\n    function mint(address to, uint256 amount) public override virtual onlyTitleHolder(keeperOfTheCatanstitution) {\n        super.mint(to, amount);\n        //TODO: determine if we need to register or not\n        rulerOfCatan.registerNewVoter(to);\n        keeperOfTheCatanstitution.registerNewVoter(to);\n    }\n\n    function proposeAmendment(string memory amendment) public {\n        require(balanceOf(msg.sender) > 0, \"Must own CVR to propose amendments\");\n        require(proposals[msg.sender].status != AmendmentStatus.PROPOSED, \"You already have a proposal active, only one per registered voter\");\n\n        numProposedAmendments++;\n        Amendment memory a = Amendment(numProposedAmendments, amendment, msg.sender, AmendmentStatus.PROPOSED, 1);\n        proposals[msg.sender] = a;\n        proposalVotes[msg.sender][numProposedAmendments] = VoteStatus.FOR;\n    }\n\n    function voteOnProposedAmendment(bool vote, address activeProposal) public {\n        require(balanceOf(msg.sender) > 0, \"Must own CVR to vote on proposals\");\n        require(proposalVotes[msg.sender][proposals[activeProposal].amendmentNum] == VoteStatus.NOT_VOTED, \"You have already voted on this proposal, you may not change your vote\");\n\n        //Set vote\n        if (vote) { proposalVotes[msg.sender][proposals[activeProposal].amendmentNum] = VoteStatus.FOR; }\n        else { proposalVotes[msg.sender][proposals[activeProposal].amendmentNum] = VoteStatus.AGAINST; }\n\n        //Update number of cast votes\n        proposals[activeProposal].numVotes++;\n        if(proposals[activeProposal].numVotes == numVoters){ //all votes are cast, resolve proposal\n            _resolveAmendmentVote(proposals[activeProposal].amendmentNum);\n        }\n    }\n\n    function _resolveAmendmentVote(uint256 amendmentNum) internal {\n        //Count votes - weighted by CVR owned\n        uint256 votesFor = 0;\n        for (uint256 i = 0; i < numVoters; i++) {\n            address voter = voterRegistrations[i];\n            if(proposalVotes[voter][amendmentNum] == VoteStatus.FOR){\n                votesFor += balanceOf(voter);\n            }\n        }\n\n        //Find the amendment\n        Amendment memory a;\n        for (uint256 i = 0; i < numVoters; i++) {\n            address voter = voterRegistrations[i];\n            if(proposals[voter].amendmentNum == amendmentNum){\n                a = proposals[voter];\n                break;\n            }\n        }\n\n        //Requires all but one voter to pass\n        if(votesFor >= numVoters - 1){\n            //Pass amendment\n            catanstitution[++numAcceptedAmendments] = a;\n            proposals[a.author].status = AmendmentStatus.PASSED;\n        } else {\n            proposals[a.author].status = AmendmentStatus.FAILED;\n        }\n    }\n\n    function resolveAmendment(uint256 amendmentNum) public onlyTitleHolder(rulerOfCatan) {\n        //TODO: check if enough votes have been cast\n        _resolveAmendmentVote(amendmentNum);\n    }\n}\n",
  "sourcePath": "/Users/tjharrison/catanstitution/contracts/CatanstitutionVotingRights.sol",
  "compiler": {
    "name": "solc",
    "version": "0.8.6+commit.11564f7e.Emscripten.clang"
  },
  "schemaVersion": "3.4.1",
  "updatedAt": "2021-07-10T17:26:21.498Z",
  "networkType": "ethereum",
  "devdoc": {
    "kind": "dev",
    "methods": {
      "allowance(address,address)": {
        "details": "See {IERC20-allowance}."
      },
      "approve(address,uint256)": {
        "details": "See {IERC20-approve}. Requirements: - `spender` cannot be the zero address."
      },
      "balanceOf(address)": {
        "details": "See {IERC20-balanceOf}."
      },
      "burn(uint256)": {
        "details": "Destroys `amount` tokens from the caller. See {ERC20-_burn}."
      },
      "burnFrom(address,uint256)": {
        "details": "Destroys `amount` tokens from `account`, deducting from the caller's allowance. See {ERC20-_burn} and {ERC20-allowance}. Requirements: - the caller must have allowance for ``accounts``'s tokens of at least `amount`."
      },
      "decimals()": {
        "details": "Returns the number of decimals used to get its user representation. For example, if `decimals` equals `2`, a balance of `505` tokens should be displayed to a user as `5,05` (`505 / 10 ** 2`). Tokens usually opt for a value of 18, imitating the relationship between Ether and Wei. This is the value {ERC20} uses, unless this function is overridden; NOTE: This information is only used for _display_ purposes: it in no way affects any of the arithmetic of the contract, including {IERC20-balanceOf} and {IERC20-transfer}."
      },
      "decreaseAllowance(address,uint256)": {
        "details": "Atomically decreases the allowance granted to `spender` by the caller. This is an alternative to {approve} that can be used as a mitigation for problems described in {IERC20-approve}. Emits an {Approval} event indicating the updated allowance. Requirements: - `spender` cannot be the zero address. - `spender` must have allowance for the caller of at least `subtractedValue`."
      },
      "increaseAllowance(address,uint256)": {
        "details": "Atomically increases the allowance granted to `spender` by the caller. This is an alternative to {approve} that can be used as a mitigation for problems described in {IERC20-approve}. Emits an {Approval} event indicating the updated allowance. Requirements: - `spender` cannot be the zero address."
      },
      "name()": {
        "details": "Returns the name of the token."
      },
      "symbol()": {
        "details": "Returns the symbol of the token, usually a shorter version of the name."
      },
      "totalSupply()": {
        "details": "See {IERC20-totalSupply}."
      },
      "transfer(address,uint256)": {
        "details": "See {IERC20-transfer}. Requirements: - `recipient` cannot be the zero address. - the caller must have a balance of at least `amount`."
      },
      "transferFrom(address,address,uint256)": {
        "details": "See {IERC20-transferFrom}. Emits an {Approval} event indicating the updated allowance. This is not required by the EIP. See the note at the beginning of {ERC20}. Requirements: - `sender` and `recipient` cannot be the zero address. - `sender` must have a balance of at least `amount`. - the caller must have allowance for ``sender``'s tokens of at least `amount`."
      }
    },
    "version": 1
  },
  "userdoc": {
    "kind": "user",
    "methods": {},
    "version": 1
  }
}