{
  "contractName": "Constitution",
  "abi": [
    {
      "anonymous": false,
      "inputs": [
        {
          "indexed": true,
          "internalType": "address",
          "name": "owner",
          "type": "address"
        },
        {
          "indexed": true,
          "internalType": "address",
          "name": "approved",
          "type": "address"
        },
        {
          "indexed": true,
          "internalType": "uint256",
          "name": "tokenId",
          "type": "uint256"
        }
      ],
      "name": "Approval",
      "type": "event"
    },
    {
      "anonymous": false,
      "inputs": [
        {
          "indexed": true,
          "internalType": "address",
          "name": "owner",
          "type": "address"
        },
        {
          "indexed": true,
          "internalType": "address",
          "name": "operator",
          "type": "address"
        },
        {
          "indexed": false,
          "internalType": "bool",
          "name": "approved",
          "type": "bool"
        }
      ],
      "name": "ApprovalForAll",
      "type": "event"
    },
    {
      "anonymous": false,
      "inputs": [
        {
          "indexed": true,
          "internalType": "address",
          "name": "from",
          "type": "address"
        },
        {
          "indexed": true,
          "internalType": "address",
          "name": "to",
          "type": "address"
        },
        {
          "indexed": true,
          "internalType": "uint256",
          "name": "tokenId",
          "type": "uint256"
        }
      ],
      "name": "Transfer",
      "type": "event"
    },
    {
      "inputs": [
        {
          "internalType": "uint256",
          "name": "",
          "type": "uint256"
        }
      ],
      "name": "amendments",
      "outputs": [
        {
          "internalType": "uint256",
          "name": "amendmentNum",
          "type": "uint256"
        },
        {
          "internalType": "string",
          "name": "text",
          "type": "string"
        },
        {
          "internalType": "address",
          "name": "author",
          "type": "address"
        },
        {
          "internalType": "enum Constitution.AmendmentStatus",
          "name": "status",
          "type": "uint8"
        },
        {
          "internalType": "uint256",
          "name": "numVotes",
          "type": "uint256"
        }
      ],
      "stateMutability": "view",
      "type": "function",
      "constant": true
    },
    {
      "inputs": [
        {
          "internalType": "address",
          "name": "to",
          "type": "address"
        },
        {
          "internalType": "uint256",
          "name": "tokenId",
          "type": "uint256"
        }
      ],
      "name": "approve",
      "outputs": [],
      "stateMutability": "nonpayable",
      "type": "function"
    },
    {
      "inputs": [
        {
          "internalType": "address",
          "name": "owner",
          "type": "address"
        }
      ],
      "name": "balanceOf",
      "outputs": [
        {
          "internalType": "uint256",
          "name": "",
          "type": "uint256"
        }
      ],
      "stateMutability": "view",
      "type": "function",
      "constant": true
    },
    {
      "inputs": [
        {
          "internalType": "uint256",
          "name": "tokenId",
          "type": "uint256"
        }
      ],
      "name": "getApproved",
      "outputs": [
        {
          "internalType": "address",
          "name": "",
          "type": "address"
        }
      ],
      "stateMutability": "view",
      "type": "function",
      "constant": true
    },
    {
      "inputs": [
        {
          "internalType": "address",
          "name": "owner",
          "type": "address"
        },
        {
          "internalType": "address",
          "name": "operator",
          "type": "address"
        }
      ],
      "name": "isApprovedForAll",
      "outputs": [
        {
          "internalType": "bool",
          "name": "",
          "type": "bool"
        }
      ],
      "stateMutability": "view",
      "type": "function",
      "constant": true
    },
    {
      "inputs": [],
      "name": "name",
      "outputs": [
        {
          "internalType": "string",
          "name": "",
          "type": "string"
        }
      ],
      "stateMutability": "view",
      "type": "function",
      "constant": true
    },
    {
      "inputs": [],
      "name": "numAcceptedAmendments",
      "outputs": [
        {
          "internalType": "uint256",
          "name": "",
          "type": "uint256"
        }
      ],
      "stateMutability": "view",
      "type": "function",
      "constant": true
    },
    {
      "inputs": [],
      "name": "numProposedAmendments",
      "outputs": [
        {
          "internalType": "uint256",
          "name": "",
          "type": "uint256"
        }
      ],
      "stateMutability": "view",
      "type": "function",
      "constant": true
    },
    {
      "inputs": [
        {
          "internalType": "uint256",
          "name": "tokenId",
          "type": "uint256"
        }
      ],
      "name": "ownerOf",
      "outputs": [
        {
          "internalType": "address",
          "name": "",
          "type": "address"
        }
      ],
      "stateMutability": "view",
      "type": "function",
      "constant": true
    },
    {
      "inputs": [
        {
          "internalType": "address",
          "name": "",
          "type": "address"
        },
        {
          "internalType": "uint256",
          "name": "",
          "type": "uint256"
        }
      ],
      "name": "proposalVotes",
      "outputs": [
        {
          "internalType": "enum Constitution.VoteStatus",
          "name": "",
          "type": "uint8"
        }
      ],
      "stateMutability": "view",
      "type": "function",
      "constant": true
    },
    {
      "inputs": [
        {
          "internalType": "address",
          "name": "",
          "type": "address"
        }
      ],
      "name": "proposals",
      "outputs": [
        {
          "internalType": "uint256",
          "name": "amendmentNum",
          "type": "uint256"
        },
        {
          "internalType": "string",
          "name": "text",
          "type": "string"
        },
        {
          "internalType": "address",
          "name": "author",
          "type": "address"
        },
        {
          "internalType": "enum Constitution.AmendmentStatus",
          "name": "status",
          "type": "uint8"
        },
        {
          "internalType": "uint256",
          "name": "numVotes",
          "type": "uint256"
        }
      ],
      "stateMutability": "view",
      "type": "function",
      "constant": true
    },
    {
      "inputs": [
        {
          "internalType": "address",
          "name": "from",
          "type": "address"
        },
        {
          "internalType": "address",
          "name": "to",
          "type": "address"
        },
        {
          "internalType": "uint256",
          "name": "tokenId",
          "type": "uint256"
        }
      ],
      "name": "safeTransferFrom",
      "outputs": [],
      "stateMutability": "nonpayable",
      "type": "function"
    },
    {
      "inputs": [
        {
          "internalType": "address",
          "name": "from",
          "type": "address"
        },
        {
          "internalType": "address",
          "name": "to",
          "type": "address"
        },
        {
          "internalType": "uint256",
          "name": "tokenId",
          "type": "uint256"
        },
        {
          "internalType": "bytes",
          "name": "_data",
          "type": "bytes"
        }
      ],
      "name": "safeTransferFrom",
      "outputs": [],
      "stateMutability": "nonpayable",
      "type": "function"
    },
    {
      "inputs": [
        {
          "internalType": "address",
          "name": "operator",
          "type": "address"
        },
        {
          "internalType": "bool",
          "name": "approved",
          "type": "bool"
        }
      ],
      "name": "setApprovalForAll",
      "outputs": [],
      "stateMutability": "nonpayable",
      "type": "function"
    },
    {
      "inputs": [
        {
          "internalType": "bytes4",
          "name": "interfaceId",
          "type": "bytes4"
        }
      ],
      "name": "supportsInterface",
      "outputs": [
        {
          "internalType": "bool",
          "name": "",
          "type": "bool"
        }
      ],
      "stateMutability": "view",
      "type": "function",
      "constant": true
    },
    {
      "inputs": [],
      "name": "symbol",
      "outputs": [
        {
          "internalType": "string",
          "name": "",
          "type": "string"
        }
      ],
      "stateMutability": "view",
      "type": "function",
      "constant": true
    },
    {
      "inputs": [
        {
          "internalType": "uint256",
          "name": "tokenId",
          "type": "uint256"
        }
      ],
      "name": "tokenURI",
      "outputs": [
        {
          "internalType": "string",
          "name": "",
          "type": "string"
        }
      ],
      "stateMutability": "view",
      "type": "function",
      "constant": true
    },
    {
      "inputs": [
        {
          "internalType": "address",
          "name": "from",
          "type": "address"
        },
        {
          "internalType": "address",
          "name": "to",
          "type": "address"
        },
        {
          "internalType": "uint256",
          "name": "tokenId",
          "type": "uint256"
        }
      ],
      "name": "transferFrom",
      "outputs": [],
      "stateMutability": "nonpayable",
      "type": "function"
    },
    {
      "inputs": [
        {
          "internalType": "string",
          "name": "_name",
          "type": "string"
        },
        {
          "internalType": "string",
          "name": "_symbol",
          "type": "string"
        },
        {
          "internalType": "contract VoterPool",
          "name": "_voterPool",
          "type": "address"
        }
      ],
      "name": "initialize",
      "outputs": [],
      "stateMutability": "nonpayable",
      "type": "function"
    },
    {
      "inputs": [
        {
          "internalType": "contract SingleHolderTitle",
          "name": "_resolver",
          "type": "address"
        }
      ],
      "name": "setResolver",
      "outputs": [],
      "stateMutability": "nonpayable",
      "type": "function"
    },
    {
      "inputs": [
        {
          "internalType": "string",
          "name": "amendment",
          "type": "string"
        }
      ],
      "name": "proposeAmendment",
      "outputs": [],
      "stateMutability": "nonpayable",
      "type": "function"
    },
    {
      "inputs": [
        {
          "internalType": "bool",
          "name": "vote",
          "type": "bool"
        },
        {
          "internalType": "address",
          "name": "activeProposal",
          "type": "address"
        }
      ],
      "name": "voteOnProposedAmendment",
      "outputs": [],
      "stateMutability": "nonpayable",
      "type": "function"
    },
    {
      "inputs": [
        {
          "internalType": "uint256",
          "name": "amendmentNum",
          "type": "uint256"
        }
      ],
      "name": "resolveAmendment",
      "outputs": [],
      "stateMutability": "nonpayable",
      "type": "function"
    }
  ],
  "bytecode": "0x608060405234801561001057600080fd5b5061244a806100206000396000f3fe608060405234801561001057600080fd5b506004361061011d5760003560e01c806301ffc9a71461012257806306fdde031461014a578063077f224a1461015f578063081812fc14610174578063095ea7b3146101945780630c0d2b24146101a757806313e8cc39146101ba57806323b872dd146101de5780633341b445146101f157806342842e0e1461020457806342c228a5146102175780634e543b261461022e5780636352211e1461025e578063705077cd1461027157806370a082311461028457806392f851a11461029757806395d89b41146102a0578063a22cb465146102a8578063b88d4fde146102bb578063bea23d46146102ce578063bf07619714610309578063c87b56dd1461031c578063e985e9c51461032f575b600080fd5b610135610130366004611f26565b610342565b60405190151581526020015b60405180910390f35b610152610394565b60405161014191906120fc565b61017261016d366004611f94565b610426565b005b61018761018236600461200b565b6104c3565b6040516101419190612098565b6101726101a2366004611ebf565b61054b565b6101726101b5366004611f60565b61065c565b6101cd6101c836600461200b565b6108c8565b604051610141959493929190612230565b6101726101ec366004611dd1565b61098f565b6101cd6101ff366004611d5e565b6109c0565b610172610212366004611dd1565b6109e2565b61022060995481565b604051908152602001610141565b61017261023c366004611d5e565b609880546001600160a01b0319166001600160a01b0392909216919091179055565b61018761026c36600461200b565b6109fd565b61017261027f366004611f08565b610a74565b610220610292366004611d5e565b610d49565b610220609a5481565b610152610dd0565b6101726102b6366004611e91565b610ddf565b6101726102c9366004611e12565b610ea0565b6102fc6102dc366004611ebf565b609d60209081526000928352604080842090915290825290205460ff1681565b60405161014191906120e9565b61017261031736600461200b565b610ed2565b61015261032a36600461200b565b610fbb565b61013561033d366004611d98565b611093565b60006001600160e01b031982166380ac58cd60e01b148061037357506001600160e01b03198216635b5e139f60e01b145b8061038e57506301ffc9a760e01b6001600160e01b03198316145b92915050565b6060606580546103a3906122e5565b80601f01602080910402602001604051908101604052809291908181526020018280546103cf906122e5565b801561041c5780601f106103f15761010080835404028352916020019161041c565b820191906000526020600020905b8154815290600101906020018083116103ff57829003601f168201915b5050505050905090565b600054610100900460ff168061043f575060005460ff16155b6104645760405162461bcd60e51b815260040161045b90612191565b60405180910390fd5b600054610100900460ff16158015610486576000805461ffff19166101011790555b61049084846110c1565b609780546001600160a01b0319166001600160a01b03841617905580156104bd576000805461ff00191690555b50505050565b60006104ce82611148565b61052f5760405162461bcd60e51b815260206004820152602c60248201527f4552433732313a20617070726f76656420717565727920666f72206e6f6e657860448201526b34b9ba32b73a103a37b5b2b760a11b606482015260840161045b565b506000908152606960205260409020546001600160a01b031690565b6000610556826109fd565b9050806001600160a01b0316836001600160a01b031614156105c45760405162461bcd60e51b815260206004820152602160248201527f4552433732313a20617070726f76616c20746f2063757272656e74206f776e656044820152603960f91b606482015260840161045b565b336001600160a01b03821614806105e057506105e08133611093565b61064d5760405162461bcd60e51b815260206004820152603860248201527f4552433732313a20617070726f76652063616c6c6572206973206e6f74206f776044820152771b995c881b9bdc88185c1c1c9bdd995908199bdc88185b1b60421b606482015260840161045b565b6106578383611165565b505050565b60975460405163a7771ee360e01b81526001600160a01b0390911690819063a7771ee39061068e903390600401612098565b602060405180830381600087803b1580156106a857600080fd5b505af11580156106bc573d6000803e3d6000fd5b505050506040513d601f19601f820116820180604052508101906106e09190611eeb565b6106fc5760405162461bcd60e51b815260040161045b90612161565b6002336000908152609c60205260409020600290810154600160a01b900460ff169081111561072d5761072d61237b565b14156107ab5760405162461bcd60e51b815260206004820152604160248201527f596f7520616c7265616479206861766520612070726f706f73616c206163746960448201527f76652c206f6e6c79206f6e6520706572207265676973746572656420766f74656064820152603960f91b608482015260a40161045b565b609a80549060006107bb83612320565b919050555060006040518060a00160405280609a548152602001848152602001336001600160a01b031681526020016002808111156107fc576107fc61237b565b815260016020918201819052336000908152609c835260409020835181558383015180519495508594919361083693850192910190611be7565b506040820151600280830180546001600160a01b039093166001600160a01b031984168117825560608601519391926001600160a81b03199092161790600160a01b90849081111561088a5761088a61237b565b0217905550608091909101516003909101555050336000908152609d60209081526040808320609a5484529091529020805460ff1916600117905550565b609b60205260009081526040902080546001820180549192916108ea906122e5565b80601f0160208091040260200160405190810160405280929190818152602001828054610916906122e5565b80156109635780601f1061093857610100808354040283529160200191610963565b820191906000526020600020905b81548152906001019060200180831161094657829003601f168201915b50505050600283015460039093015491926001600160a01b03811692600160a01b90910460ff16915085565b61099933826111d3565b6109b55760405162461bcd60e51b815260040161045b906121df565b61065783838361129d565b609c60205260009081526040902080546001820180549192916108ea906122e5565b61065783838360405180602001604052806000815250610ea0565b6000818152606760205260408120546001600160a01b03168061038e5760405162461bcd60e51b815260206004820152602960248201527f4552433732313a206f776e657220717565727920666f72206e6f6e657869737460448201526832b73a103a37b5b2b760b91b606482015260840161045b565b60975460405163a7771ee360e01b81526001600160a01b0390911690819063a7771ee390610aa6903390600401612098565b602060405180830381600087803b158015610ac057600080fd5b505af1158015610ad4573d6000803e3d6000fd5b505050506040513d601f19601f82011682018060405250810190610af89190611eeb565b610b145760405162461bcd60e51b815260040161045b90612161565b336000908152609d602090815260408083206001600160a01b0386168452609c835281842054845290915281205460ff166002811115610b5657610b5661237b565b14610bd75760405162461bcd60e51b815260206004820152604560248201527f596f75206861766520616c726561647920766f746564206f6e2074686973207060448201527f726f706f73616c2c20796f75206d6179206e6f74206368616e676520796f757260648201526420766f746560d81b608482015260a40161045b565b8215610c1a57336000908152609d602090815260408083206001600160a01b0386168452609c83528184205484529091529020805460ff19166001179055610c53565b336000908152609d602090815260408083206001600160a01b0386168452609c83528184205484529091529020805460ff191660021790555b6001600160a01b0382166000908152609c60205260408120600301805491610c7a83612320565b9190505550609760009054906101000a90046001600160a01b03166001600160a01b0316634cbe32b86040518163ffffffff1660e01b815260040160206040518083038186803b158015610ccd57600080fd5b505afa158015610ce1573d6000803e3d6000fd5b505050506040513d601f19601f82011682018060405250810190610d059190612024565b6001600160a01b0383166000908152609c60205260409020600301541415610657576001600160a01b0382166000908152609c60205260409020546106579061143d565b60006001600160a01b038216610db45760405162461bcd60e51b815260206004820152602a60248201527f4552433732313a2062616c616e636520717565727920666f7220746865207a65604482015269726f206164647265737360b01b606482015260840161045b565b506001600160a01b031660009081526068602052604090205490565b6060606680546103a3906122e5565b6001600160a01b038216331415610e345760405162461bcd60e51b815260206004820152601960248201527822a9219b99189d1030b8383937bb32903a379031b0b63632b960391b604482015260640161045b565b336000818152606a602090815260408083206001600160a01b03871680855290835292819020805460ff191686151590811790915590519081529192917f17307eab39ab6107e8899845ad3d59bd9653f200f220920489ca2b5937696c31910160405180910390a35050565b610eaa33836111d3565b610ec65760405162461bcd60e51b815260040161045b906121df565b6104bd848484846118a9565b609860009054906101000a90046001600160a01b0316806001600160a01b031663e534155d6040518163ffffffff1660e01b8152600401602060405180830381600087803b158015610f2357600080fd5b505af1158015610f37573d6000803e3d6000fd5b505050506040513d601f19601f82011682018060405250810190610f5b9190611d7b565b6001600160a01b0316336001600160a01b031614610fae5760405162461bcd60e51b815260206004820152601060248201526f2737ba103a34ba3632903437b63232b960811b604482015260640161045b565b610fb78261143d565b5050565b6060610fc682611148565b61102a5760405162461bcd60e51b815260206004820152602f60248201527f4552433732314d657461646174613a2055524920717565727920666f72206e6f60448201526e3732bc34b9ba32b73a103a37b5b2b760891b606482015260840161045b565b600061104160408051602081019091526000815290565b90506000815111611061576040518060200160405280600081525061108c565b8061106b846118dc565b60405160200161107c929190612069565b6040516020818303038152906040525b9392505050565b6001600160a01b039182166000908152606a6020908152604080832093909416825291909152205460ff1690565b600054610100900460ff16806110da575060005460ff16155b6110f65760405162461bcd60e51b815260040161045b90612191565b600054610100900460ff16158015611118576000805461ffff19166101011790555b6111206119d9565b6111286119d9565b6111328383611a45565b8015610657576000805461ff0019169055505050565b6000908152606760205260409020546001600160a01b0316151590565b600081815260696020526040902080546001600160a01b0319166001600160a01b038416908117909155819061119a826109fd565b6001600160a01b03167f8c5be1e5ebec7d5bd14f71427d1e84f3dd0314c0f7b2291e5b200ac8c7c3b92560405160405180910390a45050565b60006111de82611148565b61123f5760405162461bcd60e51b815260206004820152602c60248201527f4552433732313a206f70657261746f7220717565727920666f72206e6f6e657860448201526b34b9ba32b73a103a37b5b2b760a11b606482015260840161045b565b600061124a836109fd565b9050806001600160a01b0316846001600160a01b031614806112855750836001600160a01b031661127a846104c3565b6001600160a01b0316145b8061129557506112958185611093565b949350505050565b826001600160a01b03166112b0826109fd565b6001600160a01b0316146113185760405162461bcd60e51b815260206004820152602960248201527f4552433732313a207472616e73666572206f6620746f6b656e2074686174206960448201526839903737ba1037bbb760b91b606482015260840161045b565b6001600160a01b03821661137a5760405162461bcd60e51b8152602060048201526024808201527f4552433732313a207472616e7366657220746f20746865207a65726f206164646044820152637265737360e01b606482015260840161045b565b611385600082611165565b6001600160a01b03831660009081526068602052604081208054600192906113ae9084906122a2565b90915550506001600160a01b03821660009081526068602052604081208054600192906113dc908490612276565b909155505060008181526067602052604080822080546001600160a01b0319166001600160a01b0386811691821790925591518493918716917fddf252ad1be2c89b69c2b068fc378daa952ba7f163c4a11628f55a4df523b3ef91a4505050565b60975460408051630997c65760e31b815290516000926001600160a01b031691634cbe32b8916004808301926020929190829003018186803b15801561148257600080fd5b505afa158015611496573d6000803e3d6000fd5b505050506040513d601f19601f820116820180604052508101906114ba9190612024565b90506000805b828110156115a8576097546040516309fcbdd160e11b8152600481018390526000916001600160a01b0316906313f97ba29060240160206040518083038186803b15801561150d57600080fd5b505afa158015611521573d6000803e3d6000fd5b505050506040513d601f19601f820116820180604052508101906115459190611d7b565b905060016001600160a01b0382166000908152609d6020908152604080832089845290915290205460ff1660028111156115815761158161237b565b141561159557611592600184612276565b92505b50806115a081612320565b9150506114c0565b506115b1611c6b565b60005b83811015611789576097546040516309fcbdd160e11b8152600481018390526000916001600160a01b0316906313f97ba29060240160206040518083038186803b15801561160157600080fd5b505afa158015611615573d6000803e3d6000fd5b505050506040513d601f19601f820116820180604052508101906116399190611d7b565b6001600160a01b0381166000908152609c6020526040902054909150861415611776576001600160a01b0381166000908152609c6020908152604091829020825160a08101909352805483526001810180549192840191611699906122e5565b80601f01602080910402602001604051908101604052809291908181526020018280546116c5906122e5565b80156117125780601f106116e757610100808354040283529160200191611712565b820191906000526020600020905b8154815290600101906020018083116116f557829003601f168201915b50505091835250506002828101546001600160a01b0381166020840152604090920191600160a01b900460ff169081111561174f5761174f61237b565b60028111156117605761176061237b565b8152602001600382015481525050925050611789565b508061178181612320565b9150506115b4565b506117956001846122a2565b82106118765780609b60006099600081546117af90612320565b918290555081526020808201929092526040016000208251815582820151805191926117e392600185019290910190611be7565b506040820151600280830180546001600160a01b039093166001600160a01b031984168117825560608601519391926001600160a81b03199092161790600160a01b9084908111156118375761183761237b565b0217905550608091909101516003909101556040818101516001600160a01b03166000908152609c60205220600201805460ff60a01b191690556104bd565b6040908101516001600160a01b03166000908152609c60205220600201805460ff60a01b1916600160a01b179055505050565b6118b484848461129d565b6118c084848484611ada565b6104bd5760405162461bcd60e51b815260040161045b9061210f565b6060816119005750506040805180820190915260018152600360fc1b602082015290565b8160005b811561192a578061191481612320565b91506119239050600a8361228e565b9150611904565b6000816001600160401b03811115611944576119446123a7565b6040519080825280601f01601f19166020018201604052801561196e576020820181803683370190505b5090505b8415611295576119836001836122a2565b9150611990600a8661233b565b61199b906030612276565b60f81b8183815181106119b0576119b0612391565b60200101906001600160f81b031916908160001a9053506119d2600a8661228e565b9450611972565b600054610100900460ff16806119f2575060005460ff16155b611a0e5760405162461bcd60e51b815260040161045b90612191565b600054610100900460ff16158015611a30576000805461ffff19166101011790555b8015611a42576000805461ff00191690555b50565b600054610100900460ff1680611a5e575060005460ff16155b611a7a5760405162461bcd60e51b815260040161045b90612191565b600054610100900460ff16158015611a9c576000805461ffff19166101011790555b8251611aaf906065906020860190611be7565b508151611ac3906066906020850190611be7565b508015610657576000805461ff0019169055505050565b60006001600160a01b0384163b15611bdc57604051630a85bd0160e11b81526001600160a01b0385169063150b7a0290611b1e9033908990889088906004016120ac565b602060405180830381600087803b158015611b3857600080fd5b505af1925050508015611b68575060408051601f3d908101601f19168201909252611b6591810190611f43565b60015b611bc2573d808015611b96576040519150601f19603f3d011682016040523d82523d6000602084013e611b9b565b606091505b508051611bba5760405162461bcd60e51b815260040161045b9061210f565b805181602001fd5b6001600160e01b031916630a85bd0160e11b149050611295565b506001949350505050565b828054611bf3906122e5565b90600052602060002090601f016020900481019282611c155760008555611c5b565b82601f10611c2e57805160ff1916838001178555611c5b565b82800160010185558215611c5b579182015b82811115611c5b578251825591602001919060010190611c40565b50611c67929150611cb4565b5090565b6040518060a00160405280600081526020016060815260200160006001600160a01b0316815260200160006002811115611ca757611ca761237b565b8152602001600081525090565b5b80821115611c675760008155600101611cb5565b60006001600160401b0380841115611ce357611ce36123a7565b604051601f8501601f19908116603f01168101908282118183101715611d0b57611d0b6123a7565b81604052809350858152868686011115611d2457600080fd5b858560208301376000602087830101525050509392505050565b600082601f830112611d4f57600080fd5b61108c83833560208501611cc9565b600060208284031215611d7057600080fd5b813561108c816123db565b600060208284031215611d8d57600080fd5b815161108c816123db565b60008060408385031215611dab57600080fd5b8235611db6816123db565b91506020830135611dc6816123db565b809150509250929050565b600080600060608486031215611de657600080fd5b8335611df1816123db565b92506020840135611e01816123db565b929592945050506040919091013590565b60008060008060808587031215611e2857600080fd5b8435611e33816123db565b93506020850135611e43816123db565b92506040850135915060608501356001600160401b03811115611e6557600080fd5b8501601f81018713611e7657600080fd5b611e8587823560208401611cc9565b91505092959194509250565b60008060408385031215611ea457600080fd5b8235611eaf816123db565b91506020830135611dc6816123f0565b60008060408385031215611ed257600080fd5b8235611edd816123db565b946020939093013593505050565b600060208284031215611efd57600080fd5b815161108c816123f0565b60008060408385031215611f1b57600080fd5b8235611db6816123f0565b600060208284031215611f3857600080fd5b813561108c816123fe565b600060208284031215611f5557600080fd5b815161108c816123fe565b600060208284031215611f7257600080fd5b81356001600160401b03811115611f8857600080fd5b61129584828501611d3e565b600080600060608486031215611fa957600080fd5b83356001600160401b0380821115611fc057600080fd5b611fcc87838801611d3e565b94506020860135915080821115611fe257600080fd5b50611fef86828701611d3e565b9250506040840135612000816123db565b809150509250925092565b60006020828403121561201d57600080fd5b5035919050565b60006020828403121561203657600080fd5b5051919050565b600081518084526120558160208601602086016122b9565b601f01601f19169290920160200192915050565b6000835161207b8184602088016122b9565b83519083019061208f8183602088016122b9565b01949350505050565b6001600160a01b0391909116815260200190565b6001600160a01b03858116825284166020820152604081018390526080606082018190526000906120df9083018461203d565b9695505050505050565b602081016120f6836123bd565b91905290565b60208152600061108c602083018461203d565b60208082526032908201527f4552433732313a207472616e7366657220746f206e6f6e20455243373231526560408201527131b2b4bb32b91034b6b83632b6b2b73a32b960711b606082015260800190565b6020808252601690820152752737ba1030903932b3b4b9ba32b932b2103b37ba32b960511b604082015260600190565b6020808252602e908201527f496e697469616c697a61626c653a20636f6e747261637420697320616c72656160408201526d191e481a5b9a5d1a585b1a5e995960921b606082015260800190565b60208082526031908201527f4552433732313a207472616e736665722063616c6c6572206973206e6f74206f6040820152701ddb995c881b9bdc88185c1c1c9bdd9959607a1b606082015260800190565b85815260a06020820152600061224960a083018761203d565b6001600160a01b03861660408401529050612263846123bd565b6060820193909352608001529392505050565b600082198211156122895761228961234f565b500190565b60008261229d5761229d612365565b500490565b6000828210156122b4576122b461234f565b500390565b60005b838110156122d45781810151838201526020016122bc565b838111156104bd5750506000910152565b600181811c908216806122f957607f821691505b6020821081141561231a57634e487b7160e01b600052602260045260246000fd5b50919050565b60006000198214156123345761233461234f565b5060010190565b60008261234a5761234a612365565b500690565b634e487b7160e01b600052601160045260246000fd5b634e487b7160e01b600052601260045260246000fd5b634e487b7160e01b600052602160045260246000fd5b634e487b7160e01b600052603260045260246000fd5b634e487b7160e01b600052604160045260246000fd5b60038110611a4257634e487b7160e01b600052602160045260246000fd5b6001600160a01b0381168114611a4257600080fd5b8015158114611a4257600080fd5b6001600160e01b031981168114611a4257600080fdfea2646970667358221220d1788cbcbead75ff11844ba4f53d4bb6186483fdced6122b5be9a9a8b08f6de664736f6c63430008060033",
  "immutableReferences": {},
  "source": "//SPDX-License-Identifier: MIT\npragma solidity ^0.8.0;\n\nimport \"@openzeppelin/contracts-upgradeable/token/ERC721/ERC721Upgradeable.sol\";\nimport \"./TitleAccess.sol\";\nimport \"./VoterAccess.sol\";\nimport \"./VoterPool.sol\";\nimport \"./FluidVoteTitle.sol\";\n\ncontract Constitution is ERC721Upgradeable, TitleAccess, VoterAccess {\n\n    enum AmendmentStatus { PASSED, FAILED, PROPOSED }\n    enum VoteStatus { NOT_VOTED, FOR, AGAINST }\n\n    VoterPool voterPool;\n    SingleHolderTitle resolver;\n\n    function initialize(string memory _name, string memory _symbol, VoterPool _voterPool) public initializer {\n        ERC721Upgradeable.__ERC721_init(_name, _symbol);\n        voterPool = _voterPool;\n    }\n\n    //TODO: access control\n    function setResolver(SingleHolderTitle _resolver) public {\n        resolver = _resolver;\n    }\n\n    struct Amendment {\n        uint256 amendmentNum; //proposal number\n        string text;\n        address author;\n        AmendmentStatus status;\n        uint256 numVotes; //how many voters voted on this amendment\n    }\n\n    //Catanstitution\n    uint256 public numAcceptedAmendments;\n    uint256 public numProposedAmendments;\n    mapping(uint256 => Amendment) public amendments; //passed and ratified amendments\n    mapping(address => Amendment) public proposals; //one proposal per registered voter allowed\n    mapping(address => mapping(uint256 => VoteStatus)) public proposalVotes; //recorded votes for all proposals\n\n    function proposeAmendment(string memory amendment) public onlyVoters(voterPool) {\n        require(proposals[msg.sender].status != AmendmentStatus.PROPOSED, \"You already have a proposal active, only one per registered voter\");\n\n        numProposedAmendments++;\n        Amendment memory a = Amendment(numProposedAmendments, amendment, msg.sender, AmendmentStatus.PROPOSED, 1);\n        proposals[msg.sender] = a;\n        proposalVotes[msg.sender][numProposedAmendments] = VoteStatus.FOR;\n    }\n\n    function voteOnProposedAmendment(bool vote, address activeProposal) public onlyVoters(voterPool) {\n        require(proposalVotes[msg.sender][proposals[activeProposal].amendmentNum] == VoteStatus.NOT_VOTED, \"You have already voted on this proposal, you may not change your vote\");\n\n        //Set vote\n        if (vote) { proposalVotes[msg.sender][proposals[activeProposal].amendmentNum] = VoteStatus.FOR; }\n        else { proposalVotes[msg.sender][proposals[activeProposal].amendmentNum] = VoteStatus.AGAINST; }\n\n        //Update number of cast votes\n        proposals[activeProposal].numVotes++;\n        if(proposals[activeProposal].numVotes == voterPool.numVoters()){ //all votes are cast, resolve proposal\n            _resolveAmendmentVote(proposals[activeProposal].amendmentNum);\n        }\n    }\n\n    function _resolveAmendmentVote(uint256 amendmentNum) internal {\n        uint256 numVoters = voterPool.numVoters();\n        //Count votes - each voter gets a single vote\n        uint256 votesFor = 0;\n        for (uint256 i = 0; i < numVoters; i++) {\n            address voter = voterPool.voterRegistrations(i);\n            if(proposalVotes[voter][amendmentNum] == VoteStatus.FOR){\n                votesFor += 1;\n            }\n        }\n\n        //Find the amendment\n        Amendment memory a;\n        for (uint256 i = 0; i < numVoters; i++) {\n            address voter = voterPool.voterRegistrations(i);\n            if(proposals[voter].amendmentNum == amendmentNum){\n                a = proposals[voter];\n                break;\n            }\n        }\n\n        //Requires all but one voter to pass\n        if(votesFor >= numVoters - 1){\n            //Pass amendment\n            amendments[++numAcceptedAmendments] = a;\n            proposals[a.author].status = AmendmentStatus.PASSED;\n        } else {\n            proposals[a.author].status = AmendmentStatus.FAILED;\n        }\n    }\n\n    function resolveAmendment(uint256 amendmentNum) public onlyTitleHolder(resolver) {\n        //TODO: check if enough votes have been cast\n        _resolveAmendmentVote(amendmentNum);\n    }\n}\n",
  "sourcePath": "/Users/tjharrison/he/catanstitution/contracts/open-orgs/Constitution.sol",
  "compiler": {
    "name": "solc",
    "version": "0.8.6+commit.11564f7e.Emscripten.clang"
  },
  "schemaVersion": "3.4.1",
  "updatedAt": "2021-07-11T18:05:51.574Z",
  "networkType": "ethereum",
  "devdoc": {
    "kind": "dev",
    "methods": {
      "approve(address,uint256)": {
        "details": "See {IERC721-approve}."
      },
      "balanceOf(address)": {
        "details": "See {IERC721-balanceOf}."
      },
      "getApproved(uint256)": {
        "details": "See {IERC721-getApproved}."
      },
      "isApprovedForAll(address,address)": {
        "details": "See {IERC721-isApprovedForAll}."
      },
      "name()": {
        "details": "See {IERC721Metadata-name}."
      },
      "ownerOf(uint256)": {
        "details": "See {IERC721-ownerOf}."
      },
      "safeTransferFrom(address,address,uint256)": {
        "details": "See {IERC721-safeTransferFrom}."
      },
      "safeTransferFrom(address,address,uint256,bytes)": {
        "details": "See {IERC721-safeTransferFrom}."
      },
      "setApprovalForAll(address,bool)": {
        "details": "See {IERC721-setApprovalForAll}."
      },
      "supportsInterface(bytes4)": {
        "details": "See {IERC165-supportsInterface}."
      },
      "symbol()": {
        "details": "See {IERC721Metadata-symbol}."
      },
      "tokenURI(uint256)": {
        "details": "See {IERC721Metadata-tokenURI}."
      },
      "transferFrom(address,address,uint256)": {
        "details": "See {IERC721-transferFrom}."
      }
    },
    "version": 1
  },
  "userdoc": {
    "kind": "user",
    "methods": {},
    "version": 1
  }
}