{
  "contractName": "Constitution",
  "abi": [
    {
      "anonymous": false,
      "inputs": [
        {
          "indexed": true,
          "internalType": "address",
          "name": "owner",
          "type": "address"
        },
        {
          "indexed": true,
          "internalType": "address",
          "name": "approved",
          "type": "address"
        },
        {
          "indexed": true,
          "internalType": "uint256",
          "name": "tokenId",
          "type": "uint256"
        }
      ],
      "name": "Approval",
      "type": "event"
    },
    {
      "anonymous": false,
      "inputs": [
        {
          "indexed": true,
          "internalType": "address",
          "name": "owner",
          "type": "address"
        },
        {
          "indexed": true,
          "internalType": "address",
          "name": "operator",
          "type": "address"
        },
        {
          "indexed": false,
          "internalType": "bool",
          "name": "approved",
          "type": "bool"
        }
      ],
      "name": "ApprovalForAll",
      "type": "event"
    },
    {
      "anonymous": false,
      "inputs": [
        {
          "indexed": true,
          "internalType": "bytes32",
          "name": "role",
          "type": "bytes32"
        },
        {
          "indexed": true,
          "internalType": "bytes32",
          "name": "previousAdminRole",
          "type": "bytes32"
        },
        {
          "indexed": true,
          "internalType": "bytes32",
          "name": "newAdminRole",
          "type": "bytes32"
        }
      ],
      "name": "RoleAdminChanged",
      "type": "event"
    },
    {
      "anonymous": false,
      "inputs": [
        {
          "indexed": true,
          "internalType": "bytes32",
          "name": "role",
          "type": "bytes32"
        },
        {
          "indexed": true,
          "internalType": "address",
          "name": "account",
          "type": "address"
        },
        {
          "indexed": true,
          "internalType": "address",
          "name": "sender",
          "type": "address"
        }
      ],
      "name": "RoleGranted",
      "type": "event"
    },
    {
      "anonymous": false,
      "inputs": [
        {
          "indexed": true,
          "internalType": "bytes32",
          "name": "role",
          "type": "bytes32"
        },
        {
          "indexed": true,
          "internalType": "address",
          "name": "account",
          "type": "address"
        },
        {
          "indexed": true,
          "internalType": "address",
          "name": "sender",
          "type": "address"
        }
      ],
      "name": "RoleRevoked",
      "type": "event"
    },
    {
      "anonymous": false,
      "inputs": [
        {
          "indexed": true,
          "internalType": "address",
          "name": "from",
          "type": "address"
        },
        {
          "indexed": true,
          "internalType": "address",
          "name": "to",
          "type": "address"
        },
        {
          "indexed": true,
          "internalType": "uint256",
          "name": "tokenId",
          "type": "uint256"
        }
      ],
      "name": "Transfer",
      "type": "event"
    },
    {
      "inputs": [],
      "name": "DEFAULT_ADMIN_ROLE",
      "outputs": [
        {
          "internalType": "bytes32",
          "name": "",
          "type": "bytes32"
        }
      ],
      "stateMutability": "view",
      "type": "function",
      "constant": true
    },
    {
      "inputs": [],
      "name": "MANAGER",
      "outputs": [
        {
          "internalType": "bytes32",
          "name": "",
          "type": "bytes32"
        }
      ],
      "stateMutability": "view",
      "type": "function",
      "constant": true
    },
    {
      "inputs": [
        {
          "internalType": "uint256",
          "name": "",
          "type": "uint256"
        }
      ],
      "name": "amendments",
      "outputs": [
        {
          "internalType": "uint256",
          "name": "amendmentNum",
          "type": "uint256"
        },
        {
          "internalType": "string",
          "name": "text",
          "type": "string"
        },
        {
          "internalType": "address",
          "name": "author",
          "type": "address"
        },
        {
          "internalType": "enum Constitution.AmendmentStatus",
          "name": "status",
          "type": "uint8"
        },
        {
          "internalType": "uint256",
          "name": "numVotes",
          "type": "uint256"
        }
      ],
      "stateMutability": "view",
      "type": "function",
      "constant": true
    },
    {
      "inputs": [
        {
          "internalType": "address",
          "name": "to",
          "type": "address"
        },
        {
          "internalType": "uint256",
          "name": "tokenId",
          "type": "uint256"
        }
      ],
      "name": "approve",
      "outputs": [],
      "stateMutability": "nonpayable",
      "type": "function"
    },
    {
      "inputs": [
        {
          "internalType": "address",
          "name": "owner",
          "type": "address"
        }
      ],
      "name": "balanceOf",
      "outputs": [
        {
          "internalType": "uint256",
          "name": "",
          "type": "uint256"
        }
      ],
      "stateMutability": "view",
      "type": "function",
      "constant": true
    },
    {
      "inputs": [
        {
          "internalType": "uint256",
          "name": "tokenId",
          "type": "uint256"
        }
      ],
      "name": "getApproved",
      "outputs": [
        {
          "internalType": "address",
          "name": "",
          "type": "address"
        }
      ],
      "stateMutability": "view",
      "type": "function",
      "constant": true
    },
    {
      "inputs": [
        {
          "internalType": "bytes32",
          "name": "role",
          "type": "bytes32"
        }
      ],
      "name": "getRoleAdmin",
      "outputs": [
        {
          "internalType": "bytes32",
          "name": "",
          "type": "bytes32"
        }
      ],
      "stateMutability": "view",
      "type": "function",
      "constant": true
    },
    {
      "inputs": [
        {
          "internalType": "bytes32",
          "name": "role",
          "type": "bytes32"
        },
        {
          "internalType": "address",
          "name": "account",
          "type": "address"
        }
      ],
      "name": "grantRole",
      "outputs": [],
      "stateMutability": "nonpayable",
      "type": "function"
    },
    {
      "inputs": [
        {
          "internalType": "bytes32",
          "name": "role",
          "type": "bytes32"
        },
        {
          "internalType": "address",
          "name": "account",
          "type": "address"
        }
      ],
      "name": "hasRole",
      "outputs": [
        {
          "internalType": "bool",
          "name": "",
          "type": "bool"
        }
      ],
      "stateMutability": "view",
      "type": "function",
      "constant": true
    },
    {
      "inputs": [
        {
          "internalType": "address",
          "name": "owner",
          "type": "address"
        },
        {
          "internalType": "address",
          "name": "operator",
          "type": "address"
        }
      ],
      "name": "isApprovedForAll",
      "outputs": [
        {
          "internalType": "bool",
          "name": "",
          "type": "bool"
        }
      ],
      "stateMutability": "view",
      "type": "function",
      "constant": true
    },
    {
      "inputs": [],
      "name": "name",
      "outputs": [
        {
          "internalType": "string",
          "name": "",
          "type": "string"
        }
      ],
      "stateMutability": "view",
      "type": "function",
      "constant": true
    },
    {
      "inputs": [],
      "name": "numAcceptedAmendments",
      "outputs": [
        {
          "internalType": "uint256",
          "name": "",
          "type": "uint256"
        }
      ],
      "stateMutability": "view",
      "type": "function",
      "constant": true
    },
    {
      "inputs": [],
      "name": "numProposedAmendments",
      "outputs": [
        {
          "internalType": "uint256",
          "name": "",
          "type": "uint256"
        }
      ],
      "stateMutability": "view",
      "type": "function",
      "constant": true
    },
    {
      "inputs": [
        {
          "internalType": "uint256",
          "name": "tokenId",
          "type": "uint256"
        }
      ],
      "name": "ownerOf",
      "outputs": [
        {
          "internalType": "address",
          "name": "",
          "type": "address"
        }
      ],
      "stateMutability": "view",
      "type": "function",
      "constant": true
    },
    {
      "inputs": [
        {
          "internalType": "address",
          "name": "",
          "type": "address"
        },
        {
          "internalType": "uint256",
          "name": "",
          "type": "uint256"
        }
      ],
      "name": "proposalVotes",
      "outputs": [
        {
          "internalType": "enum Constitution.VoteStatus",
          "name": "",
          "type": "uint8"
        }
      ],
      "stateMutability": "view",
      "type": "function",
      "constant": true
    },
    {
      "inputs": [
        {
          "internalType": "address",
          "name": "",
          "type": "address"
        }
      ],
      "name": "proposals",
      "outputs": [
        {
          "internalType": "uint256",
          "name": "amendmentNum",
          "type": "uint256"
        },
        {
          "internalType": "string",
          "name": "text",
          "type": "string"
        },
        {
          "internalType": "address",
          "name": "author",
          "type": "address"
        },
        {
          "internalType": "enum Constitution.AmendmentStatus",
          "name": "status",
          "type": "uint8"
        },
        {
          "internalType": "uint256",
          "name": "numVotes",
          "type": "uint256"
        }
      ],
      "stateMutability": "view",
      "type": "function",
      "constant": true
    },
    {
      "inputs": [
        {
          "internalType": "bytes32",
          "name": "role",
          "type": "bytes32"
        },
        {
          "internalType": "address",
          "name": "account",
          "type": "address"
        }
      ],
      "name": "renounceRole",
      "outputs": [],
      "stateMutability": "nonpayable",
      "type": "function"
    },
    {
      "inputs": [
        {
          "internalType": "bytes32",
          "name": "role",
          "type": "bytes32"
        },
        {
          "internalType": "address",
          "name": "account",
          "type": "address"
        }
      ],
      "name": "revokeRole",
      "outputs": [],
      "stateMutability": "nonpayable",
      "type": "function"
    },
    {
      "inputs": [
        {
          "internalType": "address",
          "name": "from",
          "type": "address"
        },
        {
          "internalType": "address",
          "name": "to",
          "type": "address"
        },
        {
          "internalType": "uint256",
          "name": "tokenId",
          "type": "uint256"
        }
      ],
      "name": "safeTransferFrom",
      "outputs": [],
      "stateMutability": "nonpayable",
      "type": "function"
    },
    {
      "inputs": [
        {
          "internalType": "address",
          "name": "from",
          "type": "address"
        },
        {
          "internalType": "address",
          "name": "to",
          "type": "address"
        },
        {
          "internalType": "uint256",
          "name": "tokenId",
          "type": "uint256"
        },
        {
          "internalType": "bytes",
          "name": "_data",
          "type": "bytes"
        }
      ],
      "name": "safeTransferFrom",
      "outputs": [],
      "stateMutability": "nonpayable",
      "type": "function"
    },
    {
      "inputs": [
        {
          "internalType": "address",
          "name": "operator",
          "type": "address"
        },
        {
          "internalType": "bool",
          "name": "approved",
          "type": "bool"
        }
      ],
      "name": "setApprovalForAll",
      "outputs": [],
      "stateMutability": "nonpayable",
      "type": "function"
    },
    {
      "inputs": [],
      "name": "symbol",
      "outputs": [
        {
          "internalType": "string",
          "name": "",
          "type": "string"
        }
      ],
      "stateMutability": "view",
      "type": "function",
      "constant": true
    },
    {
      "inputs": [
        {
          "internalType": "uint256",
          "name": "tokenId",
          "type": "uint256"
        }
      ],
      "name": "tokenURI",
      "outputs": [
        {
          "internalType": "string",
          "name": "",
          "type": "string"
        }
      ],
      "stateMutability": "view",
      "type": "function",
      "constant": true
    },
    {
      "inputs": [
        {
          "internalType": "address",
          "name": "from",
          "type": "address"
        },
        {
          "internalType": "address",
          "name": "to",
          "type": "address"
        },
        {
          "internalType": "uint256",
          "name": "tokenId",
          "type": "uint256"
        }
      ],
      "name": "transferFrom",
      "outputs": [],
      "stateMutability": "nonpayable",
      "type": "function"
    },
    {
      "inputs": [
        {
          "internalType": "string",
          "name": "_name",
          "type": "string"
        },
        {
          "internalType": "string",
          "name": "_symbol",
          "type": "string"
        },
        {
          "internalType": "contract VoterPool",
          "name": "_voterPool",
          "type": "address"
        }
      ],
      "name": "initialize",
      "outputs": [],
      "stateMutability": "nonpayable",
      "type": "function"
    },
    {
      "inputs": [
        {
          "internalType": "contract SingleHolderTitle",
          "name": "_resolver",
          "type": "address"
        }
      ],
      "name": "setResolver",
      "outputs": [],
      "stateMutability": "nonpayable",
      "type": "function"
    },
    {
      "inputs": [
        {
          "internalType": "string",
          "name": "amendment",
          "type": "string"
        }
      ],
      "name": "proposeAmendment",
      "outputs": [],
      "stateMutability": "nonpayable",
      "type": "function"
    },
    {
      "inputs": [
        {
          "internalType": "bool",
          "name": "vote",
          "type": "bool"
        },
        {
          "internalType": "address",
          "name": "activeProposal",
          "type": "address"
        }
      ],
      "name": "voteOnProposedAmendment",
      "outputs": [],
      "stateMutability": "nonpayable",
      "type": "function"
    },
    {
      "inputs": [
        {
          "internalType": "address",
          "name": "proposer",
          "type": "address"
        }
      ],
      "name": "resolveAmendment",
      "outputs": [],
      "stateMutability": "nonpayable",
      "type": "function"
    },
    {
      "inputs": [
        {
          "internalType": "bytes4",
          "name": "interfaceId",
          "type": "bytes4"
        }
      ],
      "name": "supportsInterface",
      "outputs": [
        {
          "internalType": "bool",
          "name": "",
          "type": "bool"
        }
      ],
      "stateMutability": "view",
      "type": "function",
      "constant": true
    }
  ],
  "bytecode": "0x608060405234801561001057600080fd5b50612b38806100206000396000f3fe608060405234801561001057600080fd5b506004361061016a5760003560e01c806301ffc9a71461016f57806306fdde0314610197578063077f224a146101ac578063081812fc146101c1578063095ea7b3146101e15780630c0d2b24146101f457806313e8cc39146102075780631b2df8501461022b57806323b872dd1461024e578063248a9ca3146102615780632f2ff15d146102745780633341b4451461028757806336568abe1461029a57806342842e0e146102ad57806342c228a5146102c05780634e543b26146102c95780636352211e146102dc578063705077cd146102ef57806370a08231146103025780637ac5191f1461031557806391d148541461032857806392f851a11461033b57806395d89b4114610344578063a217fddf1461034c578063a22cb46514610354578063b88d4fde14610367578063bea23d461461037a578063c87b56dd146103b5578063d547741f146103c8578063e985e9c5146103db575b600080fd5b61018261017d3660046122e3565b6103ee565b60405190151581526020015b60405180910390f35b61019f6103ff565b60405161018e9190612358565b6101bf6101ba36600461242b565b610491565b005b6101d46101cf3660046124a2565b61055e565b60405161018e91906124bb565b6101bf6101ef3660046124cf565b6105e6565b6101bf6102023660046124fb565b6106f7565b61021a6102153660046124a2565b610954565b60405161018e959493929190612563565b610240600080516020612ae383398151915281565b60405190815260200161018e565b6101bf61025c3660046125a9565b610a1b565b61024061026f3660046124a2565b610a4c565b6101bf6102823660046125ea565b610a61565b61021a61029536600461261a565b610a7e565b6101bf6102a83660046125ea565b610aa0565b6101bf6102bb3660046125a9565b610b1e565b61024060cb5481565b6101bf6102d736600461261a565b610b39565b6101d46102ea3660046124a2565b610b75565b6101bf6102fd366004612645565b610bec565b61024061031036600461261a565b610ea5565b6101bf61032336600461261a565b610f2c565b6101826103363660046125ea565b6110f7565b61024060cc5481565b61019f611122565b610240600081565b6101bf610362366004612673565b611131565b6101bf6103753660046126a1565b6111f2565b6103a86103883660046124cf565b60cf60209081526000928352604080842090915290825290205460ff1681565b60405161018e9190612720565b61019f6103c33660046124a2565b611224565b6101bf6103d63660046125ea565b6112fc565b6101826103e9366004612733565b611319565b60006103f982611347565b92915050565b60606065805461040e90612751565b80601f016020809104026020016040519081016040528092919081815260200182805461043a90612751565b80156104875780601f1061045c57610100808354040283529160200191610487565b820191906000526020600020905b81548152906001019060200180831161046a57829003601f168201915b5050505050905090565b600054610100900460ff16806104aa575060005460ff16155b6104cf5760405162461bcd60e51b81526004016104c69061278c565b60405180910390fd5b600054610100900460ff161580156104f1576000805461ffff19166101011790555b6104fb848461136c565b60c980546001600160a01b0319166001600160a01b03841617905561052e600080516020612ae3833981519152806113f3565b610546600080516020612ae38339815191523361143d565b8015610558576000805461ff00191690555b50505050565b600061056982611447565b6105ca5760405162461bcd60e51b815260206004820152602c60248201527f4552433732313a20617070726f76656420717565727920666f72206e6f6e657860448201526b34b9ba32b73a103a37b5b2b760a11b60648201526084016104c6565b506000908152606960205260409020546001600160a01b031690565b60006105f182610b75565b9050806001600160a01b0316836001600160a01b0316141561065f5760405162461bcd60e51b815260206004820152602160248201527f4552433732313a20617070726f76616c20746f2063757272656e74206f776e656044820152603960f91b60648201526084016104c6565b336001600160a01b038216148061067b575061067b8133611319565b6106e85760405162461bcd60e51b815260206004820152603860248201527f4552433732313a20617070726f76652063616c6c6572206973206e6f74206f776044820152771b995c881b9bdc88185c1c1c9bdd995908199bdc88185b1b60421b60648201526084016104c6565b6106f28383611464565b505050565b60c95460405163a7771ee360e01b81526001600160a01b0390911690819063a7771ee3906107299033906004016124bb565b6020604051808303816000875af1158015610748573d6000803e3d6000fd5b505050506040513d601f19601f8201168201806040525081019061076c91906127da565b6107885760405162461bcd60e51b81526004016104c6906127f7565b600233600090815260ce60205260409020600290810154600160a01b900460ff16908111156107b9576107b961252f565b14156108375760405162461bcd60e51b815260206004820152604160248201527f596f7520616c7265616479206861766520612070726f706f73616c206163746960448201527f76652c206f6e6c79206f6e6520706572207265676973746572656420766f74656064820152603960f91b608482015260a4016104c6565b60cc80549060006108478361283d565b919050555060006040518060a0016040528060cc548152602001848152602001336001600160a01b031681526020016002808111156108885761088861252f565b81526001602091820181905233600090815260ce83526040902083518155838301518051949550859491936108c2938501929101906121eb565b506040820151600280830180546001600160a01b039093166001600160a01b031984168117825560608601519391926001600160a81b03199092161790600160a01b9084908111156109165761091661252f565b021790555060809190910151600390910155505033600090815260cf6020908152604080832060cc5484529091529020805460ff1916600117905550565b60cd602052600090815260409020805460018201805491929161097690612751565b80601f01602080910402602001604051908101604052809291908181526020018280546109a290612751565b80156109ef5780601f106109c4576101008083540402835291602001916109ef565b820191906000526020600020905b8154815290600101906020018083116109d257829003601f168201915b50505050600283015460039093015491926001600160a01b03811692600160a01b90910460ff16915085565b610a2533826114d2565b610a415760405162461bcd60e51b81526004016104c690612858565b6106f283838361159c565b60009081526097602052604090206001015490565b610a6a82610a4c565b610a74813361173c565b6106f283836117a0565b60ce602052600090815260409020805460018201805491929161097690612751565b6001600160a01b0381163314610b105760405162461bcd60e51b815260206004820152602f60248201527f416363657373436f6e74726f6c3a2063616e206f6e6c792072656e6f756e636560448201526e103937b632b9903337b91039b2b63360891b60648201526084016104c6565b610b1a8282611826565b5050565b6106f2838383604051806020016040528060008152506111f2565b600080516020612ae3833981519152610b52813361173c565b5060ca80546001600160a01b0319166001600160a01b0392909216919091179055565b6000818152606760205260408120546001600160a01b0316806103f95760405162461bcd60e51b815260206004820152602960248201527f4552433732313a206f776e657220717565727920666f72206e6f6e657869737460448201526832b73a103a37b5b2b760b91b60648201526084016104c6565b60c95460405163a7771ee360e01b81526001600160a01b0390911690819063a7771ee390610c1e9033906004016124bb565b6020604051808303816000875af1158015610c3d573d6000803e3d6000fd5b505050506040513d601f19601f82011682018060405250810190610c6191906127da565b610c7d5760405162461bcd60e51b81526004016104c6906127f7565b33600090815260cf602090815260408083206001600160a01b038616845260ce835281842054845290915281205460ff166002811115610cbf57610cbf61252f565b14610d405760405162461bcd60e51b815260206004820152604560248201527f596f75206861766520616c726561647920766f746564206f6e2074686973207060448201527f726f706f73616c2c20796f75206d6179206e6f74206368616e676520796f757260648201526420766f746560d81b608482015260a4016104c6565b8215610d835733600090815260cf602090815260408083206001600160a01b038616845260ce83528184205484529091529020805460ff19166001179055610dbc565b33600090815260cf602090815260408083206001600160a01b038616845260ce83528184205484529091529020805460ff191660021790555b6001600160a01b038216600090815260ce60205260408120600301805491610de38361283d565b919050555060c960009054906101000a90046001600160a01b03166001600160a01b0316634cbe32b86040518163ffffffff1660e01b81526004016020604051808303816000875af1158015610e3d573d6000803e3d6000fd5b505050506040513d601f19601f82011682018060405250810190610e6191906128a9565b6001600160a01b038316600090815260ce602052604090206003015414156106f2576001600160a01b038216600090815260ce60205260409020546106f29061188d565b60006001600160a01b038216610f105760405162461bcd60e51b815260206004820152602a60248201527f4552433732313a2062616c616e636520717565727920666f7220746865207a65604482015269726f206164647265737360b01b60648201526084016104c6565b506001600160a01b031660009081526068602052604090205490565b60ca60009054906101000a90046001600160a01b0316806001600160a01b031663e534155d6040518163ffffffff1660e01b81526004016020604051808303816000875af1158015610f82573d6000803e3d6000fd5b505050506040513d601f19601f82011682018060405250810190610fa691906128c2565b6001600160a01b0316336001600160a01b031614610ff95760405162461bcd60e51b815260206004820152601060248201526f2737ba103a34ba3632903437b63232b960811b60448201526064016104c6565b60c95460408051630997c65760e31b815290516001926001600160a01b031691634cbe32b891600480830192602092919082900301816000875af1158015611045573d6000803e3d6000fd5b505050506040513d601f19601f8201168201806040525081019061106991906128a9565b61107391906128df565b6001600160a01b038316600090815260ce602052604090206003015410156110d55760405162461bcd60e51b8152602060048201526015602482015274139bdd08195b9bdd59da081d9bdd195cc818d85cdd605a1b60448201526064016104c6565b6001600160a01b038216600090815260ce6020526040902054610b1a9061188d565b60009182526097602090815260408084206001600160a01b0393909316845291905290205460ff1690565b60606066805461040e90612751565b6001600160a01b0382163314156111865760405162461bcd60e51b815260206004820152601960248201527822a9219b99189d1030b8383937bb32903a379031b0b63632b960391b60448201526064016104c6565b336000818152606a602090815260408083206001600160a01b03871680855290835292819020805460ff191686151590811790915590519081529192917f17307eab39ab6107e8899845ad3d59bd9653f200f220920489ca2b5937696c31910160405180910390a35050565b6111fc33836114d2565b6112185760405162461bcd60e51b81526004016104c690612858565b61055884848484611cd1565b606061122f82611447565b6112935760405162461bcd60e51b815260206004820152602f60248201527f4552433732314d657461646174613a2055524920717565727920666f72206e6f60448201526e3732bc34b9ba32b73a103a37b5b2b760891b60648201526084016104c6565b60006112aa60408051602081019091526000815290565b905060008151116112ca57604051806020016040528060008152506112f5565b806112d484611d04565b6040516020016112e59291906128f6565b6040516020818303038152906040525b9392505050565b61130582610a4c565b61130f813361173c565b6106f28383611826565b6001600160a01b039182166000908152606a6020908152604080832093909416825291909152205460ff1690565b60006001600160e01b03198216637965db0b60e01b14806103f957506103f982611e01565b600054610100900460ff1680611385575060005460ff16155b6113a15760405162461bcd60e51b81526004016104c69061278c565b600054610100900460ff161580156113c3576000805461ffff19166101011790555b6113cb611e51565b6113d3611e51565b6113dd8383611ebd565b80156106f2576000805461ff0019169055505050565b806113fd83610a4c565b60405184907fbd79b86ffe0ab8e8776151514217cd7cacd52c909f66475c3af44e129f0b00ff90600090a460009182526097602052604090912060010155565b610b1a82826117a0565b6000908152606760205260409020546001600160a01b0316151590565b600081815260696020526040902080546001600160a01b0319166001600160a01b038416908117909155819061149982610b75565b6001600160a01b03167f8c5be1e5ebec7d5bd14f71427d1e84f3dd0314c0f7b2291e5b200ac8c7c3b92560405160405180910390a45050565b60006114dd82611447565b61153e5760405162461bcd60e51b815260206004820152602c60248201527f4552433732313a206f70657261746f7220717565727920666f72206e6f6e657860448201526b34b9ba32b73a103a37b5b2b760a11b60648201526084016104c6565b600061154983610b75565b9050806001600160a01b0316846001600160a01b031614806115845750836001600160a01b03166115798461055e565b6001600160a01b0316145b8061159457506115948185611319565b949350505050565b826001600160a01b03166115af82610b75565b6001600160a01b0316146116175760405162461bcd60e51b815260206004820152602960248201527f4552433732313a207472616e73666572206f6620746f6b656e2074686174206960448201526839903737ba1037bbb760b91b60648201526084016104c6565b6001600160a01b0382166116795760405162461bcd60e51b8152602060048201526024808201527f4552433732313a207472616e7366657220746f20746865207a65726f206164646044820152637265737360e01b60648201526084016104c6565b611684600082611464565b6001600160a01b03831660009081526068602052604081208054600192906116ad9084906128df565b90915550506001600160a01b03821660009081526068602052604081208054600192906116db908490612925565b909155505060008181526067602052604080822080546001600160a01b0319166001600160a01b0386811691821790925591518493918716917fddf252ad1be2c89b69c2b068fc378daa952ba7f163c4a11628f55a4df523b3ef91a4505050565b61174682826110f7565b610b1a5761175e816001600160a01b03166014611f52565b611769836020611f52565b60405160200161177a92919061293d565b60408051601f198184030181529082905262461bcd60e51b82526104c691600401612358565b6117aa82826110f7565b610b1a5760008281526097602090815260408083206001600160a01b03851684529091529020805460ff191660011790556117e23390565b6001600160a01b0316816001600160a01b0316837f2f8788117e7eff1d82e926ec794901d17c78024a50270940304540a733656f0d60405160405180910390a45050565b61183082826110f7565b15610b1a5760008281526097602090815260408083206001600160a01b0385168085529252808320805460ff1916905551339285917ff6391f5c32d9c69d2a47ea670b442974b53935d1edc7fd64eb21e047a839171b9190a45050565b60c95460408051630997c65760e31b815290516000926001600160a01b031691634cbe32b8916004808301926020929190829003018187875af11580156118d8573d6000803e3d6000fd5b505050506040513d601f19601f820116820180604052508101906118fc91906128a9565b90506000805b828110156119dd5760c95460405163341effc360e21b8152600481018390526000916001600160a01b03169063d07bff0c906024016020604051808303816000875af1158015611956573d6000803e3d6000fd5b505050506040513d601f19601f8201168201806040525081019061197a91906128c2565b905060016001600160a01b038216600090815260cf6020908152604080832089845290915290205460ff1660028111156119b6576119b661252f565b14156119ca576119c7600184612925565b92505b50806119d58161283d565b915050611902565b506119e661226f565b60005b83811015611bb15760c95460405163341effc360e21b8152600481018390526000916001600160a01b03169063d07bff0c906024016020604051808303816000875af1158015611a3d573d6000803e3d6000fd5b505050506040513d601f19601f82011682018060405250810190611a6191906128c2565b6001600160a01b038116600090815260ce6020526040902054909150861415611b9e576001600160a01b038116600090815260ce6020908152604091829020825160a08101909352805483526001810180549192840191611ac190612751565b80601f0160208091040260200160405190810160405280929190818152602001828054611aed90612751565b8015611b3a5780601f10611b0f57610100808354040283529160200191611b3a565b820191906000526020600020905b815481529060010190602001808311611b1d57829003601f168201915b50505091835250506002828101546001600160a01b0381166020840152604090920191600160a01b900460ff1690811115611b7757611b7761252f565b6002811115611b8857611b8861252f565b8152602001600382015481525050925050611bb1565b5080611ba98161283d565b9150506119e9565b50611bbd6001846128df565b8210611c9e578060cd600060cb60008154611bd79061283d565b91829055508152602080820192909252604001600020825181558282015180519192611c0b926001850192909101906121eb565b506040820151600280830180546001600160a01b039093166001600160a01b031984168117825560608601519391926001600160a81b03199092161790600160a01b908490811115611c5f57611c5f61252f565b0217905550608091909101516003909101556040818101516001600160a01b0316600090815260ce60205220600201805460ff60a01b19169055610558565b6040908101516001600160a01b0316600090815260ce60205220600201805460ff60a01b1916600160a01b179055505050565b611cdc84848461159c565b611ce8848484846120ed565b6105585760405162461bcd60e51b81526004016104c6906129ac565b606081611d285750506040805180820190915260018152600360fc1b602082015290565b8160005b8115611d525780611d3c8161283d565b9150611d4b9050600a83612a14565b9150611d2c565b6000816001600160401b03811115611d6c57611d6c61236b565b6040519080825280601f01601f191660200182016040528015611d96576020820181803683370190505b5090505b841561159457611dab6001836128df565b9150611db8600a86612a28565b611dc3906030612925565b60f81b818381518110611dd857611dd8612a3c565b60200101906001600160f81b031916908160001a905350611dfa600a86612a14565b9450611d9a565b60006001600160e01b031982166380ac58cd60e01b1480611e3257506001600160e01b03198216635b5e139f60e01b145b806103f957506301ffc9a760e01b6001600160e01b03198316146103f9565b600054610100900460ff1680611e6a575060005460ff16155b611e865760405162461bcd60e51b81526004016104c69061278c565b600054610100900460ff16158015611ea8576000805461ffff19166101011790555b8015611eba576000805461ff00191690555b50565b600054610100900460ff1680611ed6575060005460ff16155b611ef25760405162461bcd60e51b81526004016104c69061278c565b600054610100900460ff16158015611f14576000805461ffff19166101011790555b8251611f279060659060208601906121eb565b508151611f3b9060669060208501906121eb565b5080156106f2576000805461ff0019169055505050565b60606000611f61836002612a52565b611f6c906002612925565b6001600160401b03811115611f8357611f8361236b565b6040519080825280601f01601f191660200182016040528015611fad576020820181803683370190505b509050600360fc1b81600081518110611fc857611fc8612a3c565b60200101906001600160f81b031916908160001a905350600f60fb1b81600181518110611ff757611ff7612a3c565b60200101906001600160f81b031916908160001a905350600061201b846002612a52565b612026906001612925565b90505b600181111561209e576f181899199a1a9b1b9c1cb0b131b232b360811b85600f166010811061205a5761205a612a3c565b1a60f81b82828151811061207057612070612a3c565b60200101906001600160f81b031916908160001a90535060049490941c9361209781612a71565b9050612029565b5083156112f55760405162461bcd60e51b815260206004820181905260248201527f537472696e67733a20686578206c656e67746820696e73756666696369656e7460448201526064016104c6565b60006001600160a01b0384163b156121e057604051630a85bd0160e11b81526001600160a01b0385169063150b7a0290612131903390899088908890600401612a88565b6020604051808303816000875af192505050801561216c575060408051601f3d908101601f1916820190925261216991810190612ac5565b60015b6121c6573d80801561219a576040519150601f19603f3d011682016040523d82523d6000602084013e61219f565b606091505b5080516121be5760405162461bcd60e51b81526004016104c6906129ac565b805181602001fd5b6001600160e01b031916630a85bd0160e11b149050611594565b506001949350505050565b8280546121f790612751565b90600052602060002090601f016020900481019282612219576000855561225f565b82601f1061223257805160ff191683800117855561225f565b8280016001018555821561225f579182015b8281111561225f578251825591602001919060010190612244565b5061226b9291506122b8565b5090565b6040518060a00160405280600081526020016060815260200160006001600160a01b03168152602001600060028111156122ab576122ab61252f565b8152602001600081525090565b5b8082111561226b57600081556001016122b9565b6001600160e01b031981168114611eba57600080fd5b6000602082840312156122f557600080fd5b81356112f5816122cd565b60005b8381101561231b578181015183820152602001612303565b838111156105585750506000910152565b60008151808452612344816020860160208601612300565b601f01601f19169290920160200192915050565b6020815260006112f5602083018461232c565b634e487b7160e01b600052604160045260246000fd5b60006001600160401b038084111561239b5761239b61236b565b604051601f8501601f19908116603f011681019082821181831017156123c3576123c361236b565b816040528093508581528686860111156123dc57600080fd5b858560208301376000602087830101525050509392505050565b600082601f83011261240757600080fd5b6112f583833560208501612381565b6001600160a01b0381168114611eba57600080fd5b60008060006060848603121561244057600080fd5b83356001600160401b038082111561245757600080fd5b612463878388016123f6565b9450602086013591508082111561247957600080fd5b50612486868287016123f6565b925050604084013561249781612416565b809150509250925092565b6000602082840312156124b457600080fd5b5035919050565b6001600160a01b0391909116815260200190565b600080604083850312156124e257600080fd5b82356124ed81612416565b946020939093013593505050565b60006020828403121561250d57600080fd5b81356001600160401b0381111561252357600080fd5b611594848285016123f6565b634e487b7160e01b600052602160045260246000fd5b60038110611eba57634e487b7160e01b600052602160045260246000fd5b85815260a06020820152600061257c60a083018761232c565b6001600160a01b0386166040840152905061259684612545565b6060820193909352608001529392505050565b6000806000606084860312156125be57600080fd5b83356125c981612416565b925060208401356125d981612416565b929592945050506040919091013590565b600080604083850312156125fd57600080fd5b82359150602083013561260f81612416565b809150509250929050565b60006020828403121561262c57600080fd5b81356112f581612416565b8015158114611eba57600080fd5b6000806040838503121561265857600080fd5b823561266381612637565b9150602083013561260f81612416565b6000806040838503121561268657600080fd5b823561269181612416565b9150602083013561260f81612637565b600080600080608085870312156126b757600080fd5b84356126c281612416565b935060208501356126d281612416565b92506040850135915060608501356001600160401b038111156126f457600080fd5b8501601f8101871361270557600080fd5b61271487823560208401612381565b91505092959194509250565b6020810161272d83612545565b91905290565b6000806040838503121561274657600080fd5b823561266381612416565b600181811c9082168061276557607f821691505b6020821081141561278657634e487b7160e01b600052602260045260246000fd5b50919050565b6020808252602e908201527f496e697469616c697a61626c653a20636f6e747261637420697320616c72656160408201526d191e481a5b9a5d1a585b1a5e995960921b606082015260800190565b6000602082840312156127ec57600080fd5b81516112f581612637565b6020808252601690820152752737ba1030903932b3b4b9ba32b932b2103b37ba32b960511b604082015260600190565b634e487b7160e01b600052601160045260246000fd5b600060001982141561285157612851612827565b5060010190565b60208082526031908201527f4552433732313a207472616e736665722063616c6c6572206973206e6f74206f6040820152701ddb995c881b9bdc88185c1c1c9bdd9959607a1b606082015260800190565b6000602082840312156128bb57600080fd5b5051919050565b6000602082840312156128d457600080fd5b81516112f581612416565b6000828210156128f1576128f1612827565b500390565b60008351612908818460208801612300565b83519083019061291c818360208801612300565b01949350505050565b6000821982111561293857612938612827565b500190565b76020b1b1b2b9b9a1b7b73a3937b61d1030b1b1b7bab73a1604d1b81526000835161296f816017850160208801612300565b7001034b99036b4b9b9b4b733903937b6329607d1b60179184019182015283516129a0816028840160208801612300565b01602801949350505050565b60208082526032908201527f4552433732313a207472616e7366657220746f206e6f6e20455243373231526560408201527131b2b4bb32b91034b6b83632b6b2b73a32b960711b606082015260800190565b634e487b7160e01b600052601260045260246000fd5b600082612a2357612a236129fe565b500490565b600082612a3757612a376129fe565b500690565b634e487b7160e01b600052603260045260246000fd5b6000816000190483118215151615612a6c57612a6c612827565b500290565b600081612a8057612a80612827565b506000190190565b6001600160a01b0385811682528416602082015260408101839052608060608201819052600090612abb9083018461232c565b9695505050505050565b600060208284031215612ad757600080fd5b81516112f5816122cd56fe241ecf16d79d0f8dbfb92cbc07fe17840425976cf0667f022fe9877caa831b08a2646970667358221220d5fbd10f682da7639d0573cbbf5540eac3891ba09c9328f326890b9791f18cf264736f6c634300080a0033",
  "immutableReferences": {},
  "source": "//SPDX-License-Identifier: MIT\npragma solidity ^0.8.0;\n\nimport \"@openzeppelin/contracts-upgradeable/token/ERC721/ERC721Upgradeable.sol\";\nimport \"@openzeppelin/contracts-upgradeable/access/AccessControlUpgradeable.sol\";\nimport \"./TitleAccess.sol\";\nimport \"./VoterAccess.sol\";\nimport \"./VoterPool.sol\";\nimport \"./FluidVoteTitle.sol\";\n\ncontract Constitution is ERC721Upgradeable, TitleAccess, VoterAccess, AccessControlUpgradeable {\n\n    bytes32 public constant MANAGER = keccak256(\"MANAGER_ROLE\");\n\n    enum AmendmentStatus { PASSED, FAILED, PROPOSED }\n    enum VoteStatus { NOT_VOTED, FOR, AGAINST }\n\n    VoterPool voterPool;\n    SingleHolderTitle resolver;\n\n    function initialize(string memory _name, string memory _symbol, VoterPool _voterPool) public initializer {\n        ERC721Upgradeable.__ERC721_init(_name, _symbol);\n        voterPool = _voterPool;\n\n        _setRoleAdmin(MANAGER, MANAGER);\n        _setupRole(MANAGER, msg.sender);\n    }\n\n    function setResolver(SingleHolderTitle _resolver) public onlyRole(MANAGER) {\n        resolver = _resolver;\n    }\n\n    struct Amendment {\n        uint256 amendmentNum; //proposal number\n        string text;\n        address author;\n        AmendmentStatus status;\n        uint256 numVotes; //how many voters voted on this amendment\n    }\n\n    //Catanstitution\n    uint256 public numAcceptedAmendments;\n    uint256 public numProposedAmendments;\n    mapping(uint256 => Amendment) public amendments; //passed and ratified amendments\n    mapping(address => Amendment) public proposals; //one proposal per registered voter allowed\n    mapping(address => mapping(uint256 => VoteStatus)) public proposalVotes; //recorded votes for all proposals\n\n    function proposeAmendment(string memory amendment) public onlyVoters(voterPool) {\n        require(proposals[msg.sender].status != AmendmentStatus.PROPOSED, \"You already have a proposal active, only one per registered voter\");\n\n        numProposedAmendments++;\n        Amendment memory a = Amendment(numProposedAmendments, amendment, msg.sender, AmendmentStatus.PROPOSED, 1);\n        proposals[msg.sender] = a;\n        proposalVotes[msg.sender][numProposedAmendments] = VoteStatus.FOR;\n    }\n\n    function voteOnProposedAmendment(bool vote, address activeProposal) public onlyVoters(voterPool) {\n        require(proposalVotes[msg.sender][proposals[activeProposal].amendmentNum] == VoteStatus.NOT_VOTED, \"You have already voted on this proposal, you may not change your vote\");\n\n        //Set vote\n        if (vote) { proposalVotes[msg.sender][proposals[activeProposal].amendmentNum] = VoteStatus.FOR; }\n        else { proposalVotes[msg.sender][proposals[activeProposal].amendmentNum] = VoteStatus.AGAINST; }\n\n        //Update number of cast votes\n        proposals[activeProposal].numVotes++;\n        if(proposals[activeProposal].numVotes == voterPool.numVoters()){ //all votes are cast, resolve proposal\n            _resolveAmendmentVote(proposals[activeProposal].amendmentNum);\n        }\n    }\n\n    function _resolveAmendmentVote(uint256 amendmentNum) internal {\n        uint256 numVoters = voterPool.numVoters();\n        //Count votes - each voter gets a single vote\n        uint256 votesFor = 0;\n        for (uint256 i = 0; i < numVoters; i++) {\n            address voter = voterPool.getVoter(i);\n            if(proposalVotes[voter][amendmentNum] == VoteStatus.FOR){\n                votesFor += 1;\n            }\n        }\n\n        //Find the amendment\n        Amendment memory a;\n        for (uint256 i = 0; i < numVoters; i++) {\n            address voter = voterPool.getVoter(i);\n            if(proposals[voter].amendmentNum == amendmentNum){\n                a = proposals[voter];\n                break;\n            }\n        }\n\n        //Requires all but one voter to pass\n        if(votesFor >= numVoters - 1){\n            //Pass amendment\n            amendments[++numAcceptedAmendments] = a;\n            proposals[a.author].status = AmendmentStatus.PASSED;\n        } else {\n            proposals[a.author].status = AmendmentStatus.FAILED;\n        }\n    }\n\n    function resolveAmendment(address proposer) public onlyTitleHolder(resolver) {\n        require(proposals[proposer].numVotes >= voterPool.numVoters() - 1, \"Not enough votes cast\");\n        _resolveAmendmentVote(proposals[proposer].amendmentNum);\n    }\n\n    function supportsInterface(bytes4 interfaceId) public view override(ERC721Upgradeable, AccessControlUpgradeable) returns (bool) {\n        return super.supportsInterface(interfaceId);\n    }\n}\n",
  "sourcePath": "/Users/tjharrison/he/catanstitution/contracts/open-orgs/Constitution.sol",
  "compiler": {
    "name": "solc",
    "version": "0.8.10+commit.fc410830.Emscripten.clang"
  },
  "schemaVersion": "3.4.3",
  "updatedAt": "2021-12-04T13:20:01.596Z",
  "networkType": "ethereum",
  "devdoc": {
    "kind": "dev",
    "methods": {
      "approve(address,uint256)": {
        "details": "See {IERC721-approve}."
      },
      "balanceOf(address)": {
        "details": "See {IERC721-balanceOf}."
      },
      "getApproved(uint256)": {
        "details": "See {IERC721-getApproved}."
      },
      "getRoleAdmin(bytes32)": {
        "details": "Returns the admin role that controls `role`. See {grantRole} and {revokeRole}. To change a role's admin, use {_setRoleAdmin}."
      },
      "grantRole(bytes32,address)": {
        "details": "Grants `role` to `account`. If `account` had not been already granted `role`, emits a {RoleGranted} event. Requirements: - the caller must have ``role``'s admin role."
      },
      "hasRole(bytes32,address)": {
        "details": "Returns `true` if `account` has been granted `role`."
      },
      "isApprovedForAll(address,address)": {
        "details": "See {IERC721-isApprovedForAll}."
      },
      "name()": {
        "details": "See {IERC721Metadata-name}."
      },
      "ownerOf(uint256)": {
        "details": "See {IERC721-ownerOf}."
      },
      "renounceRole(bytes32,address)": {
        "details": "Revokes `role` from the calling account. Roles are often managed via {grantRole} and {revokeRole}: this function's purpose is to provide a mechanism for accounts to lose their privileges if they are compromised (such as when a trusted device is misplaced). If the calling account had been granted `role`, emits a {RoleRevoked} event. Requirements: - the caller must be `account`."
      },
      "revokeRole(bytes32,address)": {
        "details": "Revokes `role` from `account`. If `account` had been granted `role`, emits a {RoleRevoked} event. Requirements: - the caller must have ``role``'s admin role."
      },
      "safeTransferFrom(address,address,uint256)": {
        "details": "See {IERC721-safeTransferFrom}."
      },
      "safeTransferFrom(address,address,uint256,bytes)": {
        "details": "See {IERC721-safeTransferFrom}."
      },
      "setApprovalForAll(address,bool)": {
        "details": "See {IERC721-setApprovalForAll}."
      },
      "symbol()": {
        "details": "See {IERC721Metadata-symbol}."
      },
      "tokenURI(uint256)": {
        "details": "See {IERC721Metadata-tokenURI}."
      },
      "transferFrom(address,address,uint256)": {
        "details": "See {IERC721-transferFrom}."
      }
    },
    "version": 1
  },
  "userdoc": {
    "kind": "user",
    "methods": {},
    "version": 1
  }
}