{
  "contractName": "ERC20VoterToken",
  "abi": [
    {
      "anonymous": false,
      "inputs": [
        {
          "indexed": true,
          "internalType": "address",
          "name": "owner",
          "type": "address"
        },
        {
          "indexed": true,
          "internalType": "address",
          "name": "spender",
          "type": "address"
        },
        {
          "indexed": false,
          "internalType": "uint256",
          "name": "value",
          "type": "uint256"
        }
      ],
      "name": "Approval",
      "type": "event"
    },
    {
      "anonymous": false,
      "inputs": [
        {
          "indexed": true,
          "internalType": "address",
          "name": "from",
          "type": "address"
        },
        {
          "indexed": true,
          "internalType": "address",
          "name": "to",
          "type": "address"
        },
        {
          "indexed": false,
          "internalType": "uint256",
          "name": "value",
          "type": "uint256"
        }
      ],
      "name": "Transfer",
      "type": "event"
    },
    {
      "anonymous": false,
      "inputs": [
        {
          "indexed": true,
          "internalType": "address",
          "name": "voter",
          "type": "address"
        },
        {
          "indexed": true,
          "internalType": "uint256",
          "name": "voterNum",
          "type": "uint256"
        }
      ],
      "name": "VoterRegistered",
      "type": "event"
    },
    {
      "anonymous": false,
      "inputs": [
        {
          "indexed": true,
          "internalType": "address",
          "name": "voter",
          "type": "address"
        },
        {
          "indexed": true,
          "internalType": "uint256",
          "name": "voterNum",
          "type": "uint256"
        }
      ],
      "name": "VoterUnregistered",
      "type": "event"
    },
    {
      "inputs": [
        {
          "internalType": "address",
          "name": "owner",
          "type": "address"
        },
        {
          "internalType": "address",
          "name": "spender",
          "type": "address"
        }
      ],
      "name": "allowance",
      "outputs": [
        {
          "internalType": "uint256",
          "name": "",
          "type": "uint256"
        }
      ],
      "stateMutability": "view",
      "type": "function"
    },
    {
      "inputs": [
        {
          "internalType": "address",
          "name": "spender",
          "type": "address"
        },
        {
          "internalType": "uint256",
          "name": "amount",
          "type": "uint256"
        }
      ],
      "name": "approve",
      "outputs": [
        {
          "internalType": "bool",
          "name": "",
          "type": "bool"
        }
      ],
      "stateMutability": "nonpayable",
      "type": "function"
    },
    {
      "inputs": [
        {
          "internalType": "address",
          "name": "account",
          "type": "address"
        }
      ],
      "name": "balanceOf",
      "outputs": [
        {
          "internalType": "uint256",
          "name": "",
          "type": "uint256"
        }
      ],
      "stateMutability": "view",
      "type": "function"
    },
    {
      "inputs": [
        {
          "internalType": "address",
          "name": "account",
          "type": "address"
        },
        {
          "internalType": "uint256",
          "name": "amount",
          "type": "uint256"
        }
      ],
      "name": "burnFrom",
      "outputs": [],
      "stateMutability": "nonpayable",
      "type": "function"
    },
    {
      "inputs": [],
      "name": "decimals",
      "outputs": [
        {
          "internalType": "uint8",
          "name": "",
          "type": "uint8"
        }
      ],
      "stateMutability": "view",
      "type": "function"
    },
    {
      "inputs": [
        {
          "internalType": "address",
          "name": "spender",
          "type": "address"
        },
        {
          "internalType": "uint256",
          "name": "subtractedValue",
          "type": "uint256"
        }
      ],
      "name": "decreaseAllowance",
      "outputs": [
        {
          "internalType": "bool",
          "name": "",
          "type": "bool"
        }
      ],
      "stateMutability": "nonpayable",
      "type": "function"
    },
    {
      "inputs": [
        {
          "internalType": "address",
          "name": "spender",
          "type": "address"
        },
        {
          "internalType": "uint256",
          "name": "addedValue",
          "type": "uint256"
        }
      ],
      "name": "increaseAllowance",
      "outputs": [
        {
          "internalType": "bool",
          "name": "",
          "type": "bool"
        }
      ],
      "stateMutability": "nonpayable",
      "type": "function"
    },
    {
      "inputs": [],
      "name": "name",
      "outputs": [
        {
          "internalType": "string",
          "name": "",
          "type": "string"
        }
      ],
      "stateMutability": "view",
      "type": "function"
    },
    {
      "inputs": [],
      "name": "numVoters",
      "outputs": [
        {
          "internalType": "uint256",
          "name": "",
          "type": "uint256"
        }
      ],
      "stateMutability": "view",
      "type": "function"
    },
    {
      "inputs": [],
      "name": "symbol",
      "outputs": [
        {
          "internalType": "string",
          "name": "",
          "type": "string"
        }
      ],
      "stateMutability": "view",
      "type": "function"
    },
    {
      "inputs": [],
      "name": "totalSupply",
      "outputs": [
        {
          "internalType": "uint256",
          "name": "",
          "type": "uint256"
        }
      ],
      "stateMutability": "view",
      "type": "function"
    },
    {
      "inputs": [
        {
          "internalType": "address",
          "name": "recipient",
          "type": "address"
        },
        {
          "internalType": "uint256",
          "name": "amount",
          "type": "uint256"
        }
      ],
      "name": "transfer",
      "outputs": [
        {
          "internalType": "bool",
          "name": "",
          "type": "bool"
        }
      ],
      "stateMutability": "nonpayable",
      "type": "function"
    },
    {
      "inputs": [
        {
          "internalType": "address",
          "name": "sender",
          "type": "address"
        },
        {
          "internalType": "address",
          "name": "recipient",
          "type": "address"
        },
        {
          "internalType": "uint256",
          "name": "amount",
          "type": "uint256"
        }
      ],
      "name": "transferFrom",
      "outputs": [
        {
          "internalType": "bool",
          "name": "",
          "type": "bool"
        }
      ],
      "stateMutability": "nonpayable",
      "type": "function"
    },
    {
      "inputs": [
        {
          "internalType": "address",
          "name": "",
          "type": "address"
        }
      ],
      "name": "voterRegistrationIndexes",
      "outputs": [
        {
          "internalType": "uint256",
          "name": "",
          "type": "uint256"
        }
      ],
      "stateMutability": "view",
      "type": "function"
    },
    {
      "inputs": [
        {
          "internalType": "uint256",
          "name": "",
          "type": "uint256"
        }
      ],
      "name": "voterRegistrations",
      "outputs": [
        {
          "internalType": "address",
          "name": "",
          "type": "address"
        }
      ],
      "stateMutability": "view",
      "type": "function"
    },
    {
      "inputs": [
        {
          "internalType": "string",
          "name": "name",
          "type": "string"
        },
        {
          "internalType": "string",
          "name": "symbol",
          "type": "string"
        }
      ],
      "name": "initialize",
      "outputs": [],
      "stateMutability": "nonpayable",
      "type": "function"
    },
    {
      "inputs": [
        {
          "internalType": "address",
          "name": "to",
          "type": "address"
        },
        {
          "internalType": "uint256",
          "name": "amount",
          "type": "uint256"
        }
      ],
      "name": "mint",
      "outputs": [],
      "stateMutability": "nonpayable",
      "type": "function"
    },
    {
      "inputs": [
        {
          "internalType": "uint256",
          "name": "amount",
          "type": "uint256"
        }
      ],
      "name": "burn",
      "outputs": [],
      "stateMutability": "nonpayable",
      "type": "function"
    }
  ],
  "bytecode": "0x608060405234801561001057600080fd5b50611249806100206000396000f3fe608060405234801561001057600080fd5b50600436106100e65760003560e01c806306fdde03146100eb578063095ea7b31461010957806313f97ba21461012c57806318160ddd1461016d57806323b872dd1461017f578063313ce5671461019257806339509351146101a157806340c10f19146101b457806342966c68146101c95780634cbe32b8146101dc5780634cd88b76146101e557806370a08231146101f857806379cc67901461020b57806395d89b411461021e578063a2d7e21814610226578063a457c2d714610246578063a9059cbb14610259578063dd62ed3e1461026c575b600080fd5b6100f36102a5565b6040516101009190611088565b60405180910390f35b61011c610117366004610fe2565b610337565b6040519015158152602001610100565b61015561013a36600461106f565b6098602052600090815260409020546001600160a01b031681565b6040516001600160a01b039091168152602001610100565b6035545b604051908152602001610100565b61011c61018d366004610fa6565b61034d565b60405160128152602001610100565b61011c6101af366004610fe2565b610403565b6101c76101c2366004610fe2565b61043a565b005b6101c76101d736600461106f565b61046c565b61017160975481565b6101c76101f336600461100c565b610492565b610171610206366004610f51565b61050a565b6101c7610219366004610fe2565b610525565b6100f36105a8565b610171610234366004610f51565b60996020526000908152604090205481565b61011c610254366004610fe2565b6105b7565b61011c610267366004610fe2565b610652565b61017161027a366004610f73565b6001600160a01b03918216600090815260346020908152604080832093909416825291909152205490565b6060603680546102b490611171565b80601f01602080910402602001604051908101604052809291908181526020018280546102e090611171565b801561032d5780601f106103025761010080835404028352916020019161032d565b820191906000526020600020905b81548152906001019060200180831161031057829003601f168201915b5050505050905090565b600061034433848461065f565b50600192915050565b600061035a848484610784565b6001600160a01b0384166000908152603460209081526040808320338452909152902054828110156103e45760405162461bcd60e51b815260206004820152602860248201527f45524332303a207472616e7366657220616d6f756e74206578636565647320616044820152676c6c6f77616e636560c01b60648201526084015b60405180910390fd5b6103f885336103f38685611143565b61065f565b506001949350505050565b3360008181526034602090815260408083206001600160a01b038716845290915281205490916103449185906103f390869061112b565b6104438261050a565b1580156104505750600081115b1561045e5761045e8261094a565b61046882826109d0565b5050565b806104763361050a565b14156104855761048533610a9d565b61048f3382610b6a565b50565b600054610100900460ff16806104ab575060005460ff16155b6104c75760405162461bcd60e51b81526004016103db906110dd565b600054610100900460ff161580156104e9576000805461ffff19166101011790555b6104f38383610ca7565b8015610505576000805461ff00191690555b505050565b6001600160a01b031660009081526033602052604090205490565b6000610531833361027a565b90508181101561058f5760405162461bcd60e51b8152602060048201526024808201527f45524332303a206275726e20616d6f756e74206578636565647320616c6c6f77604482015263616e636560e01b60648201526084016103db565b61059e83336103f38585611143565b6105058383610b6a565b6060603780546102b490611171565b3360009081526034602090815260408083206001600160a01b0386168452909152812054828110156106395760405162461bcd60e51b815260206004820152602560248201527f45524332303a2064656372656173656420616c6c6f77616e63652062656c6f77604482015264207a65726f60d81b60648201526084016103db565b61064833856103f38685611143565b5060019392505050565b6000610344338484610784565b6001600160a01b0383166106c15760405162461bcd60e51b8152602060048201526024808201527f45524332303a20617070726f76652066726f6d20746865207a65726f206164646044820152637265737360e01b60648201526084016103db565b6001600160a01b0382166107225760405162461bcd60e51b815260206004820152602260248201527f45524332303a20617070726f766520746f20746865207a65726f206164647265604482015261737360f01b60648201526084016103db565b6001600160a01b0383811660008181526034602090815260408083209487168084529482529182902085905590518481527f8c5be1e5ebec7d5bd14f71427d1e84f3dd0314c0f7b2291e5b200ac8c7c3b92591015b60405180910390a3505050565b6001600160a01b0383166107e85760405162461bcd60e51b815260206004820152602560248201527f45524332303a207472616e736665722066726f6d20746865207a65726f206164604482015264647265737360d81b60648201526084016103db565b6001600160a01b03821661084a5760405162461bcd60e51b815260206004820152602360248201527f45524332303a207472616e7366657220746f20746865207a65726f206164647260448201526265737360e81b60648201526084016103db565b6001600160a01b038316600090815260336020526040902054818110156108c25760405162461bcd60e51b815260206004820152602660248201527f45524332303a207472616e7366657220616d6f756e7420657863656564732062604482015265616c616e636560d01b60648201526084016103db565b6108cc8282611143565b6001600160a01b03808616600090815260336020526040808220939093559085168152908120805484929061090290849061112b565b92505081905550826001600160a01b0316846001600160a01b03166000805160206111f48339815191528460405161093c91815260200190565b60405180910390a350505050565b60978054600090815260986020908152604080832080546001600160a01b0319166001600160a01b0387169081179091558454908452609990925282208190559190610995836111ac565b909155506040516001600160a01b038316907ff16ce2c2236e2c6e3df646f80d657bceef4cd7f3a240c47e82adfa17a5f4724190600090a350565b6001600160a01b038216610a265760405162461bcd60e51b815260206004820152601f60248201527f45524332303a206d696e7420746f20746865207a65726f20616464726573730060448201526064016103db565b8060356000828254610a38919061112b565b90915550506001600160a01b03821660009081526033602052604081208054839290610a6590849061112b565b90915550506040518181526001600160a01b038316906000906000805160206111f48339815191529060200160405180910390a35050565b6001600160a01b0381166000908152609960205260409020545b609754811015610b1e5760986000610ad083600161112b565b8152602080820192909252604090810160009081205484825260989093522080546001600160a01b0319166001600160a01b0390921691909117905580610b16816111ac565b915050610ab7565b5060978054906000610b2f8361115a565b909155506040516001600160a01b038316907f78b411a8cf59f03839ed9a669c4c63f73ed091f1aed5762c8e3ff1eae39763a490600090a350565b6001600160a01b038216610bca5760405162461bcd60e51b815260206004820152602160248201527f45524332303a206275726e2066726f6d20746865207a65726f206164647265736044820152607360f81b60648201526084016103db565b6001600160a01b03821660009081526033602052604090205481811015610c3e5760405162461bcd60e51b815260206004820152602260248201527f45524332303a206275726e20616d6f756e7420657863656564732062616c616e604482015261636560f01b60648201526084016103db565b610c488282611143565b6001600160a01b03841660009081526033602052604081209190915560358054849290610c76908490611143565b90915550506040518281526000906001600160a01b038516906000805160206111f483398151915290602001610777565b600054610100900460ff1680610cc0575060005460ff16155b610cdc5760405162461bcd60e51b81526004016103db906110dd565b600054610100900460ff16158015610cfe576000805461ffff19166101011790555b610d06610d10565b6104f38383610d7b565b600054610100900460ff1680610d29575060005460ff16155b610d455760405162461bcd60e51b81526004016103db906110dd565b600054610100900460ff16158015610d67576000805461ffff19166101011790555b801561048f576000805461ff001916905550565b600054610100900460ff1680610d94575060005460ff16155b610db05760405162461bcd60e51b81526004016103db906110dd565b600054610100900460ff16158015610dd2576000805461ffff19166101011790555b8251610de5906036906020860190610e10565b508151610df9906037906020850190610e10565b508015610505576000805461ff0019169055505050565b828054610e1c90611171565b90600052602060002090601f016020900481019282610e3e5760008555610e84565b82601f10610e5757805160ff1916838001178555610e84565b82800160010185558215610e84579182015b82811115610e84578251825591602001919060010190610e69565b50610e90929150610e94565b5090565b5b80821115610e905760008155600101610e95565b80356001600160a01b0381168114610ec057600080fd5b919050565b600082601f830112610ed657600080fd5b81356001600160401b0380821115610ef057610ef06111dd565b604051601f8301601f19908116603f01168101908282118183101715610f1857610f186111dd565b81604052838152866020858801011115610f3157600080fd5b836020870160208301376000602085830101528094505050505092915050565b600060208284031215610f6357600080fd5b610f6c82610ea9565b9392505050565b60008060408385031215610f8657600080fd5b610f8f83610ea9565b9150610f9d60208401610ea9565b90509250929050565b600080600060608486031215610fbb57600080fd5b610fc484610ea9565b9250610fd260208501610ea9565b9150604084013590509250925092565b60008060408385031215610ff557600080fd5b610ffe83610ea9565b946020939093013593505050565b6000806040838503121561101f57600080fd5b82356001600160401b038082111561103657600080fd5b61104286838701610ec5565b9350602085013591508082111561105857600080fd5b5061106585828601610ec5565b9150509250929050565b60006020828403121561108157600080fd5b5035919050565b600060208083528351808285015260005b818110156110b557858101830151858201604001528201611099565b818111156110c7576000604083870101525b50601f01601f1916929092016040019392505050565b6020808252602e908201527f496e697469616c697a61626c653a20636f6e747261637420697320616c72656160408201526d191e481a5b9a5d1a585b1a5e995960921b606082015260800190565b6000821982111561113e5761113e6111c7565b500190565b600082821015611155576111556111c7565b500390565b600081611169576111696111c7565b506000190190565b600181811c9082168061118557607f821691505b602082108114156111a657634e487b7160e01b600052602260045260246000fd5b50919050565b60006000198214156111c0576111c06111c7565b5060010190565b634e487b7160e01b600052601160045260246000fd5b634e487b7160e01b600052604160045260246000fdfeddf252ad1be2c89b69c2b068fc378daa952ba7f163c4a11628f55a4df523b3efa2646970667358221220b0b5bd5cea0df13ed50515dc9d041a0dc376219bf4ce2cc2443efbb91068294264736f6c63430008060033",
  "immutableReferences": {},
  "source": "//SPDX-License-Identifier: MIT\npragma solidity ^0.8.0;\n\nimport \"@openzeppelin/contracts-upgradeable/token/ERC20/ERC20Upgradeable.sol\";\nimport \"@openzeppelin/contracts-upgradeable/token/ERC20/extensions/ERC20BurnableUpgradeable.sol\";\nimport \"./SingleHolderTitleV1.sol\";\n\ncontract ERC20VoterToken is ERC20Upgradeable, ERC20BurnableUpgradeable {\n\n    uint256 public numVoters;\n    mapping(uint256 => address) public voterRegistrations;\n    mapping(address => uint256) public voterRegistrationIndexes;\n\n    function initialize(string memory name, string memory symbol) public initializer {\n        ERC20Upgradeable.__ERC20_init(name, symbol);\n    }\n\n    function mint(address to, uint256 amount) public virtual {\n        if(balanceOf(to) == 0 && amount > 0){ //register new voter\n            _registerVoter(to);\n        }\n\n        _mint(to, amount);\n    }\n\n    function burn(uint256 amount) public override {\n        if(balanceOf(msg.sender) == amount){\n            _unregisterVoter(msg.sender);\n        }\n        _burn(msg.sender, amount);\n    }\n\n    function _registerVoter(address voter) internal {\n        voterRegistrations[numVoters] = voter;\n        voterRegistrationIndexes[voter] = numVoters;\n        emit VoterRegistered(voter, numVoters++);\n    }\n\n    function _unregisterVoter(address voter) internal {\n        //update voter registration for all voters after unregistered index\n        for (uint256 i = voterRegistrationIndexes[voter]; i < numVoters; i++) {\n            voterRegistrations[i] = voterRegistrations[i + 1]; //last iteration will copy an uninitialized address\n        }\n\n        emit VoterUnregistered(voter, numVoters--);\n    }\n\n    event VoterRegistered (\n        address indexed voter,\n        uint256 indexed voterNum\n    );\n\n    event VoterUnregistered (\n        address indexed voter,\n        uint256 indexed voterNum\n    );\n\n    modifier onlyTitleHolder(SingleHolderTitleV1 title) {\n        require(msg.sender == title.holder());\n        _;\n    }\n}\n",
  "sourcePath": "/Users/tjharrison/catanstitution/contracts/open-orgs/ERC20VoterToken.sol",
  "compiler": {
    "name": "solc",
    "version": "0.8.6+commit.11564f7e.Emscripten.clang"
  },
  "schemaVersion": "3.4.1",
  "updatedAt": "2021-07-10T17:26:07.585Z",
  "devdoc": {
    "kind": "dev",
    "methods": {
      "allowance(address,address)": {
        "details": "See {IERC20-allowance}."
      },
      "approve(address,uint256)": {
        "details": "See {IERC20-approve}. Requirements: - `spender` cannot be the zero address."
      },
      "balanceOf(address)": {
        "details": "See {IERC20-balanceOf}."
      },
      "burn(uint256)": {
        "details": "Destroys `amount` tokens from the caller. See {ERC20-_burn}."
      },
      "burnFrom(address,uint256)": {
        "details": "Destroys `amount` tokens from `account`, deducting from the caller's allowance. See {ERC20-_burn} and {ERC20-allowance}. Requirements: - the caller must have allowance for ``accounts``'s tokens of at least `amount`."
      },
      "decimals()": {
        "details": "Returns the number of decimals used to get its user representation. For example, if `decimals` equals `2`, a balance of `505` tokens should be displayed to a user as `5,05` (`505 / 10 ** 2`). Tokens usually opt for a value of 18, imitating the relationship between Ether and Wei. This is the value {ERC20} uses, unless this function is overridden; NOTE: This information is only used for _display_ purposes: it in no way affects any of the arithmetic of the contract, including {IERC20-balanceOf} and {IERC20-transfer}."
      },
      "decreaseAllowance(address,uint256)": {
        "details": "Atomically decreases the allowance granted to `spender` by the caller. This is an alternative to {approve} that can be used as a mitigation for problems described in {IERC20-approve}. Emits an {Approval} event indicating the updated allowance. Requirements: - `spender` cannot be the zero address. - `spender` must have allowance for the caller of at least `subtractedValue`."
      },
      "increaseAllowance(address,uint256)": {
        "details": "Atomically increases the allowance granted to `spender` by the caller. This is an alternative to {approve} that can be used as a mitigation for problems described in {IERC20-approve}. Emits an {Approval} event indicating the updated allowance. Requirements: - `spender` cannot be the zero address."
      },
      "name()": {
        "details": "Returns the name of the token."
      },
      "symbol()": {
        "details": "Returns the symbol of the token, usually a shorter version of the name."
      },
      "totalSupply()": {
        "details": "See {IERC20-totalSupply}."
      },
      "transfer(address,uint256)": {
        "details": "See {IERC20-transfer}. Requirements: - `recipient` cannot be the zero address. - the caller must have a balance of at least `amount`."
      },
      "transferFrom(address,address,uint256)": {
        "details": "See {IERC20-transferFrom}. Emits an {Approval} event indicating the updated allowance. This is not required by the EIP. See the note at the beginning of {ERC20}. Requirements: - `sender` and `recipient` cannot be the zero address. - `sender` must have a balance of at least `amount`. - the caller must have allowance for ``sender``'s tokens of at least `amount`."
      }
    },
    "version": 1
  },
  "userdoc": {
    "kind": "user",
    "methods": {},
    "version": 1
  }
}