{
  "contractName": "FluidVoteTitle",
  "abi": [
    {
      "anonymous": false,
      "inputs": [
        {
          "indexed": true,
          "internalType": "address",
          "name": "owner",
          "type": "address"
        },
        {
          "indexed": true,
          "internalType": "address",
          "name": "approved",
          "type": "address"
        },
        {
          "indexed": true,
          "internalType": "uint256",
          "name": "tokenId",
          "type": "uint256"
        }
      ],
      "name": "Approval",
      "type": "event"
    },
    {
      "anonymous": false,
      "inputs": [
        {
          "indexed": true,
          "internalType": "address",
          "name": "owner",
          "type": "address"
        },
        {
          "indexed": true,
          "internalType": "address",
          "name": "operator",
          "type": "address"
        },
        {
          "indexed": false,
          "internalType": "bool",
          "name": "approved",
          "type": "bool"
        }
      ],
      "name": "ApprovalForAll",
      "type": "event"
    },
    {
      "anonymous": false,
      "inputs": [
        {
          "indexed": true,
          "internalType": "bytes32",
          "name": "role",
          "type": "bytes32"
        },
        {
          "indexed": true,
          "internalType": "bytes32",
          "name": "previousAdminRole",
          "type": "bytes32"
        },
        {
          "indexed": true,
          "internalType": "bytes32",
          "name": "newAdminRole",
          "type": "bytes32"
        }
      ],
      "name": "RoleAdminChanged",
      "type": "event"
    },
    {
      "anonymous": false,
      "inputs": [
        {
          "indexed": true,
          "internalType": "bytes32",
          "name": "role",
          "type": "bytes32"
        },
        {
          "indexed": true,
          "internalType": "address",
          "name": "account",
          "type": "address"
        },
        {
          "indexed": true,
          "internalType": "address",
          "name": "sender",
          "type": "address"
        }
      ],
      "name": "RoleGranted",
      "type": "event"
    },
    {
      "anonymous": false,
      "inputs": [
        {
          "indexed": true,
          "internalType": "bytes32",
          "name": "role",
          "type": "bytes32"
        },
        {
          "indexed": true,
          "internalType": "address",
          "name": "account",
          "type": "address"
        },
        {
          "indexed": true,
          "internalType": "address",
          "name": "sender",
          "type": "address"
        }
      ],
      "name": "RoleRevoked",
      "type": "event"
    },
    {
      "anonymous": false,
      "inputs": [
        {
          "indexed": true,
          "internalType": "address",
          "name": "from",
          "type": "address"
        },
        {
          "indexed": true,
          "internalType": "address",
          "name": "to",
          "type": "address"
        },
        {
          "indexed": true,
          "internalType": "uint256",
          "name": "tokenId",
          "type": "uint256"
        }
      ],
      "name": "Transfer",
      "type": "event"
    },
    {
      "inputs": [],
      "name": "DEFAULT_ADMIN_ROLE",
      "outputs": [
        {
          "internalType": "bytes32",
          "name": "",
          "type": "bytes32"
        }
      ],
      "stateMutability": "view",
      "type": "function",
      "constant": true
    },
    {
      "inputs": [],
      "name": "TITLE_OPERATOR",
      "outputs": [
        {
          "internalType": "bytes32",
          "name": "",
          "type": "bytes32"
        }
      ],
      "stateMutability": "view",
      "type": "function",
      "constant": true
    },
    {
      "inputs": [
        {
          "internalType": "address",
          "name": "to",
          "type": "address"
        },
        {
          "internalType": "uint256",
          "name": "tokenId",
          "type": "uint256"
        }
      ],
      "name": "approve",
      "outputs": [],
      "stateMutability": "nonpayable",
      "type": "function"
    },
    {
      "inputs": [
        {
          "internalType": "address",
          "name": "owner",
          "type": "address"
        }
      ],
      "name": "balanceOf",
      "outputs": [
        {
          "internalType": "uint256",
          "name": "",
          "type": "uint256"
        }
      ],
      "stateMutability": "view",
      "type": "function",
      "constant": true
    },
    {
      "inputs": [
        {
          "internalType": "address",
          "name": "newHolder",
          "type": "address"
        }
      ],
      "name": "changeHolder",
      "outputs": [],
      "stateMutability": "nonpayable",
      "type": "function"
    },
    {
      "inputs": [
        {
          "internalType": "uint256",
          "name": "tokenId",
          "type": "uint256"
        }
      ],
      "name": "getApproved",
      "outputs": [
        {
          "internalType": "address",
          "name": "",
          "type": "address"
        }
      ],
      "stateMutability": "view",
      "type": "function",
      "constant": true
    },
    {
      "inputs": [
        {
          "internalType": "bytes32",
          "name": "role",
          "type": "bytes32"
        }
      ],
      "name": "getRoleAdmin",
      "outputs": [
        {
          "internalType": "bytes32",
          "name": "",
          "type": "bytes32"
        }
      ],
      "stateMutability": "view",
      "type": "function",
      "constant": true
    },
    {
      "inputs": [
        {
          "internalType": "bytes32",
          "name": "role",
          "type": "bytes32"
        },
        {
          "internalType": "address",
          "name": "account",
          "type": "address"
        }
      ],
      "name": "grantRole",
      "outputs": [],
      "stateMutability": "nonpayable",
      "type": "function"
    },
    {
      "inputs": [
        {
          "internalType": "bytes32",
          "name": "role",
          "type": "bytes32"
        },
        {
          "internalType": "address",
          "name": "account",
          "type": "address"
        }
      ],
      "name": "hasRole",
      "outputs": [
        {
          "internalType": "bool",
          "name": "",
          "type": "bool"
        }
      ],
      "stateMutability": "view",
      "type": "function",
      "constant": true
    },
    {
      "inputs": [],
      "name": "holder",
      "outputs": [
        {
          "internalType": "address",
          "name": "",
          "type": "address"
        }
      ],
      "stateMutability": "nonpayable",
      "type": "function"
    },
    {
      "inputs": [
        {
          "internalType": "address",
          "name": "owner",
          "type": "address"
        },
        {
          "internalType": "address",
          "name": "operator",
          "type": "address"
        }
      ],
      "name": "isApprovedForAll",
      "outputs": [
        {
          "internalType": "bool",
          "name": "",
          "type": "bool"
        }
      ],
      "stateMutability": "view",
      "type": "function",
      "constant": true
    },
    {
      "inputs": [],
      "name": "name",
      "outputs": [
        {
          "internalType": "string",
          "name": "",
          "type": "string"
        }
      ],
      "stateMutability": "view",
      "type": "function",
      "constant": true
    },
    {
      "inputs": [
        {
          "internalType": "uint256",
          "name": "tokenId",
          "type": "uint256"
        }
      ],
      "name": "ownerOf",
      "outputs": [
        {
          "internalType": "address",
          "name": "",
          "type": "address"
        }
      ],
      "stateMutability": "view",
      "type": "function",
      "constant": true
    },
    {
      "inputs": [
        {
          "internalType": "bytes32",
          "name": "role",
          "type": "bytes32"
        },
        {
          "internalType": "address",
          "name": "account",
          "type": "address"
        }
      ],
      "name": "renounceRole",
      "outputs": [],
      "stateMutability": "nonpayable",
      "type": "function"
    },
    {
      "inputs": [
        {
          "internalType": "bytes32",
          "name": "role",
          "type": "bytes32"
        },
        {
          "internalType": "address",
          "name": "account",
          "type": "address"
        }
      ],
      "name": "revokeRole",
      "outputs": [],
      "stateMutability": "nonpayable",
      "type": "function"
    },
    {
      "inputs": [
        {
          "internalType": "address",
          "name": "from",
          "type": "address"
        },
        {
          "internalType": "address",
          "name": "to",
          "type": "address"
        },
        {
          "internalType": "uint256",
          "name": "tokenId",
          "type": "uint256"
        }
      ],
      "name": "safeTransferFrom",
      "outputs": [],
      "stateMutability": "nonpayable",
      "type": "function"
    },
    {
      "inputs": [
        {
          "internalType": "address",
          "name": "from",
          "type": "address"
        },
        {
          "internalType": "address",
          "name": "to",
          "type": "address"
        },
        {
          "internalType": "uint256",
          "name": "tokenId",
          "type": "uint256"
        },
        {
          "internalType": "bytes",
          "name": "_data",
          "type": "bytes"
        }
      ],
      "name": "safeTransferFrom",
      "outputs": [],
      "stateMutability": "nonpayable",
      "type": "function"
    },
    {
      "inputs": [
        {
          "internalType": "address",
          "name": "operator",
          "type": "address"
        },
        {
          "internalType": "bool",
          "name": "approved",
          "type": "bool"
        }
      ],
      "name": "setApprovalForAll",
      "outputs": [],
      "stateMutability": "nonpayable",
      "type": "function"
    },
    {
      "inputs": [
        {
          "internalType": "bytes4",
          "name": "interfaceId",
          "type": "bytes4"
        }
      ],
      "name": "supportsInterface",
      "outputs": [
        {
          "internalType": "bool",
          "name": "",
          "type": "bool"
        }
      ],
      "stateMutability": "view",
      "type": "function",
      "constant": true
    },
    {
      "inputs": [],
      "name": "symbol",
      "outputs": [
        {
          "internalType": "string",
          "name": "",
          "type": "string"
        }
      ],
      "stateMutability": "view",
      "type": "function",
      "constant": true
    },
    {
      "inputs": [
        {
          "internalType": "uint256",
          "name": "tokenId",
          "type": "uint256"
        }
      ],
      "name": "tokenURI",
      "outputs": [
        {
          "internalType": "string",
          "name": "",
          "type": "string"
        }
      ],
      "stateMutability": "view",
      "type": "function",
      "constant": true
    },
    {
      "inputs": [
        {
          "internalType": "address",
          "name": "from",
          "type": "address"
        },
        {
          "internalType": "address",
          "name": "to",
          "type": "address"
        },
        {
          "internalType": "uint256",
          "name": "tokenId",
          "type": "uint256"
        }
      ],
      "name": "transferFrom",
      "outputs": [],
      "stateMutability": "nonpayable",
      "type": "function"
    },
    {
      "inputs": [
        {
          "internalType": "address",
          "name": "",
          "type": "address"
        }
      ],
      "name": "voteCounts",
      "outputs": [
        {
          "internalType": "uint256",
          "name": "",
          "type": "uint256"
        }
      ],
      "stateMutability": "view",
      "type": "function",
      "constant": true
    },
    {
      "inputs": [],
      "name": "voters",
      "outputs": [
        {
          "internalType": "contract VoterPool",
          "name": "",
          "type": "address"
        }
      ],
      "stateMutability": "view",
      "type": "function",
      "constant": true
    },
    {
      "inputs": [
        {
          "internalType": "address",
          "name": "",
          "type": "address"
        }
      ],
      "name": "votes",
      "outputs": [
        {
          "internalType": "address",
          "name": "",
          "type": "address"
        }
      ],
      "stateMutability": "view",
      "type": "function",
      "constant": true
    },
    {
      "inputs": [
        {
          "internalType": "string",
          "name": "_title",
          "type": "string"
        },
        {
          "internalType": "string",
          "name": "_titleAbbreviation",
          "type": "string"
        },
        {
          "internalType": "contract VoterPool",
          "name": "_voters",
          "type": "address"
        }
      ],
      "name": "initialize",
      "outputs": [],
      "stateMutability": "nonpayable",
      "type": "function"
    },
    {
      "inputs": [
        {
          "internalType": "string",
          "name": "_title",
          "type": "string"
        },
        {
          "internalType": "string",
          "name": "_titleAbbreviation",
          "type": "string"
        }
      ],
      "name": "initialize",
      "outputs": [],
      "stateMutability": "nonpayable",
      "type": "function"
    },
    {
      "inputs": [
        {
          "internalType": "address",
          "name": "voter",
          "type": "address"
        }
      ],
      "name": "registerNewVoter",
      "outputs": [],
      "stateMutability": "nonpayable",
      "type": "function"
    },
    {
      "inputs": [
        {
          "internalType": "address",
          "name": "voter",
          "type": "address"
        }
      ],
      "name": "unregisterVoter",
      "outputs": [],
      "stateMutability": "nonpayable",
      "type": "function"
    },
    {
      "inputs": [
        {
          "internalType": "address",
          "name": "chosenAddress",
          "type": "address"
        }
      ],
      "name": "voteOnTitle",
      "outputs": [],
      "stateMutability": "nonpayable",
      "type": "function"
    }
  ],
  "bytecode": "0x608060405234801561001057600080fd5b5061248d806100206000396000f3fe608060405234801561001057600080fd5b506004361061016a5760003560e01c806301ffc9a71461016f57806306fdde0314610197578063077f224a146101ac578063081812fc146101c1578063095ea7b3146101e157806323b872dd146101f4578063248a9ca3146102075780632f2ff15d146102285780633165d2331461023b578063350580ea1461024e57806336568abe14610261578063400bd1e41461027457806342842e0e146102895780634cd88b761461029c5780635a87db75146102af5780636352211e146102c257806366a267a9146102d557806370a08231146102f557806371a8cd3f146103085780637ed177511461031b57806391d148541461032e57806395d89b4114610341578063a217fddf14610349578063a22cb46514610351578063b88d4fde14610364578063c87b56dd14610377578063d547741f1461038a578063d8bff5a51461039d578063e534155d146103c6578063e985e9c5146103ce575b600080fd5b61018261017d366004611cc4565b6103e1565b60405190151581526020015b60405180910390f35b61019f6103f2565b60405161018e9190611d39565b6101bf6101ba366004611e0c565b610484565b005b6101d46101cf366004611e83565b610521565b60405161018e9190611e9c565b6101bf6101ef366004611eb0565b6105a9565b6101bf610202366004611edc565b6106ba565b61021a610215366004611e83565b6106eb565b60405190815260200161018e565b6101bf610236366004611f1d565b610700565b6101bf610249366004611f4d565b61071d565b60cb546101d4906001600160a01b031681565b6101bf61026f366004611f1d565b61078e565b61021a60008051602061241883398151915281565b6101bf610297366004611edc565b61080c565b6101bf6102aa366004611f6a565b610827565b6101bf6102bd366004611f4d565b6108d9565b6101d46102d0366004611e83565b610915565b61021a6102e3366004611f4d565b60ca6020526000908152604090205481565b61021a610303366004611f4d565b61098c565b6101bf610316366004611f4d565b610a13565b6101bf610329366004611f4d565b610dd6565b61018261033c366004611f1d565b610e37565b61019f610e62565b61021a600081565b6101bf61035f366004611fdb565b610e71565b6101bf610372366004612009565b610f32565b61019f610385366004611e83565b610f64565b6101bf610398366004611f1d565b61103c565b6101d46103ab366004611f4d565b60c9602052600090815260409020546001600160a01b031681565b6101d4611059565b6101826103dc366004612088565b61106a565b60006103ec82611098565b92915050565b606060658054610401906120b6565b80601f016020809104026020016040519081016040528092919081815260200182805461042d906120b6565b801561047a5780601f1061044f5761010080835404028352916020019161047a565b820191906000526020600020905b81548152906001019060200180831161045d57829003601f168201915b5050505050905090565b600054610100900460ff168061049d575060005460ff16155b6104c25760405162461bcd60e51b81526004016104b9906120f1565b60405180910390fd5b600054610100900460ff161580156104e4576000805461ffff19166101011790555b6104ee8484610827565b60cb80546001600160a01b0319166001600160a01b038416179055801561051b576000805461ff00191690555b50505050565b600061052c826110bd565b61058d5760405162461bcd60e51b815260206004820152602c60248201527f4552433732313a20617070726f76656420717565727920666f72206e6f6e657860448201526b34b9ba32b73a103a37b5b2b760a11b60648201526084016104b9565b506000908152606960205260409020546001600160a01b031690565b60006105b482610915565b9050806001600160a01b0316836001600160a01b031614156106225760405162461bcd60e51b815260206004820152602160248201527f4552433732313a20617070726f76616c20746f2063757272656e74206f776e656044820152603960f91b60648201526084016104b9565b336001600160a01b038216148061063e575061063e813361106a565b6106ab5760405162461bcd60e51b815260206004820152603860248201527f4552433732313a20617070726f76652063616c6c6572206973206e6f74206f776044820152771b995c881b9bdc88185c1c1c9bdd995908199bdc88185b1b60421b60648201526084016104b9565b6106b583836110da565b505050565b6106c43382611148565b6106e05760405162461bcd60e51b81526004016104b99061213f565b6106b5838383611212565b60009081526097602052604090206001015490565b610709826106eb565b61071381336113a0565b6106b58383611404565b610725611059565b6001600160a01b03828116600090815260c96020526040812080546001600160a01b0319169390921692909217905560ca9061075f611059565b6001600160a01b0316815260208101919091526040016000908120805491610786836121a6565b919050555050565b6001600160a01b03811633146107fe5760405162461bcd60e51b815260206004820152602f60248201527f416363657373436f6e74726f6c3a2063616e206f6e6c792072656e6f756e636560448201526e103937b632b9903337b91039b2b63360891b60648201526084016104b9565b610808828261148a565b5050565b6106b583838360405180602001604052806000815250610f32565b600054610100900460ff1680610840575060005460ff16155b61085c5760405162461bcd60e51b81526004016104b9906120f1565b600054610100900460ff1615801561087e576000805461ffff19166101011790555b61088883836114f1565b6108a060008051602061241883398151915280611562565b6108b8600080516020612418833981519152336115ac565b6108c33360006115b6565b80156106b5576000805461ff0019169055505050565b6000805160206124188339815191526108f281336113a0565b6108086108fd611059565b836000604051806020016040528060008152506116d6565b6000818152606760205260408120546001600160a01b0316806103ec5760405162461bcd60e51b815260206004820152602960248201527f4552433732313a206f776e657220717565727920666f72206e6f6e657869737460448201526832b73a103a37b5b2b760b91b60648201526084016104b9565b60006001600160a01b0382166109f75760405162461bcd60e51b815260206004820152602a60248201527f4552433732313a2062616c616e636520717565727920666f7220746865207a65604482015269726f206164647265737360b01b60648201526084016104b9565b506001600160a01b031660009081526068602052604090205490565b60cb5460405163a7771ee360e01b81526001600160a01b0390911690819063a7771ee390610a45903390600401611e9c565b6020604051808303816000875af1158015610a64573d6000803e3d6000fd5b505050506040513d601f19601f82011682018060405250810190610a8891906121c1565b610acd5760405162461bcd60e51b81526020600482015260166024820152752737ba1030903932b3b4b9ba32b932b2103b37ba32b960511b60448201526064016104b9565b33600090815260c960209081526040808320546001600160a01b0316835260ca9091528120805491610afe836121de565b909155505033600090815260c96020908152604080832080546001600160a01b0319166001600160a01b038716908117909155835260ca9091528120805491610b46836121a6565b909155505060cb5460408051630997c65760e31b815290516002926001600160a01b031691634cbe32b891600480830192602092919082900301816000875af1158015610b97573d6000803e3d6000fd5b505050506040513d601f19601f82011682018060405250810190610bbb91906121f5565b610bc59190612224565b60ca6000610bd1611059565b6001600160a01b03166001600160a01b031681526020019081526020016000205410156108085760008060005b60cb60009054906101000a90046001600160a01b03166001600160a01b0316634cbe32b86040518163ffffffff1660e01b81526004016020604051808303816000875af1158015610c53573d6000803e3d6000fd5b505050506040513d601f19601f82011682018060405250810190610c7791906121f5565b811015610dac5760cb5460405163341effc360e21b8152600481018390526000916001600160a01b03169063d07bff0c906024016020604051808303816000875af1158015610cca573d6000803e3d6000fd5b505050506040513d601f19601f82011682018060405250810190610cee9190612238565b6001600160a01b038116600090815260ca6020526040902054909150831015610d35576001600160a01b038116600090815260ca6020526040902054909350915082610d99565b6001600160a01b038116600090815260ca602052604090205483148015610d745750610d5f611059565b6001600160a01b0316816001600160a01b0316145b15610d99576001600160a01b038116600090815260ca60205260409020549093509150825b5080610da4816121a6565b915050610bfe565b50610db5611059565b6001600160a01b0316826001600160a01b03161461051b5761051b82611709565b6001600160a01b03808216600090815260c96020908152604080832054909316825260ca9052908120805491610e0b836121de565b90915550506001600160a01b0316600090815260c96020526040902080546001600160a01b0319169055565b60009182526097602090815260408084206001600160a01b0393909316845291905290205460ff1690565b606060668054610401906120b6565b6001600160a01b038216331415610ec65760405162461bcd60e51b815260206004820152601960248201527822a9219b99189d1030b8383937bb32903a379031b0b63632b960391b60448201526064016104b9565b336000818152606a602090815260408083206001600160a01b03871680855290835292819020805460ff191686151590811790915590519081529192917f17307eab39ab6107e8899845ad3d59bd9653f200f220920489ca2b5937696c31910160405180910390a35050565b610f3c3383611148565b610f585760405162461bcd60e51b81526004016104b99061213f565b61051b848484846116d6565b6060610f6f826110bd565b610fd35760405162461bcd60e51b815260206004820152602f60248201527f4552433732314d657461646174613a2055524920717565727920666f72206e6f60448201526e3732bc34b9ba32b73a103a37b5b2b760891b60648201526084016104b9565b6000610fea60408051602081019091526000815290565b9050600081511161100a5760405180602001604052806000815250611035565b806110148461172f565b604051602001611025929190612255565b6040516020818303038152906040525b9392505050565b611045826106eb565b61104f81336113a0565b6106b5838361148a565b60006110656000610915565b905090565b6001600160a01b039182166000908152606a6020908152604080832093909416825291909152205460ff1690565b60006001600160e01b03198216637965db0b60e01b14806103ec57506103ec8261182c565b6000908152606760205260409020546001600160a01b0316151590565b600081815260696020526040902080546001600160a01b0319166001600160a01b038416908117909155819061110f82610915565b6001600160a01b03167f8c5be1e5ebec7d5bd14f71427d1e84f3dd0314c0f7b2291e5b200ac8c7c3b92560405160405180910390a45050565b6000611153826110bd565b6111b45760405162461bcd60e51b815260206004820152602c60248201527f4552433732313a206f70657261746f7220717565727920666f72206e6f6e657860448201526b34b9ba32b73a103a37b5b2b760a11b60648201526084016104b9565b60006111bf83610915565b9050806001600160a01b0316846001600160a01b031614806111fa5750836001600160a01b03166111ef84610521565b6001600160a01b0316145b8061120a575061120a818561106a565b949350505050565b826001600160a01b031661122582610915565b6001600160a01b03161461128d5760405162461bcd60e51b815260206004820152602960248201527f4552433732313a207472616e73666572206f6620746f6b656e2074686174206960448201526839903737ba1037bbb760b91b60648201526084016104b9565b6001600160a01b0382166112ef5760405162461bcd60e51b8152602060048201526024808201527f4552433732313a207472616e7366657220746f20746865207a65726f206164646044820152637265737360e01b60648201526084016104b9565b6112fa6000826110da565b6001600160a01b0383166000908152606860205260408120805460019290611323908490612284565b90915550506001600160a01b038216600090815260686020526040812080546001929061135190849061229b565b909155505060008181526067602052604080822080546001600160a01b0319166001600160a01b03868116918217909255915184939187169160008051602061243883398151915291a4505050565b6113aa8282610e37565b610808576113c2816001600160a01b0316601461187c565b6113cd83602061187c565b6040516020016113de9291906122b3565b60408051601f198184030181529082905262461bcd60e51b82526104b991600401611d39565b61140e8282610e37565b6108085760008281526097602090815260408083206001600160a01b03851684529091529020805460ff191660011790556114463390565b6001600160a01b0316816001600160a01b0316837f2f8788117e7eff1d82e926ec794901d17c78024a50270940304540a733656f0d60405160405180910390a45050565b6114948282610e37565b156108085760008281526097602090815260408083206001600160a01b0385168085529252808320805460ff1916905551339285917ff6391f5c32d9c69d2a47ea670b442974b53935d1edc7fd64eb21e047a839171b9190a45050565b600054610100900460ff168061150a575060005460ff16155b6115265760405162461bcd60e51b81526004016104b9906120f1565b600054610100900460ff16158015611548576000805461ffff19166101011790555b611550611a17565b611558611a17565b6108c38383611a82565b8061156c836106eb565b60405184907fbd79b86ffe0ab8e8776151514217cd7cacd52c909f66475c3af44e129f0b00ff90600090a460009182526097602052604090912060010155565b6108088282611404565b6001600160a01b03821661160c5760405162461bcd60e51b815260206004820181905260248201527f4552433732313a206d696e7420746f20746865207a65726f206164647265737360448201526064016104b9565b611615816110bd565b156116615760405162461bcd60e51b815260206004820152601c60248201527b115490cdcc8c4e881d1bdad95b88185b1c9958591e481b5a5b9d195960221b60448201526064016104b9565b6001600160a01b038216600090815260686020526040812080546001929061168a90849061229b565b909155505060008181526067602052604080822080546001600160a01b0319166001600160a01b0386169081179091559051839290600080516020612438833981519152908290a45050565b6116e1848484611212565b6116ed84848484611b17565b61051b5760405162461bcd60e51b81526004016104b990612322565b61172c611714611059565b826000604051806020016040528060008152506116d6565b50565b6060816117535750506040805180820190915260018152600360fc1b602082015290565b8160005b811561177d5780611767816121a6565b91506117769050600a83612224565b9150611757565b6000816001600160401b0381111561179757611797611d4c565b6040519080825280601f01601f1916602001820160405280156117c1576020820181803683370190505b5090505b841561120a576117d6600183612284565b91506117e3600a86612374565b6117ee90603061229b565b60f81b81838151811061180357611803612388565b60200101906001600160f81b031916908160001a905350611825600a86612224565b94506117c5565b60006001600160e01b031982166380ac58cd60e01b148061185d57506001600160e01b03198216635b5e139f60e01b145b806103ec57506301ffc9a760e01b6001600160e01b03198316146103ec565b6060600061188b83600261239e565b61189690600261229b565b6001600160401b038111156118ad576118ad611d4c565b6040519080825280601f01601f1916602001820160405280156118d7576020820181803683370190505b509050600360fc1b816000815181106118f2576118f2612388565b60200101906001600160f81b031916908160001a905350600f60fb1b8160018151811061192157611921612388565b60200101906001600160f81b031916908160001a905350600061194584600261239e565b61195090600161229b565b90505b60018111156119c8576f181899199a1a9b1b9c1cb0b131b232b360811b85600f166010811061198457611984612388565b1a60f81b82828151811061199a5761199a612388565b60200101906001600160f81b031916908160001a90535060049490941c936119c1816121de565b9050611953565b5083156110355760405162461bcd60e51b815260206004820181905260248201527f537472696e67733a20686578206c656e67746820696e73756666696369656e7460448201526064016104b9565b600054610100900460ff1680611a30575060005460ff16155b611a4c5760405162461bcd60e51b81526004016104b9906120f1565b600054610100900460ff16158015611a6e576000805461ffff19166101011790555b801561172c576000805461ff001916905550565b600054610100900460ff1680611a9b575060005460ff16155b611ab75760405162461bcd60e51b81526004016104b9906120f1565b600054610100900460ff16158015611ad9576000805461ffff19166101011790555b8251611aec906065906020860190611c15565b508151611b00906066906020850190611c15565b5080156106b5576000805461ff0019169055505050565b60006001600160a01b0384163b15611c0a57604051630a85bd0160e11b81526001600160a01b0385169063150b7a0290611b5b9033908990889088906004016123bd565b6020604051808303816000875af1925050508015611b96575060408051601f3d908101601f19168201909252611b93918101906123fa565b60015b611bf0573d808015611bc4576040519150601f19603f3d011682016040523d82523d6000602084013e611bc9565b606091505b508051611be85760405162461bcd60e51b81526004016104b990612322565b805181602001fd5b6001600160e01b031916630a85bd0160e11b14905061120a565b506001949350505050565b828054611c21906120b6565b90600052602060002090601f016020900481019282611c435760008555611c89565b82601f10611c5c57805160ff1916838001178555611c89565b82800160010185558215611c89579182015b82811115611c89578251825591602001919060010190611c6e565b50611c95929150611c99565b5090565b5b80821115611c955760008155600101611c9a565b6001600160e01b03198116811461172c57600080fd5b600060208284031215611cd657600080fd5b813561103581611cae565b60005b83811015611cfc578181015183820152602001611ce4565b8381111561051b5750506000910152565b60008151808452611d25816020860160208601611ce1565b601f01601f19169290920160200192915050565b6020815260006110356020830184611d0d565b634e487b7160e01b600052604160045260246000fd5b60006001600160401b0380841115611d7c57611d7c611d4c565b604051601f8501601f19908116603f01168101908282118183101715611da457611da4611d4c565b81604052809350858152868686011115611dbd57600080fd5b858560208301376000602087830101525050509392505050565b600082601f830112611de857600080fd5b61103583833560208501611d62565b6001600160a01b038116811461172c57600080fd5b600080600060608486031215611e2157600080fd5b83356001600160401b0380821115611e3857600080fd5b611e4487838801611dd7565b94506020860135915080821115611e5a57600080fd5b50611e6786828701611dd7565b9250506040840135611e7881611df7565b809150509250925092565b600060208284031215611e9557600080fd5b5035919050565b6001600160a01b0391909116815260200190565b60008060408385031215611ec357600080fd5b8235611ece81611df7565b946020939093013593505050565b600080600060608486031215611ef157600080fd5b8335611efc81611df7565b92506020840135611f0c81611df7565b929592945050506040919091013590565b60008060408385031215611f3057600080fd5b823591506020830135611f4281611df7565b809150509250929050565b600060208284031215611f5f57600080fd5b813561103581611df7565b60008060408385031215611f7d57600080fd5b82356001600160401b0380821115611f9457600080fd5b611fa086838701611dd7565b93506020850135915080821115611fb657600080fd5b50611fc385828601611dd7565b9150509250929050565b801515811461172c57600080fd5b60008060408385031215611fee57600080fd5b8235611ff981611df7565b91506020830135611f4281611fcd565b6000806000806080858703121561201f57600080fd5b843561202a81611df7565b9350602085013561203a81611df7565b92506040850135915060608501356001600160401b0381111561205c57600080fd5b8501601f8101871361206d57600080fd5b61207c87823560208401611d62565b91505092959194509250565b6000806040838503121561209b57600080fd5b82356120a681611df7565b91506020830135611f4281611df7565b600181811c908216806120ca57607f821691505b602082108114156120eb57634e487b7160e01b600052602260045260246000fd5b50919050565b6020808252602e908201527f496e697469616c697a61626c653a20636f6e747261637420697320616c72656160408201526d191e481a5b9a5d1a585b1a5e995960921b606082015260800190565b60208082526031908201527f4552433732313a207472616e736665722063616c6c6572206973206e6f74206f6040820152701ddb995c881b9bdc88185c1c1c9bdd9959607a1b606082015260800190565b634e487b7160e01b600052601160045260246000fd5b60006000198214156121ba576121ba612190565b5060010190565b6000602082840312156121d357600080fd5b815161103581611fcd565b6000816121ed576121ed612190565b506000190190565b60006020828403121561220757600080fd5b5051919050565b634e487b7160e01b600052601260045260246000fd5b6000826122335761223361220e565b500490565b60006020828403121561224a57600080fd5b815161103581611df7565b60008351612267818460208801611ce1565b83519083019061227b818360208801611ce1565b01949350505050565b60008282101561229657612296612190565b500390565b600082198211156122ae576122ae612190565b500190565b76020b1b1b2b9b9a1b7b73a3937b61d1030b1b1b7bab73a1604d1b8152600083516122e5816017850160208801611ce1565b7001034b99036b4b9b9b4b733903937b6329607d1b6017918401918201528351612316816028840160208801611ce1565b01602801949350505050565b60208082526032908201527f4552433732313a207472616e7366657220746f206e6f6e20455243373231526560408201527131b2b4bb32b91034b6b83632b6b2b73a32b960711b606082015260800190565b6000826123835761238361220e565b500690565b634e487b7160e01b600052603260045260246000fd5b60008160001904831182151516156123b8576123b8612190565b500290565b6001600160a01b03858116825284166020820152604081018390526080606082018190526000906123f090830184611d0d565b9695505050505050565b60006020828403121561240c57600080fd5b815161103581611cae56fe4c7820d3324fd4d561b192bce90b13bd3340ceb966e0fa7c1e5b46c61bbf6741ddf252ad1be2c89b69c2b068fc378daa952ba7f163c4a11628f55a4df523b3efa2646970667358221220cab354a98d8241d46b9946f5fb0544877955e98a1443546f44919fd43b66eaac64736f6c634300080a0033",
  "immutableReferences": {},
  "source": "//SPDX-License-Identifier: MIT\npragma solidity ^0.8.0;\n\nimport \"./SingleHolderTitle.sol\";\nimport \"./VoterPool.sol\";\nimport \"./VoterAccess.sol\";\n\ncontract FluidVoteTitle is SingleHolderTitle, VoterAccess {\n\n    mapping(address => address) public votes;\n    mapping(address => uint256) public voteCounts;\n    VoterPool public voters;\n\n    function initialize(string memory _title, string memory _titleAbbreviation, VoterPool _voters) public initializer{\n        SingleHolderTitle.initialize(_title, _titleAbbreviation);\n        voters = _voters;\n    }\n\n    function registerNewVoter(address voter) public {\n        votes[voter] = holder();\n        voteCounts[holder()]++;\n    }\n\n    function unregisterVoter(address voter) public {\n        voteCounts[votes[voter]]--;\n        votes[voter] = address(0);\n    }\n\n    function voteOnTitle(address chosenAddress) public onlyVoters(voters) {\n        //update votes\n        voteCounts[votes[msg.sender]]--;\n        votes[msg.sender] = chosenAddress;\n        voteCounts[chosenAddress]++;\n\n\n        //skip new holder tally if current holder still has clear majority\n        if(voteCounts[holder()] < (voters.numVoters() / 2)){\n            address elector;\n            uint256 electorVotes;\n            for (uint256 i = 0; i < voters.numVoters(); i++) { //all registered voters are eligible to be elected\n                address voter = voters.getVoter(i);\n                if(voteCounts[voter] > electorVotes){ // elector has clear majority\n                    elector = voter;\n                    electorVotes = voteCounts[voter];\n                } else if (voteCounts[voter] == electorVotes && voter == holder()){ // current holder wins ties\n                    elector = voter;\n                    electorVotes = voteCounts[voter];\n                }\n            }\n\n            // update title holder\n            if(elector != holder()){\n                _changeHolder(elector);\n            }\n        }\n    }\n}\n",
  "sourcePath": "/Users/tjharrison/he/catanstitution/contracts/open-orgs/FluidVoteTitle.sol",
  "compiler": {
    "name": "solc",
    "version": "0.8.10+commit.fc410830.Emscripten.clang"
  },
  "schemaVersion": "3.4.3",
  "updatedAt": "2021-12-04T13:20:01.584Z",
  "networkType": "ethereum",
  "devdoc": {
    "kind": "dev",
    "methods": {
      "approve(address,uint256)": {
        "details": "See {IERC721-approve}."
      },
      "balanceOf(address)": {
        "details": "See {IERC721-balanceOf}."
      },
      "getApproved(uint256)": {
        "details": "See {IERC721-getApproved}."
      },
      "getRoleAdmin(bytes32)": {
        "details": "Returns the admin role that controls `role`. See {grantRole} and {revokeRole}. To change a role's admin, use {_setRoleAdmin}."
      },
      "grantRole(bytes32,address)": {
        "details": "Grants `role` to `account`. If `account` had not been already granted `role`, emits a {RoleGranted} event. Requirements: - the caller must have ``role``'s admin role."
      },
      "hasRole(bytes32,address)": {
        "details": "Returns `true` if `account` has been granted `role`."
      },
      "isApprovedForAll(address,address)": {
        "details": "See {IERC721-isApprovedForAll}."
      },
      "name()": {
        "details": "See {IERC721Metadata-name}."
      },
      "ownerOf(uint256)": {
        "details": "See {IERC721-ownerOf}."
      },
      "renounceRole(bytes32,address)": {
        "details": "Revokes `role` from the calling account. Roles are often managed via {grantRole} and {revokeRole}: this function's purpose is to provide a mechanism for accounts to lose their privileges if they are compromised (such as when a trusted device is misplaced). If the calling account had been granted `role`, emits a {RoleRevoked} event. Requirements: - the caller must be `account`."
      },
      "revokeRole(bytes32,address)": {
        "details": "Revokes `role` from `account`. If `account` had been granted `role`, emits a {RoleRevoked} event. Requirements: - the caller must have ``role``'s admin role."
      },
      "safeTransferFrom(address,address,uint256)": {
        "details": "See {IERC721-safeTransferFrom}."
      },
      "safeTransferFrom(address,address,uint256,bytes)": {
        "details": "See {IERC721-safeTransferFrom}."
      },
      "setApprovalForAll(address,bool)": {
        "details": "See {IERC721-setApprovalForAll}."
      },
      "symbol()": {
        "details": "See {IERC721Metadata-symbol}."
      },
      "tokenURI(uint256)": {
        "details": "See {IERC721Metadata-tokenURI}."
      },
      "transferFrom(address,address,uint256)": {
        "details": "See {IERC721-transferFrom}."
      }
    },
    "version": 1
  },
  "userdoc": {
    "kind": "user",
    "methods": {},
    "version": 1
  }
}