{
  "contractName": "FluidVoteTitleV1",
  "abi": [
    {
      "inputs": [
        {
          "internalType": "string",
          "name": "_title",
          "type": "string"
        },
        {
          "internalType": "address",
          "name": "_holder",
          "type": "address"
        },
        {
          "internalType": "contract ERC20VoterToken",
          "name": "_voters",
          "type": "address"
        }
      ],
      "stateMutability": "nonpayable",
      "type": "constructor"
    },
    {
      "inputs": [],
      "name": "holder",
      "outputs": [
        {
          "internalType": "address",
          "name": "",
          "type": "address"
        }
      ],
      "stateMutability": "view",
      "type": "function"
    },
    {
      "inputs": [
        {
          "internalType": "string",
          "name": "_title",
          "type": "string"
        },
        {
          "internalType": "address",
          "name": "_holder",
          "type": "address"
        }
      ],
      "name": "initialize",
      "outputs": [],
      "stateMutability": "nonpayable",
      "type": "function"
    },
    {
      "inputs": [],
      "name": "title",
      "outputs": [
        {
          "internalType": "string",
          "name": "",
          "type": "string"
        }
      ],
      "stateMutability": "view",
      "type": "function"
    },
    {
      "inputs": [
        {
          "internalType": "address",
          "name": "",
          "type": "address"
        }
      ],
      "name": "voteCounts",
      "outputs": [
        {
          "internalType": "uint256",
          "name": "",
          "type": "uint256"
        }
      ],
      "stateMutability": "view",
      "type": "function"
    },
    {
      "inputs": [],
      "name": "voters",
      "outputs": [
        {
          "internalType": "contract ERC20VoterToken",
          "name": "",
          "type": "address"
        }
      ],
      "stateMutability": "view",
      "type": "function"
    },
    {
      "inputs": [
        {
          "internalType": "address",
          "name": "",
          "type": "address"
        }
      ],
      "name": "votes",
      "outputs": [
        {
          "internalType": "address",
          "name": "",
          "type": "address"
        }
      ],
      "stateMutability": "view",
      "type": "function"
    },
    {
      "inputs": [
        {
          "internalType": "address",
          "name": "voter",
          "type": "address"
        }
      ],
      "name": "registerNewVoter",
      "outputs": [],
      "stateMutability": "nonpayable",
      "type": "function"
    },
    {
      "inputs": [
        {
          "internalType": "address",
          "name": "voter",
          "type": "address"
        }
      ],
      "name": "unregisterVoter",
      "outputs": [],
      "stateMutability": "nonpayable",
      "type": "function"
    },
    {
      "inputs": [
        {
          "internalType": "address",
          "name": "chosenAddress",
          "type": "address"
        }
      ],
      "name": "voteOnTitle",
      "outputs": [],
      "stateMutability": "nonpayable",
      "type": "function"
    }
  ],
  "bytecode": "0x60806040523480156200001157600080fd5b5060405162000cba38038062000cba833981016040819052620000349162000225565b6200004b83836200007460201b620004e71760201c565b600580546001600160a01b0319166001600160a01b0392909216919091179055506200037b9050565b600054610100900460ff16806200008e575060005460ff16155b620000f65760405162461bcd60e51b815260206004820152602e60248201527f496e697469616c697a61626c653a20636f6e747261637420697320616c72656160448201526d191e481a5b9a5d1a585b1a5e995960921b606482015260840160405180910390fd5b600054610100900460ff1615801562000119576000805461ffff19166101011790555b82516200012e90600190602086019062000162565b50600280546001600160a01b0319166001600160a01b03841617905580156200015d576000805461ff00191690555b505050565b828054620001709062000328565b90600052602060002090601f016020900481019282620001945760008555620001df565b82601f10620001af57805160ff1916838001178555620001df565b82800160010185558215620001df579182015b82811115620001df578251825591602001919060010190620001c2565b50620001ed929150620001f1565b5090565b5b80821115620001ed5760008155600101620001f2565b80516001600160a01b03811681146200022057600080fd5b919050565b6000806000606084860312156200023b57600080fd5b83516001600160401b03808211156200025357600080fd5b818601915086601f8301126200026857600080fd5b8151818111156200027d576200027d62000365565b604051601f8201601f19908116603f01168101908382118183101715620002a857620002a862000365565b81604052828152602093508984848701011115620002c557600080fd5b600091505b82821015620002e95784820184015181830185015290830190620002ca565b82821115620002fb5760008484830101525b96506200030d91505086820162000208565b935050506200031f6040850162000208565b90509250925092565b600181811c908216806200033d57607f821691505b602082108114156200035f57634e487b7160e01b600052602260045260246000fd5b50919050565b634e487b7160e01b600052604160045260246000fd5b61092f806200038b6000396000f3fe608060405234801561001057600080fd5b50600436106100835760003560e01c80633165d23314610088578063350580ea1461009d5780634a79d50c146100cd57806366a267a9146100e257806371a8cd3f146101105780637ab4339d146101235780637ed1775114610136578063d8bff5a514610149578063e534155d14610172575b600080fd5b61009b6100963660046106d8565b610185565b005b6005546100b0906001600160a01b031681565b6040516001600160a01b0390911681526020015b60405180910390f35b6100d56101dd565b6040516100c491906107f3565b6101026100f03660046106d8565b60046020526000908152604090205481565b6040519081526020016100c4565b61009b61011e3660046106d8565b61026b565b61009b610131366004610719565b6104e7565b61009b6101443660046106d8565b6105ce565b6100b06101573660046106d8565b6003602052600090815260409020546001600160a01b031681565b6002546100b0906001600160a01b031681565b600280546001600160a01b03838116600090815260036020908152604080832080546001600160a01b0319169585169590951790945593549091168152600490925281208054916101d58361089a565b919050555050565b600180546101ea9061085f565b80601f01602080910402602001604051908101604052809291908181526020018280546102169061085f565b80156102635780601f1061023857610100808354040283529160200191610263565b820191906000526020600020905b81548152906001019060200180831161024657829003601f168201915b505050505081565b336000908152600360209081526040808320546001600160a01b031683526004909152812080549161029c83610848565b909155505033600090815260036020908152604080832080546001600160a01b0319166001600160a01b0386169081179091558352600490915281208054916102e48361089a565b919050555060008060005b600560009054906101000a90046001600160a01b03166001600160a01b0316634cbe32b86040518163ffffffff1660e01b815260040160206040518083038186803b15801561033d57600080fd5b505afa158015610351573d6000803e3d6000fd5b505050506040513d601f19601f8201168201806040525081019061037591906107da565b8110156104ac576005546040516309fcbdd160e11b8152600481018390526000916001600160a01b0316906313f97ba29060240160206040518083038186803b1580156103c157600080fd5b505afa1580156103d5573d6000803e3d6000fd5b505050506040513d601f19601f820116820180604052508101906103f991906106fc565b6001600160a01b038116600090815260046020526040902054909150831015610440576001600160a01b038116600090815260046020526040902054909350915082610499565b6001600160a01b0381166000908152600460205260409020548314801561047457506002546001600160a01b038281169116145b15610499576001600160a01b0381166000908152600460205260409020549093509150825b50806104a48161089a565b9150506102ef565b506002546001600160a01b038381169116146104e257600280546001600160a01b0319166001600160a01b038416179055505050565b505050565b600054610100900460ff1680610500575060005460ff16155b6105675760405162461bcd60e51b815260206004820152602e60248201527f496e697469616c697a61626c653a20636f6e747261637420697320616c72656160448201526d191e481a5b9a5d1a585b1a5e995960921b606482015260840160405180910390fd5b600054610100900460ff16158015610589576000805461ffff19166101011790555b825161059c90600190602086019061062f565b50600280546001600160a01b0319166001600160a01b03841617905580156104e2576000805461ff0019169055505050565b6001600160a01b0380821660009081526003602090815260408083205490931682526004905290812080549161060383610848565b90915550506001600160a01b0316600090815260036020526040902080546001600160a01b0319169055565b82805461063b9061085f565b90600052602060002090601f01602090048101928261065d57600085556106a3565b82601f1061067657805160ff19168380011785556106a3565b828001600101855582156106a3579182015b828111156106a3578251825591602001919060010190610688565b506106af9291506106b3565b5090565b5b808211156106af57600081556001016106b4565b80356106d3816108e1565b919050565b6000602082840312156106ea57600080fd5b81356106f5816108e1565b9392505050565b60006020828403121561070e57600080fd5b81516106f5816108e1565b6000806040838503121561072c57600080fd5b82356001600160401b038082111561074357600080fd5b818501915085601f83011261075757600080fd5b813581811115610769576107696108cb565b604051601f8201601f19908116603f01168101908382118183101715610791576107916108cb565b816040528281528860208487010111156107aa57600080fd5b8260208601602083013760006020848301015280965050505050506107d1602084016106c8565b90509250929050565b6000602082840312156107ec57600080fd5b5051919050565b600060208083528351808285015260005b8181101561082057858101830151858201604001528201610804565b81811115610832576000604083870101525b50601f01601f1916929092016040019392505050565b600081610857576108576108b5565b506000190190565b600181811c9082168061087357607f821691505b6020821081141561089457634e487b7160e01b600052602260045260246000fd5b50919050565b60006000198214156108ae576108ae6108b5565b5060010190565b634e487b7160e01b600052601160045260246000fd5b634e487b7160e01b600052604160045260246000fd5b6001600160a01b03811681146108f657600080fd5b5056fea26469706673582212200eb79f43d4642ddb0e0cdfb6131cc34657b6d4d0a6e17590fc6859b9badc95f964736f6c63430008060033",
  "immutableReferences": {},
  "source": "//SPDX-License-Identifier: MIT\npragma solidity ^0.8.0;\n\nimport \"./ERC20VoterToken.sol\";\nimport \"./SingleHolderTitleV1.sol\";\n\ncontract FluidVoteTitleV1 is SingleHolderTitleV1 {\n\n    mapping(address => address) public votes;\n    mapping(address => uint256) public voteCounts;\n    ERC20VoterToken public voters;\n\n    constructor (string memory _title, address _holder, ERC20VoterToken _voters) {\n        SingleHolderTitleV1.initialize(_title, _holder);\n        voters = _voters;\n    }\n\n    function _updateHolder(address _holder) internal {\n        holder = _holder;\n    }\n\n    function registerNewVoter(address voter) public {\n        votes[voter] = holder;\n        voteCounts[holder]++;\n    }\n\n    function unregisterVoter(address voter) public {\n        voteCounts[votes[voter]]--;\n        votes[voter] = address(0);\n    }\n\n    //TODO requires to ensure fair votes\n    function voteOnTitle(address chosenAddress) public {\n        //update votes\n        voteCounts[votes[msg.sender]]--;\n        votes[msg.sender] = chosenAddress;\n        voteCounts[chosenAddress]++;\n\n        // determine winner\n        address elector;\n        uint256 electorVotes;\n        for (uint256 i = 0; i < voters.numVoters(); i++) { //all registered voters are eligible to be elected\n            address voter = voters.voterRegistrations(i);\n            if(voteCounts[voter] > electorVotes){ // elector has clear majority\n                elector = voter;\n                electorVotes = voteCounts[voter];\n            } else if (voteCounts[voter] == electorVotes && voter == holder){ // elector tied but is current ruler\n                elector = voter;\n                electorVotes = voteCounts[voter];\n            }\n        }\n\n        // update title holder\n        if(elector != holder){\n            _updateHolder(elector);\n        }\n    }\n}\n",
  "sourcePath": "/Users/tjharrison/catanstitution/contracts/open-orgs/FluidVoteTitleV1.sol",
  "compiler": {
    "name": "solc",
    "version": "0.8.6+commit.11564f7e.Emscripten.clang"
  },
  "schemaVersion": "3.4.1",
  "updatedAt": "2021-07-10T17:26:07.593Z",
  "devdoc": {
    "kind": "dev",
    "methods": {},
    "version": 1
  },
  "userdoc": {
    "kind": "user",
    "methods": {},
    "version": 1
  }
}