{
  "contractName": "FluidVoteTitle",
  "abi": [
    {
      "anonymous": false,
      "inputs": [
        {
          "indexed": true,
          "internalType": "address",
          "name": "owner",
          "type": "address"
        },
        {
          "indexed": true,
          "internalType": "address",
          "name": "approved",
          "type": "address"
        },
        {
          "indexed": true,
          "internalType": "uint256",
          "name": "tokenId",
          "type": "uint256"
        }
      ],
      "name": "Approval",
      "type": "event"
    },
    {
      "anonymous": false,
      "inputs": [
        {
          "indexed": true,
          "internalType": "address",
          "name": "owner",
          "type": "address"
        },
        {
          "indexed": true,
          "internalType": "address",
          "name": "operator",
          "type": "address"
        },
        {
          "indexed": false,
          "internalType": "bool",
          "name": "approved",
          "type": "bool"
        }
      ],
      "name": "ApprovalForAll",
      "type": "event"
    },
    {
      "anonymous": false,
      "inputs": [
        {
          "indexed": true,
          "internalType": "bytes32",
          "name": "role",
          "type": "bytes32"
        },
        {
          "indexed": true,
          "internalType": "bytes32",
          "name": "previousAdminRole",
          "type": "bytes32"
        },
        {
          "indexed": true,
          "internalType": "bytes32",
          "name": "newAdminRole",
          "type": "bytes32"
        }
      ],
      "name": "RoleAdminChanged",
      "type": "event"
    },
    {
      "anonymous": false,
      "inputs": [
        {
          "indexed": true,
          "internalType": "bytes32",
          "name": "role",
          "type": "bytes32"
        },
        {
          "indexed": true,
          "internalType": "address",
          "name": "account",
          "type": "address"
        },
        {
          "indexed": true,
          "internalType": "address",
          "name": "sender",
          "type": "address"
        }
      ],
      "name": "RoleGranted",
      "type": "event"
    },
    {
      "anonymous": false,
      "inputs": [
        {
          "indexed": true,
          "internalType": "bytes32",
          "name": "role",
          "type": "bytes32"
        },
        {
          "indexed": true,
          "internalType": "address",
          "name": "account",
          "type": "address"
        },
        {
          "indexed": true,
          "internalType": "address",
          "name": "sender",
          "type": "address"
        }
      ],
      "name": "RoleRevoked",
      "type": "event"
    },
    {
      "anonymous": false,
      "inputs": [
        {
          "indexed": true,
          "internalType": "address",
          "name": "from",
          "type": "address"
        },
        {
          "indexed": true,
          "internalType": "address",
          "name": "to",
          "type": "address"
        },
        {
          "indexed": true,
          "internalType": "uint256",
          "name": "tokenId",
          "type": "uint256"
        }
      ],
      "name": "Transfer",
      "type": "event"
    },
    {
      "inputs": [],
      "name": "DEFAULT_ADMIN_ROLE",
      "outputs": [
        {
          "internalType": "bytes32",
          "name": "",
          "type": "bytes32"
        }
      ],
      "stateMutability": "view",
      "type": "function",
      "constant": true
    },
    {
      "inputs": [],
      "name": "TITLE_OPERATOR",
      "outputs": [
        {
          "internalType": "bytes32",
          "name": "",
          "type": "bytes32"
        }
      ],
      "stateMutability": "view",
      "type": "function",
      "constant": true
    },
    {
      "inputs": [
        {
          "internalType": "address",
          "name": "to",
          "type": "address"
        },
        {
          "internalType": "uint256",
          "name": "tokenId",
          "type": "uint256"
        }
      ],
      "name": "approve",
      "outputs": [],
      "stateMutability": "nonpayable",
      "type": "function"
    },
    {
      "inputs": [
        {
          "internalType": "address",
          "name": "owner",
          "type": "address"
        }
      ],
      "name": "balanceOf",
      "outputs": [
        {
          "internalType": "uint256",
          "name": "",
          "type": "uint256"
        }
      ],
      "stateMutability": "view",
      "type": "function",
      "constant": true
    },
    {
      "inputs": [
        {
          "internalType": "address",
          "name": "newHolder",
          "type": "address"
        }
      ],
      "name": "changeHolder",
      "outputs": [],
      "stateMutability": "nonpayable",
      "type": "function"
    },
    {
      "inputs": [
        {
          "internalType": "uint256",
          "name": "tokenId",
          "type": "uint256"
        }
      ],
      "name": "getApproved",
      "outputs": [
        {
          "internalType": "address",
          "name": "",
          "type": "address"
        }
      ],
      "stateMutability": "view",
      "type": "function",
      "constant": true
    },
    {
      "inputs": [
        {
          "internalType": "bytes32",
          "name": "role",
          "type": "bytes32"
        }
      ],
      "name": "getRoleAdmin",
      "outputs": [
        {
          "internalType": "bytes32",
          "name": "",
          "type": "bytes32"
        }
      ],
      "stateMutability": "view",
      "type": "function",
      "constant": true
    },
    {
      "inputs": [
        {
          "internalType": "bytes32",
          "name": "role",
          "type": "bytes32"
        },
        {
          "internalType": "address",
          "name": "account",
          "type": "address"
        }
      ],
      "name": "grantRole",
      "outputs": [],
      "stateMutability": "nonpayable",
      "type": "function"
    },
    {
      "inputs": [
        {
          "internalType": "bytes32",
          "name": "role",
          "type": "bytes32"
        },
        {
          "internalType": "address",
          "name": "account",
          "type": "address"
        }
      ],
      "name": "hasRole",
      "outputs": [
        {
          "internalType": "bool",
          "name": "",
          "type": "bool"
        }
      ],
      "stateMutability": "view",
      "type": "function",
      "constant": true
    },
    {
      "inputs": [],
      "name": "holder",
      "outputs": [
        {
          "internalType": "address",
          "name": "",
          "type": "address"
        }
      ],
      "stateMutability": "nonpayable",
      "type": "function"
    },
    {
      "inputs": [
        {
          "internalType": "address",
          "name": "owner",
          "type": "address"
        },
        {
          "internalType": "address",
          "name": "operator",
          "type": "address"
        }
      ],
      "name": "isApprovedForAll",
      "outputs": [
        {
          "internalType": "bool",
          "name": "",
          "type": "bool"
        }
      ],
      "stateMutability": "view",
      "type": "function",
      "constant": true
    },
    {
      "inputs": [],
      "name": "name",
      "outputs": [
        {
          "internalType": "string",
          "name": "",
          "type": "string"
        }
      ],
      "stateMutability": "view",
      "type": "function",
      "constant": true
    },
    {
      "inputs": [
        {
          "internalType": "uint256",
          "name": "tokenId",
          "type": "uint256"
        }
      ],
      "name": "ownerOf",
      "outputs": [
        {
          "internalType": "address",
          "name": "",
          "type": "address"
        }
      ],
      "stateMutability": "view",
      "type": "function",
      "constant": true
    },
    {
      "inputs": [
        {
          "internalType": "bytes32",
          "name": "role",
          "type": "bytes32"
        },
        {
          "internalType": "address",
          "name": "account",
          "type": "address"
        }
      ],
      "name": "renounceRole",
      "outputs": [],
      "stateMutability": "nonpayable",
      "type": "function"
    },
    {
      "inputs": [
        {
          "internalType": "bytes32",
          "name": "role",
          "type": "bytes32"
        },
        {
          "internalType": "address",
          "name": "account",
          "type": "address"
        }
      ],
      "name": "revokeRole",
      "outputs": [],
      "stateMutability": "nonpayable",
      "type": "function"
    },
    {
      "inputs": [
        {
          "internalType": "address",
          "name": "from",
          "type": "address"
        },
        {
          "internalType": "address",
          "name": "to",
          "type": "address"
        },
        {
          "internalType": "uint256",
          "name": "tokenId",
          "type": "uint256"
        }
      ],
      "name": "safeTransferFrom",
      "outputs": [],
      "stateMutability": "nonpayable",
      "type": "function"
    },
    {
      "inputs": [
        {
          "internalType": "address",
          "name": "from",
          "type": "address"
        },
        {
          "internalType": "address",
          "name": "to",
          "type": "address"
        },
        {
          "internalType": "uint256",
          "name": "tokenId",
          "type": "uint256"
        },
        {
          "internalType": "bytes",
          "name": "_data",
          "type": "bytes"
        }
      ],
      "name": "safeTransferFrom",
      "outputs": [],
      "stateMutability": "nonpayable",
      "type": "function"
    },
    {
      "inputs": [
        {
          "internalType": "address",
          "name": "operator",
          "type": "address"
        },
        {
          "internalType": "bool",
          "name": "approved",
          "type": "bool"
        }
      ],
      "name": "setApprovalForAll",
      "outputs": [],
      "stateMutability": "nonpayable",
      "type": "function"
    },
    {
      "inputs": [
        {
          "internalType": "bytes4",
          "name": "interfaceId",
          "type": "bytes4"
        }
      ],
      "name": "supportsInterface",
      "outputs": [
        {
          "internalType": "bool",
          "name": "",
          "type": "bool"
        }
      ],
      "stateMutability": "view",
      "type": "function",
      "constant": true
    },
    {
      "inputs": [],
      "name": "symbol",
      "outputs": [
        {
          "internalType": "string",
          "name": "",
          "type": "string"
        }
      ],
      "stateMutability": "view",
      "type": "function",
      "constant": true
    },
    {
      "inputs": [
        {
          "internalType": "uint256",
          "name": "tokenId",
          "type": "uint256"
        }
      ],
      "name": "tokenURI",
      "outputs": [
        {
          "internalType": "string",
          "name": "",
          "type": "string"
        }
      ],
      "stateMutability": "view",
      "type": "function",
      "constant": true
    },
    {
      "inputs": [
        {
          "internalType": "address",
          "name": "from",
          "type": "address"
        },
        {
          "internalType": "address",
          "name": "to",
          "type": "address"
        },
        {
          "internalType": "uint256",
          "name": "tokenId",
          "type": "uint256"
        }
      ],
      "name": "transferFrom",
      "outputs": [],
      "stateMutability": "nonpayable",
      "type": "function"
    },
    {
      "inputs": [
        {
          "internalType": "address",
          "name": "",
          "type": "address"
        }
      ],
      "name": "voteCounts",
      "outputs": [
        {
          "internalType": "uint256",
          "name": "",
          "type": "uint256"
        }
      ],
      "stateMutability": "view",
      "type": "function",
      "constant": true
    },
    {
      "inputs": [],
      "name": "voters",
      "outputs": [
        {
          "internalType": "contract VoterPool",
          "name": "",
          "type": "address"
        }
      ],
      "stateMutability": "view",
      "type": "function",
      "constant": true
    },
    {
      "inputs": [
        {
          "internalType": "address",
          "name": "",
          "type": "address"
        }
      ],
      "name": "votes",
      "outputs": [
        {
          "internalType": "address",
          "name": "",
          "type": "address"
        }
      ],
      "stateMutability": "view",
      "type": "function",
      "constant": true
    },
    {
      "inputs": [
        {
          "internalType": "string",
          "name": "_title",
          "type": "string"
        },
        {
          "internalType": "string",
          "name": "_titleAbbreviation",
          "type": "string"
        },
        {
          "internalType": "contract VoterPool",
          "name": "_voters",
          "type": "address"
        }
      ],
      "name": "initialize",
      "outputs": [],
      "stateMutability": "nonpayable",
      "type": "function"
    },
    {
      "inputs": [
        {
          "internalType": "string",
          "name": "_title",
          "type": "string"
        },
        {
          "internalType": "string",
          "name": "_titleAbbreviation",
          "type": "string"
        }
      ],
      "name": "initialize",
      "outputs": [],
      "stateMutability": "nonpayable",
      "type": "function"
    },
    {
      "inputs": [
        {
          "internalType": "address",
          "name": "voter",
          "type": "address"
        }
      ],
      "name": "registerNewVoter",
      "outputs": [],
      "stateMutability": "nonpayable",
      "type": "function"
    },
    {
      "inputs": [
        {
          "internalType": "address",
          "name": "voter",
          "type": "address"
        }
      ],
      "name": "unregisterVoter",
      "outputs": [],
      "stateMutability": "nonpayable",
      "type": "function"
    },
    {
      "inputs": [
        {
          "internalType": "address",
          "name": "chosenAddress",
          "type": "address"
        }
      ],
      "name": "voteOnTitle",
      "outputs": [],
      "stateMutability": "nonpayable",
      "type": "function"
    }
  ],
  "bytecode": "0x608060405234801561001057600080fd5b50612320806100206000396000f3fe608060405234801561001057600080fd5b506004361061016a5760003560e01c806301ffc9a71461016f57806306fdde0314610197578063077f224a146101ac578063081812fc146101c1578063095ea7b3146101ec57806323b872dd146101ff578063248a9ca3146102125780632f2ff15d146102335780633165d23314610246578063350580ea1461025957806336568abe1461026c578063400bd1e41461027f57806342842e0e146102945780634cd88b76146102a75780635a87db75146102ba5780636352211e146102cd57806366a267a9146102e057806370a082311461030057806371a8cd3f146103135780637ed177511461032657806391d148541461033957806395d89b411461034c578063a217fddf14610354578063a22cb4651461035c578063b88d4fde1461036f578063c87b56dd14610382578063d547741f14610395578063d8bff5a5146103a8578063e534155d146103d1578063e985e9c5146103d9575b600080fd5b61018261017d366004611de0565b6103ec565b60405190151581526020015b60405180910390f35b61019f6103fd565b60405161018e9190612014565b6101bf6101ba366004611e7d565b61048f565b005b6101d46101cf366004611da2565b61052c565b6040516001600160a01b03909116815260200161018e565b6101bf6101fa366004611d76565b6105b4565b6101bf61020d366004611c83565b6106c5565b610225610220366004611da2565b6106f6565b60405190815260200161018e565b6101bf610241366004611dbb565b61070b565b6101bf610254366004611c10565b610728565b60cb546101d4906001600160a01b031681565b6101bf61027a366004611dbb565b610799565b6102256000805160206122ab83398151915281565b6101bf6102a2366004611c83565b610817565b6101bf6102b5366004611e1a565b610832565b6101bf6102c8366004611c10565b6108e4565b6101d46102db366004611da2565b610920565b6102256102ee366004611c10565b60ca6020526000908152604090205481565b61022561030e366004611c10565b610997565b6101bf610321366004611c10565b610a1e565b6101bf610334366004611c10565b610c94565b610182610347366004611dbb565b610cf5565b61019f610d20565b610225600081565b6101bf61036a366004611d43565b610d2f565b6101bf61037d366004611cc4565b610df0565b61019f610390366004611da2565b610e22565b6101bf6103a3366004611dbb565b610efa565b6101d46103b6366004611c10565b60c9602052600090815260409020546001600160a01b031681565b6101d4610f17565b6101826103e7366004611c4a565b610f28565b60006103f782610f56565b92915050565b60606065805461040c906121bd565b80601f0160208091040260200160405190810160405280929190818152602001828054610438906121bd565b80156104855780601f1061045a57610100808354040283529160200191610485565b820191906000526020600020905b81548152906001019060200180831161046857829003601f168201915b5050505050905090565b600054610100900460ff16806104a8575060005460ff16155b6104cd5760405162461bcd60e51b81526004016104c490612079565b60405180910390fd5b600054610100900460ff161580156104ef576000805461ffff19166101011790555b6104f98484610832565b60cb80546001600160a01b0319166001600160a01b0384161790558015610526576000805461ff00191690555b50505050565b600061053782610f7b565b6105985760405162461bcd60e51b815260206004820152602c60248201527f4552433732313a20617070726f76656420717565727920666f72206e6f6e657860448201526b34b9ba32b73a103a37b5b2b760a11b60648201526084016104c4565b506000908152606960205260409020546001600160a01b031690565b60006105bf82610920565b9050806001600160a01b0316836001600160a01b0316141561062d5760405162461bcd60e51b815260206004820152602160248201527f4552433732313a20617070726f76616c20746f2063757272656e74206f776e656044820152603960f91b60648201526084016104c4565b336001600160a01b038216148061064957506106498133610f28565b6106b65760405162461bcd60e51b815260206004820152603860248201527f4552433732313a20617070726f76652063616c6c6572206973206e6f74206f776044820152771b995c881b9bdc88185c1c1c9bdd995908199bdc88185b1b60421b60648201526084016104c4565b6106c08383610f98565b505050565b6106cf3382611006565b6106eb5760405162461bcd60e51b81526004016104c4906120c7565b6106c08383836110d0565b60009081526097602052604090206001015490565b610714826106f6565b61071e813361125e565b6106c083836112c2565b610730610f17565b6001600160a01b03828116600090815260c96020526040812080546001600160a01b0319169390921692909217905560ca9061076a610f17565b6001600160a01b0316815260208101919091526040016000908120805491610791836121f8565b919050555050565b6001600160a01b03811633146108095760405162461bcd60e51b815260206004820152602f60248201527f416363657373436f6e74726f6c3a2063616e206f6e6c792072656e6f756e636560448201526e103937b632b9903337b91039b2b63360891b60648201526084016104c4565b6108138282611348565b5050565b6106c083838360405180602001604052806000815250610df0565b600054610100900460ff168061084b575060005460ff16155b6108675760405162461bcd60e51b81526004016104c490612079565b600054610100900460ff16158015610889576000805461ffff19166101011790555b61089383836113af565b6108ab6000805160206122ab83398151915280611420565b6108c36000805160206122ab8339815191523361146a565b6108ce336000611474565b80156106c0576000805461ff0019169055505050565b6000805160206122ab8339815191526108fd813361125e565b610813610908610f17565b83600060405180602001604052806000815250611594565b6000818152606760205260408120546001600160a01b0316806103f75760405162461bcd60e51b815260206004820152602960248201527f4552433732313a206f776e657220717565727920666f72206e6f6e657869737460448201526832b73a103a37b5b2b760b91b60648201526084016104c4565b60006001600160a01b038216610a025760405162461bcd60e51b815260206004820152602a60248201527f4552433732313a2062616c616e636520717565727920666f7220746865207a65604482015269726f206164647265737360b01b60648201526084016104c4565b506001600160a01b031660009081526068602052604090205490565b33600090815260c960209081526040808320546001600160a01b0316835260ca9091528120805491610a4f836121a6565b909155505033600090815260c96020908152604080832080546001600160a01b0319166001600160a01b038616908117909155835260ca9091528120805491610a97836121f8565b919050555060008060005b60cb60009054906101000a90046001600160a01b03166001600160a01b0316634cbe32b86040518163ffffffff1660e01b815260040160206040518083038186803b158015610af057600080fd5b505afa158015610b04573d6000803e3d6000fd5b505050506040513d601f19601f82011682018060405250810190610b289190611ef4565b811015610c6a5760cb546040516309fcbdd160e11b8152600481018390526000916001600160a01b0316906313f97ba29060240160206040518083038186803b158015610b7457600080fd5b505afa158015610b88573d6000803e3d6000fd5b505050506040513d601f19601f82011682018060405250810190610bac9190611c2d565b6001600160a01b038116600090815260ca6020526040902054909150831015610bf3576001600160a01b038116600090815260ca6020526040902054909350915082610c57565b6001600160a01b038116600090815260ca602052604090205483148015610c325750610c1d610f17565b6001600160a01b0316816001600160a01b0316145b15610c57576001600160a01b038116600090815260ca60205260409020549093509150825b5080610c62816121f8565b915050610aa2565b50610c73610f17565b6001600160a01b0316826001600160a01b0316146106c0576106c0826115c7565b6001600160a01b03808216600090815260c96020908152604080832054909316825260ca9052908120805491610cc9836121a6565b90915550506001600160a01b0316600090815260c96020526040902080546001600160a01b0319169055565b60009182526097602090815260408084206001600160a01b0393909316845291905290205460ff1690565b60606066805461040c906121bd565b6001600160a01b038216331415610d845760405162461bcd60e51b815260206004820152601960248201527822a9219b99189d1030b8383937bb32903a379031b0b63632b960391b60448201526064016104c4565b336000818152606a602090815260408083206001600160a01b03871680855290835292819020805460ff191686151590811790915590519081529192917f17307eab39ab6107e8899845ad3d59bd9653f200f220920489ca2b5937696c31910160405180910390a35050565b610dfa3383611006565b610e165760405162461bcd60e51b81526004016104c4906120c7565b61052684848484611594565b6060610e2d82610f7b565b610e915760405162461bcd60e51b815260206004820152602f60248201527f4552433732314d657461646174613a2055524920717565727920666f72206e6f60448201526e3732bc34b9ba32b73a103a37b5b2b760891b60648201526084016104c4565b6000610ea860408051602081019091526000815290565b90506000815111610ec85760405180602001604052806000815250610ef3565b80610ed2846115ed565b604051602001610ee3929190611f39565b6040516020818303038152906040525b9392505050565b610f03826106f6565b610f0d813361125e565b6106c08383611348565b6000610f236000610920565b905090565b6001600160a01b039182166000908152606a6020908152604080832093909416825291909152205460ff1690565b60006001600160e01b03198216637965db0b60e01b14806103f757506103f7826116ea565b6000908152606760205260409020546001600160a01b0316151590565b600081815260696020526040902080546001600160a01b0319166001600160a01b0384169081179091558190610fcd82610920565b6001600160a01b03167f8c5be1e5ebec7d5bd14f71427d1e84f3dd0314c0f7b2291e5b200ac8c7c3b92560405160405180910390a45050565b600061101182610f7b565b6110725760405162461bcd60e51b815260206004820152602c60248201527f4552433732313a206f70657261746f7220717565727920666f72206e6f6e657860448201526b34b9ba32b73a103a37b5b2b760a11b60648201526084016104c4565b600061107d83610920565b9050806001600160a01b0316846001600160a01b031614806110b85750836001600160a01b03166110ad8461052c565b6001600160a01b0316145b806110c857506110c88185610f28565b949350505050565b826001600160a01b03166110e382610920565b6001600160a01b03161461114b5760405162461bcd60e51b815260206004820152602960248201527f4552433732313a207472616e73666572206f6620746f6b656e2074686174206960448201526839903737ba1037bbb760b91b60648201526084016104c4565b6001600160a01b0382166111ad5760405162461bcd60e51b8152602060048201526024808201527f4552433732313a207472616e7366657220746f20746865207a65726f206164646044820152637265737360e01b60648201526084016104c4565b6111b8600082610f98565b6001600160a01b03831660009081526068602052604081208054600192906111e1908490612163565b90915550506001600160a01b038216600090815260686020526040812080546001929061120f908490612118565b909155505060008181526067602052604080822080546001600160a01b0319166001600160a01b0386811691821790925591518493918716916000805160206122cb83398151915291a4505050565b6112688282610cf5565b61081357611280816001600160a01b0316601461173a565b61128b83602061173a565b60405160200161129c929190611f68565b60408051601f198184030181529082905262461bcd60e51b82526104c491600401612014565b6112cc8282610cf5565b6108135760008281526097602090815260408083206001600160a01b03851684529091529020805460ff191660011790556113043390565b6001600160a01b0316816001600160a01b0316837f2f8788117e7eff1d82e926ec794901d17c78024a50270940304540a733656f0d60405160405180910390a45050565b6113528282610cf5565b156108135760008281526097602090815260408083206001600160a01b0385168085529252808320805460ff1916905551339285917ff6391f5c32d9c69d2a47ea670b442974b53935d1edc7fd64eb21e047a839171b9190a45050565b600054610100900460ff16806113c8575060005460ff16155b6113e45760405162461bcd60e51b81526004016104c490612079565b600054610100900460ff16158015611406576000805461ffff19166101011790555b61140e6118d5565b6114166118d5565b6108ce8383611940565b8061142a836106f6565b60405184907fbd79b86ffe0ab8e8776151514217cd7cacd52c909f66475c3af44e129f0b00ff90600090a460009182526097602052604090912060010155565b61081382826112c2565b6001600160a01b0382166114ca5760405162461bcd60e51b815260206004820181905260248201527f4552433732313a206d696e7420746f20746865207a65726f206164647265737360448201526064016104c4565b6114d381610f7b565b1561151f5760405162461bcd60e51b815260206004820152601c60248201527b115490cdcc8c4e881d1bdad95b88185b1c9958591e481b5a5b9d195960221b60448201526064016104c4565b6001600160a01b0382166000908152606860205260408120805460019290611548908490612118565b909155505060008181526067602052604080822080546001600160a01b0319166001600160a01b03861690811790915590518392906000805160206122cb833981519152908290a45050565b61159f8484846110d0565b6115ab848484846119d5565b6105265760405162461bcd60e51b81526004016104c490612027565b6115ea6115d2610f17565b82600060405180602001604052806000815250611594565b50565b6060816116115750506040805180820190915260018152600360fc1b602082015290565b8160005b811561163b5780611625816121f8565b91506116349050600a83612130565b9150611615565b6000816001600160401b0381111561165557611655612269565b6040519080825280601f01601f19166020018201604052801561167f576020820181803683370190505b5090505b84156110c857611694600183612163565b91506116a1600a86612213565b6116ac906030612118565b60f81b8183815181106116c1576116c1612253565b60200101906001600160f81b031916908160001a9053506116e3600a86612130565b9450611683565b60006001600160e01b031982166380ac58cd60e01b148061171b57506001600160e01b03198216635b5e139f60e01b145b806103f757506301ffc9a760e01b6001600160e01b03198316146103f7565b60606000611749836002612144565b611754906002612118565b6001600160401b0381111561176b5761176b612269565b6040519080825280601f01601f191660200182016040528015611795576020820181803683370190505b509050600360fc1b816000815181106117b0576117b0612253565b60200101906001600160f81b031916908160001a905350600f60fb1b816001815181106117df576117df612253565b60200101906001600160f81b031916908160001a9053506000611803846002612144565b61180e906001612118565b90505b6001811115611886576f181899199a1a9b1b9c1cb0b131b232b360811b85600f166010811061184257611842612253565b1a60f81b82828151811061185857611858612253565b60200101906001600160f81b031916908160001a90535060049490941c9361187f816121a6565b9050611811565b508315610ef35760405162461bcd60e51b815260206004820181905260248201527f537472696e67733a20686578206c656e67746820696e73756666696369656e7460448201526064016104c4565b600054610100900460ff16806118ee575060005460ff16155b61190a5760405162461bcd60e51b81526004016104c490612079565b600054610100900460ff1615801561192c576000805461ffff19166101011790555b80156115ea576000805461ff001916905550565b600054610100900460ff1680611959575060005460ff16155b6119755760405162461bcd60e51b81526004016104c490612079565b600054610100900460ff16158015611997576000805461ffff19166101011790555b82516119aa906065906020860190611ae2565b5081516119be906066906020850190611ae2565b5080156106c0576000805461ff0019169055505050565b60006001600160a01b0384163b15611ad757604051630a85bd0160e11b81526001600160a01b0385169063150b7a0290611a19903390899088908890600401611fd7565b602060405180830381600087803b158015611a3357600080fd5b505af1925050508015611a63575060408051601f3d908101601f19168201909252611a6091810190611dfd565b60015b611abd573d808015611a91576040519150601f19603f3d011682016040523d82523d6000602084013e611a96565b606091505b508051611ab55760405162461bcd60e51b81526004016104c490612027565b805181602001fd5b6001600160e01b031916630a85bd0160e11b1490506110c8565b506001949350505050565b828054611aee906121bd565b90600052602060002090601f016020900481019282611b105760008555611b56565b82601f10611b2957805160ff1916838001178555611b56565b82800160010185558215611b56579182015b82811115611b56578251825591602001919060010190611b3b565b50611b62929150611b66565b5090565b5b80821115611b625760008155600101611b67565b60006001600160401b0380841115611b9557611b95612269565b604051601f8501601f19908116603f01168101908282118183101715611bbd57611bbd612269565b81604052809350858152868686011115611bd657600080fd5b858560208301376000602087830101525050509392505050565b600082601f830112611c0157600080fd5b610ef383833560208501611b7b565b600060208284031215611c2257600080fd5b8135610ef38161227f565b600060208284031215611c3f57600080fd5b8151610ef38161227f565b60008060408385031215611c5d57600080fd5b8235611c688161227f565b91506020830135611c788161227f565b809150509250929050565b600080600060608486031215611c9857600080fd5b8335611ca38161227f565b92506020840135611cb38161227f565b929592945050506040919091013590565b60008060008060808587031215611cda57600080fd5b8435611ce58161227f565b93506020850135611cf58161227f565b92506040850135915060608501356001600160401b03811115611d1757600080fd5b8501601f81018713611d2857600080fd5b611d3787823560208401611b7b565b91505092959194509250565b60008060408385031215611d5657600080fd5b8235611d618161227f565b915060208301358015158114611c7857600080fd5b60008060408385031215611d8957600080fd5b8235611d948161227f565b946020939093013593505050565b600060208284031215611db457600080fd5b5035919050565b60008060408385031215611dce57600080fd5b823591506020830135611c788161227f565b600060208284031215611df257600080fd5b8135610ef381612294565b600060208284031215611e0f57600080fd5b8151610ef381612294565b60008060408385031215611e2d57600080fd5b82356001600160401b0380821115611e4457600080fd5b611e5086838701611bf0565b93506020850135915080821115611e6657600080fd5b50611e7385828601611bf0565b9150509250929050565b600080600060608486031215611e9257600080fd5b83356001600160401b0380821115611ea957600080fd5b611eb587838801611bf0565b94506020860135915080821115611ecb57600080fd5b50611ed886828701611bf0565b9250506040840135611ee98161227f565b809150509250925092565b600060208284031215611f0657600080fd5b5051919050565b60008151808452611f2581602086016020860161217a565b601f01601f19169290920160200192915050565b60008351611f4b81846020880161217a565b835190830190611f5f81836020880161217a565b01949350505050565b76020b1b1b2b9b9a1b7b73a3937b61d1030b1b1b7bab73a1604d1b815260008351611f9a81601785016020880161217a565b7001034b99036b4b9b9b4b733903937b6329607d1b6017918401918201528351611fcb81602884016020880161217a565b01602801949350505050565b6001600160a01b038581168252841660208201526040810183905260806060820181905260009061200a90830184611f0d565b9695505050505050565b602081526000610ef36020830184611f0d565b60208082526032908201527f4552433732313a207472616e7366657220746f206e6f6e20455243373231526560408201527131b2b4bb32b91034b6b83632b6b2b73a32b960711b606082015260800190565b6020808252602e908201527f496e697469616c697a61626c653a20636f6e747261637420697320616c72656160408201526d191e481a5b9a5d1a585b1a5e995960921b606082015260800190565b60208082526031908201527f4552433732313a207472616e736665722063616c6c6572206973206e6f74206f6040820152701ddb995c881b9bdc88185c1c1c9bdd9959607a1b606082015260800190565b6000821982111561212b5761212b612227565b500190565b60008261213f5761213f61223d565b500490565b600081600019048311821515161561215e5761215e612227565b500290565b60008282101561217557612175612227565b500390565b60005b8381101561219557818101518382015260200161217d565b838111156105265750506000910152565b6000816121b5576121b5612227565b506000190190565b600181811c908216806121d157607f821691505b602082108114156121f257634e487b7160e01b600052602260045260246000fd5b50919050565b600060001982141561220c5761220c612227565b5060010190565b6000826122225761222261223d565b500690565b634e487b7160e01b600052601160045260246000fd5b634e487b7160e01b600052601260045260246000fd5b634e487b7160e01b600052603260045260246000fd5b634e487b7160e01b600052604160045260246000fd5b6001600160a01b03811681146115ea57600080fd5b6001600160e01b0319811681146115ea57600080fdfe4c7820d3324fd4d561b192bce90b13bd3340ceb966e0fa7c1e5b46c61bbf6741ddf252ad1be2c89b69c2b068fc378daa952ba7f163c4a11628f55a4df523b3efa2646970667358221220a95f1e659a48f21738e31309783f1cbcdc983fa8c6ab2445494158c6f1b692b464736f6c63430008060033",
  "immutableReferences": {},
  "source": "//SPDX-License-Identifier: MIT\npragma solidity ^0.8.0;\n\nimport \"./SingleHolderTitle.sol\";\nimport \"./VoterPool.sol\";\n\ncontract FluidVoteTitle is SingleHolderTitle {\n\n    mapping(address => address) public votes;\n    mapping(address => uint256) public voteCounts;\n    VoterPool public voters;\n\n    function initialize(string memory _title, string memory _titleAbbreviation, VoterPool _voters) public initializer{\n        SingleHolderTitle.initialize(_title, _titleAbbreviation);\n        voters = _voters;\n    }\n\n    function registerNewVoter(address voter) public {\n        votes[voter] = holder();\n        voteCounts[holder()]++;\n    }\n\n    function unregisterVoter(address voter) public {\n        voteCounts[votes[voter]]--;\n        votes[voter] = address(0);\n    }\n\n    //TODO requires to ensure fair votes\n    function voteOnTitle(address chosenAddress) public {\n        //update votes\n        voteCounts[votes[msg.sender]]--;\n        votes[msg.sender] = chosenAddress;\n        voteCounts[chosenAddress]++;\n\n        // determine winner\n        address elector;\n        uint256 electorVotes;\n        //TODO: get rid of loop\n        for (uint256 i = 0; i < voters.numVoters(); i++) { //all registered voters are eligible to be elected\n            address voter = voters.voterRegistrations(i);\n            if(voteCounts[voter] > electorVotes){ // elector has clear majority\n                elector = voter;\n                electorVotes = voteCounts[voter];\n            } else if (voteCounts[voter] == electorVotes && voter == holder()){ // elector tied but is current ruler\n                elector = voter;\n                electorVotes = voteCounts[voter];\n            }\n        }\n\n        // update title holder\n        if(elector != holder()){\n            _changeHolder(elector);\n        }\n    }\n}\n",
  "sourcePath": "/Users/tjharrison/he/catanstitution/contracts/open-orgs/FluidVoteTitle.sol",
  "compiler": {
    "name": "solc",
    "version": "0.8.6+commit.11564f7e.Emscripten.clang"
  },
  "schemaVersion": "3.4.1",
  "updatedAt": "2021-07-11T18:05:51.564Z",
  "networkType": "ethereum",
  "devdoc": {
    "kind": "dev",
    "methods": {
      "approve(address,uint256)": {
        "details": "See {IERC721-approve}."
      },
      "balanceOf(address)": {
        "details": "See {IERC721-balanceOf}."
      },
      "getApproved(uint256)": {
        "details": "See {IERC721-getApproved}."
      },
      "getRoleAdmin(bytes32)": {
        "details": "Returns the admin role that controls `role`. See {grantRole} and {revokeRole}. To change a role's admin, use {_setRoleAdmin}."
      },
      "grantRole(bytes32,address)": {
        "details": "Grants `role` to `account`. If `account` had not been already granted `role`, emits a {RoleGranted} event. Requirements: - the caller must have ``role``'s admin role."
      },
      "hasRole(bytes32,address)": {
        "details": "Returns `true` if `account` has been granted `role`."
      },
      "isApprovedForAll(address,address)": {
        "details": "See {IERC721-isApprovedForAll}."
      },
      "name()": {
        "details": "See {IERC721Metadata-name}."
      },
      "ownerOf(uint256)": {
        "details": "See {IERC721-ownerOf}."
      },
      "renounceRole(bytes32,address)": {
        "details": "Revokes `role` from the calling account. Roles are often managed via {grantRole} and {revokeRole}: this function's purpose is to provide a mechanism for accounts to lose their privileges if they are compromised (such as when a trusted device is misplaced). If the calling account had been granted `role`, emits a {RoleRevoked} event. Requirements: - the caller must be `account`."
      },
      "revokeRole(bytes32,address)": {
        "details": "Revokes `role` from `account`. If `account` had been granted `role`, emits a {RoleRevoked} event. Requirements: - the caller must have ``role``'s admin role."
      },
      "safeTransferFrom(address,address,uint256)": {
        "details": "See {IERC721-safeTransferFrom}."
      },
      "safeTransferFrom(address,address,uint256,bytes)": {
        "details": "See {IERC721-safeTransferFrom}."
      },
      "setApprovalForAll(address,bool)": {
        "details": "See {IERC721-setApprovalForAll}."
      },
      "symbol()": {
        "details": "See {IERC721Metadata-symbol}."
      },
      "tokenURI(uint256)": {
        "details": "See {IERC721Metadata-tokenURI}."
      },
      "transferFrom(address,address,uint256)": {
        "details": "See {IERC721-transferFrom}."
      }
    },
    "version": 1
  },
  "userdoc": {
    "kind": "user",
    "methods": {},
    "version": 1
  }
}