{
  "contractName": "FluidVoteTitle",
  "abi": [
    {
      "inputs": [
        {
          "internalType": "string",
          "name": "_title",
          "type": "string"
        },
        {
          "internalType": "string",
          "name": "_titleAbbreviation",
          "type": "string"
        },
        {
          "internalType": "address",
          "name": "_holder",
          "type": "address"
        },
        {
          "internalType": "contract VoterPool",
          "name": "_voters",
          "type": "address"
        },
        {
          "internalType": "address",
          "name": "_titleOperator",
          "type": "address"
        }
      ],
      "stateMutability": "nonpayable",
      "type": "constructor"
    },
    {
      "anonymous": false,
      "inputs": [
        {
          "indexed": true,
          "internalType": "address",
          "name": "owner",
          "type": "address"
        },
        {
          "indexed": true,
          "internalType": "address",
          "name": "approved",
          "type": "address"
        },
        {
          "indexed": true,
          "internalType": "uint256",
          "name": "tokenId",
          "type": "uint256"
        }
      ],
      "name": "Approval",
      "type": "event"
    },
    {
      "anonymous": false,
      "inputs": [
        {
          "indexed": true,
          "internalType": "address",
          "name": "owner",
          "type": "address"
        },
        {
          "indexed": true,
          "internalType": "address",
          "name": "operator",
          "type": "address"
        },
        {
          "indexed": false,
          "internalType": "bool",
          "name": "approved",
          "type": "bool"
        }
      ],
      "name": "ApprovalForAll",
      "type": "event"
    },
    {
      "anonymous": false,
      "inputs": [
        {
          "indexed": true,
          "internalType": "bytes32",
          "name": "role",
          "type": "bytes32"
        },
        {
          "indexed": true,
          "internalType": "bytes32",
          "name": "previousAdminRole",
          "type": "bytes32"
        },
        {
          "indexed": true,
          "internalType": "bytes32",
          "name": "newAdminRole",
          "type": "bytes32"
        }
      ],
      "name": "RoleAdminChanged",
      "type": "event"
    },
    {
      "anonymous": false,
      "inputs": [
        {
          "indexed": true,
          "internalType": "bytes32",
          "name": "role",
          "type": "bytes32"
        },
        {
          "indexed": true,
          "internalType": "address",
          "name": "account",
          "type": "address"
        },
        {
          "indexed": true,
          "internalType": "address",
          "name": "sender",
          "type": "address"
        }
      ],
      "name": "RoleGranted",
      "type": "event"
    },
    {
      "anonymous": false,
      "inputs": [
        {
          "indexed": true,
          "internalType": "bytes32",
          "name": "role",
          "type": "bytes32"
        },
        {
          "indexed": true,
          "internalType": "address",
          "name": "account",
          "type": "address"
        },
        {
          "indexed": true,
          "internalType": "address",
          "name": "sender",
          "type": "address"
        }
      ],
      "name": "RoleRevoked",
      "type": "event"
    },
    {
      "anonymous": false,
      "inputs": [
        {
          "indexed": true,
          "internalType": "address",
          "name": "from",
          "type": "address"
        },
        {
          "indexed": true,
          "internalType": "address",
          "name": "to",
          "type": "address"
        },
        {
          "indexed": true,
          "internalType": "uint256",
          "name": "tokenId",
          "type": "uint256"
        }
      ],
      "name": "Transfer",
      "type": "event"
    },
    {
      "inputs": [],
      "name": "DEFAULT_ADMIN_ROLE",
      "outputs": [
        {
          "internalType": "bytes32",
          "name": "",
          "type": "bytes32"
        }
      ],
      "stateMutability": "view",
      "type": "function"
    },
    {
      "inputs": [],
      "name": "TITLE_OPERATOR",
      "outputs": [
        {
          "internalType": "bytes32",
          "name": "",
          "type": "bytes32"
        }
      ],
      "stateMutability": "view",
      "type": "function"
    },
    {
      "inputs": [
        {
          "internalType": "address",
          "name": "to",
          "type": "address"
        },
        {
          "internalType": "uint256",
          "name": "tokenId",
          "type": "uint256"
        }
      ],
      "name": "approve",
      "outputs": [],
      "stateMutability": "nonpayable",
      "type": "function"
    },
    {
      "inputs": [
        {
          "internalType": "address",
          "name": "owner",
          "type": "address"
        }
      ],
      "name": "balanceOf",
      "outputs": [
        {
          "internalType": "uint256",
          "name": "",
          "type": "uint256"
        }
      ],
      "stateMutability": "view",
      "type": "function"
    },
    {
      "inputs": [
        {
          "internalType": "address",
          "name": "newHolder",
          "type": "address"
        }
      ],
      "name": "changeHolder",
      "outputs": [],
      "stateMutability": "nonpayable",
      "type": "function"
    },
    {
      "inputs": [
        {
          "internalType": "uint256",
          "name": "tokenId",
          "type": "uint256"
        }
      ],
      "name": "getApproved",
      "outputs": [
        {
          "internalType": "address",
          "name": "",
          "type": "address"
        }
      ],
      "stateMutability": "view",
      "type": "function"
    },
    {
      "inputs": [
        {
          "internalType": "bytes32",
          "name": "role",
          "type": "bytes32"
        }
      ],
      "name": "getRoleAdmin",
      "outputs": [
        {
          "internalType": "bytes32",
          "name": "",
          "type": "bytes32"
        }
      ],
      "stateMutability": "view",
      "type": "function"
    },
    {
      "inputs": [
        {
          "internalType": "bytes32",
          "name": "role",
          "type": "bytes32"
        },
        {
          "internalType": "address",
          "name": "account",
          "type": "address"
        }
      ],
      "name": "grantRole",
      "outputs": [],
      "stateMutability": "nonpayable",
      "type": "function"
    },
    {
      "inputs": [
        {
          "internalType": "bytes32",
          "name": "role",
          "type": "bytes32"
        },
        {
          "internalType": "address",
          "name": "account",
          "type": "address"
        }
      ],
      "name": "hasRole",
      "outputs": [
        {
          "internalType": "bool",
          "name": "",
          "type": "bool"
        }
      ],
      "stateMutability": "view",
      "type": "function"
    },
    {
      "inputs": [],
      "name": "holder",
      "outputs": [
        {
          "internalType": "address",
          "name": "",
          "type": "address"
        }
      ],
      "stateMutability": "nonpayable",
      "type": "function"
    },
    {
      "inputs": [
        {
          "internalType": "string",
          "name": "_title",
          "type": "string"
        },
        {
          "internalType": "string",
          "name": "_titleAbbreviation",
          "type": "string"
        },
        {
          "internalType": "address",
          "name": "_holder",
          "type": "address"
        },
        {
          "internalType": "address",
          "name": "_titleOperator",
          "type": "address"
        }
      ],
      "name": "initialize",
      "outputs": [],
      "stateMutability": "nonpayable",
      "type": "function"
    },
    {
      "inputs": [
        {
          "internalType": "address",
          "name": "owner",
          "type": "address"
        },
        {
          "internalType": "address",
          "name": "operator",
          "type": "address"
        }
      ],
      "name": "isApprovedForAll",
      "outputs": [
        {
          "internalType": "bool",
          "name": "",
          "type": "bool"
        }
      ],
      "stateMutability": "view",
      "type": "function"
    },
    {
      "inputs": [],
      "name": "name",
      "outputs": [
        {
          "internalType": "string",
          "name": "",
          "type": "string"
        }
      ],
      "stateMutability": "view",
      "type": "function"
    },
    {
      "inputs": [
        {
          "internalType": "uint256",
          "name": "tokenId",
          "type": "uint256"
        }
      ],
      "name": "ownerOf",
      "outputs": [
        {
          "internalType": "address",
          "name": "",
          "type": "address"
        }
      ],
      "stateMutability": "view",
      "type": "function"
    },
    {
      "inputs": [
        {
          "internalType": "bytes32",
          "name": "role",
          "type": "bytes32"
        },
        {
          "internalType": "address",
          "name": "account",
          "type": "address"
        }
      ],
      "name": "renounceRole",
      "outputs": [],
      "stateMutability": "nonpayable",
      "type": "function"
    },
    {
      "inputs": [
        {
          "internalType": "bytes32",
          "name": "role",
          "type": "bytes32"
        },
        {
          "internalType": "address",
          "name": "account",
          "type": "address"
        }
      ],
      "name": "revokeRole",
      "outputs": [],
      "stateMutability": "nonpayable",
      "type": "function"
    },
    {
      "inputs": [
        {
          "internalType": "address",
          "name": "from",
          "type": "address"
        },
        {
          "internalType": "address",
          "name": "to",
          "type": "address"
        },
        {
          "internalType": "uint256",
          "name": "tokenId",
          "type": "uint256"
        }
      ],
      "name": "safeTransferFrom",
      "outputs": [],
      "stateMutability": "nonpayable",
      "type": "function"
    },
    {
      "inputs": [
        {
          "internalType": "address",
          "name": "from",
          "type": "address"
        },
        {
          "internalType": "address",
          "name": "to",
          "type": "address"
        },
        {
          "internalType": "uint256",
          "name": "tokenId",
          "type": "uint256"
        },
        {
          "internalType": "bytes",
          "name": "_data",
          "type": "bytes"
        }
      ],
      "name": "safeTransferFrom",
      "outputs": [],
      "stateMutability": "nonpayable",
      "type": "function"
    },
    {
      "inputs": [
        {
          "internalType": "address",
          "name": "operator",
          "type": "address"
        },
        {
          "internalType": "bool",
          "name": "approved",
          "type": "bool"
        }
      ],
      "name": "setApprovalForAll",
      "outputs": [],
      "stateMutability": "nonpayable",
      "type": "function"
    },
    {
      "inputs": [
        {
          "internalType": "bytes4",
          "name": "interfaceId",
          "type": "bytes4"
        }
      ],
      "name": "supportsInterface",
      "outputs": [
        {
          "internalType": "bool",
          "name": "",
          "type": "bool"
        }
      ],
      "stateMutability": "view",
      "type": "function"
    },
    {
      "inputs": [],
      "name": "symbol",
      "outputs": [
        {
          "internalType": "string",
          "name": "",
          "type": "string"
        }
      ],
      "stateMutability": "view",
      "type": "function"
    },
    {
      "inputs": [
        {
          "internalType": "uint256",
          "name": "tokenId",
          "type": "uint256"
        }
      ],
      "name": "tokenURI",
      "outputs": [
        {
          "internalType": "string",
          "name": "",
          "type": "string"
        }
      ],
      "stateMutability": "view",
      "type": "function"
    },
    {
      "inputs": [
        {
          "internalType": "address",
          "name": "from",
          "type": "address"
        },
        {
          "internalType": "address",
          "name": "to",
          "type": "address"
        },
        {
          "internalType": "uint256",
          "name": "tokenId",
          "type": "uint256"
        }
      ],
      "name": "transferFrom",
      "outputs": [],
      "stateMutability": "nonpayable",
      "type": "function"
    },
    {
      "inputs": [
        {
          "internalType": "address",
          "name": "",
          "type": "address"
        }
      ],
      "name": "voteCounts",
      "outputs": [
        {
          "internalType": "uint256",
          "name": "",
          "type": "uint256"
        }
      ],
      "stateMutability": "view",
      "type": "function"
    },
    {
      "inputs": [],
      "name": "voters",
      "outputs": [
        {
          "internalType": "contract VoterPool",
          "name": "",
          "type": "address"
        }
      ],
      "stateMutability": "view",
      "type": "function"
    },
    {
      "inputs": [
        {
          "internalType": "address",
          "name": "",
          "type": "address"
        }
      ],
      "name": "votes",
      "outputs": [
        {
          "internalType": "address",
          "name": "",
          "type": "address"
        }
      ],
      "stateMutability": "view",
      "type": "function"
    },
    {
      "inputs": [
        {
          "internalType": "address",
          "name": "voter",
          "type": "address"
        }
      ],
      "name": "registerNewVoter",
      "outputs": [],
      "stateMutability": "nonpayable",
      "type": "function"
    },
    {
      "inputs": [
        {
          "internalType": "address",
          "name": "voter",
          "type": "address"
        }
      ],
      "name": "unregisterVoter",
      "outputs": [],
      "stateMutability": "nonpayable",
      "type": "function"
    },
    {
      "inputs": [
        {
          "internalType": "address",
          "name": "chosenAddress",
          "type": "address"
        }
      ],
      "name": "voteOnTitle",
      "outputs": [],
      "stateMutability": "nonpayable",
      "type": "function"
    }
  ],
  "bytecode": "0x60806040523480156200001157600080fd5b50604051620029cc380380620029cc833981016040819052620000349162000652565b6200004d858585846200007860201b62000b8d1760201c565b5060cb80546001600160a01b0319166001600160a01b039290921691909117905550620007dc915050565b600054610100900460ff168062000092575060005460ff16155b620000ba5760405162461bcd60e51b8152600401620000b190620006fe565b60405180910390fd5b600054610100900460ff16158015620000dd576000805461ffff19166101011790555b620000f485856200015460201b62000e9c1760201c565b62000101600083620001e8565b6200012d7f4c7820d3324fd4d561b192bce90b13bd3340ceb966e0fa7c1e5b46c61bbf674183620001e8565b6200013a836000620001f8565b80156200014d576000805461ff00191690555b5050505050565b600054610100900460ff16806200016e575060005460ff16155b6200018d5760405162461bcd60e51b8152600401620000b190620006fe565b600054610100900460ff16158015620001b0576000805461ffff19166101011790555b620001ba62000340565b620001c462000340565b620001d08383620003b2565b8015620001e3576000805461ff00191690555b505050565b620001f4828262000451565b5050565b6001600160a01b038216620002505760405162461bcd60e51b815260206004820181905260248201527f4552433732313a206d696e7420746f20746865207a65726f20616464726573736044820152606401620000b1565b6000818152606760205260409020546001600160a01b031615620002b75760405162461bcd60e51b815260206004820152601c60248201527f4552433732313a20746f6b656e20616c7265616479206d696e746564000000006044820152606401620000b1565b6001600160a01b0382166000908152606860205260408120805460019290620002e29084906200074c565b909155505060008181526067602052604080822080546001600160a01b0319166001600160a01b03861690811790915590518392907fddf252ad1be2c89b69c2b068fc378daa952ba7f163c4a11628f55a4df523b3ef908290a45050565b600054610100900460ff16806200035a575060005460ff16155b620003795760405162461bcd60e51b8152600401620000b190620006fe565b600054610100900460ff161580156200039c576000805461ffff19166101011790555b8015620003af576000805461ff00191690555b50565b600054610100900460ff1680620003cc575060005460ff16155b620003eb5760405162461bcd60e51b8152600401620000b190620006fe565b600054610100900460ff161580156200040e576000805461ffff19166101011790555b825162000423906065906020860190620004f5565b50815162000439906066906020850190620004f5565b508015620001e3576000805461ff0019169055505050565b60008281526097602090815260408083206001600160a01b038516845290915290205460ff16620001f45760008281526097602090815260408083206001600160a01b03851684529091529020805460ff19166001179055620004b13390565b6001600160a01b0316816001600160a01b0316837f2f8788117e7eff1d82e926ec794901d17c78024a50270940304540a733656f0d60405160405180910390a45050565b828054620005039062000773565b90600052602060002090601f01602090048101928262000527576000855562000572565b82601f106200054257805160ff191683800117855562000572565b8280016001018555821562000572579182015b828111156200057257825182559160200191906001019062000555565b506200058092915062000584565b5090565b5b8082111562000580576000815560010162000585565b600082601f830112620005ad57600080fd5b81516001600160401b0380821115620005ca57620005ca620007b0565b604051601f8301601f19908116603f01168101908282118183101715620005f557620005f5620007b0565b816040528381526020925086838588010111156200061257600080fd5b600091505b8382101562000636578582018301518183018401529082019062000617565b83821115620006485760008385830101525b9695505050505050565b600080600080600060a086880312156200066b57600080fd5b85516001600160401b03808211156200068357600080fd5b6200069189838a016200059b565b96506020880151915080821115620006a857600080fd5b50620006b7888289016200059b565b9450506040860151620006ca81620007c6565b6060870151909350620006dd81620007c6565b6080870151909250620006f081620007c6565b809150509295509295909350565b6020808252602e908201527f496e697469616c697a61626c653a20636f6e747261637420697320616c72656160408201526d191e481a5b9a5d1a585b1a5e995960921b606082015260800190565b600082198211156200076e57634e487b7160e01b600052601160045260246000fd5b500190565b600181811c908216806200078857607f821691505b60208210811415620007aa57634e487b7160e01b600052602260045260246000fd5b50919050565b634e487b7160e01b600052604160045260246000fd5b6001600160a01b0381168114620003af57600080fd5b6121e080620007ec6000396000f3fe608060405234801561001057600080fd5b506004361061015f5760003560e01c806301ffc9a71461016457806306fdde031461018c578063081812fc146101a1578063095ea7b3146101cc57806323b872dd146101e1578063248a9ca3146101f45780632f2ff15d146102155780633165d23314610228578063350580ea1461023b57806336568abe1461024e578063400bd1e41461026157806342842e0e146102765780635a87db75146102895780636352211e1461029c57806366a267a9146102af57806370a08231146102cf57806371a8cd3f146102e25780637ed17751146102f55780638f15b4141461030857806391d148541461031b57806395d89b411461032e578063a217fddf14610336578063a22cb4651461033e578063b88d4fde14610351578063c87b56dd14610364578063d547741f14610377578063d8bff5a51461038a578063e534155d146103b3578063e985e9c5146103bb575b600080fd5b610177610172366004611cf2565b6103ce565b60405190151581526020015b60405180910390f35b6101946103df565b6040516101839190611ed4565b6101b46101af366004611cb4565b610471565b6040516001600160a01b039091168152602001610183565b6101df6101da366004611c88565b6104fe565b005b6101df6101ef366004611b95565b61060f565b610207610202366004611cb4565b610640565b604051908152602001610183565b6101df610223366004611ccd565b610655565b6101df610236366004611b22565b610672565b60cb546101b4906001600160a01b031681565b6101df61025c366004611ccd565b6106e3565b61020760008051602061216b83398151915281565b6101df610284366004611b95565b610761565b6101df610297366004611b22565b61077c565b6101b46102aa366004611cb4565b6107b8565b6102076102bd366004611b22565b60ca6020526000908152604090205481565b6102076102dd366004611b22565b61082f565b6101df6102f0366004611b22565b6108b6565b6101df610303366004611b22565b610b2c565b6101df610316366004611d2c565b610b8d565b610177610329366004611ccd565b610c35565b610194610c60565b610207600081565b6101df61034c366004611c55565b610c6f565b6101df61035f366004611bd6565b610d30565b610194610372366004611cb4565b610d68565b6101df610385366004611ccd565b610e40565b6101b4610398366004611b22565b60c9602052600090815260409020546001600160a01b031681565b6101b4610e5d565b6101776103c9366004611b5c565b610e6e565b60006103d982610f23565b92915050565b6060606580546103ee9061207d565b80601f016020809104026020016040519081016040528092919081815260200182805461041a9061207d565b80156104675780601f1061043c57610100808354040283529160200191610467565b820191906000526020600020905b81548152906001019060200180831161044a57829003601f168201915b5050505050905090565b600061047c82610f48565b6104e25760405162461bcd60e51b815260206004820152602c60248201527f4552433732313a20617070726f76656420717565727920666f72206e6f6e657860448201526b34b9ba32b73a103a37b5b2b760a11b60648201526084015b60405180910390fd5b506000908152606960205260409020546001600160a01b031690565b6000610509826107b8565b9050806001600160a01b0316836001600160a01b031614156105775760405162461bcd60e51b815260206004820152602160248201527f4552433732313a20617070726f76616c20746f2063757272656e74206f776e656044820152603960f91b60648201526084016104d9565b336001600160a01b038216148061059357506105938133610e6e565b6106005760405162461bcd60e51b815260206004820152603860248201527f4552433732313a20617070726f76652063616c6c6572206973206e6f74206f776044820152771b995c881b9bdc88185c1c1c9bdd995908199bdc88185b1b60421b60648201526084016104d9565b61060a8383610f65565b505050565b6106193382610fd3565b6106355760405162461bcd60e51b81526004016104d990611f87565b61060a83838361109d565b60009081526097602052604090206001015490565b61065e82610640565b610668813361122b565b61060a838361128f565b61067a610e5d565b6001600160a01b03828116600090815260c96020526040812080546001600160a01b0319169390921692909217905560ca906106b4610e5d565b6001600160a01b03168152602081019190915260400160009081208054916106db836120b8565b919050555050565b6001600160a01b03811633146107535760405162461bcd60e51b815260206004820152602f60248201527f416363657373436f6e74726f6c3a2063616e206f6e6c792072656e6f756e636560448201526e103937b632b9903337b91039b2b63360891b60648201526084016104d9565b61075d8282611315565b5050565b61060a83838360405180602001604052806000815250610d30565b60008051602061216b833981519152610795813361122b565b61075d6107a0610e5d565b8360006040518060200160405280600081525061137c565b6000818152606760205260408120546001600160a01b0316806103d95760405162461bcd60e51b815260206004820152602960248201527f4552433732313a206f776e657220717565727920666f72206e6f6e657869737460448201526832b73a103a37b5b2b760b91b60648201526084016104d9565b60006001600160a01b03821661089a5760405162461bcd60e51b815260206004820152602a60248201527f4552433732313a2062616c616e636520717565727920666f7220746865207a65604482015269726f206164647265737360b01b60648201526084016104d9565b506001600160a01b031660009081526068602052604090205490565b33600090815260c960209081526040808320546001600160a01b0316835260ca90915281208054916108e783612066565b909155505033600090815260c96020908152604080832080546001600160a01b0319166001600160a01b038616908117909155835260ca909152812080549161092f836120b8565b919050555060008060005b60cb60009054906101000a90046001600160a01b03166001600160a01b0316634cbe32b86040518163ffffffff1660e01b815260040160206040518083038186803b15801561098857600080fd5b505afa15801561099c573d6000803e3d6000fd5b505050506040513d601f19601f820116820180604052508101906109c09190611db4565b811015610b025760cb546040516309fcbdd160e11b8152600481018390526000916001600160a01b0316906313f97ba29060240160206040518083038186803b158015610a0c57600080fd5b505afa158015610a20573d6000803e3d6000fd5b505050506040513d601f19601f82011682018060405250810190610a449190611b3f565b6001600160a01b038116600090815260ca6020526040902054909150831015610a8b576001600160a01b038116600090815260ca6020526040902054909350915082610aef565b6001600160a01b038116600090815260ca602052604090205483148015610aca5750610ab5610e5d565b6001600160a01b0316816001600160a01b0316145b15610aef576001600160a01b038116600090815260ca60205260409020549093509150825b5080610afa816120b8565b91505061093a565b50610b0b610e5d565b6001600160a01b0316826001600160a01b03161461060a5761060a826113af565b6001600160a01b03808216600090815260c96020908152604080832054909316825260ca9052908120805491610b6183612066565b90915550506001600160a01b0316600090815260c96020526040902080546001600160a01b0319169055565b600054610100900460ff1680610ba6575060005460ff16155b610bc25760405162461bcd60e51b81526004016104d990611f39565b600054610100900460ff16158015610be4576000805461ffff19166101011790555b610bee8585610e9c565b610bf96000836113d5565b610c1160008051602061216b833981519152836113d5565b610c1c8360006113df565b8015610c2e576000805461ff00191690555b5050505050565b60009182526097602090815260408084206001600160a01b0393909316845291905290205460ff1690565b6060606680546103ee9061207d565b6001600160a01b038216331415610cc45760405162461bcd60e51b815260206004820152601960248201527822a9219b99189d1030b8383937bb32903a379031b0b63632b960391b60448201526064016104d9565b336000818152606a602090815260408083206001600160a01b03871680855290835292819020805460ff191686151590811790915590519081529192917f17307eab39ab6107e8899845ad3d59bd9653f200f220920489ca2b5937696c31910160405180910390a35050565b610d3a3383610fd3565b610d565760405162461bcd60e51b81526004016104d990611f87565b610d628484848461137c565b50505050565b6060610d7382610f48565b610dd75760405162461bcd60e51b815260206004820152602f60248201527f4552433732314d657461646174613a2055524920717565727920666f72206e6f60448201526e3732bc34b9ba32b73a103a37b5b2b760891b60648201526084016104d9565b6000610dee60408051602081019091526000815290565b90506000815111610e0e5760405180602001604052806000815250610e39565b80610e18846114ff565b604051602001610e29929190611df9565b6040516020818303038152906040525b9392505050565b610e4982610640565b610e53813361122b565b61060a8383611315565b6000610e6960006107b8565b905090565b6001600160a01b039182166000908152606a6020908152604080832093909416825291909152205460ff1690565b600054610100900460ff1680610eb5575060005460ff16155b610ed15760405162461bcd60e51b81526004016104d990611f39565b600054610100900460ff16158015610ef3576000805461ffff19166101011790555b610efb6115fc565b610f036115fc565b610f0d8383611667565b801561060a576000805461ff0019169055505050565b60006001600160e01b03198216637965db0b60e01b14806103d957506103d9826116fc565b6000908152606760205260409020546001600160a01b0316151590565b600081815260696020526040902080546001600160a01b0319166001600160a01b0384169081179091558190610f9a826107b8565b6001600160a01b03167f8c5be1e5ebec7d5bd14f71427d1e84f3dd0314c0f7b2291e5b200ac8c7c3b92560405160405180910390a45050565b6000610fde82610f48565b61103f5760405162461bcd60e51b815260206004820152602c60248201527f4552433732313a206f70657261746f7220717565727920666f72206e6f6e657860448201526b34b9ba32b73a103a37b5b2b760a11b60648201526084016104d9565b600061104a836107b8565b9050806001600160a01b0316846001600160a01b031614806110855750836001600160a01b031661107a84610471565b6001600160a01b0316145b8061109557506110958185610e6e565b949350505050565b826001600160a01b03166110b0826107b8565b6001600160a01b0316146111185760405162461bcd60e51b815260206004820152602960248201527f4552433732313a207472616e73666572206f6620746f6b656e2074686174206960448201526839903737ba1037bbb760b91b60648201526084016104d9565b6001600160a01b03821661117a5760405162461bcd60e51b8152602060048201526024808201527f4552433732313a207472616e7366657220746f20746865207a65726f206164646044820152637265737360e01b60648201526084016104d9565b611185600082610f65565b6001600160a01b03831660009081526068602052604081208054600192906111ae908490612023565b90915550506001600160a01b03821660009081526068602052604081208054600192906111dc908490611fd8565b909155505060008181526067602052604080822080546001600160a01b0319166001600160a01b03868116918217909255915184939187169160008051602061218b83398151915291a4505050565b6112358282610c35565b61075d5761124d816001600160a01b0316601461174c565b61125883602061174c565b604051602001611269929190611e28565b60408051601f198184030181529082905262461bcd60e51b82526104d991600401611ed4565b6112998282610c35565b61075d5760008281526097602090815260408083206001600160a01b03851684529091529020805460ff191660011790556112d13390565b6001600160a01b0316816001600160a01b0316837f2f8788117e7eff1d82e926ec794901d17c78024a50270940304540a733656f0d60405160405180910390a45050565b61131f8282610c35565b1561075d5760008281526097602090815260408083206001600160a01b0385168085529252808320805460ff1916905551339285917ff6391f5c32d9c69d2a47ea670b442974b53935d1edc7fd64eb21e047a839171b9190a45050565b61138784848461109d565b611393848484846118e7565b610d625760405162461bcd60e51b81526004016104d990611ee7565b6113d26113ba610e5d565b8260006040518060200160405280600081525061137c565b50565b61075d828261128f565b6001600160a01b0382166114355760405162461bcd60e51b815260206004820181905260248201527f4552433732313a206d696e7420746f20746865207a65726f206164647265737360448201526064016104d9565b61143e81610f48565b1561148a5760405162461bcd60e51b815260206004820152601c60248201527b115490cdcc8c4e881d1bdad95b88185b1c9958591e481b5a5b9d195960221b60448201526064016104d9565b6001600160a01b03821660009081526068602052604081208054600192906114b3908490611fd8565b909155505060008181526067602052604080822080546001600160a01b0319166001600160a01b038616908117909155905183929060008051602061218b833981519152908290a45050565b6060816115235750506040805180820190915260018152600360fc1b602082015290565b8160005b811561154d5780611537816120b8565b91506115469050600a83611ff0565b9150611527565b6000816001600160401b0381111561156757611567612129565b6040519080825280601f01601f191660200182016040528015611591576020820181803683370190505b5090505b8415611095576115a6600183612023565b91506115b3600a866120d3565b6115be906030611fd8565b60f81b8183815181106115d3576115d3612113565b60200101906001600160f81b031916908160001a9053506115f5600a86611ff0565b9450611595565b600054610100900460ff1680611615575060005460ff16155b6116315760405162461bcd60e51b81526004016104d990611f39565b600054610100900460ff16158015611653576000805461ffff19166101011790555b80156113d2576000805461ff001916905550565b600054610100900460ff1680611680575060005460ff16155b61169c5760405162461bcd60e51b81526004016104d990611f39565b600054610100900460ff161580156116be576000805461ffff19166101011790555b82516116d19060659060208601906119f4565b5081516116e59060669060208501906119f4565b50801561060a576000805461ff0019169055505050565b60006001600160e01b031982166380ac58cd60e01b148061172d57506001600160e01b03198216635b5e139f60e01b145b806103d957506301ffc9a760e01b6001600160e01b03198316146103d9565b6060600061175b836002612004565b611766906002611fd8565b6001600160401b0381111561177d5761177d612129565b6040519080825280601f01601f1916602001820160405280156117a7576020820181803683370190505b509050600360fc1b816000815181106117c2576117c2612113565b60200101906001600160f81b031916908160001a905350600f60fb1b816001815181106117f1576117f1612113565b60200101906001600160f81b031916908160001a9053506000611815846002612004565b611820906001611fd8565b90505b6001811115611898576f181899199a1a9b1b9c1cb0b131b232b360811b85600f166010811061185457611854612113565b1a60f81b82828151811061186a5761186a612113565b60200101906001600160f81b031916908160001a90535060049490941c9361189181612066565b9050611823565b508315610e395760405162461bcd60e51b815260206004820181905260248201527f537472696e67733a20686578206c656e67746820696e73756666696369656e7460448201526064016104d9565b60006001600160a01b0384163b156119e957604051630a85bd0160e11b81526001600160a01b0385169063150b7a029061192b903390899088908890600401611e97565b602060405180830381600087803b15801561194557600080fd5b505af1925050508015611975575060408051601f3d908101601f1916820190925261197291810190611d0f565b60015b6119cf573d8080156119a3576040519150601f19603f3d011682016040523d82523d6000602084013e6119a8565b606091505b5080516119c75760405162461bcd60e51b81526004016104d990611ee7565b805181602001fd5b6001600160e01b031916630a85bd0160e11b149050611095565b506001949350505050565b828054611a009061207d565b90600052602060002090601f016020900481019282611a225760008555611a68565b82601f10611a3b57805160ff1916838001178555611a68565b82800160010185558215611a68579182015b82811115611a68578251825591602001919060010190611a4d565b50611a74929150611a78565b5090565b5b80821115611a745760008155600101611a79565b60006001600160401b0380841115611aa757611aa7612129565b604051601f8501601f19908116603f01168101908282118183101715611acf57611acf612129565b81604052809350858152868686011115611ae857600080fd5b858560208301376000602087830101525050509392505050565b600082601f830112611b1357600080fd5b610e3983833560208501611a8d565b600060208284031215611b3457600080fd5b8135610e398161213f565b600060208284031215611b5157600080fd5b8151610e398161213f565b60008060408385031215611b6f57600080fd5b8235611b7a8161213f565b91506020830135611b8a8161213f565b809150509250929050565b600080600060608486031215611baa57600080fd5b8335611bb58161213f565b92506020840135611bc58161213f565b929592945050506040919091013590565b60008060008060808587031215611bec57600080fd5b8435611bf78161213f565b93506020850135611c078161213f565b92506040850135915060608501356001600160401b03811115611c2957600080fd5b8501601f81018713611c3a57600080fd5b611c4987823560208401611a8d565b91505092959194509250565b60008060408385031215611c6857600080fd5b8235611c738161213f565b915060208301358015158114611b8a57600080fd5b60008060408385031215611c9b57600080fd5b8235611ca68161213f565b946020939093013593505050565b600060208284031215611cc657600080fd5b5035919050565b60008060408385031215611ce057600080fd5b823591506020830135611b8a8161213f565b600060208284031215611d0457600080fd5b8135610e3981612154565b600060208284031215611d2157600080fd5b8151610e3981612154565b60008060008060808587031215611d4257600080fd5b84356001600160401b0380821115611d5957600080fd5b611d6588838901611b02565b95506020870135915080821115611d7b57600080fd5b50611d8887828801611b02565b9350506040850135611d998161213f565b91506060850135611da98161213f565b939692955090935050565b600060208284031215611dc657600080fd5b5051919050565b60008151808452611de581602086016020860161203a565b601f01601f19169290920160200192915050565b60008351611e0b81846020880161203a565b835190830190611e1f81836020880161203a565b01949350505050565b76020b1b1b2b9b9a1b7b73a3937b61d1030b1b1b7bab73a1604d1b815260008351611e5a81601785016020880161203a565b7001034b99036b4b9b9b4b733903937b6329607d1b6017918401918201528351611e8b81602884016020880161203a565b01602801949350505050565b6001600160a01b0385811682528416602082015260408101839052608060608201819052600090611eca90830184611dcd565b9695505050505050565b602081526000610e396020830184611dcd565b60208082526032908201527f4552433732313a207472616e7366657220746f206e6f6e20455243373231526560408201527131b2b4bb32b91034b6b83632b6b2b73a32b960711b606082015260800190565b6020808252602e908201527f496e697469616c697a61626c653a20636f6e747261637420697320616c72656160408201526d191e481a5b9a5d1a585b1a5e995960921b606082015260800190565b60208082526031908201527f4552433732313a207472616e736665722063616c6c6572206973206e6f74206f6040820152701ddb995c881b9bdc88185c1c1c9bdd9959607a1b606082015260800190565b60008219821115611feb57611feb6120e7565b500190565b600082611fff57611fff6120fd565b500490565b600081600019048311821515161561201e5761201e6120e7565b500290565b600082821015612035576120356120e7565b500390565b60005b8381101561205557818101518382015260200161203d565b83811115610d625750506000910152565b600081612075576120756120e7565b506000190190565b600181811c9082168061209157607f821691505b602082108114156120b257634e487b7160e01b600052602260045260246000fd5b50919050565b60006000198214156120cc576120cc6120e7565b5060010190565b6000826120e2576120e26120fd565b500690565b634e487b7160e01b600052601160045260246000fd5b634e487b7160e01b600052601260045260246000fd5b634e487b7160e01b600052603260045260246000fd5b634e487b7160e01b600052604160045260246000fd5b6001600160a01b03811681146113d257600080fd5b6001600160e01b0319811681146113d257600080fdfe4c7820d3324fd4d561b192bce90b13bd3340ceb966e0fa7c1e5b46c61bbf6741ddf252ad1be2c89b69c2b068fc378daa952ba7f163c4a11628f55a4df523b3efa264697066735822122053d8aa25f57c3a80bcbcac29a818282fb42740121870d14c19cfc74abf696b0264736f6c63430008060033",
  "immutableReferences": {},
  "source": "//SPDX-License-Identifier: MIT\npragma solidity ^0.8.0;\n\nimport \"./SingleHolderTitle.sol\";\nimport \"./VoterPool.sol\";\n\ncontract FluidVoteTitle is SingleHolderTitle {\n\n    mapping(address => address) public votes;\n    mapping(address => uint256) public voteCounts;\n    VoterPool public voters;\n\n    constructor (string memory _title, string memory _titleAbbreviation, address _holder, VoterPool _voters, address _titleOperator) {\n        SingleHolderTitle.initialize(_title, _titleAbbreviation, _holder, _titleOperator);\n        voters = _voters;\n    }\n\n    function registerNewVoter(address voter) public {\n        votes[voter] = holder();\n        voteCounts[holder()]++;\n    }\n\n    function unregisterVoter(address voter) public {\n        voteCounts[votes[voter]]--;\n        votes[voter] = address(0);\n    }\n\n    //TODO requires to ensure fair votes\n    function voteOnTitle(address chosenAddress) public {\n        //update votes\n        voteCounts[votes[msg.sender]]--;\n        votes[msg.sender] = chosenAddress;\n        voteCounts[chosenAddress]++;\n\n        // determine winner\n        address elector;\n        uint256 electorVotes;\n        //TODO: get rid of loop\n        for (uint256 i = 0; i < voters.numVoters(); i++) { //all registered voters are eligible to be elected\n            address voter = voters.voterRegistrations(i);\n            if(voteCounts[voter] > electorVotes){ // elector has clear majority\n                elector = voter;\n                electorVotes = voteCounts[voter];\n            } else if (voteCounts[voter] == electorVotes && voter == holder()){ // elector tied but is current ruler\n                elector = voter;\n                electorVotes = voteCounts[voter];\n            }\n        }\n\n        // update title holder\n        if(elector != holder()){\n            _changeHolder(elector);\n        }\n    }\n}\n",
  "sourcePath": "/Users/tjharrison/catanstitution/contracts/open-orgs-v2/FluidVoteTitle.sol",
  "compiler": {
    "name": "solc",
    "version": "0.8.6+commit.11564f7e.Emscripten.clang"
  },
  "schemaVersion": "3.4.1",
  "updatedAt": "2021-07-10T17:26:07.548Z",
  "devdoc": {
    "kind": "dev",
    "methods": {
      "approve(address,uint256)": {
        "details": "See {IERC721-approve}."
      },
      "balanceOf(address)": {
        "details": "See {IERC721-balanceOf}."
      },
      "getApproved(uint256)": {
        "details": "See {IERC721-getApproved}."
      },
      "getRoleAdmin(bytes32)": {
        "details": "Returns the admin role that controls `role`. See {grantRole} and {revokeRole}. To change a role's admin, use {_setRoleAdmin}."
      },
      "grantRole(bytes32,address)": {
        "details": "Grants `role` to `account`. If `account` had not been already granted `role`, emits a {RoleGranted} event. Requirements: - the caller must have ``role``'s admin role."
      },
      "hasRole(bytes32,address)": {
        "details": "Returns `true` if `account` has been granted `role`."
      },
      "isApprovedForAll(address,address)": {
        "details": "See {IERC721-isApprovedForAll}."
      },
      "name()": {
        "details": "See {IERC721Metadata-name}."
      },
      "ownerOf(uint256)": {
        "details": "See {IERC721-ownerOf}."
      },
      "renounceRole(bytes32,address)": {
        "details": "Revokes `role` from the calling account. Roles are often managed via {grantRole} and {revokeRole}: this function's purpose is to provide a mechanism for accounts to lose their privileges if they are compromised (such as when a trusted device is misplaced). If the calling account had been granted `role`, emits a {RoleRevoked} event. Requirements: - the caller must be `account`."
      },
      "revokeRole(bytes32,address)": {
        "details": "Revokes `role` from `account`. If `account` had been granted `role`, emits a {RoleRevoked} event. Requirements: - the caller must have ``role``'s admin role."
      },
      "safeTransferFrom(address,address,uint256)": {
        "details": "See {IERC721-safeTransferFrom}."
      },
      "safeTransferFrom(address,address,uint256,bytes)": {
        "details": "See {IERC721-safeTransferFrom}."
      },
      "setApprovalForAll(address,bool)": {
        "details": "See {IERC721-setApprovalForAll}."
      },
      "symbol()": {
        "details": "See {IERC721Metadata-symbol}."
      },
      "tokenURI(uint256)": {
        "details": "See {IERC721Metadata-tokenURI}."
      },
      "transferFrom(address,address,uint256)": {
        "details": "See {IERC721-transferFrom}."
      }
    },
    "version": 1
  },
  "userdoc": {
    "kind": "user",
    "methods": {},
    "version": 1
  }
}