{
  "contractName": "SingleHolderTitleV1",
  "abi": [
    {
      "inputs": [],
      "name": "holder",
      "outputs": [
        {
          "internalType": "address",
          "name": "",
          "type": "address"
        }
      ],
      "stateMutability": "view",
      "type": "function"
    },
    {
      "inputs": [],
      "name": "title",
      "outputs": [
        {
          "internalType": "string",
          "name": "",
          "type": "string"
        }
      ],
      "stateMutability": "view",
      "type": "function"
    },
    {
      "inputs": [
        {
          "internalType": "string",
          "name": "_title",
          "type": "string"
        },
        {
          "internalType": "address",
          "name": "_holder",
          "type": "address"
        }
      ],
      "name": "initialize",
      "outputs": [],
      "stateMutability": "nonpayable",
      "type": "function"
    }
  ],
  "bytecode": "0x608060405234801561001057600080fd5b5061046c806100206000396000f3fe608060405234801561001057600080fd5b50600436106100415760003560e01c80634a79d50c146100465780637ab4339d14610064578063e534155d14610079575b600080fd5b61004e6100a4565b60405161005b9190610390565b60405180910390f35b6100776100723660046102cf565b610132565b005b60025461008c906001600160a01b031681565b6040516001600160a01b03909116815260200161005b565b600180546100b1906103e5565b80601f01602080910402602001604051908101604052809291908181526020018280546100dd906103e5565b801561012a5780601f106100ff5761010080835404028352916020019161012a565b820191906000526020600020905b81548152906001019060200180831161010d57829003601f168201915b505050505081565b600054610100900460ff168061014b575060005460ff16155b6101b25760405162461bcd60e51b815260206004820152602e60248201527f496e697469616c697a61626c653a20636f6e747261637420697320616c72656160448201526d191e481a5b9a5d1a585b1a5e995960921b606482015260840160405180910390fd5b600054610100900460ff161580156101d4576000805461ffff19166101011790555b82516101e790600190602086019061021a565b50600280546001600160a01b0319166001600160a01b0384161790558015610215576000805461ff00191690555b505050565b828054610226906103e5565b90600052602060002090601f016020900481019282610248576000855561028e565b82601f1061026157805160ff191683800117855561028e565b8280016001018555821561028e579182015b8281111561028e578251825591602001919060010190610273565b5061029a92915061029e565b5090565b5b8082111561029a576000815560010161029f565b80356001600160a01b03811681146102ca57600080fd5b919050565b600080604083850312156102e257600080fd5b82356001600160401b03808211156102f957600080fd5b818501915085601f83011261030d57600080fd5b81358181111561031f5761031f610420565b604051601f8201601f19908116603f0116810190838211818310171561034757610347610420565b8160405282815288602084870101111561036057600080fd5b826020860160208301376000602084830101528096505050505050610387602084016102b3565b90509250929050565b600060208083528351808285015260005b818110156103bd578581018301518582016040015282016103a1565b818111156103cf576000604083870101525b50601f01601f1916929092016040019392505050565b600181811c908216806103f957607f821691505b6020821081141561041a57634e487b7160e01b600052602260045260246000fd5b50919050565b634e487b7160e01b600052604160045260246000fdfea26469706673582212208948df360f633ffbf1545484b0b98d6ba9aeecbdb2260601b9c5bc405dc2a5be64736f6c63430008060033",
  "immutableReferences": {},
  "source": "//SPDX-License-Identifier: MIT\npragma solidity ^0.8.0;\n\nimport \"@openzeppelin/contracts-upgradeable/proxy/utils/Initializable.sol\";\n\n//TODO: make ERC721 - upon init grant approval to contract creator (should be another contract)\n//TODO: remove ability to revoke approval to contract creator\n//TODO: function to update holder that also transfers the token, must be contract creator\ncontract SingleHolderTitleV1 is Initializable {\n    string public title;\n    address public holder;\n\n    function initialize(string memory _title, address _holder) public initializer {\n        title = _title;\n        holder = _holder;\n    }\n}\n",
  "sourcePath": "/Users/tjharrison/catanstitution/contracts/open-orgs/SingleHolderTitleV1.sol",
  "compiler": {
    "name": "solc",
    "version": "0.8.6+commit.11564f7e.Emscripten.clang"
  },
  "schemaVersion": "3.4.1",
  "updatedAt": "2021-07-10T17:26:07.600Z",
  "devdoc": {
    "kind": "dev",
    "methods": {},
    "version": 1
  },
  "userdoc": {
    "kind": "user",
    "methods": {},
    "version": 1
  }
}