{
  "contractName": "SingleHolderTitle",
  "abi": [
    {
      "anonymous": false,
      "inputs": [
        {
          "indexed": true,
          "internalType": "address",
          "name": "owner",
          "type": "address"
        },
        {
          "indexed": true,
          "internalType": "address",
          "name": "approved",
          "type": "address"
        },
        {
          "indexed": true,
          "internalType": "uint256",
          "name": "tokenId",
          "type": "uint256"
        }
      ],
      "name": "Approval",
      "type": "event"
    },
    {
      "anonymous": false,
      "inputs": [
        {
          "indexed": true,
          "internalType": "address",
          "name": "owner",
          "type": "address"
        },
        {
          "indexed": true,
          "internalType": "address",
          "name": "operator",
          "type": "address"
        },
        {
          "indexed": false,
          "internalType": "bool",
          "name": "approved",
          "type": "bool"
        }
      ],
      "name": "ApprovalForAll",
      "type": "event"
    },
    {
      "anonymous": false,
      "inputs": [
        {
          "indexed": true,
          "internalType": "bytes32",
          "name": "role",
          "type": "bytes32"
        },
        {
          "indexed": true,
          "internalType": "bytes32",
          "name": "previousAdminRole",
          "type": "bytes32"
        },
        {
          "indexed": true,
          "internalType": "bytes32",
          "name": "newAdminRole",
          "type": "bytes32"
        }
      ],
      "name": "RoleAdminChanged",
      "type": "event"
    },
    {
      "anonymous": false,
      "inputs": [
        {
          "indexed": true,
          "internalType": "bytes32",
          "name": "role",
          "type": "bytes32"
        },
        {
          "indexed": true,
          "internalType": "address",
          "name": "account",
          "type": "address"
        },
        {
          "indexed": true,
          "internalType": "address",
          "name": "sender",
          "type": "address"
        }
      ],
      "name": "RoleGranted",
      "type": "event"
    },
    {
      "anonymous": false,
      "inputs": [
        {
          "indexed": true,
          "internalType": "bytes32",
          "name": "role",
          "type": "bytes32"
        },
        {
          "indexed": true,
          "internalType": "address",
          "name": "account",
          "type": "address"
        },
        {
          "indexed": true,
          "internalType": "address",
          "name": "sender",
          "type": "address"
        }
      ],
      "name": "RoleRevoked",
      "type": "event"
    },
    {
      "anonymous": false,
      "inputs": [
        {
          "indexed": true,
          "internalType": "address",
          "name": "from",
          "type": "address"
        },
        {
          "indexed": true,
          "internalType": "address",
          "name": "to",
          "type": "address"
        },
        {
          "indexed": true,
          "internalType": "uint256",
          "name": "tokenId",
          "type": "uint256"
        }
      ],
      "name": "Transfer",
      "type": "event"
    },
    {
      "inputs": [],
      "name": "DEFAULT_ADMIN_ROLE",
      "outputs": [
        {
          "internalType": "bytes32",
          "name": "",
          "type": "bytes32"
        }
      ],
      "stateMutability": "view",
      "type": "function"
    },
    {
      "inputs": [],
      "name": "TITLE_OPERATOR",
      "outputs": [
        {
          "internalType": "bytes32",
          "name": "",
          "type": "bytes32"
        }
      ],
      "stateMutability": "view",
      "type": "function"
    },
    {
      "inputs": [
        {
          "internalType": "address",
          "name": "to",
          "type": "address"
        },
        {
          "internalType": "uint256",
          "name": "tokenId",
          "type": "uint256"
        }
      ],
      "name": "approve",
      "outputs": [],
      "stateMutability": "nonpayable",
      "type": "function"
    },
    {
      "inputs": [
        {
          "internalType": "address",
          "name": "owner",
          "type": "address"
        }
      ],
      "name": "balanceOf",
      "outputs": [
        {
          "internalType": "uint256",
          "name": "",
          "type": "uint256"
        }
      ],
      "stateMutability": "view",
      "type": "function"
    },
    {
      "inputs": [
        {
          "internalType": "uint256",
          "name": "tokenId",
          "type": "uint256"
        }
      ],
      "name": "getApproved",
      "outputs": [
        {
          "internalType": "address",
          "name": "",
          "type": "address"
        }
      ],
      "stateMutability": "view",
      "type": "function"
    },
    {
      "inputs": [
        {
          "internalType": "bytes32",
          "name": "role",
          "type": "bytes32"
        }
      ],
      "name": "getRoleAdmin",
      "outputs": [
        {
          "internalType": "bytes32",
          "name": "",
          "type": "bytes32"
        }
      ],
      "stateMutability": "view",
      "type": "function"
    },
    {
      "inputs": [
        {
          "internalType": "bytes32",
          "name": "role",
          "type": "bytes32"
        },
        {
          "internalType": "address",
          "name": "account",
          "type": "address"
        }
      ],
      "name": "grantRole",
      "outputs": [],
      "stateMutability": "nonpayable",
      "type": "function"
    },
    {
      "inputs": [
        {
          "internalType": "bytes32",
          "name": "role",
          "type": "bytes32"
        },
        {
          "internalType": "address",
          "name": "account",
          "type": "address"
        }
      ],
      "name": "hasRole",
      "outputs": [
        {
          "internalType": "bool",
          "name": "",
          "type": "bool"
        }
      ],
      "stateMutability": "view",
      "type": "function"
    },
    {
      "inputs": [
        {
          "internalType": "address",
          "name": "owner",
          "type": "address"
        },
        {
          "internalType": "address",
          "name": "operator",
          "type": "address"
        }
      ],
      "name": "isApprovedForAll",
      "outputs": [
        {
          "internalType": "bool",
          "name": "",
          "type": "bool"
        }
      ],
      "stateMutability": "view",
      "type": "function"
    },
    {
      "inputs": [],
      "name": "name",
      "outputs": [
        {
          "internalType": "string",
          "name": "",
          "type": "string"
        }
      ],
      "stateMutability": "view",
      "type": "function"
    },
    {
      "inputs": [
        {
          "internalType": "uint256",
          "name": "tokenId",
          "type": "uint256"
        }
      ],
      "name": "ownerOf",
      "outputs": [
        {
          "internalType": "address",
          "name": "",
          "type": "address"
        }
      ],
      "stateMutability": "view",
      "type": "function"
    },
    {
      "inputs": [
        {
          "internalType": "bytes32",
          "name": "role",
          "type": "bytes32"
        },
        {
          "internalType": "address",
          "name": "account",
          "type": "address"
        }
      ],
      "name": "renounceRole",
      "outputs": [],
      "stateMutability": "nonpayable",
      "type": "function"
    },
    {
      "inputs": [
        {
          "internalType": "bytes32",
          "name": "role",
          "type": "bytes32"
        },
        {
          "internalType": "address",
          "name": "account",
          "type": "address"
        }
      ],
      "name": "revokeRole",
      "outputs": [],
      "stateMutability": "nonpayable",
      "type": "function"
    },
    {
      "inputs": [
        {
          "internalType": "address",
          "name": "from",
          "type": "address"
        },
        {
          "internalType": "address",
          "name": "to",
          "type": "address"
        },
        {
          "internalType": "uint256",
          "name": "tokenId",
          "type": "uint256"
        }
      ],
      "name": "safeTransferFrom",
      "outputs": [],
      "stateMutability": "nonpayable",
      "type": "function"
    },
    {
      "inputs": [
        {
          "internalType": "address",
          "name": "from",
          "type": "address"
        },
        {
          "internalType": "address",
          "name": "to",
          "type": "address"
        },
        {
          "internalType": "uint256",
          "name": "tokenId",
          "type": "uint256"
        },
        {
          "internalType": "bytes",
          "name": "_data",
          "type": "bytes"
        }
      ],
      "name": "safeTransferFrom",
      "outputs": [],
      "stateMutability": "nonpayable",
      "type": "function"
    },
    {
      "inputs": [
        {
          "internalType": "address",
          "name": "operator",
          "type": "address"
        },
        {
          "internalType": "bool",
          "name": "approved",
          "type": "bool"
        }
      ],
      "name": "setApprovalForAll",
      "outputs": [],
      "stateMutability": "nonpayable",
      "type": "function"
    },
    {
      "inputs": [],
      "name": "symbol",
      "outputs": [
        {
          "internalType": "string",
          "name": "",
          "type": "string"
        }
      ],
      "stateMutability": "view",
      "type": "function"
    },
    {
      "inputs": [
        {
          "internalType": "uint256",
          "name": "tokenId",
          "type": "uint256"
        }
      ],
      "name": "tokenURI",
      "outputs": [
        {
          "internalType": "string",
          "name": "",
          "type": "string"
        }
      ],
      "stateMutability": "view",
      "type": "function"
    },
    {
      "inputs": [
        {
          "internalType": "address",
          "name": "from",
          "type": "address"
        },
        {
          "internalType": "address",
          "name": "to",
          "type": "address"
        },
        {
          "internalType": "uint256",
          "name": "tokenId",
          "type": "uint256"
        }
      ],
      "name": "transferFrom",
      "outputs": [],
      "stateMutability": "nonpayable",
      "type": "function"
    },
    {
      "inputs": [
        {
          "internalType": "string",
          "name": "_title",
          "type": "string"
        },
        {
          "internalType": "string",
          "name": "_titleAbbreviation",
          "type": "string"
        },
        {
          "internalType": "address",
          "name": "_holder",
          "type": "address"
        },
        {
          "internalType": "address",
          "name": "_titleOperator",
          "type": "address"
        }
      ],
      "name": "initialize",
      "outputs": [],
      "stateMutability": "nonpayable",
      "type": "function"
    },
    {
      "inputs": [
        {
          "internalType": "bytes4",
          "name": "interfaceId",
          "type": "bytes4"
        }
      ],
      "name": "supportsInterface",
      "outputs": [
        {
          "internalType": "bool",
          "name": "",
          "type": "bool"
        }
      ],
      "stateMutability": "view",
      "type": "function"
    },
    {
      "inputs": [
        {
          "internalType": "address",
          "name": "newHolder",
          "type": "address"
        }
      ],
      "name": "changeHolder",
      "outputs": [],
      "stateMutability": "nonpayable",
      "type": "function"
    },
    {
      "inputs": [],
      "name": "holder",
      "outputs": [
        {
          "internalType": "address",
          "name": "",
          "type": "address"
        }
      ],
      "stateMutability": "nonpayable",
      "type": "function"
    }
  ],
  "bytecode": "0x608060405234801561001057600080fd5b50611d5d806100206000396000f3fe608060405234801561001057600080fd5b506004361061011d5760003560e01c806301ffc9a71461012257806306fdde031461014a578063081812fc1461015f578063095ea7b31461018a57806323b872dd1461019f578063248a9ca3146101b25780632f2ff15d146101d357806336568abe146101e6578063400bd1e4146101f957806342842e0e1461020e5780635a87db75146102215780636352211e1461023457806370a08231146102475780638f15b4141461025a57806391d148541461026d57806395d89b4114610280578063a217fddf14610288578063a22cb46514610290578063b88d4fde146102a3578063c87b56dd146102b6578063d547741f146102c9578063e534155d146102dc578063e985e9c5146102e4575b600080fd5b6101356101303660046118a1565b6102f7565b60405190151581526020015b60405180910390f35b610152610308565b6040516101419190611a66565b61017261016d366004611865565b61039a565b6040516001600160a01b039091168152602001610141565b61019d61019836600461183b565b610427565b005b61019d6101ad366004611748565b610538565b6101c56101c0366004611865565b610569565b604051908152602001610141565b61019d6101e136600461187e565b61057e565b61019d6101f436600461187e565b61059b565b6101c5600080516020611ce883398151915281565b61019d61021c366004611748565b610619565b61019d61022f3660046116fa565b610634565b610172610242366004611865565b610670565b6101c56102553660046116fa565b6106e7565b61019d6102683660046118db565b61076e565b61013561027b36600461187e565b610816565b610152610841565b6101c5600081565b61019d61029e3660046117ff565b610850565b61019d6102b1366004611784565b610911565b6101526102c4366004611865565b610949565b61019d6102d736600461187e565b610a21565b610172610a3e565b6101356102f2366004611715565b610a4f565b600061030282610a7d565b92915050565b60606065805461031790611c0f565b80601f016020809104026020016040519081016040528092919081815260200182805461034390611c0f565b80156103905780601f1061036557610100808354040283529160200191610390565b820191906000526020600020905b81548152906001019060200180831161037357829003601f168201915b5050505050905090565b60006103a582610aa2565b61040b5760405162461bcd60e51b815260206004820152602c60248201527f4552433732313a20617070726f76656420717565727920666f72206e6f6e657860448201526b34b9ba32b73a103a37b5b2b760a11b60648201526084015b60405180910390fd5b506000908152606960205260409020546001600160a01b031690565b600061043282610670565b9050806001600160a01b0316836001600160a01b031614156104a05760405162461bcd60e51b815260206004820152602160248201527f4552433732313a20617070726f76616c20746f2063757272656e74206f776e656044820152603960f91b6064820152608401610402565b336001600160a01b03821614806104bc57506104bc8133610a4f565b6105295760405162461bcd60e51b815260206004820152603860248201527f4552433732313a20617070726f76652063616c6c6572206973206e6f74206f776044820152771b995c881b9bdc88185c1c1c9bdd995908199bdc88185b1b60421b6064820152608401610402565b6105338383610abf565b505050565b6105423382610b2d565b61055e5760405162461bcd60e51b815260040161040290611b19565b610533838383610bf7565b60009081526097602052604090206001015490565b61058782610569565b6105918133610d85565b6105338383610de9565b6001600160a01b038116331461060b5760405162461bcd60e51b815260206004820152602f60248201527f416363657373436f6e74726f6c3a2063616e206f6e6c792072656e6f756e636560448201526e103937b632b9903337b91039b2b63360891b6064820152608401610402565b6106158282610e6f565b5050565b61053383838360405180602001604052806000815250610911565b600080516020611ce883398151915261064d8133610d85565b610615610658610a3e565b83600060405180602001604052806000815250610ed6565b6000818152606760205260408120546001600160a01b0316806103025760405162461bcd60e51b815260206004820152602960248201527f4552433732313a206f776e657220717565727920666f72206e6f6e657869737460448201526832b73a103a37b5b2b760b91b6064820152608401610402565b60006001600160a01b0382166107525760405162461bcd60e51b815260206004820152602a60248201527f4552433732313a2062616c616e636520717565727920666f7220746865207a65604482015269726f206164647265737360b01b6064820152608401610402565b506001600160a01b031660009081526068602052604090205490565b600054610100900460ff1680610787575060005460ff16155b6107a35760405162461bcd60e51b815260040161040290611acb565b600054610100900460ff161580156107c5576000805461ffff19166101011790555b6107cf8585610f09565b6107da600083610f90565b6107f2600080516020611ce883398151915283610f90565b6107fd836000610f9a565b801561080f576000805461ff00191690555b5050505050565b60009182526097602090815260408084206001600160a01b0393909316845291905290205460ff1690565b60606066805461031790611c0f565b6001600160a01b0382163314156108a55760405162461bcd60e51b815260206004820152601960248201527822a9219b99189d1030b8383937bb32903a379031b0b63632b960391b6044820152606401610402565b336000818152606a602090815260408083206001600160a01b03871680855290835292819020805460ff191686151590811790915590519081529192917f17307eab39ab6107e8899845ad3d59bd9653f200f220920489ca2b5937696c31910160405180910390a35050565b61091b3383610b2d565b6109375760405162461bcd60e51b815260040161040290611b19565b61094384848484610ed6565b50505050565b606061095482610aa2565b6109b85760405162461bcd60e51b815260206004820152602f60248201527f4552433732314d657461646174613a2055524920717565727920666f72206e6f60448201526e3732bc34b9ba32b73a103a37b5b2b760891b6064820152608401610402565b60006109cf60408051602081019091526000815290565b905060008151116109ef5760405180602001604052806000815250610a1a565b806109f9846110ba565b604051602001610a0a92919061198b565b6040516020818303038152906040525b9392505050565b610a2a82610569565b610a348133610d85565b6105338383610e6f565b6000610a4a6000610670565b905090565b6001600160a01b039182166000908152606a6020908152604080832093909416825291909152205460ff1690565b60006001600160e01b03198216637965db0b60e01b14806103025750610302826111b7565b6000908152606760205260409020546001600160a01b0316151590565b600081815260696020526040902080546001600160a01b0319166001600160a01b0384169081179091558190610af482610670565b6001600160a01b03167f8c5be1e5ebec7d5bd14f71427d1e84f3dd0314c0f7b2291e5b200ac8c7c3b92560405160405180910390a45050565b6000610b3882610aa2565b610b995760405162461bcd60e51b815260206004820152602c60248201527f4552433732313a206f70657261746f7220717565727920666f72206e6f6e657860448201526b34b9ba32b73a103a37b5b2b760a11b6064820152608401610402565b6000610ba483610670565b9050806001600160a01b0316846001600160a01b03161480610bdf5750836001600160a01b0316610bd48461039a565b6001600160a01b0316145b80610bef5750610bef8185610a4f565b949350505050565b826001600160a01b0316610c0a82610670565b6001600160a01b031614610c725760405162461bcd60e51b815260206004820152602960248201527f4552433732313a207472616e73666572206f6620746f6b656e2074686174206960448201526839903737ba1037bbb760b91b6064820152608401610402565b6001600160a01b038216610cd45760405162461bcd60e51b8152602060048201526024808201527f4552433732313a207472616e7366657220746f20746865207a65726f206164646044820152637265737360e01b6064820152608401610402565b610cdf600082610abf565b6001600160a01b0383166000908152606860205260408120805460019290610d08908490611bb5565b90915550506001600160a01b0382166000908152606860205260408120805460019290610d36908490611b6a565b909155505060008181526067602052604080822080546001600160a01b0319166001600160a01b038681169182179092559151849391871691600080516020611d0883398151915291a4505050565b610d8f8282610816565b61061557610da7816001600160a01b03166014611207565b610db2836020611207565b604051602001610dc39291906119ba565b60408051601f198184030181529082905262461bcd60e51b825261040291600401611a66565b610df38282610816565b6106155760008281526097602090815260408083206001600160a01b03851684529091529020805460ff19166001179055610e2b3390565b6001600160a01b0316816001600160a01b0316837f2f8788117e7eff1d82e926ec794901d17c78024a50270940304540a733656f0d60405160405180910390a45050565b610e798282610816565b156106155760008281526097602090815260408083206001600160a01b0385168085529252808320805460ff1916905551339285917ff6391f5c32d9c69d2a47ea670b442974b53935d1edc7fd64eb21e047a839171b9190a45050565b610ee1848484610bf7565b610eed848484846113a2565b6109435760405162461bcd60e51b815260040161040290611a79565b600054610100900460ff1680610f22575060005460ff16155b610f3e5760405162461bcd60e51b815260040161040290611acb565b600054610100900460ff16158015610f60576000805461ffff19166101011790555b610f686114af565b610f706114af565b610f7a838361151b565b8015610533576000805461ff0019169055505050565b6106158282610de9565b6001600160a01b038216610ff05760405162461bcd60e51b815260206004820181905260248201527f4552433732313a206d696e7420746f20746865207a65726f20616464726573736044820152606401610402565b610ff981610aa2565b156110455760405162461bcd60e51b815260206004820152601c60248201527b115490cdcc8c4e881d1bdad95b88185b1c9958591e481b5a5b9d195960221b6044820152606401610402565b6001600160a01b038216600090815260686020526040812080546001929061106e908490611b6a565b909155505060008181526067602052604080822080546001600160a01b0319166001600160a01b0386169081179091559051839290600080516020611d08833981519152908290a45050565b6060816110de5750506040805180820190915260018152600360fc1b602082015290565b8160005b811561110857806110f281611c4a565b91506111019050600a83611b82565b91506110e2565b6000816001600160401b0381111561112257611122611cbb565b6040519080825280601f01601f19166020018201604052801561114c576020820181803683370190505b5090505b8415610bef57611161600183611bb5565b915061116e600a86611c65565b611179906030611b6a565b60f81b81838151811061118e5761118e611ca5565b60200101906001600160f81b031916908160001a9053506111b0600a86611b82565b9450611150565b60006001600160e01b031982166380ac58cd60e01b14806111e857506001600160e01b03198216635b5e139f60e01b145b8061030257506301ffc9a760e01b6001600160e01b0319831614610302565b60606000611216836002611b96565b611221906002611b6a565b6001600160401b0381111561123857611238611cbb565b6040519080825280601f01601f191660200182016040528015611262576020820181803683370190505b509050600360fc1b8160008151811061127d5761127d611ca5565b60200101906001600160f81b031916908160001a905350600f60fb1b816001815181106112ac576112ac611ca5565b60200101906001600160f81b031916908160001a90535060006112d0846002611b96565b6112db906001611b6a565b90505b6001811115611353576f181899199a1a9b1b9c1cb0b131b232b360811b85600f166010811061130f5761130f611ca5565b1a60f81b82828151811061132557611325611ca5565b60200101906001600160f81b031916908160001a90535060049490941c9361134c81611bf8565b90506112de565b508315610a1a5760405162461bcd60e51b815260206004820181905260248201527f537472696e67733a20686578206c656e67746820696e73756666696369656e746044820152606401610402565b60006001600160a01b0384163b156114a457604051630a85bd0160e11b81526001600160a01b0385169063150b7a02906113e6903390899088908890600401611a29565b602060405180830381600087803b15801561140057600080fd5b505af1925050508015611430575060408051601f3d908101601f1916820190925261142d918101906118be565b60015b61148a573d80801561145e576040519150601f19603f3d011682016040523d82523d6000602084013e611463565b606091505b5080516114825760405162461bcd60e51b815260040161040290611a79565b805181602001fd5b6001600160e01b031916630a85bd0160e11b149050610bef565b506001949350505050565b600054610100900460ff16806114c8575060005460ff16155b6114e45760405162461bcd60e51b815260040161040290611acb565b600054610100900460ff16158015611506576000805461ffff19166101011790555b8015611518576000805461ff00191690555b50565b600054610100900460ff1680611534575060005460ff16155b6115505760405162461bcd60e51b815260040161040290611acb565b600054610100900460ff16158015611572576000805461ffff19166101011790555b82516115859060659060208601906115b0565b5081516115999060669060208501906115b0565b508015610533576000805461ff0019169055505050565b8280546115bc90611c0f565b90600052602060002090601f0160209004810192826115de5760008555611624565b82601f106115f757805160ff1916838001178555611624565b82800160010185558215611624579182015b82811115611624578251825591602001919060010190611609565b50611630929150611634565b5090565b5b808211156116305760008155600101611635565b60006001600160401b038084111561166357611663611cbb565b604051601f8501601f19908116603f0116810190828211818310171561168b5761168b611cbb565b816040528093508581528686860111156116a457600080fd5b858560208301376000602087830101525050509392505050565b80356001600160a01b03811681146116d557600080fd5b919050565b600082601f8301126116eb57600080fd5b610a1a83833560208501611649565b60006020828403121561170c57600080fd5b610a1a826116be565b6000806040838503121561172857600080fd5b611731836116be565b915061173f602084016116be565b90509250929050565b60008060006060848603121561175d57600080fd5b611766846116be565b9250611774602085016116be565b9150604084013590509250925092565b6000806000806080858703121561179a57600080fd5b6117a3856116be565b93506117b1602086016116be565b92506040850135915060608501356001600160401b038111156117d357600080fd5b8501601f810187136117e457600080fd5b6117f387823560208401611649565b91505092959194509250565b6000806040838503121561181257600080fd5b61181b836116be565b91506020830135801515811461183057600080fd5b809150509250929050565b6000806040838503121561184e57600080fd5b611857836116be565b946020939093013593505050565b60006020828403121561187757600080fd5b5035919050565b6000806040838503121561189157600080fd5b8235915061173f602084016116be565b6000602082840312156118b357600080fd5b8135610a1a81611cd1565b6000602082840312156118d057600080fd5b8151610a1a81611cd1565b600080600080608085870312156118f157600080fd5b84356001600160401b038082111561190857600080fd5b611914888389016116da565b9550602087013591508082111561192a57600080fd5b50611937878288016116da565b935050611946604086016116be565b9150611954606086016116be565b905092959194509250565b60008151808452611977816020860160208601611bcc565b601f01601f19169290920160200192915050565b6000835161199d818460208801611bcc565b8351908301906119b1818360208801611bcc565b01949350505050565b76020b1b1b2b9b9a1b7b73a3937b61d1030b1b1b7bab73a1604d1b8152600083516119ec816017850160208801611bcc565b7001034b99036b4b9b9b4b733903937b6329607d1b6017918401918201528351611a1d816028840160208801611bcc565b01602801949350505050565b6001600160a01b0385811682528416602082015260408101839052608060608201819052600090611a5c9083018461195f565b9695505050505050565b602081526000610a1a602083018461195f565b60208082526032908201527f4552433732313a207472616e7366657220746f206e6f6e20455243373231526560408201527131b2b4bb32b91034b6b83632b6b2b73a32b960711b606082015260800190565b6020808252602e908201527f496e697469616c697a61626c653a20636f6e747261637420697320616c72656160408201526d191e481a5b9a5d1a585b1a5e995960921b606082015260800190565b60208082526031908201527f4552433732313a207472616e736665722063616c6c6572206973206e6f74206f6040820152701ddb995c881b9bdc88185c1c1c9bdd9959607a1b606082015260800190565b60008219821115611b7d57611b7d611c79565b500190565b600082611b9157611b91611c8f565b500490565b6000816000190483118215151615611bb057611bb0611c79565b500290565b600082821015611bc757611bc7611c79565b500390565b60005b83811015611be7578181015183820152602001611bcf565b838111156109435750506000910152565b600081611c0757611c07611c79565b506000190190565b600181811c90821680611c2357607f821691505b60208210811415611c4457634e487b7160e01b600052602260045260246000fd5b50919050565b6000600019821415611c5e57611c5e611c79565b5060010190565b600082611c7457611c74611c8f565b500690565b634e487b7160e01b600052601160045260246000fd5b634e487b7160e01b600052601260045260246000fd5b634e487b7160e01b600052603260045260246000fd5b634e487b7160e01b600052604160045260246000fd5b6001600160e01b03198116811461151857600080fdfe4c7820d3324fd4d561b192bce90b13bd3340ceb966e0fa7c1e5b46c61bbf6741ddf252ad1be2c89b69c2b068fc378daa952ba7f163c4a11628f55a4df523b3efa26469706673582212204cc9038f53a9bc01c44ff78424781114f61f4691cb9b94177db3db90f54db23b64736f6c63430008060033",
  "immutableReferences": {},
  "source": "//SPDX-License-Identifier: MIT\npragma solidity ^0.8.0;\n\nimport \"@openzeppelin/contracts-upgradeable/token/ERC721/ERC721Upgradeable.sol\";\nimport \"@openzeppelin/contracts-upgradeable/access/AccessControlUpgradeable.sol\";\n\ncontract SingleHolderTitle is ERC721Upgradeable, AccessControlUpgradeable {\n\n    bytes32 public constant TITLE_OPERATOR = keccak256(\"TITLE_OPERATOR\");\n\n    function initialize(string memory _title, string memory _titleAbbreviation, address _holder, address _titleOperator) public initializer {\n        ERC721Upgradeable.__ERC721_init(_title, _titleAbbreviation);\n\n        _setupRole(DEFAULT_ADMIN_ROLE, _titleOperator);\n        _setupRole(TITLE_OPERATOR, _titleOperator);\n\n        _mint(_holder, 0);\n    }\n\n    function supportsInterface(bytes4 interfaceId) public view override(ERC721Upgradeable, AccessControlUpgradeable) returns (bool) {\n        return super.supportsInterface(interfaceId);\n    }\n\n    function changeHolder(address newHolder) onlyRole(TITLE_OPERATOR) public {\n        //bypass approval check, always allowing operator to change holder\n        _safeTransfer(holder(), newHolder, 0, \"\"); //TODO: get data from somewhere?\n    }\n\n    function _changeHolder(address newHolder) internal {\n        //bypass approval check, allowing implementing contracts to change holders programmatically\n        _safeTransfer(holder(), newHolder, 0, \"\"); //TODO: get data from somewhere?\n    }\n\n    function holder() public virtual returns (address) {\n        return ownerOf(0);\n    }\n}\n",
  "sourcePath": "/Users/tjharrison/catanstitution/contracts/open-orgs-v2/SingleHolderTitle.sol",
  "compiler": {
    "name": "solc",
    "version": "0.8.6+commit.11564f7e.Emscripten.clang"
  },
  "schemaVersion": "3.4.1",
  "updatedAt": "2021-07-10T17:26:07.563Z",
  "devdoc": {
    "kind": "dev",
    "methods": {
      "approve(address,uint256)": {
        "details": "See {IERC721-approve}."
      },
      "balanceOf(address)": {
        "details": "See {IERC721-balanceOf}."
      },
      "getApproved(uint256)": {
        "details": "See {IERC721-getApproved}."
      },
      "getRoleAdmin(bytes32)": {
        "details": "Returns the admin role that controls `role`. See {grantRole} and {revokeRole}. To change a role's admin, use {_setRoleAdmin}."
      },
      "grantRole(bytes32,address)": {
        "details": "Grants `role` to `account`. If `account` had not been already granted `role`, emits a {RoleGranted} event. Requirements: - the caller must have ``role``'s admin role."
      },
      "hasRole(bytes32,address)": {
        "details": "Returns `true` if `account` has been granted `role`."
      },
      "isApprovedForAll(address,address)": {
        "details": "See {IERC721-isApprovedForAll}."
      },
      "name()": {
        "details": "See {IERC721Metadata-name}."
      },
      "ownerOf(uint256)": {
        "details": "See {IERC721-ownerOf}."
      },
      "renounceRole(bytes32,address)": {
        "details": "Revokes `role` from the calling account. Roles are often managed via {grantRole} and {revokeRole}: this function's purpose is to provide a mechanism for accounts to lose their privileges if they are compromised (such as when a trusted device is misplaced). If the calling account had been granted `role`, emits a {RoleRevoked} event. Requirements: - the caller must be `account`."
      },
      "revokeRole(bytes32,address)": {
        "details": "Revokes `role` from `account`. If `account` had been granted `role`, emits a {RoleRevoked} event. Requirements: - the caller must have ``role``'s admin role."
      },
      "safeTransferFrom(address,address,uint256)": {
        "details": "See {IERC721-safeTransferFrom}."
      },
      "safeTransferFrom(address,address,uint256,bytes)": {
        "details": "See {IERC721-safeTransferFrom}."
      },
      "setApprovalForAll(address,bool)": {
        "details": "See {IERC721-setApprovalForAll}."
      },
      "symbol()": {
        "details": "See {IERC721Metadata-symbol}."
      },
      "tokenURI(uint256)": {
        "details": "See {IERC721Metadata-tokenURI}."
      },
      "transferFrom(address,address,uint256)": {
        "details": "See {IERC721-transferFrom}."
      }
    },
    "version": 1
  },
  "userdoc": {
    "kind": "user",
    "methods": {},
    "version": 1
  }
}