{
  "contractName": "SingleHolderTitle",
  "abi": [
    {
      "anonymous": false,
      "inputs": [
        {
          "indexed": true,
          "internalType": "address",
          "name": "owner",
          "type": "address"
        },
        {
          "indexed": true,
          "internalType": "address",
          "name": "approved",
          "type": "address"
        },
        {
          "indexed": true,
          "internalType": "uint256",
          "name": "tokenId",
          "type": "uint256"
        }
      ],
      "name": "Approval",
      "type": "event"
    },
    {
      "anonymous": false,
      "inputs": [
        {
          "indexed": true,
          "internalType": "address",
          "name": "owner",
          "type": "address"
        },
        {
          "indexed": true,
          "internalType": "address",
          "name": "operator",
          "type": "address"
        },
        {
          "indexed": false,
          "internalType": "bool",
          "name": "approved",
          "type": "bool"
        }
      ],
      "name": "ApprovalForAll",
      "type": "event"
    },
    {
      "anonymous": false,
      "inputs": [
        {
          "indexed": true,
          "internalType": "bytes32",
          "name": "role",
          "type": "bytes32"
        },
        {
          "indexed": true,
          "internalType": "bytes32",
          "name": "previousAdminRole",
          "type": "bytes32"
        },
        {
          "indexed": true,
          "internalType": "bytes32",
          "name": "newAdminRole",
          "type": "bytes32"
        }
      ],
      "name": "RoleAdminChanged",
      "type": "event"
    },
    {
      "anonymous": false,
      "inputs": [
        {
          "indexed": true,
          "internalType": "bytes32",
          "name": "role",
          "type": "bytes32"
        },
        {
          "indexed": true,
          "internalType": "address",
          "name": "account",
          "type": "address"
        },
        {
          "indexed": true,
          "internalType": "address",
          "name": "sender",
          "type": "address"
        }
      ],
      "name": "RoleGranted",
      "type": "event"
    },
    {
      "anonymous": false,
      "inputs": [
        {
          "indexed": true,
          "internalType": "bytes32",
          "name": "role",
          "type": "bytes32"
        },
        {
          "indexed": true,
          "internalType": "address",
          "name": "account",
          "type": "address"
        },
        {
          "indexed": true,
          "internalType": "address",
          "name": "sender",
          "type": "address"
        }
      ],
      "name": "RoleRevoked",
      "type": "event"
    },
    {
      "anonymous": false,
      "inputs": [
        {
          "indexed": true,
          "internalType": "address",
          "name": "from",
          "type": "address"
        },
        {
          "indexed": true,
          "internalType": "address",
          "name": "to",
          "type": "address"
        },
        {
          "indexed": true,
          "internalType": "uint256",
          "name": "tokenId",
          "type": "uint256"
        }
      ],
      "name": "Transfer",
      "type": "event"
    },
    {
      "inputs": [],
      "name": "DEFAULT_ADMIN_ROLE",
      "outputs": [
        {
          "internalType": "bytes32",
          "name": "",
          "type": "bytes32"
        }
      ],
      "stateMutability": "view",
      "type": "function"
    },
    {
      "inputs": [],
      "name": "TITLE_OPERATOR",
      "outputs": [
        {
          "internalType": "bytes32",
          "name": "",
          "type": "bytes32"
        }
      ],
      "stateMutability": "view",
      "type": "function"
    },
    {
      "inputs": [
        {
          "internalType": "address",
          "name": "to",
          "type": "address"
        },
        {
          "internalType": "uint256",
          "name": "tokenId",
          "type": "uint256"
        }
      ],
      "name": "approve",
      "outputs": [],
      "stateMutability": "nonpayable",
      "type": "function"
    },
    {
      "inputs": [
        {
          "internalType": "address",
          "name": "owner",
          "type": "address"
        }
      ],
      "name": "balanceOf",
      "outputs": [
        {
          "internalType": "uint256",
          "name": "",
          "type": "uint256"
        }
      ],
      "stateMutability": "view",
      "type": "function"
    },
    {
      "inputs": [
        {
          "internalType": "uint256",
          "name": "tokenId",
          "type": "uint256"
        }
      ],
      "name": "getApproved",
      "outputs": [
        {
          "internalType": "address",
          "name": "",
          "type": "address"
        }
      ],
      "stateMutability": "view",
      "type": "function"
    },
    {
      "inputs": [
        {
          "internalType": "bytes32",
          "name": "role",
          "type": "bytes32"
        }
      ],
      "name": "getRoleAdmin",
      "outputs": [
        {
          "internalType": "bytes32",
          "name": "",
          "type": "bytes32"
        }
      ],
      "stateMutability": "view",
      "type": "function"
    },
    {
      "inputs": [
        {
          "internalType": "bytes32",
          "name": "role",
          "type": "bytes32"
        },
        {
          "internalType": "address",
          "name": "account",
          "type": "address"
        }
      ],
      "name": "grantRole",
      "outputs": [],
      "stateMutability": "nonpayable",
      "type": "function"
    },
    {
      "inputs": [
        {
          "internalType": "bytes32",
          "name": "role",
          "type": "bytes32"
        },
        {
          "internalType": "address",
          "name": "account",
          "type": "address"
        }
      ],
      "name": "hasRole",
      "outputs": [
        {
          "internalType": "bool",
          "name": "",
          "type": "bool"
        }
      ],
      "stateMutability": "view",
      "type": "function"
    },
    {
      "inputs": [
        {
          "internalType": "address",
          "name": "owner",
          "type": "address"
        },
        {
          "internalType": "address",
          "name": "operator",
          "type": "address"
        }
      ],
      "name": "isApprovedForAll",
      "outputs": [
        {
          "internalType": "bool",
          "name": "",
          "type": "bool"
        }
      ],
      "stateMutability": "view",
      "type": "function"
    },
    {
      "inputs": [],
      "name": "name",
      "outputs": [
        {
          "internalType": "string",
          "name": "",
          "type": "string"
        }
      ],
      "stateMutability": "view",
      "type": "function"
    },
    {
      "inputs": [
        {
          "internalType": "uint256",
          "name": "tokenId",
          "type": "uint256"
        }
      ],
      "name": "ownerOf",
      "outputs": [
        {
          "internalType": "address",
          "name": "",
          "type": "address"
        }
      ],
      "stateMutability": "view",
      "type": "function"
    },
    {
      "inputs": [
        {
          "internalType": "bytes32",
          "name": "role",
          "type": "bytes32"
        },
        {
          "internalType": "address",
          "name": "account",
          "type": "address"
        }
      ],
      "name": "renounceRole",
      "outputs": [],
      "stateMutability": "nonpayable",
      "type": "function"
    },
    {
      "inputs": [
        {
          "internalType": "bytes32",
          "name": "role",
          "type": "bytes32"
        },
        {
          "internalType": "address",
          "name": "account",
          "type": "address"
        }
      ],
      "name": "revokeRole",
      "outputs": [],
      "stateMutability": "nonpayable",
      "type": "function"
    },
    {
      "inputs": [
        {
          "internalType": "address",
          "name": "from",
          "type": "address"
        },
        {
          "internalType": "address",
          "name": "to",
          "type": "address"
        },
        {
          "internalType": "uint256",
          "name": "tokenId",
          "type": "uint256"
        }
      ],
      "name": "safeTransferFrom",
      "outputs": [],
      "stateMutability": "nonpayable",
      "type": "function"
    },
    {
      "inputs": [
        {
          "internalType": "address",
          "name": "from",
          "type": "address"
        },
        {
          "internalType": "address",
          "name": "to",
          "type": "address"
        },
        {
          "internalType": "uint256",
          "name": "tokenId",
          "type": "uint256"
        },
        {
          "internalType": "bytes",
          "name": "_data",
          "type": "bytes"
        }
      ],
      "name": "safeTransferFrom",
      "outputs": [],
      "stateMutability": "nonpayable",
      "type": "function"
    },
    {
      "inputs": [
        {
          "internalType": "address",
          "name": "operator",
          "type": "address"
        },
        {
          "internalType": "bool",
          "name": "approved",
          "type": "bool"
        }
      ],
      "name": "setApprovalForAll",
      "outputs": [],
      "stateMutability": "nonpayable",
      "type": "function"
    },
    {
      "inputs": [],
      "name": "symbol",
      "outputs": [
        {
          "internalType": "string",
          "name": "",
          "type": "string"
        }
      ],
      "stateMutability": "view",
      "type": "function"
    },
    {
      "inputs": [
        {
          "internalType": "uint256",
          "name": "tokenId",
          "type": "uint256"
        }
      ],
      "name": "tokenURI",
      "outputs": [
        {
          "internalType": "string",
          "name": "",
          "type": "string"
        }
      ],
      "stateMutability": "view",
      "type": "function"
    },
    {
      "inputs": [
        {
          "internalType": "address",
          "name": "from",
          "type": "address"
        },
        {
          "internalType": "address",
          "name": "to",
          "type": "address"
        },
        {
          "internalType": "uint256",
          "name": "tokenId",
          "type": "uint256"
        }
      ],
      "name": "transferFrom",
      "outputs": [],
      "stateMutability": "nonpayable",
      "type": "function"
    },
    {
      "inputs": [
        {
          "internalType": "string",
          "name": "_title",
          "type": "string"
        },
        {
          "internalType": "string",
          "name": "_titleAbbreviation",
          "type": "string"
        }
      ],
      "name": "initialize",
      "outputs": [],
      "stateMutability": "nonpayable",
      "type": "function"
    },
    {
      "inputs": [
        {
          "internalType": "bytes4",
          "name": "interfaceId",
          "type": "bytes4"
        }
      ],
      "name": "supportsInterface",
      "outputs": [
        {
          "internalType": "bool",
          "name": "",
          "type": "bool"
        }
      ],
      "stateMutability": "view",
      "type": "function"
    },
    {
      "inputs": [
        {
          "internalType": "address",
          "name": "newHolder",
          "type": "address"
        }
      ],
      "name": "changeHolder",
      "outputs": [],
      "stateMutability": "nonpayable",
      "type": "function"
    },
    {
      "inputs": [],
      "name": "holder",
      "outputs": [
        {
          "internalType": "address",
          "name": "",
          "type": "address"
        }
      ],
      "stateMutability": "nonpayable",
      "type": "function"
    }
  ],
  "bytecode": "0x608060405234801561001057600080fd5b50611d6b806100206000396000f3fe608060405234801561001057600080fd5b506004361061011d5760003560e01c806301ffc9a71461012257806306fdde031461014a578063081812fc1461015f578063095ea7b31461018a57806323b872dd1461019f578063248a9ca3146101b25780632f2ff15d146101d357806336568abe146101e6578063400bd1e4146101f957806342842e0e1461020e5780634cd88b76146102215780635a87db75146102345780636352211e1461024757806370a082311461025a57806391d148541461026d57806395d89b4114610280578063a217fddf14610288578063a22cb46514610290578063b88d4fde146102a3578063c87b56dd146102b6578063d547741f146102c9578063e534155d146102dc578063e985e9c5146102e4575b600080fd5b61013561013036600461168e565b6102f7565b60405190151581526020015b60405180910390f35b610152610308565b6040516101419190611703565b61017261016d366004611716565b61039a565b6040516001600160a01b039091168152602001610141565b61019d61019836600461174b565b610427565b005b61019d6101ad366004611775565b610538565b6101c56101c0366004611716565b610569565b604051908152602001610141565b61019d6101e13660046117b1565b61057e565b61019d6101f43660046117b1565b61059b565b6101c5600080516020611cf683398151915281565b61019d61021c366004611775565b610619565b61019d61022f366004611888565b610634565b61019d6102423660046118eb565b6106e6565b610172610255366004611716565b610722565b6101c56102683660046118eb565b610799565b61013561027b3660046117b1565b610820565b61015261084b565b6101c5600081565b61019d61029e366004611906565b61085a565b61019d6102b1366004611942565b61091b565b6101526102c4366004611716565b610953565b61019d6102d73660046117b1565b610a2b565b610172610a48565b6101356102f23660046119bd565b610a59565b600061030282610a87565b92915050565b606060658054610317906119e7565b80601f0160208091040260200160405190810160405280929190818152602001828054610343906119e7565b80156103905780601f1061036557610100808354040283529160200191610390565b820191906000526020600020905b81548152906001019060200180831161037357829003601f168201915b5050505050905090565b60006103a582610aac565b61040b5760405162461bcd60e51b815260206004820152602c60248201527f4552433732313a20617070726f76656420717565727920666f72206e6f6e657860448201526b34b9ba32b73a103a37b5b2b760a11b60648201526084015b60405180910390fd5b506000908152606960205260409020546001600160a01b031690565b600061043282610722565b9050806001600160a01b0316836001600160a01b031614156104a05760405162461bcd60e51b815260206004820152602160248201527f4552433732313a20617070726f76616c20746f2063757272656e74206f776e656044820152603960f91b6064820152608401610402565b336001600160a01b03821614806104bc57506104bc8133610a59565b6105295760405162461bcd60e51b815260206004820152603860248201527f4552433732313a20617070726f76652063616c6c6572206973206e6f74206f776044820152771b995c881b9bdc88185c1c1c9bdd995908199bdc88185b1b60421b6064820152608401610402565b6105338383610ac9565b505050565b6105423382610b37565b61055e5760405162461bcd60e51b815260040161040290611a22565b610533838383610c01565b60009081526097602052604090206001015490565b61058782610569565b6105918133610d8f565b6105338383610df3565b6001600160a01b038116331461060b5760405162461bcd60e51b815260206004820152602f60248201527f416363657373436f6e74726f6c3a2063616e206f6e6c792072656e6f756e636560448201526e103937b632b9903337b91039b2b63360891b6064820152608401610402565b6106158282610e79565b5050565b6105338383836040518060200160405280600081525061091b565b600054610100900460ff168061064d575060005460ff16155b6106695760405162461bcd60e51b815260040161040290611a73565b600054610100900460ff1615801561068b576000805461ffff19166101011790555b6106958383610ee0565b6106ad600080516020611cf683398151915280610f51565b6106c5600080516020611cf683398151915233610f9b565b6106d0336000610fa5565b8015610533576000805461ff0019169055505050565b600080516020611cf68339815191526106ff8133610d8f565b61061561070a610a48565b836000604051806020016040528060008152506110c5565b6000818152606760205260408120546001600160a01b0316806103025760405162461bcd60e51b815260206004820152602960248201527f4552433732313a206f776e657220717565727920666f72206e6f6e657869737460448201526832b73a103a37b5b2b760b91b6064820152608401610402565b60006001600160a01b0382166108045760405162461bcd60e51b815260206004820152602a60248201527f4552433732313a2062616c616e636520717565727920666f7220746865207a65604482015269726f206164647265737360b01b6064820152608401610402565b506001600160a01b031660009081526068602052604090205490565b60009182526097602090815260408084206001600160a01b0393909316845291905290205460ff1690565b606060668054610317906119e7565b6001600160a01b0382163314156108af5760405162461bcd60e51b815260206004820152601960248201527822a9219b99189d1030b8383937bb32903a379031b0b63632b960391b6044820152606401610402565b336000818152606a602090815260408083206001600160a01b03871680855290835292819020805460ff191686151590811790915590519081529192917f17307eab39ab6107e8899845ad3d59bd9653f200f220920489ca2b5937696c31910160405180910390a35050565b6109253383610b37565b6109415760405162461bcd60e51b815260040161040290611a22565b61094d848484846110c5565b50505050565b606061095e82610aac565b6109c25760405162461bcd60e51b815260206004820152602f60248201527f4552433732314d657461646174613a2055524920717565727920666f72206e6f60448201526e3732bc34b9ba32b73a103a37b5b2b760891b6064820152608401610402565b60006109d960408051602081019091526000815290565b905060008151116109f95760405180602001604052806000815250610a24565b80610a03846110f8565b604051602001610a14929190611ac1565b6040516020818303038152906040525b9392505050565b610a3482610569565b610a3e8133610d8f565b6105338383610e79565b6000610a546000610722565b905090565b6001600160a01b039182166000908152606a6020908152604080832093909416825291909152205460ff1690565b60006001600160e01b03198216637965db0b60e01b14806103025750610302826111f5565b6000908152606760205260409020546001600160a01b0316151590565b600081815260696020526040902080546001600160a01b0319166001600160a01b0384169081179091558190610afe82610722565b6001600160a01b03167f8c5be1e5ebec7d5bd14f71427d1e84f3dd0314c0f7b2291e5b200ac8c7c3b92560405160405180910390a45050565b6000610b4282610aac565b610ba35760405162461bcd60e51b815260206004820152602c60248201527f4552433732313a206f70657261746f7220717565727920666f72206e6f6e657860448201526b34b9ba32b73a103a37b5b2b760a11b6064820152608401610402565b6000610bae83610722565b9050806001600160a01b0316846001600160a01b03161480610be95750836001600160a01b0316610bde8461039a565b6001600160a01b0316145b80610bf95750610bf98185610a59565b949350505050565b826001600160a01b0316610c1482610722565b6001600160a01b031614610c7c5760405162461bcd60e51b815260206004820152602960248201527f4552433732313a207472616e73666572206f6620746f6b656e2074686174206960448201526839903737ba1037bbb760b91b6064820152608401610402565b6001600160a01b038216610cde5760405162461bcd60e51b8152602060048201526024808201527f4552433732313a207472616e7366657220746f20746865207a65726f206164646044820152637265737360e01b6064820152608401610402565b610ce9600082610ac9565b6001600160a01b0383166000908152606860205260408120805460019290610d12908490611b06565b90915550506001600160a01b0382166000908152606860205260408120805460019290610d40908490611b1d565b909155505060008181526067602052604080822080546001600160a01b0319166001600160a01b038681169182179092559151849391871691600080516020611d1683398151915291a4505050565b610d998282610820565b61061557610db1816001600160a01b03166014611245565b610dbc836020611245565b604051602001610dcd929190611b35565b60408051601f198184030181529082905262461bcd60e51b825261040291600401611703565b610dfd8282610820565b6106155760008281526097602090815260408083206001600160a01b03851684529091529020805460ff19166001179055610e353390565b6001600160a01b0316816001600160a01b0316837f2f8788117e7eff1d82e926ec794901d17c78024a50270940304540a733656f0d60405160405180910390a45050565b610e838282610820565b156106155760008281526097602090815260408083206001600160a01b0385168085529252808320805460ff1916905551339285917ff6391f5c32d9c69d2a47ea670b442974b53935d1edc7fd64eb21e047a839171b9190a45050565b600054610100900460ff1680610ef9575060005460ff16155b610f155760405162461bcd60e51b815260040161040290611a73565b600054610100900460ff16158015610f37576000805461ffff19166101011790555b610f3f6113e0565b610f476113e0565b6106d0838361144c565b80610f5b83610569565b60405184907fbd79b86ffe0ab8e8776151514217cd7cacd52c909f66475c3af44e129f0b00ff90600090a460009182526097602052604090912060010155565b6106158282610df3565b6001600160a01b038216610ffb5760405162461bcd60e51b815260206004820181905260248201527f4552433732313a206d696e7420746f20746865207a65726f20616464726573736044820152606401610402565b61100481610aac565b156110505760405162461bcd60e51b815260206004820152601c60248201527b115490cdcc8c4e881d1bdad95b88185b1c9958591e481b5a5b9d195960221b6044820152606401610402565b6001600160a01b0382166000908152606860205260408120805460019290611079908490611b1d565b909155505060008181526067602052604080822080546001600160a01b0319166001600160a01b0386169081179091559051839290600080516020611d16833981519152908290a45050565b6110d0848484610c01565b6110dc848484846114e1565b61094d5760405162461bcd60e51b815260040161040290611ba4565b60608161111c5750506040805180820190915260018152600360fc1b602082015290565b8160005b8115611146578061113081611bf6565b915061113f9050600a83611c27565b9150611120565b6000816001600160401b03811115611160576111606117dd565b6040519080825280601f01601f19166020018201604052801561118a576020820181803683370190505b5090505b8415610bf95761119f600183611b06565b91506111ac600a86611c3b565b6111b7906030611b1d565b60f81b8183815181106111cc576111cc611c4f565b60200101906001600160f81b031916908160001a9053506111ee600a86611c27565b945061118e565b60006001600160e01b031982166380ac58cd60e01b148061122657506001600160e01b03198216635b5e139f60e01b145b8061030257506301ffc9a760e01b6001600160e01b0319831614610302565b60606000611254836002611c65565b61125f906002611b1d565b6001600160401b03811115611276576112766117dd565b6040519080825280601f01601f1916602001820160405280156112a0576020820181803683370190505b509050600360fc1b816000815181106112bb576112bb611c4f565b60200101906001600160f81b031916908160001a905350600f60fb1b816001815181106112ea576112ea611c4f565b60200101906001600160f81b031916908160001a905350600061130e846002611c65565b611319906001611b1d565b90505b6001811115611391576f181899199a1a9b1b9c1cb0b131b232b360811b85600f166010811061134d5761134d611c4f565b1a60f81b82828151811061136357611363611c4f565b60200101906001600160f81b031916908160001a90535060049490941c9361138a81611c84565b905061131c565b508315610a245760405162461bcd60e51b815260206004820181905260248201527f537472696e67733a20686578206c656e67746820696e73756666696369656e746044820152606401610402565b600054610100900460ff16806113f9575060005460ff16155b6114155760405162461bcd60e51b815260040161040290611a73565b600054610100900460ff16158015611437576000805461ffff19166101011790555b8015611449576000805461ff00191690555b50565b600054610100900460ff1680611465575060005460ff16155b6114815760405162461bcd60e51b815260040161040290611a73565b600054610100900460ff161580156114a3576000805461ffff19166101011790555b82516114b69060659060208601906115df565b5081516114ca9060669060208501906115df565b508015610533576000805461ff0019169055505050565b60006001600160a01b0384163b156115d457604051630a85bd0160e11b81526001600160a01b0385169063150b7a0290611525903390899088908890600401611c9b565b6020604051808303816000875af1925050508015611560575060408051601f3d908101601f1916820190925261155d91810190611cd8565b60015b6115ba573d80801561158e576040519150601f19603f3d011682016040523d82523d6000602084013e611593565b606091505b5080516115b25760405162461bcd60e51b815260040161040290611ba4565b805181602001fd5b6001600160e01b031916630a85bd0160e11b149050610bf9565b506001949350505050565b8280546115eb906119e7565b90600052602060002090601f01602090048101928261160d5760008555611653565b82601f1061162657805160ff1916838001178555611653565b82800160010185558215611653579182015b82811115611653578251825591602001919060010190611638565b5061165f929150611663565b5090565b5b8082111561165f5760008155600101611664565b6001600160e01b03198116811461144957600080fd5b6000602082840312156116a057600080fd5b8135610a2481611678565b60005b838110156116c65781810151838201526020016116ae565b8381111561094d5750506000910152565b600081518084526116ef8160208601602086016116ab565b601f01601f19169290920160200192915050565b602081526000610a2460208301846116d7565b60006020828403121561172857600080fd5b5035919050565b80356001600160a01b038116811461174657600080fd5b919050565b6000806040838503121561175e57600080fd5b6117678361172f565b946020939093013593505050565b60008060006060848603121561178a57600080fd5b6117938461172f565b92506117a16020850161172f565b9150604084013590509250925092565b600080604083850312156117c457600080fd5b823591506117d46020840161172f565b90509250929050565b634e487b7160e01b600052604160045260246000fd5b60006001600160401b038084111561180d5761180d6117dd565b604051601f8501601f19908116603f01168101908282118183101715611835576118356117dd565b8160405280935085815286868601111561184e57600080fd5b858560208301376000602087830101525050509392505050565b600082601f83011261187957600080fd5b610a24838335602085016117f3565b6000806040838503121561189b57600080fd5b82356001600160401b03808211156118b257600080fd5b6118be86838701611868565b935060208501359150808211156118d457600080fd5b506118e185828601611868565b9150509250929050565b6000602082840312156118fd57600080fd5b610a248261172f565b6000806040838503121561191957600080fd5b6119228361172f565b91506020830135801515811461193757600080fd5b809150509250929050565b6000806000806080858703121561195857600080fd5b6119618561172f565b935061196f6020860161172f565b92506040850135915060608501356001600160401b0381111561199157600080fd5b8501601f810187136119a257600080fd5b6119b1878235602084016117f3565b91505092959194509250565b600080604083850312156119d057600080fd5b6119d98361172f565b91506117d46020840161172f565b600181811c908216806119fb57607f821691505b60208210811415611a1c57634e487b7160e01b600052602260045260246000fd5b50919050565b60208082526031908201527f4552433732313a207472616e736665722063616c6c6572206973206e6f74206f6040820152701ddb995c881b9bdc88185c1c1c9bdd9959607a1b606082015260800190565b6020808252602e908201527f496e697469616c697a61626c653a20636f6e747261637420697320616c72656160408201526d191e481a5b9a5d1a585b1a5e995960921b606082015260800190565b60008351611ad38184602088016116ab565b835190830190611ae78183602088016116ab565b01949350505050565b634e487b7160e01b600052601160045260246000fd5b600082821015611b1857611b18611af0565b500390565b60008219821115611b3057611b30611af0565b500190565b76020b1b1b2b9b9a1b7b73a3937b61d1030b1b1b7bab73a1604d1b815260008351611b678160178501602088016116ab565b7001034b99036b4b9b9b4b733903937b6329607d1b6017918401918201528351611b988160288401602088016116ab565b01602801949350505050565b60208082526032908201527f4552433732313a207472616e7366657220746f206e6f6e20455243373231526560408201527131b2b4bb32b91034b6b83632b6b2b73a32b960711b606082015260800190565b6000600019821415611c0a57611c0a611af0565b5060010190565b634e487b7160e01b600052601260045260246000fd5b600082611c3657611c36611c11565b500490565b600082611c4a57611c4a611c11565b500690565b634e487b7160e01b600052603260045260246000fd5b6000816000190483118215151615611c7f57611c7f611af0565b500290565b600081611c9357611c93611af0565b506000190190565b6001600160a01b0385811682528416602082015260408101839052608060608201819052600090611cce908301846116d7565b9695505050505050565b600060208284031215611cea57600080fd5b8151610a248161167856fe4c7820d3324fd4d561b192bce90b13bd3340ceb966e0fa7c1e5b46c61bbf6741ddf252ad1be2c89b69c2b068fc378daa952ba7f163c4a11628f55a4df523b3efa264697066735822122010ebca5b87ebaaba06f901ab1b3c5e4cee277755766c4a109ad472ac74881c5e64736f6c634300080a0033",
  "immutableReferences": {},
  "source": "//SPDX-License-Identifier: MIT\npragma solidity ^0.8.0;\n\nimport \"@openzeppelin/contracts-upgradeable/token/ERC721/ERC721Upgradeable.sol\";\nimport \"@openzeppelin/contracts-upgradeable/access/AccessControlUpgradeable.sol\";\n\ncontract SingleHolderTitle is ERC721Upgradeable, AccessControlUpgradeable {\n\n    bytes32 public constant TITLE_OPERATOR = keccak256(\"TITLE_OPERATOR\");\n\n    function initialize(string memory _title, string memory _titleAbbreviation) public initializer {\n        ERC721Upgradeable.__ERC721_init(_title, _titleAbbreviation);\n\n        _setRoleAdmin(TITLE_OPERATOR, TITLE_OPERATOR);\n        _setupRole(TITLE_OPERATOR, msg.sender);\n\n        _mint(msg.sender, 0);\n    }\n\n    function supportsInterface(bytes4 interfaceId) public view override(ERC721Upgradeable, AccessControlUpgradeable) returns (bool) {\n        return super.supportsInterface(interfaceId);\n    }\n\n    function changeHolder(address newHolder) onlyRole(TITLE_OPERATOR) public {\n        //bypass approval check, always allowing operator to change holder\n        _safeTransfer(holder(), newHolder, 0, \"\");\n    }\n\n    function _changeHolder(address newHolder) internal {\n        //bypass approval check, allowing implementing contracts to change holders programmatically\n        _safeTransfer(holder(), newHolder, 0, \"\");\n    }\n\n    function holder() public virtual returns (address) {\n        return ownerOf(0);\n    }\n}\n",
  "sourcePath": "/Users/tjharrison/he/catanstitution/contracts/open-orgs/SingleHolderTitle.sol",
  "compiler": {
    "name": "solc",
    "version": "0.8.10+commit.fc410830.Emscripten.clang"
  },
  "schemaVersion": "3.4.3",
  "updatedAt": "2021-11-28T17:53:17.765Z",
  "devdoc": {
    "kind": "dev",
    "methods": {
      "approve(address,uint256)": {
        "details": "See {IERC721-approve}."
      },
      "balanceOf(address)": {
        "details": "See {IERC721-balanceOf}."
      },
      "getApproved(uint256)": {
        "details": "See {IERC721-getApproved}."
      },
      "getRoleAdmin(bytes32)": {
        "details": "Returns the admin role that controls `role`. See {grantRole} and {revokeRole}. To change a role's admin, use {_setRoleAdmin}."
      },
      "grantRole(bytes32,address)": {
        "details": "Grants `role` to `account`. If `account` had not been already granted `role`, emits a {RoleGranted} event. Requirements: - the caller must have ``role``'s admin role."
      },
      "hasRole(bytes32,address)": {
        "details": "Returns `true` if `account` has been granted `role`."
      },
      "isApprovedForAll(address,address)": {
        "details": "See {IERC721-isApprovedForAll}."
      },
      "name()": {
        "details": "See {IERC721Metadata-name}."
      },
      "ownerOf(uint256)": {
        "details": "See {IERC721-ownerOf}."
      },
      "renounceRole(bytes32,address)": {
        "details": "Revokes `role` from the calling account. Roles are often managed via {grantRole} and {revokeRole}: this function's purpose is to provide a mechanism for accounts to lose their privileges if they are compromised (such as when a trusted device is misplaced). If the calling account had been granted `role`, emits a {RoleRevoked} event. Requirements: - the caller must be `account`."
      },
      "revokeRole(bytes32,address)": {
        "details": "Revokes `role` from `account`. If `account` had been granted `role`, emits a {RoleRevoked} event. Requirements: - the caller must have ``role``'s admin role."
      },
      "safeTransferFrom(address,address,uint256)": {
        "details": "See {IERC721-safeTransferFrom}."
      },
      "safeTransferFrom(address,address,uint256,bytes)": {
        "details": "See {IERC721-safeTransferFrom}."
      },
      "setApprovalForAll(address,bool)": {
        "details": "See {IERC721-setApprovalForAll}."
      },
      "symbol()": {
        "details": "See {IERC721Metadata-symbol}."
      },
      "tokenURI(uint256)": {
        "details": "See {IERC721Metadata-tokenURI}."
      },
      "transferFrom(address,address,uint256)": {
        "details": "See {IERC721-transferFrom}."
      }
    },
    "version": 1
  },
  "userdoc": {
    "kind": "user",
    "methods": {},
    "version": 1
  }
}