{
  "contractName": "UserNameRegistry",
  "abi": [
    {
      "anonymous": false,
      "inputs": [
        {
          "indexed": true,
          "internalType": "bytes32",
          "name": "role",
          "type": "bytes32"
        },
        {
          "indexed": true,
          "internalType": "bytes32",
          "name": "previousAdminRole",
          "type": "bytes32"
        },
        {
          "indexed": true,
          "internalType": "bytes32",
          "name": "newAdminRole",
          "type": "bytes32"
        }
      ],
      "name": "RoleAdminChanged",
      "type": "event"
    },
    {
      "anonymous": false,
      "inputs": [
        {
          "indexed": true,
          "internalType": "bytes32",
          "name": "role",
          "type": "bytes32"
        },
        {
          "indexed": true,
          "internalType": "address",
          "name": "account",
          "type": "address"
        },
        {
          "indexed": true,
          "internalType": "address",
          "name": "sender",
          "type": "address"
        }
      ],
      "name": "RoleGranted",
      "type": "event"
    },
    {
      "anonymous": false,
      "inputs": [
        {
          "indexed": true,
          "internalType": "bytes32",
          "name": "role",
          "type": "bytes32"
        },
        {
          "indexed": true,
          "internalType": "address",
          "name": "account",
          "type": "address"
        },
        {
          "indexed": true,
          "internalType": "address",
          "name": "sender",
          "type": "address"
        }
      ],
      "name": "RoleRevoked",
      "type": "event"
    },
    {
      "inputs": [],
      "name": "DEFAULT_ADMIN_ROLE",
      "outputs": [
        {
          "internalType": "bytes32",
          "name": "",
          "type": "bytes32"
        }
      ],
      "stateMutability": "view",
      "type": "function",
      "constant": true
    },
    {
      "inputs": [
        {
          "internalType": "bytes32",
          "name": "role",
          "type": "bytes32"
        }
      ],
      "name": "getRoleAdmin",
      "outputs": [
        {
          "internalType": "bytes32",
          "name": "",
          "type": "bytes32"
        }
      ],
      "stateMutability": "view",
      "type": "function",
      "constant": true
    },
    {
      "inputs": [
        {
          "internalType": "bytes32",
          "name": "role",
          "type": "bytes32"
        },
        {
          "internalType": "address",
          "name": "account",
          "type": "address"
        }
      ],
      "name": "grantRole",
      "outputs": [],
      "stateMutability": "nonpayable",
      "type": "function"
    },
    {
      "inputs": [
        {
          "internalType": "bytes32",
          "name": "role",
          "type": "bytes32"
        },
        {
          "internalType": "address",
          "name": "account",
          "type": "address"
        }
      ],
      "name": "hasRole",
      "outputs": [
        {
          "internalType": "bool",
          "name": "",
          "type": "bool"
        }
      ],
      "stateMutability": "view",
      "type": "function",
      "constant": true
    },
    {
      "inputs": [
        {
          "internalType": "address",
          "name": "",
          "type": "address"
        }
      ],
      "name": "names",
      "outputs": [
        {
          "internalType": "string",
          "name": "",
          "type": "string"
        }
      ],
      "stateMutability": "view",
      "type": "function",
      "constant": true
    },
    {
      "inputs": [
        {
          "internalType": "bytes32",
          "name": "role",
          "type": "bytes32"
        },
        {
          "internalType": "address",
          "name": "account",
          "type": "address"
        }
      ],
      "name": "renounceRole",
      "outputs": [],
      "stateMutability": "nonpayable",
      "type": "function"
    },
    {
      "inputs": [
        {
          "internalType": "bytes32",
          "name": "role",
          "type": "bytes32"
        },
        {
          "internalType": "address",
          "name": "account",
          "type": "address"
        }
      ],
      "name": "revokeRole",
      "outputs": [],
      "stateMutability": "nonpayable",
      "type": "function"
    },
    {
      "inputs": [
        {
          "internalType": "bytes4",
          "name": "interfaceId",
          "type": "bytes4"
        }
      ],
      "name": "supportsInterface",
      "outputs": [
        {
          "internalType": "bool",
          "name": "",
          "type": "bool"
        }
      ],
      "stateMutability": "view",
      "type": "function",
      "constant": true
    },
    {
      "inputs": [
        {
          "internalType": "string",
          "name": "name",
          "type": "string"
        }
      ],
      "name": "updateName",
      "outputs": [],
      "stateMutability": "nonpayable",
      "type": "function"
    },
    {
      "inputs": [],
      "name": "initialize",
      "outputs": [],
      "stateMutability": "nonpayable",
      "type": "function"
    }
  ],
  "bytecode": "0x608060405234801561001057600080fd5b50610ac8806100206000396000f3fe608060405234801561001057600080fd5b506004361061008e5760003560e01c806301ffc9a714610093578063248a9ca3146100bb5780632f2ff15d146100dc57806336568abe146100f15780635cf3d346146101045780638129fc1c1461012457806384da92a71461012c57806391d148541461013f578063a217fddf14610152578063d547741f1461015a575b600080fd5b6100a66100a136600461079f565b61016d565b60405190151581526020015b60405180910390f35b6100ce6100c93660046107c9565b6101a4565b6040519081526020016100b2565b6100ef6100ea3660046107fe565b6101b9565b005b6100ef6100ff3660046107fe565b6101db565b61011761011236600461082a565b61025e565b6040516100b29190610875565b6100ef6102f8565b6100ef61013a3660046108be565b6103ab565b6100a661014d3660046107fe565b6103cb565b6100ce600081565b6100ef6101683660046107fe565b6103f6565b60006001600160e01b03198216637965db0b60e01b148061019e57506301ffc9a760e01b6001600160e01b03198316145b92915050565b60009081526065602052604090206001015490565b6101c2826101a4565b6101cc8133610413565b6101d68383610477565b505050565b6001600160a01b03811633146102505760405162461bcd60e51b815260206004820152602f60248201527f416363657373436f6e74726f6c3a2063616e206f6e6c792072656e6f756e636560448201526e103937b632b9903337b91039b2b63360891b60648201526084015b60405180910390fd5b61025a82826104fd565b5050565b609760205260009081526040902080546102779061096e565b80601f01602080910402602001604051908101604052809291908181526020018280546102a39061096e565b80156102f05780601f106102c5576101008083540402835291602001916102f0565b820191906000526020600020905b8154815290600101906020018083116102d357829003601f168201915b505050505081565b600054610100900460ff1680610311575060005460ff16155b6103745760405162461bcd60e51b815260206004820152602e60248201527f496e697469616c697a61626c653a20636f6e747261637420697320616c72656160448201526d191e481a5b9a5d1a585b1a5e995960921b6064820152608401610247565b600054610100900460ff16158015610396576000805461ffff19166101011790555b80156103a8576000805461ff00191690555b50565b336000908152609760209081526040909120825161025a92840190610706565b60009182526065602090815260408084206001600160a01b0393909316845291905290205460ff1690565b6103ff826101a4565b6104098133610413565b6101d683836104fd565b61041d82826103cb565b61025a57610435816001600160a01b03166014610564565b610440836020610564565b6040516020016104519291906109a9565b60408051601f198184030181529082905262461bcd60e51b825261024791600401610875565b61048182826103cb565b61025a5760008281526065602090815260408083206001600160a01b03851684529091529020805460ff191660011790556104b93390565b6001600160a01b0316816001600160a01b0316837f2f8788117e7eff1d82e926ec794901d17c78024a50270940304540a733656f0d60405160405180910390a45050565b61050782826103cb565b1561025a5760008281526065602090815260408083206001600160a01b0385168085529252808320805460ff1916905551339285917ff6391f5c32d9c69d2a47ea670b442974b53935d1edc7fd64eb21e047a839171b9190a45050565b60606000610573836002610a2e565b61057e906002610a4d565b6001600160401b03811115610595576105956108a8565b6040519080825280601f01601f1916602001820160405280156105bf576020820181803683370190505b509050600360fc1b816000815181106105da576105da610a65565b60200101906001600160f81b031916908160001a905350600f60fb1b8160018151811061060957610609610a65565b60200101906001600160f81b031916908160001a905350600061062d846002610a2e565b610638906001610a4d565b90505b60018111156106b0576f181899199a1a9b1b9c1cb0b131b232b360811b85600f166010811061066c5761066c610a65565b1a60f81b82828151811061068257610682610a65565b60200101906001600160f81b031916908160001a90535060049490941c936106a981610a7b565b905061063b565b5083156106ff5760405162461bcd60e51b815260206004820181905260248201527f537472696e67733a20686578206c656e67746820696e73756666696369656e746044820152606401610247565b9392505050565b8280546107129061096e565b90600052602060002090601f016020900481019282610734576000855561077a565b82601f1061074d57805160ff191683800117855561077a565b8280016001018555821561077a579182015b8281111561077a57825182559160200191906001019061075f565b5061078692915061078a565b5090565b5b80821115610786576000815560010161078b565b6000602082840312156107b157600080fd5b81356001600160e01b0319811681146106ff57600080fd5b6000602082840312156107db57600080fd5b5035919050565b80356001600160a01b03811681146107f957600080fd5b919050565b6000806040838503121561081157600080fd5b82359150610821602084016107e2565b90509250929050565b60006020828403121561083c57600080fd5b6106ff826107e2565b60005b83811015610860578181015183820152602001610848565b8381111561086f576000848401525b50505050565b6020815260008251806020840152610894816040850160208701610845565b601f01601f19169190910160400192915050565b634e487b7160e01b600052604160045260246000fd5b6000602082840312156108d057600080fd5b81356001600160401b03808211156108e757600080fd5b818401915084601f8301126108fb57600080fd5b81358181111561090d5761090d6108a8565b604051601f8201601f19908116603f01168101908382118183101715610935576109356108a8565b8160405282815287602084870101111561094e57600080fd5b826020860160208301376000928101602001929092525095945050505050565b600181811c9082168061098257607f821691505b602082108114156109a357634e487b7160e01b600052602260045260246000fd5b50919050565b76020b1b1b2b9b9a1b7b73a3937b61d1030b1b1b7bab73a1604d1b8152600083516109db816017850160208801610845565b7001034b99036b4b9b9b4b733903937b6329607d1b6017918401918201528351610a0c816028840160208801610845565b01602801949350505050565b634e487b7160e01b600052601160045260246000fd5b6000816000190483118215151615610a4857610a48610a18565b500290565b60008219821115610a6057610a60610a18565b500190565b634e487b7160e01b600052603260045260246000fd5b600081610a8a57610a8a610a18565b50600019019056fea264697066735822122011ae02e5a8eb98efef4faf6b307eea58e8c5d05ad7717007a6fa8b3060eb221d64736f6c634300080a0033",
  "immutableReferences": {},
  "source": "//SPDX-License-Identifier: MIT\npragma solidity ^0.8.0;\n\nimport \"@openzeppelin/contracts-upgradeable/access/AccessControlUpgradeable.sol\";\n\ncontract UserNameRegistry is AccessControlUpgradeable {\n\n    mapping(address => string) public names;\n\n    function updateName(string memory name) public {\n        names[msg.sender] = name;\n    }\n\n    function initialize() public initializer {}\n}\n",
  "sourcePath": "/Users/tjharrison/he/catanstitution/contracts/UserNameRegistry.sol",
  "compiler": {
    "name": "solc",
    "version": "0.8.10+commit.fc410830.Emscripten.clang"
  },
  "schemaVersion": "3.4.3",
  "updatedAt": "2021-11-28T18:34:04.901Z",
  "networkType": "ethereum",
  "devdoc": {
    "kind": "dev",
    "methods": {
      "getRoleAdmin(bytes32)": {
        "details": "Returns the admin role that controls `role`. See {grantRole} and {revokeRole}. To change a role's admin, use {_setRoleAdmin}."
      },
      "grantRole(bytes32,address)": {
        "details": "Grants `role` to `account`. If `account` had not been already granted `role`, emits a {RoleGranted} event. Requirements: - the caller must have ``role``'s admin role."
      },
      "hasRole(bytes32,address)": {
        "details": "Returns `true` if `account` has been granted `role`."
      },
      "renounceRole(bytes32,address)": {
        "details": "Revokes `role` from the calling account. Roles are often managed via {grantRole} and {revokeRole}: this function's purpose is to provide a mechanism for accounts to lose their privileges if they are compromised (such as when a trusted device is misplaced). If the calling account had been granted `role`, emits a {RoleRevoked} event. Requirements: - the caller must be `account`."
      },
      "revokeRole(bytes32,address)": {
        "details": "Revokes `role` from `account`. If `account` had been granted `role`, emits a {RoleRevoked} event. Requirements: - the caller must have ``role``'s admin role."
      },
      "supportsInterface(bytes4)": {
        "details": "See {IERC165-supportsInterface}."
      }
    },
    "version": 1
  },
  "userdoc": {
    "kind": "user",
    "methods": {},
    "version": 1
  }
}