{
  "contractName": "VoterPool",
  "abi": [
    {
      "anonymous": false,
      "inputs": [
        {
          "indexed": true,
          "internalType": "address",
          "name": "owner",
          "type": "address"
        },
        {
          "indexed": true,
          "internalType": "address",
          "name": "approved",
          "type": "address"
        },
        {
          "indexed": true,
          "internalType": "uint256",
          "name": "tokenId",
          "type": "uint256"
        }
      ],
      "name": "Approval",
      "type": "event"
    },
    {
      "anonymous": false,
      "inputs": [
        {
          "indexed": true,
          "internalType": "address",
          "name": "owner",
          "type": "address"
        },
        {
          "indexed": true,
          "internalType": "address",
          "name": "operator",
          "type": "address"
        },
        {
          "indexed": false,
          "internalType": "bool",
          "name": "approved",
          "type": "bool"
        }
      ],
      "name": "ApprovalForAll",
      "type": "event"
    },
    {
      "anonymous": false,
      "inputs": [
        {
          "indexed": true,
          "internalType": "bytes32",
          "name": "role",
          "type": "bytes32"
        },
        {
          "indexed": true,
          "internalType": "bytes32",
          "name": "previousAdminRole",
          "type": "bytes32"
        },
        {
          "indexed": true,
          "internalType": "bytes32",
          "name": "newAdminRole",
          "type": "bytes32"
        }
      ],
      "name": "RoleAdminChanged",
      "type": "event"
    },
    {
      "anonymous": false,
      "inputs": [
        {
          "indexed": true,
          "internalType": "bytes32",
          "name": "role",
          "type": "bytes32"
        },
        {
          "indexed": true,
          "internalType": "address",
          "name": "account",
          "type": "address"
        },
        {
          "indexed": true,
          "internalType": "address",
          "name": "sender",
          "type": "address"
        }
      ],
      "name": "RoleGranted",
      "type": "event"
    },
    {
      "anonymous": false,
      "inputs": [
        {
          "indexed": true,
          "internalType": "bytes32",
          "name": "role",
          "type": "bytes32"
        },
        {
          "indexed": true,
          "internalType": "address",
          "name": "account",
          "type": "address"
        },
        {
          "indexed": true,
          "internalType": "address",
          "name": "sender",
          "type": "address"
        }
      ],
      "name": "RoleRevoked",
      "type": "event"
    },
    {
      "anonymous": false,
      "inputs": [
        {
          "indexed": true,
          "internalType": "address",
          "name": "from",
          "type": "address"
        },
        {
          "indexed": true,
          "internalType": "address",
          "name": "to",
          "type": "address"
        },
        {
          "indexed": true,
          "internalType": "uint256",
          "name": "tokenId",
          "type": "uint256"
        }
      ],
      "name": "Transfer",
      "type": "event"
    },
    {
      "anonymous": false,
      "inputs": [
        {
          "indexed": true,
          "internalType": "address",
          "name": "voter",
          "type": "address"
        },
        {
          "indexed": true,
          "internalType": "uint256",
          "name": "voterNum",
          "type": "uint256"
        }
      ],
      "name": "VoterRegistered",
      "type": "event"
    },
    {
      "anonymous": false,
      "inputs": [
        {
          "indexed": true,
          "internalType": "address",
          "name": "voter",
          "type": "address"
        },
        {
          "indexed": true,
          "internalType": "uint256",
          "name": "voterNum",
          "type": "uint256"
        }
      ],
      "name": "VoterUnregistered",
      "type": "event"
    },
    {
      "inputs": [],
      "name": "DEFAULT_ADMIN_ROLE",
      "outputs": [
        {
          "internalType": "bytes32",
          "name": "",
          "type": "bytes32"
        }
      ],
      "stateMutability": "view",
      "type": "function",
      "constant": true
    },
    {
      "inputs": [],
      "name": "REGISTRATION_MANAGER",
      "outputs": [
        {
          "internalType": "bytes32",
          "name": "",
          "type": "bytes32"
        }
      ],
      "stateMutability": "view",
      "type": "function",
      "constant": true
    },
    {
      "inputs": [
        {
          "internalType": "address",
          "name": "to",
          "type": "address"
        },
        {
          "internalType": "uint256",
          "name": "tokenId",
          "type": "uint256"
        }
      ],
      "name": "approve",
      "outputs": [],
      "stateMutability": "nonpayable",
      "type": "function"
    },
    {
      "inputs": [
        {
          "internalType": "address",
          "name": "owner",
          "type": "address"
        }
      ],
      "name": "balanceOf",
      "outputs": [
        {
          "internalType": "uint256",
          "name": "",
          "type": "uint256"
        }
      ],
      "stateMutability": "view",
      "type": "function",
      "constant": true
    },
    {
      "inputs": [
        {
          "internalType": "uint256",
          "name": "tokenId",
          "type": "uint256"
        }
      ],
      "name": "getApproved",
      "outputs": [
        {
          "internalType": "address",
          "name": "",
          "type": "address"
        }
      ],
      "stateMutability": "view",
      "type": "function",
      "constant": true
    },
    {
      "inputs": [
        {
          "internalType": "bytes32",
          "name": "role",
          "type": "bytes32"
        }
      ],
      "name": "getRoleAdmin",
      "outputs": [
        {
          "internalType": "bytes32",
          "name": "",
          "type": "bytes32"
        }
      ],
      "stateMutability": "view",
      "type": "function",
      "constant": true
    },
    {
      "inputs": [
        {
          "internalType": "bytes32",
          "name": "role",
          "type": "bytes32"
        },
        {
          "internalType": "address",
          "name": "account",
          "type": "address"
        }
      ],
      "name": "grantRole",
      "outputs": [],
      "stateMutability": "nonpayable",
      "type": "function"
    },
    {
      "inputs": [
        {
          "internalType": "bytes32",
          "name": "role",
          "type": "bytes32"
        },
        {
          "internalType": "address",
          "name": "account",
          "type": "address"
        }
      ],
      "name": "hasRole",
      "outputs": [
        {
          "internalType": "bool",
          "name": "",
          "type": "bool"
        }
      ],
      "stateMutability": "view",
      "type": "function",
      "constant": true
    },
    {
      "inputs": [
        {
          "internalType": "address",
          "name": "owner",
          "type": "address"
        },
        {
          "internalType": "address",
          "name": "operator",
          "type": "address"
        }
      ],
      "name": "isApprovedForAll",
      "outputs": [
        {
          "internalType": "bool",
          "name": "",
          "type": "bool"
        }
      ],
      "stateMutability": "view",
      "type": "function",
      "constant": true
    },
    {
      "inputs": [],
      "name": "name",
      "outputs": [
        {
          "internalType": "string",
          "name": "",
          "type": "string"
        }
      ],
      "stateMutability": "view",
      "type": "function",
      "constant": true
    },
    {
      "inputs": [
        {
          "internalType": "uint256",
          "name": "tokenId",
          "type": "uint256"
        }
      ],
      "name": "ownerOf",
      "outputs": [
        {
          "internalType": "address",
          "name": "",
          "type": "address"
        }
      ],
      "stateMutability": "view",
      "type": "function",
      "constant": true
    },
    {
      "inputs": [
        {
          "internalType": "bytes32",
          "name": "role",
          "type": "bytes32"
        },
        {
          "internalType": "address",
          "name": "account",
          "type": "address"
        }
      ],
      "name": "renounceRole",
      "outputs": [],
      "stateMutability": "nonpayable",
      "type": "function"
    },
    {
      "inputs": [
        {
          "internalType": "bytes32",
          "name": "role",
          "type": "bytes32"
        },
        {
          "internalType": "address",
          "name": "account",
          "type": "address"
        }
      ],
      "name": "revokeRole",
      "outputs": [],
      "stateMutability": "nonpayable",
      "type": "function"
    },
    {
      "inputs": [
        {
          "internalType": "address",
          "name": "from",
          "type": "address"
        },
        {
          "internalType": "address",
          "name": "to",
          "type": "address"
        },
        {
          "internalType": "uint256",
          "name": "tokenId",
          "type": "uint256"
        }
      ],
      "name": "safeTransferFrom",
      "outputs": [],
      "stateMutability": "nonpayable",
      "type": "function"
    },
    {
      "inputs": [
        {
          "internalType": "address",
          "name": "from",
          "type": "address"
        },
        {
          "internalType": "address",
          "name": "to",
          "type": "address"
        },
        {
          "internalType": "uint256",
          "name": "tokenId",
          "type": "uint256"
        },
        {
          "internalType": "bytes",
          "name": "_data",
          "type": "bytes"
        }
      ],
      "name": "safeTransferFrom",
      "outputs": [],
      "stateMutability": "nonpayable",
      "type": "function"
    },
    {
      "inputs": [
        {
          "internalType": "address",
          "name": "operator",
          "type": "address"
        },
        {
          "internalType": "bool",
          "name": "approved",
          "type": "bool"
        }
      ],
      "name": "setApprovalForAll",
      "outputs": [],
      "stateMutability": "nonpayable",
      "type": "function"
    },
    {
      "inputs": [],
      "name": "symbol",
      "outputs": [
        {
          "internalType": "string",
          "name": "",
          "type": "string"
        }
      ],
      "stateMutability": "view",
      "type": "function",
      "constant": true
    },
    {
      "inputs": [
        {
          "internalType": "uint256",
          "name": "tokenId",
          "type": "uint256"
        }
      ],
      "name": "tokenURI",
      "outputs": [
        {
          "internalType": "string",
          "name": "",
          "type": "string"
        }
      ],
      "stateMutability": "view",
      "type": "function",
      "constant": true
    },
    {
      "inputs": [
        {
          "internalType": "address",
          "name": "from",
          "type": "address"
        },
        {
          "internalType": "address",
          "name": "to",
          "type": "address"
        },
        {
          "internalType": "uint256",
          "name": "tokenId",
          "type": "uint256"
        }
      ],
      "name": "transferFrom",
      "outputs": [],
      "stateMutability": "nonpayable",
      "type": "function"
    },
    {
      "inputs": [],
      "name": "initialize",
      "outputs": [],
      "stateMutability": "nonpayable",
      "type": "function"
    },
    {
      "inputs": [
        {
          "internalType": "address",
          "name": "voter",
          "type": "address"
        }
      ],
      "name": "registerVoter",
      "outputs": [],
      "stateMutability": "nonpayable",
      "type": "function"
    },
    {
      "inputs": [
        {
          "internalType": "address",
          "name": "voter",
          "type": "address"
        }
      ],
      "name": "unregisterVoter",
      "outputs": [],
      "stateMutability": "nonpayable",
      "type": "function"
    },
    {
      "inputs": [
        {
          "internalType": "address",
          "name": "voter",
          "type": "address"
        }
      ],
      "name": "isVoter",
      "outputs": [
        {
          "internalType": "bool",
          "name": "",
          "type": "bool"
        }
      ],
      "stateMutability": "nonpayable",
      "type": "function"
    },
    {
      "inputs": [],
      "name": "numVoters",
      "outputs": [
        {
          "internalType": "uint256",
          "name": "",
          "type": "uint256"
        }
      ],
      "stateMutability": "nonpayable",
      "type": "function"
    },
    {
      "inputs": [
        {
          "internalType": "uint256",
          "name": "index",
          "type": "uint256"
        }
      ],
      "name": "getVoter",
      "outputs": [
        {
          "internalType": "address",
          "name": "",
          "type": "address"
        }
      ],
      "stateMutability": "nonpayable",
      "type": "function"
    },
    {
      "inputs": [
        {
          "internalType": "bytes4",
          "name": "interfaceId",
          "type": "bytes4"
        }
      ],
      "name": "supportsInterface",
      "outputs": [
        {
          "internalType": "bool",
          "name": "",
          "type": "bool"
        }
      ],
      "stateMutability": "view",
      "type": "function",
      "constant": true
    }
  ],
  "bytecode": "0x608060405234801561001057600080fd5b506120b6806100206000396000f3fe608060405234801561001057600080fd5b506004361061013e5760003560e01c806301ffc9a71461014357806306fdde031461016b578063081812fc14610180578063095ea7b3146101ab57806323b872dd146101c0578063248a9ca3146101d35780632f2ff15d146101f457806336568abe1461020757806338db6dd31461021a57806342842e0e1461022d5780634cbe32b8146102405780636352211e1461024857806370a082311461025b5780637ed177511461026e5780638129fc1c1461028157806391d148541461028957806395d89b411461029c578063a217fddf146102a4578063a22cb465146102ac578063a7771ee3146102bf578063b88d4fde146102d2578063bda396f7146102e5578063c87b56dd146102fa578063d07bff0c1461030d578063d547741f14610320578063e985e9c514610333575b600080fd5b610156610151366004611a5b565b610346565b60405190151581526020015b60405180910390f35b610173610357565b6040516101629190611ad0565b61019361018e366004611ae3565b6103e9565b6040516001600160a01b039091168152602001610162565b6101be6101b9366004611b18565b610476565b005b6101be6101ce366004611b42565b610587565b6101e66101e1366004611ae3565b6105b8565b604051908152602001610162565b6101be610202366004611b7e565b6105cd565b6101be610215366004611b7e565b6105ea565b6101be610228366004611baa565b610668565b6101be61023b366004611b42565b6106dc565b6101e66106f7565b610193610256366004611ae3565b610708565b6101e6610269366004611baa565b61077f565b6101be61027c366004611baa565b610806565b6101be61086d565b610156610297366004611b7e565b610959565b610173610984565b6101e6600081565b6101be6102ba366004611bc5565b610993565b6101566102cd366004611baa565b610a54565b6101be6102e0366004611c17565b610a61565b6101e660008051602061206183398151915281565b610173610308366004611ae3565b610a99565b61019361031b366004611ae3565b610b71565b6101be61032e366004611b7e565b610b7e565b610156610341366004611cf2565b610b9b565b600061035182610bc9565b92915050565b60606065805461036690611d1c565b80601f016020809104026020016040519081016040528092919081815260200182805461039290611d1c565b80156103df5780601f106103b4576101008083540402835291602001916103df565b820191906000526020600020905b8154815290600101906020018083116103c257829003601f168201915b5050505050905090565b60006103f482610bee565b61045a5760405162461bcd60e51b815260206004820152602c60248201527f4552433732313a20617070726f76656420717565727920666f72206e6f6e657860448201526b34b9ba32b73a103a37b5b2b760a11b60648201526084015b60405180910390fd5b506000908152606960205260409020546001600160a01b031690565b600061048182610708565b9050806001600160a01b0316836001600160a01b031614156104ef5760405162461bcd60e51b815260206004820152602160248201527f4552433732313a20617070726f76616c20746f2063757272656e74206f776e656044820152603960f91b6064820152608401610451565b336001600160a01b038216148061050b575061050b8133610b9b565b6105785760405162461bcd60e51b815260206004820152603860248201527f4552433732313a20617070726f76652063616c6c6572206973206e6f74206f776044820152771b995c881b9bdc88185c1c1c9bdd995908199bdc88185b1b60421b6064820152608401610451565b6105828383610c0b565b505050565b6105913382610c79565b6105ad5760405162461bcd60e51b815260040161045190611d57565b610582838383610d43565b60009081526097602052604090206001015490565b6105d6826105b8565b6105e08133610ed1565b6105828383610f35565b6001600160a01b038116331461065a5760405162461bcd60e51b815260206004820152602f60248201527f416363657373436f6e74726f6c3a2063616e206f6e6c792072656e6f756e636560448201526e103937b632b9903337b91039b2b63360891b6064820152608401610451565b6106648282610fbb565b5050565b6000805160206120618339815191526106818133610ed1565b61068a82610a54565b6106645761069960c983611022565b506106a460c9611037565b6040516001600160a01b038416907ff16ce2c2236e2c6e3df646f80d657bceef4cd7f3a240c47e82adfa17a5f4724190600090a35050565b61058283838360405180602001604052806000815250610a61565b600061070360c9611037565b905090565b6000818152606760205260408120546001600160a01b0316806103515760405162461bcd60e51b815260206004820152602960248201527f4552433732313a206f776e657220717565727920666f72206e6f6e657869737460448201526832b73a103a37b5b2b760b91b6064820152608401610451565b60006001600160a01b0382166107ea5760405162461bcd60e51b815260206004820152602a60248201527f4552433732313a2062616c616e636520717565727920666f7220746865207a65604482015269726f206164647265737360b01b6064820152608401610451565b506001600160a01b031660009081526068602052604090205490565b60008051602061206183398151915261081f8133610ed1565b61082a60c983611041565b5061083560c9611037565b6040516001600160a01b038416907f78b411a8cf59f03839ed9a669c4c63f73ed091f1aed5762c8e3ff1eae39763a490600090a35050565b600054610100900460ff1680610886575060005460ff16155b6108a25760405162461bcd60e51b815260040161045190611da8565b600054610100900460ff161580156108c4576000805461ffff19166101011790555b61090960405180604001604052806009815260200168159bdd195c941bdbdb60ba1b81525060405180604001604052806002815260200161056560f41b815250611056565b6109143360016110dd565b61092c600080516020612061833981519152806110f7565b61094460008051602061206183398151915233611141565b8015610956576000805461ff00191690555b50565b60009182526097602090815260408084206001600160a01b0393909316845291905290205460ff1690565b60606066805461036690611d1c565b6001600160a01b0382163314156109e85760405162461bcd60e51b815260206004820152601960248201527822a9219b99189d1030b8383937bb32903a379031b0b63632b960391b6044820152606401610451565b336000818152606a602090815260408083206001600160a01b03871680855290835292819020805460ff191686151590811790915590519081529192917f17307eab39ab6107e8899845ad3d59bd9653f200f220920489ca2b5937696c31910160405180910390a35050565b600061035160c98361114b565b610a6b3383610c79565b610a875760405162461bcd60e51b815260040161045190611d57565b610a9384848484611160565b50505050565b6060610aa482610bee565b610b085760405162461bcd60e51b815260206004820152602f60248201527f4552433732314d657461646174613a2055524920717565727920666f72206e6f60448201526e3732bc34b9ba32b73a103a37b5b2b760891b6064820152608401610451565b6000610b1f60408051602081019091526000815290565b90506000815111610b3f5760405180602001604052806000815250610b6a565b80610b4984611193565b604051602001610b5a929190611df6565b6040516020818303038152906040525b9392505050565b600061035160c983611290565b610b87826105b8565b610b918133610ed1565b6105828383610fbb565b6001600160a01b039182166000908152606a6020908152604080832093909416825291909152205460ff1690565b60006001600160e01b03198216637965db0b60e01b148061035157506103518261129c565b6000908152606760205260409020546001600160a01b0316151590565b600081815260696020526040902080546001600160a01b0319166001600160a01b0384169081179091558190610c4082610708565b6001600160a01b03167f8c5be1e5ebec7d5bd14f71427d1e84f3dd0314c0f7b2291e5b200ac8c7c3b92560405160405180910390a45050565b6000610c8482610bee565b610ce55760405162461bcd60e51b815260206004820152602c60248201527f4552433732313a206f70657261746f7220717565727920666f72206e6f6e657860448201526b34b9ba32b73a103a37b5b2b760a11b6064820152608401610451565b6000610cf083610708565b9050806001600160a01b0316846001600160a01b03161480610d2b5750836001600160a01b0316610d20846103e9565b6001600160a01b0316145b80610d3b5750610d3b8185610b9b565b949350505050565b826001600160a01b0316610d5682610708565b6001600160a01b031614610dbe5760405162461bcd60e51b815260206004820152602960248201527f4552433732313a207472616e73666572206f6620746f6b656e2074686174206960448201526839903737ba1037bbb760b91b6064820152608401610451565b6001600160a01b038216610e205760405162461bcd60e51b8152602060048201526024808201527f4552433732313a207472616e7366657220746f20746865207a65726f206164646044820152637265737360e01b6064820152608401610451565b610e2b600082610c0b565b6001600160a01b0383166000908152606860205260408120805460019290610e54908490611e3b565b90915550506001600160a01b0382166000908152606860205260408120805460019290610e82908490611e52565b909155505060008181526067602052604080822080546001600160a01b0319166001600160a01b03868116918217909255915184939187169160008051602061204183398151915291a4505050565b610edb8282610959565b61066457610ef3816001600160a01b031660146112ec565b610efe8360206112ec565b604051602001610f0f929190611e6a565b60408051601f198184030181529082905262461bcd60e51b825261045191600401611ad0565b610f3f8282610959565b6106645760008281526097602090815260408083206001600160a01b03851684529091529020805460ff19166001179055610f773390565b6001600160a01b0316816001600160a01b0316837f2f8788117e7eff1d82e926ec794901d17c78024a50270940304540a733656f0d60405160405180910390a45050565b610fc58282610959565b156106645760008281526097602090815260408083206001600160a01b0385168085529252808320805460ff1916905551339285917ff6391f5c32d9c69d2a47ea670b442974b53935d1edc7fd64eb21e047a839171b9190a45050565b6000610b6a836001600160a01b038416611487565b6000610351825490565b6000610b6a836001600160a01b0384166114d1565b600054610100900460ff168061106f575060005460ff16155b61108b5760405162461bcd60e51b815260040161045190611da8565b600054610100900460ff161580156110ad576000805461ffff19166101011790555b6110b56115be565b6110bd6115be565b6110c78383611628565b8015610582576000805461ff0019169055505050565b6106648282604051806020016040528060008152506116bd565b80611101836105b8565b60405184907fbd79b86ffe0ab8e8776151514217cd7cacd52c909f66475c3af44e129f0b00ff90600090a460009182526097602052604090912060010155565b6106648282610f35565b6000610b6a836001600160a01b0384166116f0565b61116b848484610d43565b61117784848484611708565b610a935760405162461bcd60e51b815260040161045190611ed9565b6060816111b75750506040805180820190915260018152600360fc1b602082015290565b8160005b81156111e157806111cb81611f2b565b91506111da9050600a83611f5c565b91506111bb565b6000816001600160401b038111156111fb576111fb611c01565b6040519080825280601f01601f191660200182016040528015611225576020820181803683370190505b5090505b8415610d3b5761123a600183611e3b565b9150611247600a86611f70565b611252906030611e52565b60f81b81838151811061126757611267611f84565b60200101906001600160f81b031916908160001a905350611289600a86611f5c565b9450611229565b6000610b6a8383611806565b60006001600160e01b031982166380ac58cd60e01b14806112cd57506001600160e01b03198216635b5e139f60e01b145b8061035157506301ffc9a760e01b6001600160e01b0319831614610351565b606060006112fb836002611f9a565b611306906002611e52565b6001600160401b0381111561131d5761131d611c01565b6040519080825280601f01601f191660200182016040528015611347576020820181803683370190505b509050600360fc1b8160008151811061136257611362611f84565b60200101906001600160f81b031916908160001a905350600f60fb1b8160018151811061139157611391611f84565b60200101906001600160f81b031916908160001a90535060006113b5846002611f9a565b6113c0906001611e52565b90505b6001811115611438576f181899199a1a9b1b9c1cb0b131b232b360811b85600f16601081106113f4576113f4611f84565b1a60f81b82828151811061140a5761140a611f84565b60200101906001600160f81b031916908160001a90535060049490941c9361143181611fb9565b90506113c3565b508315610b6a5760405162461bcd60e51b815260206004820181905260248201527f537472696e67733a20686578206c656e67746820696e73756666696369656e746044820152606401610451565b600061149383836116f0565b6114c957508154600181810184556000848152602080822090930184905584548482528286019093526040902091909155610351565b506000610351565b600081815260018301602052604081205480156115b45760006114f5600183611e3b565b855490915060009061150990600190611e3b565b9050600086600001828154811061152257611522611f84565b906000526020600020015490508087600001848154811061154557611545611f84565b60009182526020808320909101929092558281526001890190915260409020849055865487908061157857611578611fd0565b60019003818190600052602060002001600090559055866001016000878152602001908152602001600020600090556001945050505050610351565b6000915050610351565b600054610100900460ff16806115d7575060005460ff16155b6115f35760405162461bcd60e51b815260040161045190611da8565b600054610100900460ff16158015610944576000805461ffff19166101011790558015610956576000805461ff001916905550565b600054610100900460ff1680611641575060005460ff16155b61165d5760405162461bcd60e51b815260040161045190611da8565b600054610100900460ff1615801561167f576000805461ffff19166101011790555b82516116929060659060208601906119ac565b5081516116a69060669060208501906119ac565b508015610582576000805461ff0019169055505050565b6116c7838361188c565b6116d46000848484611708565b6105825760405162461bcd60e51b815260040161045190611ed9565b60009081526001919091016020526040902054151590565b60006001600160a01b0384163b156117fb57604051630a85bd0160e11b81526001600160a01b0385169063150b7a029061174c903390899088908890600401611fe6565b6020604051808303816000875af1925050508015611787575060408051601f3d908101601f1916820190925261178491810190612023565b60015b6117e1573d8080156117b5576040519150601f19603f3d011682016040523d82523d6000602084013e6117ba565b606091505b5080516117d95760405162461bcd60e51b815260040161045190611ed9565b805181602001fd5b6001600160e01b031916630a85bd0160e11b149050610d3b565b506001949350505050565b815460009082106118645760405162461bcd60e51b815260206004820152602260248201527f456e756d657261626c655365743a20696e646578206f7574206f6620626f756e604482015261647360f01b6064820152608401610451565b82600001828154811061187957611879611f84565b9060005260206000200154905092915050565b6001600160a01b0382166118e25760405162461bcd60e51b815260206004820181905260248201527f4552433732313a206d696e7420746f20746865207a65726f20616464726573736044820152606401610451565b6118eb81610bee565b156119375760405162461bcd60e51b815260206004820152601c60248201527b115490cdcc8c4e881d1bdad95b88185b1c9958591e481b5a5b9d195960221b6044820152606401610451565b6001600160a01b0382166000908152606860205260408120805460019290611960908490611e52565b909155505060008181526067602052604080822080546001600160a01b0319166001600160a01b0386169081179091559051839290600080516020612041833981519152908290a45050565b8280546119b890611d1c565b90600052602060002090601f0160209004810192826119da5760008555611a20565b82601f106119f357805160ff1916838001178555611a20565b82800160010185558215611a20579182015b82811115611a20578251825591602001919060010190611a05565b50611a2c929150611a30565b5090565b5b80821115611a2c5760008155600101611a31565b6001600160e01b03198116811461095657600080fd5b600060208284031215611a6d57600080fd5b8135610b6a81611a45565b60005b83811015611a93578181015183820152602001611a7b565b83811115610a935750506000910152565b60008151808452611abc816020860160208601611a78565b601f01601f19169290920160200192915050565b602081526000610b6a6020830184611aa4565b600060208284031215611af557600080fd5b5035919050565b80356001600160a01b0381168114611b1357600080fd5b919050565b60008060408385031215611b2b57600080fd5b611b3483611afc565b946020939093013593505050565b600080600060608486031215611b5757600080fd5b611b6084611afc565b9250611b6e60208501611afc565b9150604084013590509250925092565b60008060408385031215611b9157600080fd5b82359150611ba160208401611afc565b90509250929050565b600060208284031215611bbc57600080fd5b610b6a82611afc565b60008060408385031215611bd857600080fd5b611be183611afc565b915060208301358015158114611bf657600080fd5b809150509250929050565b634e487b7160e01b600052604160045260246000fd5b60008060008060808587031215611c2d57600080fd5b611c3685611afc565b9350611c4460208601611afc565b92506040850135915060608501356001600160401b0380821115611c6757600080fd5b818701915087601f830112611c7b57600080fd5b813581811115611c8d57611c8d611c01565b604051601f8201601f19908116603f01168101908382118183101715611cb557611cb5611c01565b816040528281528a6020848701011115611cce57600080fd5b82602086016020830137600060208483010152809550505050505092959194509250565b60008060408385031215611d0557600080fd5b611d0e83611afc565b9150611ba160208401611afc565b600181811c90821680611d3057607f821691505b60208210811415611d5157634e487b7160e01b600052602260045260246000fd5b50919050565b60208082526031908201527f4552433732313a207472616e736665722063616c6c6572206973206e6f74206f6040820152701ddb995c881b9bdc88185c1c1c9bdd9959607a1b606082015260800190565b6020808252602e908201527f496e697469616c697a61626c653a20636f6e747261637420697320616c72656160408201526d191e481a5b9a5d1a585b1a5e995960921b606082015260800190565b60008351611e08818460208801611a78565b835190830190611e1c818360208801611a78565b01949350505050565b634e487b7160e01b600052601160045260246000fd5b600082821015611e4d57611e4d611e25565b500390565b60008219821115611e6557611e65611e25565b500190565b76020b1b1b2b9b9a1b7b73a3937b61d1030b1b1b7bab73a1604d1b815260008351611e9c816017850160208801611a78565b7001034b99036b4b9b9b4b733903937b6329607d1b6017918401918201528351611ecd816028840160208801611a78565b01602801949350505050565b60208082526032908201527f4552433732313a207472616e7366657220746f206e6f6e20455243373231526560408201527131b2b4bb32b91034b6b83632b6b2b73a32b960711b606082015260800190565b6000600019821415611f3f57611f3f611e25565b5060010190565b634e487b7160e01b600052601260045260246000fd5b600082611f6b57611f6b611f46565b500490565b600082611f7f57611f7f611f46565b500690565b634e487b7160e01b600052603260045260246000fd5b6000816000190483118215151615611fb457611fb4611e25565b500290565b600081611fc857611fc8611e25565b506000190190565b634e487b7160e01b600052603160045260246000fd5b6001600160a01b038581168252841660208201526040810183905260806060820181905260009061201990830184611aa4565b9695505050505050565b60006020828403121561203557600080fd5b8151610b6a81611a4556feddf252ad1be2c89b69c2b068fc378daa952ba7f163c4a11628f55a4df523b3ef3d6217aa7b8bd23f6f323270b7f1e834a381351d082f2aba38445a8d8a94d2aca2646970667358221220481efb92d86eb44b9bba241dfe9e1c14c7d1054fed73d5ef5688d402b440be4564736f6c634300080a0033",
  "immutableReferences": {},
  "source": "//SPDX-License-Identifier: MIT\npragma solidity ^0.8.0;\n\nimport \"@openzeppelin/contracts-upgradeable/token/ERC721/ERC721Upgradeable.sol\";\nimport \"@openzeppelin/contracts-upgradeable/access/AccessControlUpgradeable.sol\";\nimport \"@openzeppelin/contracts-upgradeable/utils/structs/EnumerableSetUpgradeable.sol\";\n\ncontract VoterPool is ERC721Upgradeable, AccessControlUpgradeable {\n\n    using EnumerableSetUpgradeable for EnumerableSetUpgradeable.AddressSet;\n\n    bytes32 public constant REGISTRATION_MANAGER = keccak256(\"REGISTRATION_MANAGER_ROLE\");\n\n    EnumerableSetUpgradeable.AddressSet private voters;\n\n    function initialize() public initializer {\n        ERC721Upgradeable.__ERC721_init(\"VoterPool\", \"VP\");\n        _safeMint(msg.sender, 1);\n\n        _setRoleAdmin(REGISTRATION_MANAGER, REGISTRATION_MANAGER);\n        _setupRole(REGISTRATION_MANAGER, msg.sender);\n    }\n\n    function registerVoter(address voter) public onlyRole(REGISTRATION_MANAGER) {\n        if(!isVoter(voter)){\n            voters.add(voter);\n            emit VoterRegistered(voter, voters.length());\n        }\n    }\n\n    function unregisterVoter(address voter) public onlyRole(REGISTRATION_MANAGER) {\n        voters.remove(voter);\n        emit VoterUnregistered(voter, voters.length());\n    }\n\n    function isVoter(address voter) public virtual returns (bool){\n        return voters.contains(voter);\n    }\n\n    function numVoters() public virtual returns (uint256) {\n        return voters.length();\n    }\n\n    function getVoter(uint256 index) public virtual returns (address) {\n        return voters.at(index);\n    }\n\n    event VoterRegistered (\n        address indexed voter,\n        uint256 indexed voterNum\n    );\n\n    event VoterUnregistered (\n        address indexed voter,\n        uint256 indexed voterNum\n    );\n\n    function supportsInterface(bytes4 interfaceId) public view override(ERC721Upgradeable, AccessControlUpgradeable) returns (bool) {\n        return super.supportsInterface(interfaceId);\n    }\n}\n",
  "sourcePath": "/Users/tjharrison/he/catanstitution/contracts/open-orgs/VoterPool.sol",
  "compiler": {
    "name": "solc",
    "version": "0.8.10+commit.fc410830.Emscripten.clang"
  },
  "schemaVersion": "3.4.3",
  "updatedAt": "2021-11-28T18:34:04.830Z",
  "networkType": "ethereum",
  "devdoc": {
    "kind": "dev",
    "methods": {
      "approve(address,uint256)": {
        "details": "See {IERC721-approve}."
      },
      "balanceOf(address)": {
        "details": "See {IERC721-balanceOf}."
      },
      "getApproved(uint256)": {
        "details": "See {IERC721-getApproved}."
      },
      "getRoleAdmin(bytes32)": {
        "details": "Returns the admin role that controls `role`. See {grantRole} and {revokeRole}. To change a role's admin, use {_setRoleAdmin}."
      },
      "grantRole(bytes32,address)": {
        "details": "Grants `role` to `account`. If `account` had not been already granted `role`, emits a {RoleGranted} event. Requirements: - the caller must have ``role``'s admin role."
      },
      "hasRole(bytes32,address)": {
        "details": "Returns `true` if `account` has been granted `role`."
      },
      "isApprovedForAll(address,address)": {
        "details": "See {IERC721-isApprovedForAll}."
      },
      "name()": {
        "details": "See {IERC721Metadata-name}."
      },
      "ownerOf(uint256)": {
        "details": "See {IERC721-ownerOf}."
      },
      "renounceRole(bytes32,address)": {
        "details": "Revokes `role` from the calling account. Roles are often managed via {grantRole} and {revokeRole}: this function's purpose is to provide a mechanism for accounts to lose their privileges if they are compromised (such as when a trusted device is misplaced). If the calling account had been granted `role`, emits a {RoleRevoked} event. Requirements: - the caller must be `account`."
      },
      "revokeRole(bytes32,address)": {
        "details": "Revokes `role` from `account`. If `account` had been granted `role`, emits a {RoleRevoked} event. Requirements: - the caller must have ``role``'s admin role."
      },
      "safeTransferFrom(address,address,uint256)": {
        "details": "See {IERC721-safeTransferFrom}."
      },
      "safeTransferFrom(address,address,uint256,bytes)": {
        "details": "See {IERC721-safeTransferFrom}."
      },
      "setApprovalForAll(address,bool)": {
        "details": "See {IERC721-setApprovalForAll}."
      },
      "symbol()": {
        "details": "See {IERC721Metadata-symbol}."
      },
      "tokenURI(uint256)": {
        "details": "See {IERC721Metadata-tokenURI}."
      },
      "transferFrom(address,address,uint256)": {
        "details": "See {IERC721-transferFrom}."
      }
    },
    "version": 1
  },
  "userdoc": {
    "kind": "user",
    "methods": {},
    "version": 1
  }
}