{
  "contractName": "VoterPool",
  "abi": [
    {
      "inputs": [],
      "stateMutability": "nonpayable",
      "type": "constructor"
    },
    {
      "anonymous": false,
      "inputs": [
        {
          "indexed": true,
          "internalType": "address",
          "name": "owner",
          "type": "address"
        },
        {
          "indexed": true,
          "internalType": "address",
          "name": "approved",
          "type": "address"
        },
        {
          "indexed": true,
          "internalType": "uint256",
          "name": "tokenId",
          "type": "uint256"
        }
      ],
      "name": "Approval",
      "type": "event"
    },
    {
      "anonymous": false,
      "inputs": [
        {
          "indexed": true,
          "internalType": "address",
          "name": "owner",
          "type": "address"
        },
        {
          "indexed": true,
          "internalType": "address",
          "name": "operator",
          "type": "address"
        },
        {
          "indexed": false,
          "internalType": "bool",
          "name": "approved",
          "type": "bool"
        }
      ],
      "name": "ApprovalForAll",
      "type": "event"
    },
    {
      "anonymous": false,
      "inputs": [
        {
          "indexed": true,
          "internalType": "address",
          "name": "previousOwner",
          "type": "address"
        },
        {
          "indexed": true,
          "internalType": "address",
          "name": "newOwner",
          "type": "address"
        }
      ],
      "name": "OwnershipTransferred",
      "type": "event"
    },
    {
      "anonymous": false,
      "inputs": [
        {
          "indexed": true,
          "internalType": "address",
          "name": "from",
          "type": "address"
        },
        {
          "indexed": true,
          "internalType": "address",
          "name": "to",
          "type": "address"
        },
        {
          "indexed": true,
          "internalType": "uint256",
          "name": "tokenId",
          "type": "uint256"
        }
      ],
      "name": "Transfer",
      "type": "event"
    },
    {
      "anonymous": false,
      "inputs": [
        {
          "indexed": true,
          "internalType": "address",
          "name": "voter",
          "type": "address"
        },
        {
          "indexed": true,
          "internalType": "uint256",
          "name": "voterNum",
          "type": "uint256"
        }
      ],
      "name": "VoterRegistered",
      "type": "event"
    },
    {
      "anonymous": false,
      "inputs": [
        {
          "indexed": true,
          "internalType": "address",
          "name": "voter",
          "type": "address"
        },
        {
          "indexed": true,
          "internalType": "uint256",
          "name": "voterNum",
          "type": "uint256"
        }
      ],
      "name": "VoterUnregistered",
      "type": "event"
    },
    {
      "inputs": [
        {
          "internalType": "address",
          "name": "to",
          "type": "address"
        },
        {
          "internalType": "uint256",
          "name": "tokenId",
          "type": "uint256"
        }
      ],
      "name": "approve",
      "outputs": [],
      "stateMutability": "nonpayable",
      "type": "function"
    },
    {
      "inputs": [
        {
          "internalType": "address",
          "name": "owner",
          "type": "address"
        }
      ],
      "name": "balanceOf",
      "outputs": [
        {
          "internalType": "uint256",
          "name": "",
          "type": "uint256"
        }
      ],
      "stateMutability": "view",
      "type": "function"
    },
    {
      "inputs": [
        {
          "internalType": "uint256",
          "name": "tokenId",
          "type": "uint256"
        }
      ],
      "name": "getApproved",
      "outputs": [
        {
          "internalType": "address",
          "name": "",
          "type": "address"
        }
      ],
      "stateMutability": "view",
      "type": "function"
    },
    {
      "inputs": [
        {
          "internalType": "address",
          "name": "owner",
          "type": "address"
        },
        {
          "internalType": "address",
          "name": "operator",
          "type": "address"
        }
      ],
      "name": "isApprovedForAll",
      "outputs": [
        {
          "internalType": "bool",
          "name": "",
          "type": "bool"
        }
      ],
      "stateMutability": "view",
      "type": "function"
    },
    {
      "inputs": [],
      "name": "name",
      "outputs": [
        {
          "internalType": "string",
          "name": "",
          "type": "string"
        }
      ],
      "stateMutability": "view",
      "type": "function"
    },
    {
      "inputs": [],
      "name": "numVoters",
      "outputs": [
        {
          "internalType": "uint256",
          "name": "",
          "type": "uint256"
        }
      ],
      "stateMutability": "view",
      "type": "function"
    },
    {
      "inputs": [],
      "name": "owner",
      "outputs": [
        {
          "internalType": "address",
          "name": "",
          "type": "address"
        }
      ],
      "stateMutability": "view",
      "type": "function"
    },
    {
      "inputs": [
        {
          "internalType": "uint256",
          "name": "tokenId",
          "type": "uint256"
        }
      ],
      "name": "ownerOf",
      "outputs": [
        {
          "internalType": "address",
          "name": "",
          "type": "address"
        }
      ],
      "stateMutability": "view",
      "type": "function"
    },
    {
      "inputs": [],
      "name": "renounceOwnership",
      "outputs": [],
      "stateMutability": "nonpayable",
      "type": "function"
    },
    {
      "inputs": [
        {
          "internalType": "address",
          "name": "from",
          "type": "address"
        },
        {
          "internalType": "address",
          "name": "to",
          "type": "address"
        },
        {
          "internalType": "uint256",
          "name": "tokenId",
          "type": "uint256"
        }
      ],
      "name": "safeTransferFrom",
      "outputs": [],
      "stateMutability": "nonpayable",
      "type": "function"
    },
    {
      "inputs": [
        {
          "internalType": "address",
          "name": "from",
          "type": "address"
        },
        {
          "internalType": "address",
          "name": "to",
          "type": "address"
        },
        {
          "internalType": "uint256",
          "name": "tokenId",
          "type": "uint256"
        },
        {
          "internalType": "bytes",
          "name": "_data",
          "type": "bytes"
        }
      ],
      "name": "safeTransferFrom",
      "outputs": [],
      "stateMutability": "nonpayable",
      "type": "function"
    },
    {
      "inputs": [
        {
          "internalType": "address",
          "name": "operator",
          "type": "address"
        },
        {
          "internalType": "bool",
          "name": "approved",
          "type": "bool"
        }
      ],
      "name": "setApprovalForAll",
      "outputs": [],
      "stateMutability": "nonpayable",
      "type": "function"
    },
    {
      "inputs": [
        {
          "internalType": "bytes4",
          "name": "interfaceId",
          "type": "bytes4"
        }
      ],
      "name": "supportsInterface",
      "outputs": [
        {
          "internalType": "bool",
          "name": "",
          "type": "bool"
        }
      ],
      "stateMutability": "view",
      "type": "function"
    },
    {
      "inputs": [],
      "name": "symbol",
      "outputs": [
        {
          "internalType": "string",
          "name": "",
          "type": "string"
        }
      ],
      "stateMutability": "view",
      "type": "function"
    },
    {
      "inputs": [
        {
          "internalType": "uint256",
          "name": "tokenId",
          "type": "uint256"
        }
      ],
      "name": "tokenURI",
      "outputs": [
        {
          "internalType": "string",
          "name": "",
          "type": "string"
        }
      ],
      "stateMutability": "view",
      "type": "function"
    },
    {
      "inputs": [
        {
          "internalType": "address",
          "name": "from",
          "type": "address"
        },
        {
          "internalType": "address",
          "name": "to",
          "type": "address"
        },
        {
          "internalType": "uint256",
          "name": "tokenId",
          "type": "uint256"
        }
      ],
      "name": "transferFrom",
      "outputs": [],
      "stateMutability": "nonpayable",
      "type": "function"
    },
    {
      "inputs": [
        {
          "internalType": "address",
          "name": "newOwner",
          "type": "address"
        }
      ],
      "name": "transferOwnership",
      "outputs": [],
      "stateMutability": "nonpayable",
      "type": "function"
    },
    {
      "inputs": [
        {
          "internalType": "address",
          "name": "",
          "type": "address"
        }
      ],
      "name": "voterRegistrationIndexes",
      "outputs": [
        {
          "internalType": "uint256",
          "name": "",
          "type": "uint256"
        }
      ],
      "stateMutability": "view",
      "type": "function"
    },
    {
      "inputs": [
        {
          "internalType": "uint256",
          "name": "",
          "type": "uint256"
        }
      ],
      "name": "voterRegistrations",
      "outputs": [
        {
          "internalType": "address",
          "name": "",
          "type": "address"
        }
      ],
      "stateMutability": "view",
      "type": "function"
    },
    {
      "inputs": [
        {
          "internalType": "address",
          "name": "voter",
          "type": "address"
        }
      ],
      "name": "registerVoter",
      "outputs": [],
      "stateMutability": "nonpayable",
      "type": "function"
    },
    {
      "inputs": [
        {
          "internalType": "address",
          "name": "voter",
          "type": "address"
        }
      ],
      "name": "unregisterVoter",
      "outputs": [],
      "stateMutability": "nonpayable",
      "type": "function"
    },
    {
      "inputs": [
        {
          "internalType": "address",
          "name": "voter",
          "type": "address"
        }
      ],
      "name": "isVoter",
      "outputs": [
        {
          "internalType": "bool",
          "name": "",
          "type": "bool"
        }
      ],
      "stateMutability": "nonpayable",
      "type": "function"
    }
  ],
  "bytecode": "0x60806040523480156200001157600080fd5b506040805180820182526009815268159bdd195c941bdbdb60ba1b602080830191825283518085019094526002845261056560f41b9084015281519192916200005d91600091620003d9565b50805162000073906001906020840190620003d9565b505050600062000088620000e960201b60201c565b600680546001600160a01b0319166001600160a01b038316908117909155604051919250906000907f8be0079c531659141344cd1fd0a4f28419497f9722a3daafe3b4186f6b6457e0908290a350620000e3336001620000ed565b620005e3565b3390565b6200010f8282604051806020016040528060008152506200011360201b60201c565b5050565b6200011f83836200015b565b6200012e6000848484620002a3565b620001565760405162461bcd60e51b81526004016200014d906200052d565b60405180910390fd5b505050565b6001600160a01b038216620001b35760405162461bcd60e51b815260206004820181905260248201527f4552433732313a206d696e7420746f20746865207a65726f206164647265737360448201526064016200014d565b6000818152600260205260409020546001600160a01b0316156200021a5760405162461bcd60e51b815260206004820152601c60248201527f4552433732313a20746f6b656e20616c7265616479206d696e7465640000000060448201526064016200014d565b6001600160a01b0382166000908152600360205260408120805460019290620002459084906200057f565b909155505060008181526002602052604080822080546001600160a01b0319166001600160a01b03861690811790915590518392907fddf252ad1be2c89b69c2b068fc378daa952ba7f163c4a11628f55a4df523b3ef908290a45050565b6000620002c4846001600160a01b0316620003d360201b62000bf81760201c565b15620003c757604051630a85bd0160e11b81526001600160a01b0385169063150b7a0290620002fe903390899088908890600401620004b2565b602060405180830381600087803b1580156200031957600080fd5b505af19250505080156200034c575060408051601f3d908101601f1916820190925262000349918101906200047f565b60015b620003ac573d8080156200037d576040519150601f19603f3d011682016040523d82523d6000602084013e62000382565b606091505b508051620003a45760405162461bcd60e51b81526004016200014d906200052d565b805181602001fd5b6001600160e01b031916630a85bd0160e11b149050620003cb565b5060015b949350505050565b3b151590565b828054620003e790620005a6565b90600052602060002090601f0160209004810192826200040b576000855562000456565b82601f106200042657805160ff191683800117855562000456565b8280016001018555821562000456579182015b828111156200045657825182559160200191906001019062000439565b506200046492915062000468565b5090565b5b8082111562000464576000815560010162000469565b6000602082840312156200049257600080fd5b81516001600160e01b031981168114620004ab57600080fd5b9392505050565b600060018060a01b038087168352602081871681850152856040850152608060608501528451915081608085015260005b82811015620005015785810182015185820160a001528101620004e3565b828111156200051457600060a084870101525b5050601f01601f19169190910160a00195945050505050565b60208082526032908201527f4552433732313a207472616e7366657220746f206e6f6e20455243373231526560408201527131b2b4bb32b91034b6b83632b6b2b73a32b960711b606082015260800190565b60008219821115620005a157634e487b7160e01b600052601160045260246000fd5b500190565b600181811c90821680620005bb57607f821691505b60208210811415620005dd57634e487b7160e01b600052602260045260246000fd5b50919050565b6116a480620005f36000396000f3fe608060405234801561001057600080fd5b50600436106101125760003560e01c806301ffc9a71461011757806306fdde031461013f578063081812fc14610154578063095ea7b31461017f57806313f97ba21461019457806323b872dd146101bd57806338db6dd3146101d057806342842e0e146101e35780634cbe32b8146101f65780636352211e1461020d57806370a0823114610220578063715018a6146102335780637ed177511461023b5780638da5cb5b1461024e57806395d89b4114610256578063a22cb4651461025e578063a2d7e21814610271578063a7771ee314610291578063b88d4fde146102cd578063c87b56dd146102e0578063e985e9c5146102f3578063f2fde38b14610306575b600080fd5b61012a610125366004611317565b610319565b60405190151581526020015b60405180910390f35b61014761036b565b6040516101369190611402565b610167610162366004611351565b6103fd565b6040516001600160a01b039091168152602001610136565b61019261018d3660046112ed565b61048a565b005b6101676101a2366004611351565b6008602052600090815260409020546001600160a01b031681565b6101926101cb36600461119a565b61059b565b6101926101de36600461114c565b6105cc565b6101926101f136600461119a565b610681565b6101ff60075481565b604051908152602001610136565b61016761021b366004611351565b61069c565b6101ff61022e36600461114c565b610713565b61019261079a565b61019261024936600461114c565b610801565b6101676108fd565b61014761090c565b61019261026c3660046112b1565b61091b565b6101ff61027f36600461114c565b60096020526000908152604090205481565b61012a61029f36600461114c565b6001600160a01b03908116600081815260096020908152604080832054835260089091529020549091161490565b6101926102db3660046111d6565b6109dc565b6101476102ee366004611351565b610a14565b61012a610301366004611167565b610aec565b61019261031436600461114c565b610b1a565b60006001600160e01b031982166380ac58cd60e01b148061034a57506001600160e01b03198216635b5e139f60e01b145b8061036557506301ffc9a760e01b6001600160e01b03198316145b92915050565b60606000805461037a90611573565b80601f01602080910402602001604051908101604052809291908181526020018280546103a690611573565b80156103f35780601f106103c8576101008083540402835291602001916103f3565b820191906000526020600020905b8154815290600101906020018083116103d657829003601f168201915b5050505050905090565b600061040882610bfe565b61046e5760405162461bcd60e51b815260206004820152602c60248201527f4552433732313a20617070726f76656420717565727920666f72206e6f6e657860448201526b34b9ba32b73a103a37b5b2b760a11b60648201526084015b60405180910390fd5b506000908152600460205260409020546001600160a01b031690565b60006104958261069c565b9050806001600160a01b0316836001600160a01b031614156105035760405162461bcd60e51b815260206004820152602160248201527f4552433732313a20617070726f76616c20746f2063757272656e74206f776e656044820152603960f91b6064820152608401610465565b336001600160a01b038216148061051f575061051f8133610aec565b61058c5760405162461bcd60e51b815260206004820152603860248201527f4552433732313a20617070726f76652063616c6c6572206973206e6f74206f776044820152771b995c881b9bdc88185c1c1c9bdd995908199bdc88185b1b60421b6064820152608401610465565b6105968383610c1b565b505050565b6105a53382610c89565b6105c15760405162461bcd60e51b81526004016104659061149c565b610596838383610d53565b336105d56108fd565b6001600160a01b0316146105fb5760405162461bcd60e51b815260040161046590611467565b60078054600090815260086020908152604080832080546001600160a01b0319166001600160a01b0387169081179091558454908452600990925282208190559190610646836115ae565b909155506040516001600160a01b038316907ff16ce2c2236e2c6e3df646f80d657bceef4cd7f3a240c47e82adfa17a5f4724190600090a350565b610596838383604051806020016040528060008152506109dc565b6000818152600260205260408120546001600160a01b0316806103655760405162461bcd60e51b815260206004820152602960248201527f4552433732313a206f776e657220717565727920666f72206e6f6e657869737460448201526832b73a103a37b5b2b760b91b6064820152608401610465565b60006001600160a01b03821661077e5760405162461bcd60e51b815260206004820152602a60248201527f4552433732313a2062616c616e636520717565727920666f7220746865207a65604482015269726f206164647265737360b01b6064820152608401610465565b506001600160a01b031660009081526003602052604090205490565b336107a36108fd565b6001600160a01b0316146107c95760405162461bcd60e51b815260040161046590611467565b6006546040516000916001600160a01b03169060008051602061164f833981519152908390a3600680546001600160a01b0319169055565b3361080a6108fd565b6001600160a01b0316146108305760405162461bcd60e51b815260040161046590611467565b6001600160a01b0381166000908152600960205260409020545b6007548110156108b157600860006108638360016114ed565b8152602080820192909252604090810160009081205484825260089093522080546001600160a01b0319166001600160a01b03909216919091179055806108a9816115ae565b91505061084a565b50600780549060006108c28361155c565b909155506040516001600160a01b038316907f78b411a8cf59f03839ed9a669c4c63f73ed091f1aed5762c8e3ff1eae39763a490600090a350565b6006546001600160a01b031690565b60606001805461037a90611573565b6001600160a01b0382163314156109705760405162461bcd60e51b815260206004820152601960248201527822a9219b99189d1030b8383937bb32903a379031b0b63632b960391b6044820152606401610465565b3360008181526005602090815260408083206001600160a01b03871680855290835292819020805460ff191686151590811790915590519081529192917f17307eab39ab6107e8899845ad3d59bd9653f200f220920489ca2b5937696c31910160405180910390a35050565b6109e63383610c89565b610a025760405162461bcd60e51b81526004016104659061149c565b610a0e84848484610ef3565b50505050565b6060610a1f82610bfe565b610a835760405162461bcd60e51b815260206004820152602f60248201527f4552433732314d657461646174613a2055524920717565727920666f72206e6f60448201526e3732bc34b9ba32b73a103a37b5b2b760891b6064820152608401610465565b6000610a9a60408051602081019091526000815290565b90506000815111610aba5760405180602001604052806000815250610ae5565b80610ac484610f26565b604051602001610ad5929190611396565b6040516020818303038152906040525b9392505050565b6001600160a01b03918216600090815260056020908152604080832093909416825291909152205460ff1690565b33610b236108fd565b6001600160a01b031614610b495760405162461bcd60e51b815260040161046590611467565b6001600160a01b038116610bae5760405162461bcd60e51b815260206004820152602660248201527f4f776e61626c653a206e6577206f776e657220697320746865207a65726f206160448201526564647265737360d01b6064820152608401610465565b6006546040516001600160a01b0380841692169060008051602061164f83398151915290600090a3600680546001600160a01b0319166001600160a01b0392909216919091179055565b3b151590565b6000908152600260205260409020546001600160a01b0316151590565b600081815260046020526040902080546001600160a01b0319166001600160a01b0384169081179091558190610c508261069c565b6001600160a01b03167f8c5be1e5ebec7d5bd14f71427d1e84f3dd0314c0f7b2291e5b200ac8c7c3b92560405160405180910390a45050565b6000610c9482610bfe565b610cf55760405162461bcd60e51b815260206004820152602c60248201527f4552433732313a206f70657261746f7220717565727920666f72206e6f6e657860448201526b34b9ba32b73a103a37b5b2b760a11b6064820152608401610465565b6000610d008361069c565b9050806001600160a01b0316846001600160a01b03161480610d3b5750836001600160a01b0316610d30846103fd565b6001600160a01b0316145b80610d4b5750610d4b8185610aec565b949350505050565b826001600160a01b0316610d668261069c565b6001600160a01b031614610dce5760405162461bcd60e51b815260206004820152602960248201527f4552433732313a207472616e73666572206f6620746f6b656e2074686174206960448201526839903737ba1037bbb760b91b6064820152608401610465565b6001600160a01b038216610e305760405162461bcd60e51b8152602060048201526024808201527f4552433732313a207472616e7366657220746f20746865207a65726f206164646044820152637265737360e01b6064820152608401610465565b610e3b600082610c1b565b6001600160a01b0383166000908152600360205260408120805460019290610e64908490611519565b90915550506001600160a01b0382166000908152600360205260408120805460019290610e929084906114ed565b909155505060008181526002602052604080822080546001600160a01b0319166001600160a01b0386811691821790925591518493918716917fddf252ad1be2c89b69c2b068fc378daa952ba7f163c4a11628f55a4df523b3ef91a4505050565b610efe848484610d53565b610f0a84848484611023565b610a0e5760405162461bcd60e51b815260040161046590611415565b606081610f4a5750506040805180820190915260018152600360fc1b602082015290565b8160005b8115610f745780610f5e816115ae565b9150610f6d9050600a83611505565b9150610f4e565b6000816001600160401b03811115610f8e57610f8e61161f565b6040519080825280601f01601f191660200182016040528015610fb8576020820181803683370190505b5090505b8415610d4b57610fcd600183611519565b9150610fda600a866115c9565b610fe59060306114ed565b60f81b818381518110610ffa57610ffa611609565b60200101906001600160f81b031916908160001a90535061101c600a86611505565b9450610fbc565b60006001600160a01b0384163b1561112557604051630a85bd0160e11b81526001600160a01b0385169063150b7a02906110679033908990889088906004016113c5565b602060405180830381600087803b15801561108157600080fd5b505af19250505080156110b1575060408051601f3d908101601f191682019092526110ae91810190611334565b60015b61110b573d8080156110df576040519150601f19603f3d011682016040523d82523d6000602084013e6110e4565b606091505b5080516111035760405162461bcd60e51b815260040161046590611415565b805181602001fd5b6001600160e01b031916630a85bd0160e11b149050610d4b565b506001949350505050565b80356001600160a01b038116811461114757600080fd5b919050565b60006020828403121561115e57600080fd5b610ae582611130565b6000806040838503121561117a57600080fd5b61118383611130565b915061119160208401611130565b90509250929050565b6000806000606084860312156111af57600080fd5b6111b884611130565b92506111c660208501611130565b9150604084013590509250925092565b600080600080608085870312156111ec57600080fd5b6111f585611130565b935061120360208601611130565b92506040850135915060608501356001600160401b038082111561122657600080fd5b818701915087601f83011261123a57600080fd5b81358181111561124c5761124c61161f565b604051601f8201601f19908116603f011681019083821181831017156112745761127461161f565b816040528281528a602084870101111561128d57600080fd5b82602086016020830137600060208483010152809550505050505092959194509250565b600080604083850312156112c457600080fd5b6112cd83611130565b9150602083013580151581146112e257600080fd5b809150509250929050565b6000806040838503121561130057600080fd5b61130983611130565b946020939093013593505050565b60006020828403121561132957600080fd5b8135610ae581611635565b60006020828403121561134657600080fd5b8151610ae581611635565b60006020828403121561136357600080fd5b5035919050565b60008151808452611382816020860160208601611530565b601f01601f19169290920160200192915050565b600083516113a8818460208801611530565b8351908301906113bc818360208801611530565b01949350505050565b6001600160a01b03858116825284166020820152604081018390526080606082018190526000906113f89083018461136a565b9695505050505050565b602081526000610ae5602083018461136a565b60208082526032908201527f4552433732313a207472616e7366657220746f206e6f6e20455243373231526560408201527131b2b4bb32b91034b6b83632b6b2b73a32b960711b606082015260800190565b6020808252818101527f4f776e61626c653a2063616c6c6572206973206e6f7420746865206f776e6572604082015260600190565b60208082526031908201527f4552433732313a207472616e736665722063616c6c6572206973206e6f74206f6040820152701ddb995c881b9bdc88185c1c1c9bdd9959607a1b606082015260800190565b60008219821115611500576115006115dd565b500190565b600082611514576115146115f3565b500490565b60008282101561152b5761152b6115dd565b500390565b60005b8381101561154b578181015183820152602001611533565b83811115610a0e5750506000910152565b60008161156b5761156b6115dd565b506000190190565b600181811c9082168061158757607f821691505b602082108114156115a857634e487b7160e01b600052602260045260246000fd5b50919050565b60006000198214156115c2576115c26115dd565b5060010190565b6000826115d8576115d86115f3565b500690565b634e487b7160e01b600052601160045260246000fd5b634e487b7160e01b600052601260045260246000fd5b634e487b7160e01b600052603260045260246000fd5b634e487b7160e01b600052604160045260246000fd5b6001600160e01b03198116811461164b57600080fd5b5056fe8be0079c531659141344cd1fd0a4f28419497f9722a3daafe3b4186f6b6457e0a26469706673582212206081187e6c6a939423bce10f86f3bd847616a7cc2130ccffce70eef9e24efd1c64736f6c63430008060033",
  "immutableReferences": {},
  "source": "//SPDX-License-Identifier: MIT\npragma solidity ^0.8.0;\n\nimport \"@openzeppelin/contracts/token/ERC721/ERC721.sol\";\nimport \"@openzeppelin/contracts/access/Ownable.sol\";\n\ncontract VoterPool is ERC721, Ownable {\n\n    uint256 public numVoters;\n    mapping(uint256 => address) public voterRegistrations;\n    mapping(address => uint256) public voterRegistrationIndexes;\n\n    constructor() ERC721(\"VoterPool\", \"VP\") {\n        _safeMint(msg.sender, 1);\n    }\n\n    function registerVoter(address voter) public onlyOwner {\n        voterRegistrations[numVoters] = voter;\n        voterRegistrationIndexes[voter] = numVoters;\n        emit VoterRegistered(voter, numVoters++);\n    }\n\n    function unregisterVoter(address voter) public onlyOwner {\n        //TODO: get rid of loop\n        //update voter registration for all voters after unregistered index\n        for (uint256 i = voterRegistrationIndexes[voter]; i < numVoters; i++) {\n            voterRegistrations[i] = voterRegistrations[i + 1]; //last iteration will copy an uninitialized address\n        }\n\n        emit VoterUnregistered(voter, numVoters--);\n    }\n\n    function isVoter(address voter) public virtual returns (bool){\n        uint256 index = voterRegistrationIndexes[voter];\n        return voterRegistrations[index] == voter;\n    }\n\n    event VoterRegistered (\n        address indexed voter,\n        uint256 indexed voterNum\n    );\n\n    event VoterUnregistered (\n        address indexed voter,\n        uint256 indexed voterNum\n    );\n}\n",
  "sourcePath": "/Users/tjharrison/catanstitution/contracts/open-orgs-v2/VoterPool.sol",
  "compiler": {
    "name": "solc",
    "version": "0.8.6+commit.11564f7e.Emscripten.clang"
  },
  "schemaVersion": "3.4.1",
  "updatedAt": "2021-07-10T17:26:07.576Z",
  "devdoc": {
    "kind": "dev",
    "methods": {
      "approve(address,uint256)": {
        "details": "See {IERC721-approve}."
      },
      "balanceOf(address)": {
        "details": "See {IERC721-balanceOf}."
      },
      "getApproved(uint256)": {
        "details": "See {IERC721-getApproved}."
      },
      "isApprovedForAll(address,address)": {
        "details": "See {IERC721-isApprovedForAll}."
      },
      "name()": {
        "details": "See {IERC721Metadata-name}."
      },
      "owner()": {
        "details": "Returns the address of the current owner."
      },
      "ownerOf(uint256)": {
        "details": "See {IERC721-ownerOf}."
      },
      "renounceOwnership()": {
        "details": "Leaves the contract without owner. It will not be possible to call `onlyOwner` functions anymore. Can only be called by the current owner. NOTE: Renouncing ownership will leave the contract without an owner, thereby removing any functionality that is only available to the owner."
      },
      "safeTransferFrom(address,address,uint256)": {
        "details": "See {IERC721-safeTransferFrom}."
      },
      "safeTransferFrom(address,address,uint256,bytes)": {
        "details": "See {IERC721-safeTransferFrom}."
      },
      "setApprovalForAll(address,bool)": {
        "details": "See {IERC721-setApprovalForAll}."
      },
      "supportsInterface(bytes4)": {
        "details": "See {IERC165-supportsInterface}."
      },
      "symbol()": {
        "details": "See {IERC721Metadata-symbol}."
      },
      "tokenURI(uint256)": {
        "details": "See {IERC721Metadata-tokenURI}."
      },
      "transferFrom(address,address,uint256)": {
        "details": "See {IERC721-transferFrom}."
      },
      "transferOwnership(address)": {
        "details": "Transfers ownership of the contract to a new account (`newOwner`). Can only be called by the current owner."
      }
    },
    "version": 1
  },
  "userdoc": {
    "kind": "user",
    "methods": {},
    "version": 1
  }
}