{
  "contractName": "VoterPool",
  "abi": [
    {
      "anonymous": false,
      "inputs": [
        {
          "indexed": true,
          "internalType": "address",
          "name": "owner",
          "type": "address"
        },
        {
          "indexed": true,
          "internalType": "address",
          "name": "approved",
          "type": "address"
        },
        {
          "indexed": true,
          "internalType": "uint256",
          "name": "tokenId",
          "type": "uint256"
        }
      ],
      "name": "Approval",
      "type": "event"
    },
    {
      "anonymous": false,
      "inputs": [
        {
          "indexed": true,
          "internalType": "address",
          "name": "owner",
          "type": "address"
        },
        {
          "indexed": true,
          "internalType": "address",
          "name": "operator",
          "type": "address"
        },
        {
          "indexed": false,
          "internalType": "bool",
          "name": "approved",
          "type": "bool"
        }
      ],
      "name": "ApprovalForAll",
      "type": "event"
    },
    {
      "anonymous": false,
      "inputs": [
        {
          "indexed": true,
          "internalType": "address",
          "name": "previousOwner",
          "type": "address"
        },
        {
          "indexed": true,
          "internalType": "address",
          "name": "newOwner",
          "type": "address"
        }
      ],
      "name": "OwnershipTransferred",
      "type": "event"
    },
    {
      "anonymous": false,
      "inputs": [
        {
          "indexed": true,
          "internalType": "address",
          "name": "from",
          "type": "address"
        },
        {
          "indexed": true,
          "internalType": "address",
          "name": "to",
          "type": "address"
        },
        {
          "indexed": true,
          "internalType": "uint256",
          "name": "tokenId",
          "type": "uint256"
        }
      ],
      "name": "Transfer",
      "type": "event"
    },
    {
      "anonymous": false,
      "inputs": [
        {
          "indexed": true,
          "internalType": "address",
          "name": "voter",
          "type": "address"
        },
        {
          "indexed": true,
          "internalType": "uint256",
          "name": "voterNum",
          "type": "uint256"
        }
      ],
      "name": "VoterRegistered",
      "type": "event"
    },
    {
      "anonymous": false,
      "inputs": [
        {
          "indexed": true,
          "internalType": "address",
          "name": "voter",
          "type": "address"
        },
        {
          "indexed": true,
          "internalType": "uint256",
          "name": "voterNum",
          "type": "uint256"
        }
      ],
      "name": "VoterUnregistered",
      "type": "event"
    },
    {
      "inputs": [
        {
          "internalType": "address",
          "name": "to",
          "type": "address"
        },
        {
          "internalType": "uint256",
          "name": "tokenId",
          "type": "uint256"
        }
      ],
      "name": "approve",
      "outputs": [],
      "stateMutability": "nonpayable",
      "type": "function"
    },
    {
      "inputs": [
        {
          "internalType": "address",
          "name": "owner",
          "type": "address"
        }
      ],
      "name": "balanceOf",
      "outputs": [
        {
          "internalType": "uint256",
          "name": "",
          "type": "uint256"
        }
      ],
      "stateMutability": "view",
      "type": "function",
      "constant": true
    },
    {
      "inputs": [
        {
          "internalType": "uint256",
          "name": "tokenId",
          "type": "uint256"
        }
      ],
      "name": "getApproved",
      "outputs": [
        {
          "internalType": "address",
          "name": "",
          "type": "address"
        }
      ],
      "stateMutability": "view",
      "type": "function",
      "constant": true
    },
    {
      "inputs": [
        {
          "internalType": "address",
          "name": "owner",
          "type": "address"
        },
        {
          "internalType": "address",
          "name": "operator",
          "type": "address"
        }
      ],
      "name": "isApprovedForAll",
      "outputs": [
        {
          "internalType": "bool",
          "name": "",
          "type": "bool"
        }
      ],
      "stateMutability": "view",
      "type": "function",
      "constant": true
    },
    {
      "inputs": [],
      "name": "name",
      "outputs": [
        {
          "internalType": "string",
          "name": "",
          "type": "string"
        }
      ],
      "stateMutability": "view",
      "type": "function",
      "constant": true
    },
    {
      "inputs": [],
      "name": "numVoters",
      "outputs": [
        {
          "internalType": "uint256",
          "name": "",
          "type": "uint256"
        }
      ],
      "stateMutability": "view",
      "type": "function",
      "constant": true
    },
    {
      "inputs": [],
      "name": "owner",
      "outputs": [
        {
          "internalType": "address",
          "name": "",
          "type": "address"
        }
      ],
      "stateMutability": "view",
      "type": "function",
      "constant": true
    },
    {
      "inputs": [
        {
          "internalType": "uint256",
          "name": "tokenId",
          "type": "uint256"
        }
      ],
      "name": "ownerOf",
      "outputs": [
        {
          "internalType": "address",
          "name": "",
          "type": "address"
        }
      ],
      "stateMutability": "view",
      "type": "function",
      "constant": true
    },
    {
      "inputs": [],
      "name": "renounceOwnership",
      "outputs": [],
      "stateMutability": "nonpayable",
      "type": "function"
    },
    {
      "inputs": [
        {
          "internalType": "address",
          "name": "from",
          "type": "address"
        },
        {
          "internalType": "address",
          "name": "to",
          "type": "address"
        },
        {
          "internalType": "uint256",
          "name": "tokenId",
          "type": "uint256"
        }
      ],
      "name": "safeTransferFrom",
      "outputs": [],
      "stateMutability": "nonpayable",
      "type": "function"
    },
    {
      "inputs": [
        {
          "internalType": "address",
          "name": "from",
          "type": "address"
        },
        {
          "internalType": "address",
          "name": "to",
          "type": "address"
        },
        {
          "internalType": "uint256",
          "name": "tokenId",
          "type": "uint256"
        },
        {
          "internalType": "bytes",
          "name": "_data",
          "type": "bytes"
        }
      ],
      "name": "safeTransferFrom",
      "outputs": [],
      "stateMutability": "nonpayable",
      "type": "function"
    },
    {
      "inputs": [
        {
          "internalType": "address",
          "name": "operator",
          "type": "address"
        },
        {
          "internalType": "bool",
          "name": "approved",
          "type": "bool"
        }
      ],
      "name": "setApprovalForAll",
      "outputs": [],
      "stateMutability": "nonpayable",
      "type": "function"
    },
    {
      "inputs": [
        {
          "internalType": "bytes4",
          "name": "interfaceId",
          "type": "bytes4"
        }
      ],
      "name": "supportsInterface",
      "outputs": [
        {
          "internalType": "bool",
          "name": "",
          "type": "bool"
        }
      ],
      "stateMutability": "view",
      "type": "function",
      "constant": true
    },
    {
      "inputs": [],
      "name": "symbol",
      "outputs": [
        {
          "internalType": "string",
          "name": "",
          "type": "string"
        }
      ],
      "stateMutability": "view",
      "type": "function",
      "constant": true
    },
    {
      "inputs": [
        {
          "internalType": "uint256",
          "name": "tokenId",
          "type": "uint256"
        }
      ],
      "name": "tokenURI",
      "outputs": [
        {
          "internalType": "string",
          "name": "",
          "type": "string"
        }
      ],
      "stateMutability": "view",
      "type": "function",
      "constant": true
    },
    {
      "inputs": [
        {
          "internalType": "address",
          "name": "from",
          "type": "address"
        },
        {
          "internalType": "address",
          "name": "to",
          "type": "address"
        },
        {
          "internalType": "uint256",
          "name": "tokenId",
          "type": "uint256"
        }
      ],
      "name": "transferFrom",
      "outputs": [],
      "stateMutability": "nonpayable",
      "type": "function"
    },
    {
      "inputs": [
        {
          "internalType": "address",
          "name": "newOwner",
          "type": "address"
        }
      ],
      "name": "transferOwnership",
      "outputs": [],
      "stateMutability": "nonpayable",
      "type": "function"
    },
    {
      "inputs": [
        {
          "internalType": "address",
          "name": "",
          "type": "address"
        }
      ],
      "name": "voterRegistrationIndexes",
      "outputs": [
        {
          "internalType": "uint256",
          "name": "",
          "type": "uint256"
        }
      ],
      "stateMutability": "view",
      "type": "function",
      "constant": true
    },
    {
      "inputs": [
        {
          "internalType": "uint256",
          "name": "",
          "type": "uint256"
        }
      ],
      "name": "voterRegistrations",
      "outputs": [
        {
          "internalType": "address",
          "name": "",
          "type": "address"
        }
      ],
      "stateMutability": "view",
      "type": "function",
      "constant": true
    },
    {
      "inputs": [],
      "name": "initialize",
      "outputs": [],
      "stateMutability": "nonpayable",
      "type": "function"
    },
    {
      "inputs": [
        {
          "internalType": "address",
          "name": "voter",
          "type": "address"
        }
      ],
      "name": "registerVoter",
      "outputs": [],
      "stateMutability": "nonpayable",
      "type": "function"
    },
    {
      "inputs": [
        {
          "internalType": "address",
          "name": "voter",
          "type": "address"
        }
      ],
      "name": "unregisterVoter",
      "outputs": [],
      "stateMutability": "nonpayable",
      "type": "function"
    },
    {
      "inputs": [
        {
          "internalType": "address",
          "name": "voter",
          "type": "address"
        }
      ],
      "name": "isVoter",
      "outputs": [
        {
          "internalType": "bool",
          "name": "",
          "type": "bool"
        }
      ],
      "stateMutability": "nonpayable",
      "type": "function"
    }
  ],
  "bytecode": "0x608060405234801561001057600080fd5b50611b27806100206000396000f3fe608060405234801561001057600080fd5b506004361061011d5760003560e01c806301ffc9a71461012257806306fdde031461014a578063081812fc1461015f578063095ea7b31461018a57806313f97ba21461019f57806323b872dd146101c857806338db6dd3146101db57806342842e0e146101ee5780634cbe32b8146102015780636352211e1461021857806370a082311461022b578063715018a61461023e5780637ed17751146102465780638129fc1c146102595780638da5cb5b1461026157806395d89b4114610269578063a22cb46514610271578063a2d7e21814610284578063a7771ee3146102a4578063b88d4fde146102e0578063c87b56dd146102f3578063e985e9c514610306578063f2fde38b14610319575b600080fd5b61013561013036600461172f565b61032c565b60405190151581526020015b60405180910390f35b61015261037e565b604051610141919061181a565b61017261016d366004611769565b610410565b6040516001600160a01b039091168152602001610141565b61019d610198366004611705565b61049d565b005b6101726101ad366004611769565b60ca602052600090815260409020546001600160a01b031681565b61019d6101d63660046115b2565b6105ae565b61019d6101e9366004611564565b6105df565b61019d6101fc3660046115b2565b610665565b61020a60c95481565b604051908152602001610141565b610172610226366004611769565b610680565b61020a610239366004611564565b6106f7565b61019d61077e565b61019d610254366004611564565b6107e5565b61019d6108e1565b61017261099d565b6101526109ac565b61019d61027f3660046116c9565b6109bb565b61020a610292366004611564565b60cb6020526000908152604090205481565b6101356102b2366004611564565b6001600160a01b03908116600081815260cb6020908152604080832054835260ca9091529020549091161490565b61019d6102ee3660046115ee565b610a7c565b610152610301366004611769565b610ab4565b61013561031436600461157f565b610b8c565b61019d610327366004611564565b610bba565b60006001600160e01b031982166380ac58cd60e01b148061035d57506001600160e01b03198216635b5e139f60e01b145b8061037857506301ffc9a760e01b6001600160e01b03198316145b92915050565b60606065805461038d906119d9565b80601f01602080910402602001604051908101604052809291908181526020018280546103b9906119d9565b80156104065780601f106103db57610100808354040283529160200191610406565b820191906000526020600020905b8154815290600101906020018083116103e957829003601f168201915b5050505050905090565b600061041b82610c98565b6104815760405162461bcd60e51b815260206004820152602c60248201527f4552433732313a20617070726f76656420717565727920666f72206e6f6e657860448201526b34b9ba32b73a103a37b5b2b760a11b60648201526084015b60405180910390fd5b506000908152606960205260409020546001600160a01b031690565b60006104a882610680565b9050806001600160a01b0316836001600160a01b031614156105165760405162461bcd60e51b815260206004820152602160248201527f4552433732313a20617070726f76616c20746f2063757272656e74206f776e656044820152603960f91b6064820152608401610478565b336001600160a01b038216148061053257506105328133610b8c565b61059f5760405162461bcd60e51b815260206004820152603860248201527f4552433732313a20617070726f76652063616c6c6572206973206e6f74206f776044820152771b995c881b9bdc88185c1c1c9bdd995908199bdc88185b1b60421b6064820152608401610478565b6105a98383610cb5565b505050565b6105b83382610d23565b6105d45760405162461bcd60e51b815260040161047890611902565b6105a9838383610ded565b60c98054600090815260ca6020908152604080832080546001600160a01b0319166001600160a01b038716908117909155845490845260cb9092528220819055919061062a83611a14565b909155506040516001600160a01b038316907ff16ce2c2236e2c6e3df646f80d657bceef4cd7f3a240c47e82adfa17a5f4724190600090a350565b6105a983838360405180602001604052806000815250610a7c565b6000818152606760205260408120546001600160a01b0316806103785760405162461bcd60e51b815260206004820152602960248201527f4552433732313a206f776e657220717565727920666f72206e6f6e657869737460448201526832b73a103a37b5b2b760b91b6064820152608401610478565b60006001600160a01b0382166107625760405162461bcd60e51b815260206004820152602a60248201527f4552433732313a2062616c616e636520717565727920666f7220746865207a65604482015269726f206164647265737360b01b6064820152608401610478565b506001600160a01b031660009081526068602052604090205490565b3361078761099d565b6001600160a01b0316146107ad5760405162461bcd60e51b8152600401610478906118cd565b6097546040516000916001600160a01b031690600080516020611ab2833981519152908390a3609780546001600160a01b0319169055565b336107ee61099d565b6001600160a01b0316146108145760405162461bcd60e51b8152600401610478906118cd565b6001600160a01b038116600090815260cb60205260409020545b60c9548110156108955760ca6000610847836001611953565b8152602080820192909252604090810160009081205484825260ca9093522080546001600160a01b0319166001600160a01b039092169190911790558061088d81611a14565b91505061082e565b5060c980549060006108a6836119c2565b909155506040516001600160a01b038316907f78b411a8cf59f03839ed9a669c4c63f73ed091f1aed5762c8e3ff1eae39763a490600090a350565b600054610100900460ff16806108fa575060005460ff16155b6109165760405162461bcd60e51b81526004016104789061187f565b600054610100900460ff16158015610938576000805461ffff19166101011790555b61097d60405180604001604052806009815260200168159bdd195c941bdbdb60ba1b81525060405180604001604052806002815260200161056560f41b815250610f7b565b610988336001611002565b801561099a576000805461ff00191690555b50565b6097546001600160a01b031690565b60606066805461038d906119d9565b6001600160a01b038216331415610a105760405162461bcd60e51b815260206004820152601960248201527822a9219b99189d1030b8383937bb32903a379031b0b63632b960391b6044820152606401610478565b336000818152606a602090815260408083206001600160a01b03871680855290835292819020805460ff191686151590811790915590519081529192917f17307eab39ab6107e8899845ad3d59bd9653f200f220920489ca2b5937696c31910160405180910390a35050565b610a863383610d23565b610aa25760405162461bcd60e51b815260040161047890611902565b610aae84848484611020565b50505050565b6060610abf82610c98565b610b235760405162461bcd60e51b815260206004820152602f60248201527f4552433732314d657461646174613a2055524920717565727920666f72206e6f60448201526e3732bc34b9ba32b73a103a37b5b2b760891b6064820152608401610478565b6000610b3a60408051602081019091526000815290565b90506000815111610b5a5760405180602001604052806000815250610b85565b80610b6484611053565b604051602001610b759291906117ae565b6040516020818303038152906040525b9392505050565b6001600160a01b039182166000908152606a6020908152604080832093909416825291909152205460ff1690565b33610bc361099d565b6001600160a01b031614610be95760405162461bcd60e51b8152600401610478906118cd565b6001600160a01b038116610c4e5760405162461bcd60e51b815260206004820152602660248201527f4f776e61626c653a206e6577206f776e657220697320746865207a65726f206160448201526564647265737360d01b6064820152608401610478565b6097546040516001600160a01b03808416921690600080516020611ab283398151915290600090a3609780546001600160a01b0319166001600160a01b0392909216919091179055565b6000908152606760205260409020546001600160a01b0316151590565b600081815260696020526040902080546001600160a01b0319166001600160a01b0384169081179091558190610cea82610680565b6001600160a01b03167f8c5be1e5ebec7d5bd14f71427d1e84f3dd0314c0f7b2291e5b200ac8c7c3b92560405160405180910390a45050565b6000610d2e82610c98565b610d8f5760405162461bcd60e51b815260206004820152602c60248201527f4552433732313a206f70657261746f7220717565727920666f72206e6f6e657860448201526b34b9ba32b73a103a37b5b2b760a11b6064820152608401610478565b6000610d9a83610680565b9050806001600160a01b0316846001600160a01b03161480610dd55750836001600160a01b0316610dca84610410565b6001600160a01b0316145b80610de55750610de58185610b8c565b949350505050565b826001600160a01b0316610e0082610680565b6001600160a01b031614610e685760405162461bcd60e51b815260206004820152602960248201527f4552433732313a207472616e73666572206f6620746f6b656e2074686174206960448201526839903737ba1037bbb760b91b6064820152608401610478565b6001600160a01b038216610eca5760405162461bcd60e51b8152602060048201526024808201527f4552433732313a207472616e7366657220746f20746865207a65726f206164646044820152637265737360e01b6064820152608401610478565b610ed5600082610cb5565b6001600160a01b0383166000908152606860205260408120805460019290610efe90849061197f565b90915550506001600160a01b0382166000908152606860205260408120805460019290610f2c908490611953565b909155505060008181526067602052604080822080546001600160a01b0319166001600160a01b038681169182179092559151849391871691600080516020611ad283398151915291a4505050565b600054610100900460ff1680610f94575060005460ff16155b610fb05760405162461bcd60e51b81526004016104789061187f565b600054610100900460ff16158015610fd2576000805461ffff19166101011790555b610fda611150565b610fe2611150565b610fec83836111ba565b80156105a9576000805461ff0019169055505050565b61101c82826040518060200160405280600081525061124f565b5050565b61102b848484610ded565b61103784848484611282565b610aae5760405162461bcd60e51b81526004016104789061182d565b6060816110775750506040805180820190915260018152600360fc1b602082015290565b8160005b81156110a1578061108b81611a14565b915061109a9050600a8361196b565b915061107b565b6000816001600160401b038111156110bb576110bb611a85565b6040519080825280601f01601f1916602001820160405280156110e5576020820181803683370190505b5090505b8415610de5576110fa60018361197f565b9150611107600a86611a2f565b611112906030611953565b60f81b81838151811061112757611127611a6f565b60200101906001600160f81b031916908160001a905350611149600a8661196b565b94506110e9565b600054610100900460ff1680611169575060005460ff16155b6111855760405162461bcd60e51b81526004016104789061187f565b600054610100900460ff16158015610988576000805461ffff1916610101179055801561099a576000805461ff001916905550565b600054610100900460ff16806111d3575060005460ff16155b6111ef5760405162461bcd60e51b81526004016104789061187f565b600054610100900460ff16158015611211576000805461ffff19166101011790555b82516112249060659060208601906114af565b5081516112389060669060208501906114af565b5080156105a9576000805461ff0019169055505050565b611259838361138f565b6112666000848484611282565b6105a95760405162461bcd60e51b81526004016104789061182d565b60006001600160a01b0384163b1561138457604051630a85bd0160e11b81526001600160a01b0385169063150b7a02906112c69033908990889088906004016117dd565b602060405180830381600087803b1580156112e057600080fd5b505af1925050508015611310575060408051601f3d908101601f1916820190925261130d9181019061174c565b60015b61136a573d80801561133e576040519150601f19603f3d011682016040523d82523d6000602084013e611343565b606091505b5080516113625760405162461bcd60e51b81526004016104789061182d565b805181602001fd5b6001600160e01b031916630a85bd0160e11b149050610de5565b506001949350505050565b6001600160a01b0382166113e55760405162461bcd60e51b815260206004820181905260248201527f4552433732313a206d696e7420746f20746865207a65726f20616464726573736044820152606401610478565b6113ee81610c98565b1561143a5760405162461bcd60e51b815260206004820152601c60248201527b115490cdcc8c4e881d1bdad95b88185b1c9958591e481b5a5b9d195960221b6044820152606401610478565b6001600160a01b0382166000908152606860205260408120805460019290611463908490611953565b909155505060008181526067602052604080822080546001600160a01b0319166001600160a01b0386169081179091559051839290600080516020611ad2833981519152908290a45050565b8280546114bb906119d9565b90600052602060002090601f0160209004810192826114dd5760008555611523565b82601f106114f657805160ff1916838001178555611523565b82800160010185558215611523579182015b82811115611523578251825591602001919060010190611508565b5061152f929150611533565b5090565b5b8082111561152f5760008155600101611534565b80356001600160a01b038116811461155f57600080fd5b919050565b60006020828403121561157657600080fd5b610b8582611548565b6000806040838503121561159257600080fd5b61159b83611548565b91506115a960208401611548565b90509250929050565b6000806000606084860312156115c757600080fd5b6115d084611548565b92506115de60208501611548565b9150604084013590509250925092565b6000806000806080858703121561160457600080fd5b61160d85611548565b935061161b60208601611548565b92506040850135915060608501356001600160401b038082111561163e57600080fd5b818701915087601f83011261165257600080fd5b81358181111561166457611664611a85565b604051601f8201601f19908116603f0116810190838211818310171561168c5761168c611a85565b816040528281528a60208487010111156116a557600080fd5b82602086016020830137600060208483010152809550505050505092959194509250565b600080604083850312156116dc57600080fd5b6116e583611548565b9150602083013580151581146116fa57600080fd5b809150509250929050565b6000806040838503121561171857600080fd5b61172183611548565b946020939093013593505050565b60006020828403121561174157600080fd5b8135610b8581611a9b565b60006020828403121561175e57600080fd5b8151610b8581611a9b565b60006020828403121561177b57600080fd5b5035919050565b6000815180845261179a816020860160208601611996565b601f01601f19169290920160200192915050565b600083516117c0818460208801611996565b8351908301906117d4818360208801611996565b01949350505050565b6001600160a01b038581168252841660208201526040810183905260806060820181905260009061181090830184611782565b9695505050505050565b602081526000610b856020830184611782565b60208082526032908201527f4552433732313a207472616e7366657220746f206e6f6e20455243373231526560408201527131b2b4bb32b91034b6b83632b6b2b73a32b960711b606082015260800190565b6020808252602e908201527f496e697469616c697a61626c653a20636f6e747261637420697320616c72656160408201526d191e481a5b9a5d1a585b1a5e995960921b606082015260800190565b6020808252818101527f4f776e61626c653a2063616c6c6572206973206e6f7420746865206f776e6572604082015260600190565b60208082526031908201527f4552433732313a207472616e736665722063616c6c6572206973206e6f74206f6040820152701ddb995c881b9bdc88185c1c1c9bdd9959607a1b606082015260800190565b6000821982111561196657611966611a43565b500190565b60008261197a5761197a611a59565b500490565b60008282101561199157611991611a43565b500390565b60005b838110156119b1578181015183820152602001611999565b83811115610aae5750506000910152565b6000816119d1576119d1611a43565b506000190190565b600181811c908216806119ed57607f821691505b60208210811415611a0e57634e487b7160e01b600052602260045260246000fd5b50919050565b6000600019821415611a2857611a28611a43565b5060010190565b600082611a3e57611a3e611a59565b500690565b634e487b7160e01b600052601160045260246000fd5b634e487b7160e01b600052601260045260246000fd5b634e487b7160e01b600052603260045260246000fd5b634e487b7160e01b600052604160045260246000fd5b6001600160e01b03198116811461099a57600080fdfe8be0079c531659141344cd1fd0a4f28419497f9722a3daafe3b4186f6b6457e0ddf252ad1be2c89b69c2b068fc378daa952ba7f163c4a11628f55a4df523b3efa2646970667358221220651a5d848689c53c38a1f9993a6af81b2d87afb157549a5d302db5846be60fef64736f6c63430008060033",
  "immutableReferences": {},
  "source": "//SPDX-License-Identifier: MIT\npragma solidity ^0.8.0;\n\nimport \"@openzeppelin/contracts-upgradeable/token/ERC721/ERC721Upgradeable.sol\";\nimport \"@openzeppelin/contracts-upgradeable/access/OwnableUpgradeable.sol\";\n\ncontract VoterPool is ERC721Upgradeable, OwnableUpgradeable {\n\n    uint256 public numVoters;\n    mapping(uint256 => address) public voterRegistrations;\n    mapping(address => uint256) public voterRegistrationIndexes;\n\n    function initialize() public initializer {\n        ERC721Upgradeable.__ERC721_init(\"VoterPool\", \"VP\");\n        _safeMint(msg.sender, 1);\n    }\n\n    //TODO: permissions\n    function registerVoter(address voter) public {\n        voterRegistrations[numVoters] = voter;\n        voterRegistrationIndexes[voter] = numVoters;\n        emit VoterRegistered(voter, numVoters++);\n    }\n\n    function unregisterVoter(address voter) public onlyOwner {\n        //TODO: get rid of loop\n        //update voter registration for all voters after unregistered index\n        for (uint256 i = voterRegistrationIndexes[voter]; i < numVoters; i++) {\n            voterRegistrations[i] = voterRegistrations[i + 1]; //last iteration will copy an uninitialized address\n        }\n\n        emit VoterUnregistered(voter, numVoters--);\n    }\n\n    function isVoter(address voter) public virtual returns (bool){\n        uint256 index = voterRegistrationIndexes[voter];\n        return voterRegistrations[index] == voter;\n    }\n\n    event VoterRegistered (\n        address indexed voter,\n        uint256 indexed voterNum\n    );\n\n    event VoterUnregistered (\n        address indexed voter,\n        uint256 indexed voterNum\n    );\n}\n",
  "sourcePath": "/Users/tjharrison/he/catanstitution/contracts/open-orgs/VoterPool.sol",
  "compiler": {
    "name": "solc",
    "version": "0.8.6+commit.11564f7e.Emscripten.clang"
  },
  "schemaVersion": "3.4.1",
  "updatedAt": "2021-07-11T18:05:51.558Z",
  "networkType": "ethereum",
  "devdoc": {
    "kind": "dev",
    "methods": {
      "approve(address,uint256)": {
        "details": "See {IERC721-approve}."
      },
      "balanceOf(address)": {
        "details": "See {IERC721-balanceOf}."
      },
      "getApproved(uint256)": {
        "details": "See {IERC721-getApproved}."
      },
      "isApprovedForAll(address,address)": {
        "details": "See {IERC721-isApprovedForAll}."
      },
      "name()": {
        "details": "See {IERC721Metadata-name}."
      },
      "owner()": {
        "details": "Returns the address of the current owner."
      },
      "ownerOf(uint256)": {
        "details": "See {IERC721-ownerOf}."
      },
      "renounceOwnership()": {
        "details": "Leaves the contract without owner. It will not be possible to call `onlyOwner` functions anymore. Can only be called by the current owner. NOTE: Renouncing ownership will leave the contract without an owner, thereby removing any functionality that is only available to the owner."
      },
      "safeTransferFrom(address,address,uint256)": {
        "details": "See {IERC721-safeTransferFrom}."
      },
      "safeTransferFrom(address,address,uint256,bytes)": {
        "details": "See {IERC721-safeTransferFrom}."
      },
      "setApprovalForAll(address,bool)": {
        "details": "See {IERC721-setApprovalForAll}."
      },
      "supportsInterface(bytes4)": {
        "details": "See {IERC165-supportsInterface}."
      },
      "symbol()": {
        "details": "See {IERC721Metadata-symbol}."
      },
      "tokenURI(uint256)": {
        "details": "See {IERC721Metadata-tokenURI}."
      },
      "transferFrom(address,address,uint256)": {
        "details": "See {IERC721-transferFrom}."
      },
      "transferOwnership(address)": {
        "details": "Transfers ownership of the contract to a new account (`newOwner`). Can only be called by the current owner."
      }
    },
    "version": 1
  },
  "userdoc": {
    "kind": "user",
    "methods": {},
    "version": 1
  }
}